{
	"GreenCreditToken.sol": {
		"GreenCreditToken": {
			"abi": [
				{
					"inputs": [
						{
							"internalType": "uint256",
							"name": "initTokenPrice",
							"type": "uint256"
						}
					],
					"stateMutability": "nonpayable",
					"type": "constructor"
				},
				{
					"inputs": [
						{
							"internalType": "address",
							"name": "spender",
							"type": "address"
						},
						{
							"internalType": "uint256",
							"name": "allowance",
							"type": "uint256"
						},
						{
							"internalType": "uint256",
							"name": "needed",
							"type": "uint256"
						}
					],
					"name": "ERC20InsufficientAllowance",
					"type": "error"
				},
				{
					"inputs": [
						{
							"internalType": "address",
							"name": "sender",
							"type": "address"
						},
						{
							"internalType": "uint256",
							"name": "balance",
							"type": "uint256"
						},
						{
							"internalType": "uint256",
							"name": "needed",
							"type": "uint256"
						}
					],
					"name": "ERC20InsufficientBalance",
					"type": "error"
				},
				{
					"inputs": [
						{
							"internalType": "address",
							"name": "approver",
							"type": "address"
						}
					],
					"name": "ERC20InvalidApprover",
					"type": "error"
				},
				{
					"inputs": [
						{
							"internalType": "address",
							"name": "receiver",
							"type": "address"
						}
					],
					"name": "ERC20InvalidReceiver",
					"type": "error"
				},
				{
					"inputs": [
						{
							"internalType": "address",
							"name": "sender",
							"type": "address"
						}
					],
					"name": "ERC20InvalidSender",
					"type": "error"
				},
				{
					"inputs": [
						{
							"internalType": "address",
							"name": "spender",
							"type": "address"
						}
					],
					"name": "ERC20InvalidSpender",
					"type": "error"
				},
				{
					"anonymous": false,
					"inputs": [
						{
							"indexed": true,
							"internalType": "address",
							"name": "owner",
							"type": "address"
						},
						{
							"indexed": true,
							"internalType": "address",
							"name": "spender",
							"type": "address"
						},
						{
							"indexed": false,
							"internalType": "uint256",
							"name": "value",
							"type": "uint256"
						}
					],
					"name": "Approval",
					"type": "event"
				},
				{
					"anonymous": false,
					"inputs": [
						{
							"indexed": true,
							"internalType": "address",
							"name": "seller",
							"type": "address"
						},
						{
							"indexed": false,
							"internalType": "uint256",
							"name": "tokenAmount",
							"type": "uint256"
						},
						{
							"indexed": false,
							"internalType": "uint256",
							"name": "price",
							"type": "uint256"
						}
					],
					"name": "TokensListed",
					"type": "event"
				},
				{
					"anonymous": false,
					"inputs": [
						{
							"indexed": true,
							"internalType": "address",
							"name": "buyer",
							"type": "address"
						},
						{
							"indexed": true,
							"internalType": "address",
							"name": "seller",
							"type": "address"
						},
						{
							"indexed": false,
							"internalType": "uint256",
							"name": "tokenAmount",
							"type": "uint256"
						},
						{
							"indexed": false,
							"internalType": "uint256",
							"name": "price",
							"type": "uint256"
						}
					],
					"name": "TokensPurchasedFromMarketplace",
					"type": "event"
				},
				{
					"anonymous": false,
					"inputs": [
						{
							"indexed": true,
							"internalType": "address",
							"name": "from",
							"type": "address"
						},
						{
							"indexed": true,
							"internalType": "address",
							"name": "to",
							"type": "address"
						},
						{
							"indexed": false,
							"internalType": "uint256",
							"name": "value",
							"type": "uint256"
						}
					],
					"name": "Transfer",
					"type": "event"
				},
				{
					"anonymous": false,
					"inputs": [
						{
							"indexed": true,
							"internalType": "address",
							"name": "_industryId",
							"type": "address"
						},
						{
							"indexed": true,
							"internalType": "address",
							"name": "_govId",
							"type": "address"
						},
						{
							"indexed": true,
							"internalType": "uint256",
							"name": "_tokenCount",
							"type": "uint256"
						},
						{
							"indexed": false,
							"internalType": "uint256",
							"name": "_taxFee",
							"type": "uint256"
						}
					],
					"name": "tokenPurchased",
					"type": "event"
				},
				{
					"inputs": [
						{
							"internalType": "address",
							"name": "",
							"type": "address"
						}
					],
					"name": "GovernmentAccounts",
					"outputs": [
						{
							"internalType": "bool",
							"name": "",
							"type": "bool"
						}
					],
					"stateMutability": "view",
					"type": "function"
				},
				{
					"inputs": [],
					"name": "EcoZapPlatformOwner",
					"outputs": [
						{
							"internalType": "address payable",
							"name": "",
							"type": "address"
						}
					],
					"stateMutability": "view",
					"type": "function"
				},
				{
					"inputs": [
						{
							"internalType": "address",
							"name": "",
							"type": "address"
						}
					],
					"name": "IndividualAccounts",
					"outputs": [
						{
							"internalType": "bool",
							"name": "",
							"type": "bool"
						}
					],
					"stateMutability": "view",
					"type": "function"
				},
				{
					"inputs": [
						{
							"internalType": "address",
							"name": "",
							"type": "address"
						}
					],
					"name": "IndustryAccounts",
					"outputs": [
						{
							"internalType": "bool",
							"name": "",
							"type": "bool"
						}
					],
					"stateMutability": "view",
					"type": "function"
				},
				{
					"inputs": [
						{
							"internalType": "address",
							"name": "",
							"type": "address"
						}
					],
					"name": "IndustryAllowance",
					"outputs": [
						{
							"internalType": "uint256",
							"name": "",
							"type": "uint256"
						}
					],
					"stateMutability": "view",
					"type": "function"
				},
				{
					"inputs": [
						{
							"internalType": "address",
							"name": "owner",
							"type": "address"
						},
						{
							"internalType": "address",
							"name": "spender",
							"type": "address"
						}
					],
					"name": "allowance",
					"outputs": [
						{
							"internalType": "uint256",
							"name": "",
							"type": "uint256"
						}
					],
					"stateMutability": "view",
					"type": "function"
				},
				{
					"inputs": [
						{
							"internalType": "address",
							"name": "spender",
							"type": "address"
						},
						{
							"internalType": "uint256",
							"name": "value",
							"type": "uint256"
						}
					],
					"name": "approve",
					"outputs": [
						{
							"internalType": "bool",
							"name": "",
							"type": "bool"
						}
					],
					"stateMutability": "nonpayable",
					"type": "function"
				},
				{
					"inputs": [
						{
							"internalType": "address",
							"name": "account",
							"type": "address"
						}
					],
					"name": "balanceOf",
					"outputs": [
						{
							"internalType": "uint256",
							"name": "",
							"type": "uint256"
						}
					],
					"stateMutability": "view",
					"type": "function"
				},
				{
					"inputs": [
						{
							"internalType": "address",
							"name": "_address",
							"type": "address"
						},
						{
							"internalType": "uint256",
							"name": "_tokenCount",
							"type": "uint256"
						}
					],
					"name": "burnToken",
					"outputs": [],
					"stateMutability": "nonpayable",
					"type": "function"
				},
				{
					"inputs": [
						{
							"internalType": "address",
							"name": "_to",
							"type": "address"
						},
						{
							"internalType": "uint256",
							"name": "_tokenCount",
							"type": "uint256"
						},
						{
							"internalType": "address payable",
							"name": "_govAddress",
							"type": "address"
						}
					],
					"name": "buyToken",
					"outputs": [],
					"stateMutability": "payable",
					"type": "function"
				},
				{
					"inputs": [
						{
							"internalType": "uint256",
							"name": "_listingId",
							"type": "uint256"
						}
					],
					"name": "buyTokensFromMarketpalce",
					"outputs": [],
					"stateMutability": "payable",
					"type": "function"
				},
				{
					"inputs": [
						{
							"internalType": "uint256",
							"name": "rewardAmount",
							"type": "uint256"
						}
					],
					"name": "collectReward",
					"outputs": [],
					"stateMutability": "nonpayable",
					"type": "function"
				},
				{
					"inputs": [],
					"name": "decimals",
					"outputs": [
						{
							"internalType": "uint8",
							"name": "",
							"type": "uint8"
						}
					],
					"stateMutability": "view",
					"type": "function"
				},
				{
					"inputs": [
						{
							"internalType": "address",
							"name": "_account",
							"type": "address"
						}
					],
					"name": "grantGovernmentPrivilege",
					"outputs": [],
					"stateMutability": "nonpayable",
					"type": "function"
				},
				{
					"inputs": [
						{
							"internalType": "address",
							"name": "_account",
							"type": "address"
						}
					],
					"name": "grantIndustryPrivilege",
					"outputs": [],
					"stateMutability": "nonpayable",
					"type": "function"
				},
				{
					"inputs": [
						{
							"internalType": "address",
							"name": "_industry",
							"type": "address"
						},
						{
							"internalType": "uint256",
							"name": "_maxAllowance",
							"type": "uint256"
						},
						{
							"internalType": "uint256",
							"name": "_tokenCount",
							"type": "uint256"
						}
					],
					"name": "initialAllowance",
					"outputs": [],
					"stateMutability": "nonpayable",
					"type": "function"
				},
				{
					"inputs": [
						{
							"internalType": "uint256",
							"name": "_tokenCount",
							"type": "uint256"
						},
						{
							"internalType": "uint256",
							"name": "_price",
							"type": "uint256"
						}
					],
					"name": "listTokensForSale",
					"outputs": [],
					"stateMutability": "nonpayable",
					"type": "function"
				},
				{
					"inputs": [],
					"name": "listingCount",
					"outputs": [
						{
							"internalType": "uint256",
							"name": "",
							"type": "uint256"
						}
					],
					"stateMutability": "view",
					"type": "function"
				},
				{
					"inputs": [
						{
							"internalType": "uint256",
							"name": "",
							"type": "uint256"
						}
					],
					"name": "listings",
					"outputs": [
						{
							"internalType": "address",
							"name": "seller",
							"type": "address"
						},
						{
							"internalType": "uint256",
							"name": "tokenAmount",
							"type": "uint256"
						},
						{
							"internalType": "uint256",
							"name": "price",
							"type": "uint256"
						},
						{
							"internalType": "bool",
							"name": "isActive",
							"type": "bool"
						}
					],
					"stateMutability": "view",
					"type": "function"
				},
				{
					"inputs": [],
					"name": "name",
					"outputs": [
						{
							"internalType": "string",
							"name": "",
							"type": "string"
						}
					],
					"stateMutability": "view",
					"type": "function"
				},
				{
					"inputs": [],
					"name": "registerIndividual",
					"outputs": [],
					"stateMutability": "nonpayable",
					"type": "function"
				},
				{
					"inputs": [
						{
							"internalType": "uint256",
							"name": "newPrice",
							"type": "uint256"
						}
					],
					"name": "setTokenPrice",
					"outputs": [],
					"stateMutability": "nonpayable",
					"type": "function"
				},
				{
					"inputs": [],
					"name": "symbol",
					"outputs": [
						{
							"internalType": "string",
							"name": "",
							"type": "string"
						}
					],
					"stateMutability": "view",
					"type": "function"
				},
				{
					"inputs": [],
					"name": "tokenPrice",
					"outputs": [
						{
							"internalType": "uint256",
							"name": "",
							"type": "uint256"
						}
					],
					"stateMutability": "view",
					"type": "function"
				},
				{
					"inputs": [],
					"name": "totalSupply",
					"outputs": [
						{
							"internalType": "uint256",
							"name": "",
							"type": "uint256"
						}
					],
					"stateMutability": "view",
					"type": "function"
				},
				{
					"inputs": [
						{
							"internalType": "address",
							"name": "to",
							"type": "address"
						},
						{
							"internalType": "uint256",
							"name": "value",
							"type": "uint256"
						}
					],
					"name": "transfer",
					"outputs": [
						{
							"internalType": "bool",
							"name": "",
							"type": "bool"
						}
					],
					"stateMutability": "nonpayable",
					"type": "function"
				},
				{
					"inputs": [
						{
							"internalType": "address",
							"name": "from",
							"type": "address"
						},
						{
							"internalType": "address",
							"name": "to",
							"type": "address"
						},
						{
							"internalType": "uint256",
							"name": "value",
							"type": "uint256"
						}
					],
					"name": "transferFrom",
					"outputs": [
						{
							"internalType": "bool",
							"name": "",
							"type": "bool"
						}
					],
					"stateMutability": "nonpayable",
					"type": "function"
				}
			],
			"devdoc": {
				"errors": {
					"ERC20InsufficientAllowance(address,uint256,uint256)": [
						{
							"details": "Indicates a failure with the `spender`’s `allowance`. Used in transfers.",
							"params": {
								"allowance": "Amount of tokens a `spender` is allowed to operate with.",
								"needed": "Minimum amount required to perform a transfer.",
								"spender": "Address that may be allowed to operate on tokens without being their owner."
							}
						}
					],
					"ERC20InsufficientBalance(address,uint256,uint256)": [
						{
							"details": "Indicates an error related to the current `balance` of a `sender`. Used in transfers.",
							"params": {
								"balance": "Current balance for the interacting account.",
								"needed": "Minimum amount required to perform a transfer.",
								"sender": "Address whose tokens are being transferred."
							}
						}
					],
					"ERC20InvalidApprover(address)": [
						{
							"details": "Indicates a failure with the `approver` of a token to be approved. Used in approvals.",
							"params": {
								"approver": "Address initiating an approval operation."
							}
						}
					],
					"ERC20InvalidReceiver(address)": [
						{
							"details": "Indicates a failure with the token `receiver`. Used in transfers.",
							"params": {
								"receiver": "Address to which tokens are being transferred."
							}
						}
					],
					"ERC20InvalidSender(address)": [
						{
							"details": "Indicates a failure with the token `sender`. Used in transfers.",
							"params": {
								"sender": "Address whose tokens are being transferred."
							}
						}
					],
					"ERC20InvalidSpender(address)": [
						{
							"details": "Indicates a failure with the `spender` to be approved. Used in approvals.",
							"params": {
								"spender": "Address that may be allowed to operate on tokens without being their owner."
							}
						}
					]
				},
				"events": {
					"Approval(address,address,uint256)": {
						"details": "Emitted when the allowance of a `spender` for an `owner` is set by a call to {approve}. `value` is the new allowance."
					},
					"Transfer(address,address,uint256)": {
						"details": "Emitted when `value` tokens are moved from one account (`from`) to another (`to`). Note that `value` may be zero."
					}
				},
				"kind": "dev",
				"methods": {
					"allowance(address,address)": {
						"details": "See {IERC20-allowance}."
					},
					"approve(address,uint256)": {
						"details": "See {IERC20-approve}. NOTE: If `value` is the maximum `uint256`, the allowance is not updated on `transferFrom`. This is semantically equivalent to an infinite approval. Requirements: - `spender` cannot be the zero address."
					},
					"balanceOf(address)": {
						"details": "See {IERC20-balanceOf}."
					},
					"decimals()": {
						"details": "Returns the number of decimals used to get its user representation. For example, if `decimals` equals `2`, a balance of `505` tokens should be displayed to a user as `5.05` (`505 / 10 ** 2`). Tokens usually opt for a value of 18, imitating the relationship between Ether and Wei. This is the default value returned by this function, unless it's overridden. NOTE: This information is only used for _display_ purposes: it in no way affects any of the arithmetic of the contract, including {IERC20-balanceOf} and {IERC20-transfer}."
					},
					"name()": {
						"details": "Returns the name of the token."
					},
					"symbol()": {
						"details": "Returns the symbol of the token, usually a shorter version of the name."
					},
					"totalSupply()": {
						"details": "See {IERC20-totalSupply}."
					},
					"transfer(address,uint256)": {
						"details": "See {IERC20-transfer}. Requirements: - `to` cannot be the zero address. - the caller must have a balance of at least `value`."
					},
					"transferFrom(address,address,uint256)": {
						"details": "See {IERC20-transferFrom}. Emits an {Approval} event indicating the updated allowance. This is not required by the EIP. See the note at the beginning of {ERC20}. NOTE: Does not update the allowance if the current allowance is the maximum `uint256`. Requirements: - `from` and `to` cannot be the zero address. - `from` must have a balance of at least `value`. - the caller must have allowance for ``from``'s tokens of at least `value`."
					}
				},
				"version": 1
			},
			"evm": {
				"assembly": "    /* \"GreenCreditToken.sol\":119:6087  contract GreenCreditToken is ERC20 {... */\n  mstore(0x40, 0x80)\n    /* \"GreenCreditToken.sol\":475:701  constructor(uint initTokenPrice) ERC20(\"GreenCredit\", \"GCT\") {... */\n  callvalue\n  dup1\n  iszero\n  tag_1\n  jumpi\n  0x00\n  dup1\n  revert\ntag_1:\n  pop\n  mload(0x40)\n  sub(codesize, bytecodeSize)\n  dup1\n  bytecodeSize\n  dup4\n  codecopy\n  dup2\n  dup2\n  add\n  0x40\n  mstore\n  dup2\n  add\n  swap1\n  tag_2\n  swap2\n  swap1\n  tag_3\n  jump\t// in\ntag_2:\n    /* \"@openzeppelin/contracts/token/ERC20/ERC20.sol\":1896:2009  constructor(string memory name_, string memory symbol_) {... */\n  mload(0x40)\n  dup1\n  0x40\n  add\n  0x40\n  mstore\n  dup1\n  0x0b\n  dup2\n  mstore\n  0x20\n  add\n  0x477265656e437265646974000000000000000000000000000000000000000000\n  dup2\n  mstore\n  pop\n  mload(0x40)\n  dup1\n  0x40\n  add\n  0x40\n  mstore\n  dup1\n  0x03\n  dup2\n  mstore\n  0x20\n  add\n  0x4743540000000000000000000000000000000000000000000000000000000000\n  dup2\n  mstore\n  pop\n    /* \"@openzeppelin/contracts/token/ERC20/ERC20.sol\":1970:1975  name_ */\n  dup2\n    /* \"@openzeppelin/contracts/token/ERC20/ERC20.sol\":1962:1967  _name */\n  0x03\n    /* \"@openzeppelin/contracts/token/ERC20/ERC20.sol\":1962:1975  _name = name_ */\n  swap1\n  dup2\n  tag_7\n  swap2\n  swap1\n  tag_8\n  jump\t// in\ntag_7:\n  pop\n    /* \"@openzeppelin/contracts/token/ERC20/ERC20.sol\":1995:2002  symbol_ */\n  dup1\n    /* \"@openzeppelin/contracts/token/ERC20/ERC20.sol\":1985:1992  _symbol */\n  0x04\n    /* \"@openzeppelin/contracts/token/ERC20/ERC20.sol\":1985:2002  _symbol = symbol_ */\n  swap1\n  dup2\n  tag_9\n  swap2\n  swap1\n  tag_8\n  jump\t// in\ntag_9:\n  pop\n    /* \"@openzeppelin/contracts/token/ERC20/ERC20.sol\":1896:2009  constructor(string memory name_, string memory symbol_) {... */\n  pop\n  pop\n    /* \"GreenCreditToken.sol\":581:591  msg.sender */\n  caller\n    /* \"GreenCreditToken.sol\":547:570  EcoZapPlatformOwner */\n  0x05\n  0x00\n    /* \"GreenCreditToken.sol\":547:592  EcoZapPlatformOwner = payable(msg.sender) */\n  0x0100\n  exp\n  dup2\n  sload\n  dup2\n  0xffffffffffffffffffffffffffffffffffffffff\n  mul\n  not\n  and\n  swap1\n  dup4\n  0xffffffffffffffffffffffffffffffffffffffff\n  and\n  mul\n  or\n  swap1\n  sstore\n  pop\n    /* \"GreenCreditToken.sol\":616:630  initTokenPrice */\n  dup1\n    /* \"GreenCreditToken.sol\":603:613  tokenPrice */\n  0x06\n    /* \"GreenCreditToken.sol\":603:630  tokenPrice = initTokenPrice */\n  dup2\n  swap1\n  sstore\n  pop\n    /* \"GreenCreditToken.sol\":641:693  _mint(EcoZapPlatformOwner, 100 * 10**decimals()) */\n  tag_11\n    /* \"GreenCreditToken.sol\":647:670  EcoZapPlatformOwner */\n  0x05\n  0x00\n  swap1\n  sload\n  swap1\n  0x0100\n  exp\n  swap1\n  div\n  0xffffffffffffffffffffffffffffffffffffffff\n  and\n    /* \"GreenCreditToken.sol\":682:692  decimals() */\n  tag_12\n    /* \"GreenCreditToken.sol\":682:690  decimals */\n  shl(0x20, tag_13)\n    /* \"GreenCreditToken.sol\":682:692  decimals() */\n  0x20\n  shr\n  jump\t// in\ntag_12:\n    /* \"GreenCreditToken.sol\":678:680  10 */\n  0x0a\n    /* \"GreenCreditToken.sol\":678:692  10**decimals() */\n  tag_14\n  swap2\n  swap1\n  tag_15\n  jump\t// in\ntag_14:\n    /* \"GreenCreditToken.sol\":672:675  100 */\n  0x64\n    /* \"GreenCreditToken.sol\":672:692  100 * 10**decimals() */\n  tag_16\n  swap2\n  swap1\n  tag_17\n  jump\t// in\ntag_16:\n    /* \"GreenCreditToken.sol\":641:646  _mint */\n  shl(0x20, tag_18)\n    /* \"GreenCreditToken.sol\":641:693  _mint(EcoZapPlatformOwner, 100 * 10**decimals()) */\n  0x20\n  shr\n  jump\t// in\ntag_11:\n    /* \"GreenCreditToken.sol\":475:701  constructor(uint initTokenPrice) ERC20(\"GreenCredit\", \"GCT\") {... */\n  pop\n    /* \"GreenCreditToken.sol\":119:6087  contract GreenCreditToken is ERC20 {... */\n  jump(tag_19)\n    /* \"@openzeppelin/contracts/token/ERC20/ERC20.sol\":3002:3084  function decimals() public view virtual returns (uint8) {... */\ntag_13:\n    /* \"@openzeppelin/contracts/token/ERC20/ERC20.sol\":3051:3056  uint8 */\n  0x00\n    /* \"@openzeppelin/contracts/token/ERC20/ERC20.sol\":3075:3077  18 */\n  0x12\n    /* \"@openzeppelin/contracts/token/ERC20/ERC20.sol\":3068:3077  return 18 */\n  swap1\n  pop\n    /* \"@openzeppelin/contracts/token/ERC20/ERC20.sol\":3002:3084  function decimals() public view virtual returns (uint8) {... */\n  swap1\n  jump\t// out\n    /* \"@openzeppelin/contracts/token/ERC20/ERC20.sol\":7721:7929  function _mint(address account, uint256 value) internal {... */\ntag_18:\n    /* \"@openzeppelin/contracts/token/ERC20/ERC20.sol\":7810:7811  0 */\n  0x00\n    /* \"@openzeppelin/contracts/token/ERC20/ERC20.sol\":7791:7812  account == address(0) */\n  0xffffffffffffffffffffffffffffffffffffffff\n  and\n    /* \"@openzeppelin/contracts/token/ERC20/ERC20.sol\":7791:7798  account */\n  dup3\n    /* \"@openzeppelin/contracts/token/ERC20/ERC20.sol\":7791:7812  account == address(0) */\n  0xffffffffffffffffffffffffffffffffffffffff\n  and\n  sub\n    /* \"@openzeppelin/contracts/token/ERC20/ERC20.sol\":7787:7878  if (account == address(0)) {... */\n  tag_22\n  jumpi\n    /* \"@openzeppelin/contracts/token/ERC20/ERC20.sol\":7864:7865  0 */\n  0x00\n    /* \"@openzeppelin/contracts/token/ERC20/ERC20.sol\":7835:7867  ERC20InvalidReceiver(address(0)) */\n  mload(0x40)\n  0xec442f0500000000000000000000000000000000000000000000000000000000\n  dup2\n  mstore\n  0x04\n  add\n  tag_23\n  swap2\n  swap1\n  tag_24\n  jump\t// in\ntag_23:\n  mload(0x40)\n  dup1\n  swap2\n  sub\n  swap1\n  revert\n    /* \"@openzeppelin/contracts/token/ERC20/ERC20.sol\":7787:7878  if (account == address(0)) {... */\ntag_22:\n    /* \"@openzeppelin/contracts/token/ERC20/ERC20.sol\":7887:7922  _update(address(0), account, value) */\n  tag_25\n    /* \"@openzeppelin/contracts/token/ERC20/ERC20.sol\":7903:7904  0 */\n  0x00\n    /* \"@openzeppelin/contracts/token/ERC20/ERC20.sol\":7907:7914  account */\n  dup4\n    /* \"@openzeppelin/contracts/token/ERC20/ERC20.sol\":7916:7921  value */\n  dup4\n    /* \"@openzeppelin/contracts/token/ERC20/ERC20.sol\":7887:7894  _update */\n  shl(0x20, tag_26)\n    /* \"@openzeppelin/contracts/token/ERC20/ERC20.sol\":7887:7922  _update(address(0), account, value) */\n  0x20\n  shr\n  jump\t// in\ntag_25:\n    /* \"@openzeppelin/contracts/token/ERC20/ERC20.sol\":7721:7929  function _mint(address account, uint256 value) internal {... */\n  pop\n  pop\n  jump\t// out\n    /* \"@openzeppelin/contracts/token/ERC20/ERC20.sol\":6271:7378  function _update(address from, address to, uint256 value) internal virtual {... */\ntag_26:\n    /* \"@openzeppelin/contracts/token/ERC20/ERC20.sol\":6376:6377  0 */\n  0x00\n    /* \"@openzeppelin/contracts/token/ERC20/ERC20.sol\":6360:6378  from == address(0) */\n  0xffffffffffffffffffffffffffffffffffffffff\n  and\n    /* \"@openzeppelin/contracts/token/ERC20/ERC20.sol\":6360:6364  from */\n  dup4\n    /* \"@openzeppelin/contracts/token/ERC20/ERC20.sol\":6360:6378  from == address(0) */\n  0xffffffffffffffffffffffffffffffffffffffff\n  and\n  sub\n    /* \"@openzeppelin/contracts/token/ERC20/ERC20.sol\":6356:6896  if (from == address(0)) {... */\n  tag_28\n  jumpi\n    /* \"@openzeppelin/contracts/token/ERC20/ERC20.sol\":6512:6517  value */\n  dup1\n    /* \"@openzeppelin/contracts/token/ERC20/ERC20.sol\":6496:6508  _totalSupply */\n  0x02\n  0x00\n    /* \"@openzeppelin/contracts/token/ERC20/ERC20.sol\":6496:6517  _totalSupply += value */\n  dup3\n  dup3\n  sload\n  tag_29\n  swap2\n  swap1\n  tag_30\n  jump\t// in\ntag_29:\n  swap3\n  pop\n  pop\n  dup2\n  swap1\n  sstore\n  pop\n    /* \"@openzeppelin/contracts/token/ERC20/ERC20.sol\":6356:6896  if (from == address(0)) {... */\n  jump(tag_31)\ntag_28:\n    /* \"@openzeppelin/contracts/token/ERC20/ERC20.sol\":6548:6567  uint256 fromBalance */\n  0x00\n    /* \"@openzeppelin/contracts/token/ERC20/ERC20.sol\":6570:6579  _balances */\n  dup1\n    /* \"@openzeppelin/contracts/token/ERC20/ERC20.sol\":6570:6585  _balances[from] */\n  0x00\n    /* \"@openzeppelin/contracts/token/ERC20/ERC20.sol\":6580:6584  from */\n  dup6\n    /* \"@openzeppelin/contracts/token/ERC20/ERC20.sol\":6570:6585  _balances[from] */\n  0xffffffffffffffffffffffffffffffffffffffff\n  and\n  0xffffffffffffffffffffffffffffffffffffffff\n  and\n  dup2\n  mstore\n  0x20\n  add\n  swap1\n  dup2\n  mstore\n  0x20\n  add\n  0x00\n  keccak256\n  sload\n    /* \"@openzeppelin/contracts/token/ERC20/ERC20.sol\":6548:6585  uint256 fromBalance = _balances[from] */\n  swap1\n  pop\n    /* \"@openzeppelin/contracts/token/ERC20/ERC20.sol\":6617:6622  value */\n  dup2\n    /* \"@openzeppelin/contracts/token/ERC20/ERC20.sol\":6603:6614  fromBalance */\n  dup2\n    /* \"@openzeppelin/contracts/token/ERC20/ERC20.sol\":6603:6622  fromBalance < value */\n  lt\n    /* \"@openzeppelin/contracts/token/ERC20/ERC20.sol\":6599:6714  if (fromBalance < value) {... */\n  iszero\n  tag_32\n  jumpi\n    /* \"@openzeppelin/contracts/token/ERC20/ERC20.sol\":6674:6678  from */\n  dup4\n    /* \"@openzeppelin/contracts/token/ERC20/ERC20.sol\":6680:6691  fromBalance */\n  dup2\n    /* \"@openzeppelin/contracts/token/ERC20/ERC20.sol\":6693:6698  value */\n  dup4\n    /* \"@openzeppelin/contracts/token/ERC20/ERC20.sol\":6649:6699  ERC20InsufficientBalance(from, fromBalance, value) */\n  mload(0x40)\n  0xe450d38c00000000000000000000000000000000000000000000000000000000\n  dup2\n  mstore\n  0x04\n  add\n  tag_33\n  swap4\n  swap3\n  swap2\n  swap1\n  tag_34\n  jump\t// in\ntag_33:\n  mload(0x40)\n  dup1\n  swap2\n  sub\n  swap1\n  revert\n    /* \"@openzeppelin/contracts/token/ERC20/ERC20.sol\":6599:6714  if (fromBalance < value) {... */\ntag_32:\n    /* \"@openzeppelin/contracts/token/ERC20/ERC20.sol\":6866:6871  value */\n  dup2\n    /* \"@openzeppelin/contracts/token/ERC20/ERC20.sol\":6852:6863  fromBalance */\n  dup2\n    /* \"@openzeppelin/contracts/token/ERC20/ERC20.sol\":6852:6871  fromBalance - value */\n  sub\n    /* \"@openzeppelin/contracts/token/ERC20/ERC20.sol\":6834:6843  _balances */\n  0x00\n    /* \"@openzeppelin/contracts/token/ERC20/ERC20.sol\":6834:6849  _balances[from] */\n  dup1\n    /* \"@openzeppelin/contracts/token/ERC20/ERC20.sol\":6844:6848  from */\n  dup7\n    /* \"@openzeppelin/contracts/token/ERC20/ERC20.sol\":6834:6849  _balances[from] */\n  0xffffffffffffffffffffffffffffffffffffffff\n  and\n  0xffffffffffffffffffffffffffffffffffffffff\n  and\n  dup2\n  mstore\n  0x20\n  add\n  swap1\n  dup2\n  mstore\n  0x20\n  add\n  0x00\n  keccak256\n    /* \"@openzeppelin/contracts/token/ERC20/ERC20.sol\":6834:6871  _balances[from] = fromBalance - value */\n  dup2\n  swap1\n  sstore\n  pop\n    /* \"@openzeppelin/contracts/token/ERC20/ERC20.sol\":6534:6896  {... */\n  pop\n    /* \"@openzeppelin/contracts/token/ERC20/ERC20.sol\":6356:6896  if (from == address(0)) {... */\ntag_31:\n    /* \"@openzeppelin/contracts/token/ERC20/ERC20.sol\":6924:6925  0 */\n  0x00\n    /* \"@openzeppelin/contracts/token/ERC20/ERC20.sol\":6910:6926  to == address(0) */\n  0xffffffffffffffffffffffffffffffffffffffff\n  and\n    /* \"@openzeppelin/contracts/token/ERC20/ERC20.sol\":6910:6912  to */\n  dup3\n    /* \"@openzeppelin/contracts/token/ERC20/ERC20.sol\":6910:6926  to == address(0) */\n  0xffffffffffffffffffffffffffffffffffffffff\n  and\n  sub\n    /* \"@openzeppelin/contracts/token/ERC20/ERC20.sol\":6906:7331  if (to == address(0)) {... */\n  tag_35\n  jumpi\n    /* \"@openzeppelin/contracts/token/ERC20/ERC20.sol\":7089:7094  value */\n  dup1\n    /* \"@openzeppelin/contracts/token/ERC20/ERC20.sol\":7073:7085  _totalSupply */\n  0x02\n  0x00\n    /* \"@openzeppelin/contracts/token/ERC20/ERC20.sol\":7073:7094  _totalSupply -= value */\n  dup3\n  dup3\n  sload\n  sub\n  swap3\n  pop\n  pop\n  dup2\n  swap1\n  sstore\n  pop\n    /* \"@openzeppelin/contracts/token/ERC20/ERC20.sol\":6906:7331  if (to == address(0)) {... */\n  jump(tag_36)\ntag_35:\n    /* \"@openzeppelin/contracts/token/ERC20/ERC20.sol\":7301:7306  value */\n  dup1\n    /* \"@openzeppelin/contracts/token/ERC20/ERC20.sol\":7284:7293  _balances */\n  0x00\n    /* \"@openzeppelin/contracts/token/ERC20/ERC20.sol\":7284:7297  _balances[to] */\n  dup1\n    /* \"@openzeppelin/contracts/token/ERC20/ERC20.sol\":7294:7296  to */\n  dup5\n    /* \"@openzeppelin/contracts/token/ERC20/ERC20.sol\":7284:7297  _balances[to] */\n  0xffffffffffffffffffffffffffffffffffffffff\n  and\n  0xffffffffffffffffffffffffffffffffffffffff\n  and\n  dup2\n  mstore\n  0x20\n  add\n  swap1\n  dup2\n  mstore\n  0x20\n  add\n  0x00\n  keccak256\n  0x00\n    /* \"@openzeppelin/contracts/token/ERC20/ERC20.sol\":7284:7306  _balances[to] += value */\n  dup3\n  dup3\n  sload\n  add\n  swap3\n  pop\n  pop\n  dup2\n  swap1\n  sstore\n  pop\n    /* \"@openzeppelin/contracts/token/ERC20/ERC20.sol\":6906:7331  if (to == address(0)) {... */\ntag_36:\n    /* \"@openzeppelin/contracts/token/ERC20/ERC20.sol\":7361:7363  to */\n  dup2\n    /* \"@openzeppelin/contracts/token/ERC20/ERC20.sol\":7346:7371  Transfer(from, to, value) */\n  0xffffffffffffffffffffffffffffffffffffffff\n  and\n    /* \"@openzeppelin/contracts/token/ERC20/ERC20.sol\":7355:7359  from */\n  dup4\n    /* \"@openzeppelin/contracts/token/ERC20/ERC20.sol\":7346:7371  Transfer(from, to, value) */\n  0xffffffffffffffffffffffffffffffffffffffff\n  and\n  0xddf252ad1be2c89b69c2b068fc378daa952ba7f163c4a11628f55a4df523b3ef\n    /* \"@openzeppelin/contracts/token/ERC20/ERC20.sol\":7365:7370  value */\n  dup4\n    /* \"@openzeppelin/contracts/token/ERC20/ERC20.sol\":7346:7371  Transfer(from, to, value) */\n  mload(0x40)\n  tag_37\n  swap2\n  swap1\n  tag_38\n  jump\t// in\ntag_37:\n  mload(0x40)\n  dup1\n  swap2\n  sub\n  swap1\n  log3\n    /* \"@openzeppelin/contracts/token/ERC20/ERC20.sol\":6271:7378  function _update(address from, address to, uint256 value) internal virtual {... */\n  pop\n  pop\n  pop\n  jump\t// out\n    /* \"#utility.yul\":88:205   */\ntag_40:\n    /* \"#utility.yul\":197:198   */\n  0x00\n    /* \"#utility.yul\":194:195   */\n  dup1\n    /* \"#utility.yul\":187:199   */\n  revert\n    /* \"#utility.yul\":334:411   */\ntag_42:\n    /* \"#utility.yul\":371:378   */\n  0x00\n    /* \"#utility.yul\":400:405   */\n  dup2\n    /* \"#utility.yul\":389:405   */\n  swap1\n  pop\n    /* \"#utility.yul\":334:411   */\n  swap2\n  swap1\n  pop\n  jump\t// out\n    /* \"#utility.yul\":417:539   */\ntag_43:\n    /* \"#utility.yul\":490:514   */\n  tag_79\n    /* \"#utility.yul\":508:513   */\n  dup2\n    /* \"#utility.yul\":490:514   */\n  tag_42\n  jump\t// in\ntag_79:\n    /* \"#utility.yul\":483:488   */\n  dup2\n    /* \"#utility.yul\":480:515   */\n  eq\n    /* \"#utility.yul\":470:533   */\n  tag_80\n  jumpi\n    /* \"#utility.yul\":529:530   */\n  0x00\n    /* \"#utility.yul\":526:527   */\n  dup1\n    /* \"#utility.yul\":519:531   */\n  revert\n    /* \"#utility.yul\":470:533   */\ntag_80:\n    /* \"#utility.yul\":417:539   */\n  pop\n  jump\t// out\n    /* \"#utility.yul\":545:688   */\ntag_44:\n    /* \"#utility.yul\":602:607   */\n  0x00\n    /* \"#utility.yul\":633:639   */\n  dup2\n    /* \"#utility.yul\":627:640   */\n  mload\n    /* \"#utility.yul\":618:640   */\n  swap1\n  pop\n    /* \"#utility.yul\":649:682   */\n  tag_82\n    /* \"#utility.yul\":676:681   */\n  dup2\n    /* \"#utility.yul\":649:682   */\n  tag_43\n  jump\t// in\ntag_82:\n    /* \"#utility.yul\":545:688   */\n  swap3\n  swap2\n  pop\n  pop\n  jump\t// out\n    /* \"#utility.yul\":694:1045   */\ntag_3:\n    /* \"#utility.yul\":764:770   */\n  0x00\n    /* \"#utility.yul\":813:815   */\n  0x20\n    /* \"#utility.yul\":801:810   */\n  dup3\n    /* \"#utility.yul\":792:799   */\n  dup5\n    /* \"#utility.yul\":788:811   */\n  sub\n    /* \"#utility.yul\":784:816   */\n  slt\n    /* \"#utility.yul\":781:900   */\n  iszero\n  tag_84\n  jumpi\n    /* \"#utility.yul\":819:898   */\n  tag_85\n  tag_40\n  jump\t// in\ntag_85:\n    /* \"#utility.yul\":781:900   */\ntag_84:\n    /* \"#utility.yul\":939:940   */\n  0x00\n    /* \"#utility.yul\":964:1028   */\n  tag_86\n    /* \"#utility.yul\":1020:1027   */\n  dup5\n    /* \"#utility.yul\":1011:1017   */\n  dup3\n    /* \"#utility.yul\":1000:1009   */\n  dup6\n    /* \"#utility.yul\":996:1018   */\n  add\n    /* \"#utility.yul\":964:1028   */\n  tag_44\n  jump\t// in\ntag_86:\n    /* \"#utility.yul\":954:1028   */\n  swap2\n  pop\n    /* \"#utility.yul\":910:1038   */\n  pop\n    /* \"#utility.yul\":694:1045   */\n  swap3\n  swap2\n  pop\n  pop\n  jump\t// out\n    /* \"#utility.yul\":1051:1150   */\ntag_45:\n    /* \"#utility.yul\":1103:1109   */\n  0x00\n    /* \"#utility.yul\":1137:1142   */\n  dup2\n    /* \"#utility.yul\":1131:1143   */\n  mload\n    /* \"#utility.yul\":1121:1143   */\n  swap1\n  pop\n    /* \"#utility.yul\":1051:1150   */\n  swap2\n  swap1\n  pop\n  jump\t// out\n    /* \"#utility.yul\":1156:1336   */\ntag_46:\n    /* \"#utility.yul\":1204:1281   */\n  0x4e487b7100000000000000000000000000000000000000000000000000000000\n    /* \"#utility.yul\":1201:1202   */\n  0x00\n    /* \"#utility.yul\":1194:1282   */\n  mstore\n    /* \"#utility.yul\":1301:1305   */\n  0x41\n    /* \"#utility.yul\":1298:1299   */\n  0x04\n    /* \"#utility.yul\":1291:1306   */\n  mstore\n    /* \"#utility.yul\":1325:1329   */\n  0x24\n    /* \"#utility.yul\":1322:1323   */\n  0x00\n    /* \"#utility.yul\":1315:1330   */\n  revert\n    /* \"#utility.yul\":1342:1522   */\ntag_47:\n    /* \"#utility.yul\":1390:1467   */\n  0x4e487b7100000000000000000000000000000000000000000000000000000000\n    /* \"#utility.yul\":1387:1388   */\n  0x00\n    /* \"#utility.yul\":1380:1468   */\n  mstore\n    /* \"#utility.yul\":1487:1491   */\n  0x22\n    /* \"#utility.yul\":1484:1485   */\n  0x04\n    /* \"#utility.yul\":1477:1492   */\n  mstore\n    /* \"#utility.yul\":1511:1515   */\n  0x24\n    /* \"#utility.yul\":1508:1509   */\n  0x00\n    /* \"#utility.yul\":1501:1516   */\n  revert\n    /* \"#utility.yul\":1528:1848   */\ntag_48:\n    /* \"#utility.yul\":1572:1578   */\n  0x00\n    /* \"#utility.yul\":1609:1610   */\n  0x02\n    /* \"#utility.yul\":1603:1607   */\n  dup3\n    /* \"#utility.yul\":1599:1611   */\n  div\n    /* \"#utility.yul\":1589:1611   */\n  swap1\n  pop\n    /* \"#utility.yul\":1656:1657   */\n  0x01\n    /* \"#utility.yul\":1650:1654   */\n  dup3\n    /* \"#utility.yul\":1646:1658   */\n  and\n    /* \"#utility.yul\":1677:1695   */\n  dup1\n    /* \"#utility.yul\":1667:1748   */\n  tag_91\n  jumpi\n    /* \"#utility.yul\":1733:1737   */\n  0x7f\n    /* \"#utility.yul\":1725:1731   */\n  dup3\n    /* \"#utility.yul\":1721:1738   */\n  and\n    /* \"#utility.yul\":1711:1738   */\n  swap2\n  pop\n    /* \"#utility.yul\":1667:1748   */\ntag_91:\n    /* \"#utility.yul\":1795:1797   */\n  0x20\n    /* \"#utility.yul\":1787:1793   */\n  dup3\n    /* \"#utility.yul\":1784:1798   */\n  lt\n    /* \"#utility.yul\":1764:1782   */\n  dup2\n    /* \"#utility.yul\":1761:1799   */\n  sub\n    /* \"#utility.yul\":1758:1842   */\n  tag_92\n  jumpi\n    /* \"#utility.yul\":1814:1832   */\n  tag_93\n  tag_47\n  jump\t// in\ntag_93:\n    /* \"#utility.yul\":1758:1842   */\ntag_92:\n    /* \"#utility.yul\":1579:1848   */\n  pop\n    /* \"#utility.yul\":1528:1848   */\n  swap2\n  swap1\n  pop\n  jump\t// out\n    /* \"#utility.yul\":1854:1995   */\ntag_49:\n    /* \"#utility.yul\":1903:1907   */\n  0x00\n    /* \"#utility.yul\":1926:1929   */\n  dup2\n    /* \"#utility.yul\":1918:1929   */\n  swap1\n  pop\n    /* \"#utility.yul\":1949:1952   */\n  dup2\n    /* \"#utility.yul\":1946:1947   */\n  0x00\n    /* \"#utility.yul\":1939:1953   */\n  mstore\n    /* \"#utility.yul\":1983:1987   */\n  0x20\n    /* \"#utility.yul\":1980:1981   */\n  0x00\n    /* \"#utility.yul\":1970:1988   */\n  keccak256\n    /* \"#utility.yul\":1962:1988   */\n  swap1\n  pop\n    /* \"#utility.yul\":1854:1995   */\n  swap2\n  swap1\n  pop\n  jump\t// out\n    /* \"#utility.yul\":2001:2094   */\ntag_50:\n    /* \"#utility.yul\":2038:2044   */\n  0x00\n    /* \"#utility.yul\":2085:2087   */\n  0x20\n    /* \"#utility.yul\":2080:2082   */\n  0x1f\n    /* \"#utility.yul\":2073:2078   */\n  dup4\n    /* \"#utility.yul\":2069:2083   */\n  add\n    /* \"#utility.yul\":2065:2088   */\n  div\n    /* \"#utility.yul\":2055:2088   */\n  swap1\n  pop\n    /* \"#utility.yul\":2001:2094   */\n  swap2\n  swap1\n  pop\n  jump\t// out\n    /* \"#utility.yul\":2100:2207   */\ntag_51:\n    /* \"#utility.yul\":2144:2152   */\n  0x00\n    /* \"#utility.yul\":2194:2199   */\n  dup3\n    /* \"#utility.yul\":2188:2192   */\n  dup3\n    /* \"#utility.yul\":2184:2200   */\n  shl\n    /* \"#utility.yul\":2163:2200   */\n  swap1\n  pop\n    /* \"#utility.yul\":2100:2207   */\n  swap3\n  swap2\n  pop\n  pop\n  jump\t// out\n    /* \"#utility.yul\":2213:2606   */\ntag_52:\n    /* \"#utility.yul\":2282:2288   */\n  0x00\n    /* \"#utility.yul\":2332:2333   */\n  0x08\n    /* \"#utility.yul\":2320:2330   */\n  dup4\n    /* \"#utility.yul\":2316:2334   */\n  mul\n    /* \"#utility.yul\":2355:2452   */\n  tag_98\n    /* \"#utility.yul\":2385:2451   */\n  0xffffffffffffffffffffffffffffffffffffffffffffffffffffffffffffffff\n    /* \"#utility.yul\":2374:2383   */\n  dup3\n    /* \"#utility.yul\":2355:2452   */\n  tag_51\n  jump\t// in\ntag_98:\n    /* \"#utility.yul\":2473:2512   */\n  tag_99\n    /* \"#utility.yul\":2503:2511   */\n  dup7\n    /* \"#utility.yul\":2492:2501   */\n  dup4\n    /* \"#utility.yul\":2473:2512   */\n  tag_51\n  jump\t// in\ntag_99:\n    /* \"#utility.yul\":2461:2512   */\n  swap6\n  pop\n    /* \"#utility.yul\":2545:2549   */\n  dup1\n    /* \"#utility.yul\":2541:2550   */\n  not\n    /* \"#utility.yul\":2534:2539   */\n  dup5\n    /* \"#utility.yul\":2530:2551   */\n  and\n    /* \"#utility.yul\":2521:2551   */\n  swap4\n  pop\n    /* \"#utility.yul\":2594:2598   */\n  dup1\n    /* \"#utility.yul\":2584:2592   */\n  dup7\n    /* \"#utility.yul\":2580:2599   */\n  and\n    /* \"#utility.yul\":2573:2578   */\n  dup5\n    /* \"#utility.yul\":2570:2600   */\n  or\n    /* \"#utility.yul\":2560:2600   */\n  swap3\n  pop\n    /* \"#utility.yul\":2289:2606   */\n  pop\n  pop\n    /* \"#utility.yul\":2213:2606   */\n  swap4\n  swap3\n  pop\n  pop\n  pop\n  jump\t// out\n    /* \"#utility.yul\":2612:2672   */\ntag_53:\n    /* \"#utility.yul\":2640:2643   */\n  0x00\n    /* \"#utility.yul\":2661:2666   */\n  dup2\n    /* \"#utility.yul\":2654:2666   */\n  swap1\n  pop\n    /* \"#utility.yul\":2612:2672   */\n  swap2\n  swap1\n  pop\n  jump\t// out\n    /* \"#utility.yul\":2678:2820   */\ntag_54:\n    /* \"#utility.yul\":2728:2737   */\n  0x00\n    /* \"#utility.yul\":2761:2814   */\n  tag_102\n    /* \"#utility.yul\":2779:2813   */\n  tag_103\n    /* \"#utility.yul\":2788:2812   */\n  tag_104\n    /* \"#utility.yul\":2806:2811   */\n  dup5\n    /* \"#utility.yul\":2788:2812   */\n  tag_42\n  jump\t// in\ntag_104:\n    /* \"#utility.yul\":2779:2813   */\n  tag_53\n  jump\t// in\ntag_103:\n    /* \"#utility.yul\":2761:2814   */\n  tag_42\n  jump\t// in\ntag_102:\n    /* \"#utility.yul\":2748:2814   */\n  swap1\n  pop\n    /* \"#utility.yul\":2678:2820   */\n  swap2\n  swap1\n  pop\n  jump\t// out\n    /* \"#utility.yul\":2826:2901   */\ntag_55:\n    /* \"#utility.yul\":2869:2872   */\n  0x00\n    /* \"#utility.yul\":2890:2895   */\n  dup2\n    /* \"#utility.yul\":2883:2895   */\n  swap1\n  pop\n    /* \"#utility.yul\":2826:2901   */\n  swap2\n  swap1\n  pop\n  jump\t// out\n    /* \"#utility.yul\":2907:3176   */\ntag_56:\n    /* \"#utility.yul\":3017:3056   */\n  tag_107\n    /* \"#utility.yul\":3048:3055   */\n  dup4\n    /* \"#utility.yul\":3017:3056   */\n  tag_54\n  jump\t// in\ntag_107:\n    /* \"#utility.yul\":3078:3169   */\n  tag_108\n    /* \"#utility.yul\":3127:3168   */\n  tag_109\n    /* \"#utility.yul\":3151:3167   */\n  dup3\n    /* \"#utility.yul\":3127:3168   */\n  tag_55\n  jump\t// in\ntag_109:\n    /* \"#utility.yul\":3119:3125   */\n  dup5\n    /* \"#utility.yul\":3112:3116   */\n  dup5\n    /* \"#utility.yul\":3106:3117   */\n  sload\n    /* \"#utility.yul\":3078:3169   */\n  tag_52\n  jump\t// in\ntag_108:\n    /* \"#utility.yul\":3072:3076   */\n  dup3\n    /* \"#utility.yul\":3065:3170   */\n  sstore\n    /* \"#utility.yul\":2983:3176   */\n  pop\n    /* \"#utility.yul\":2907:3176   */\n  pop\n  pop\n  pop\n  jump\t// out\n    /* \"#utility.yul\":3182:3255   */\ntag_57:\n    /* \"#utility.yul\":3227:3230   */\n  0x00\n    /* \"#utility.yul\":3182:3255   */\n  swap1\n  jump\t// out\n    /* \"#utility.yul\":3261:3450   */\ntag_58:\n    /* \"#utility.yul\":3338:3370   */\n  tag_112\n  tag_57\n  jump\t// in\ntag_112:\n    /* \"#utility.yul\":3379:3444   */\n  tag_113\n    /* \"#utility.yul\":3437:3443   */\n  dup2\n    /* \"#utility.yul\":3429:3435   */\n  dup5\n    /* \"#utility.yul\":3423:3427   */\n  dup5\n    /* \"#utility.yul\":3379:3444   */\n  tag_56\n  jump\t// in\ntag_113:\n    /* \"#utility.yul\":3314:3450   */\n  pop\n    /* \"#utility.yul\":3261:3450   */\n  pop\n  pop\n  jump\t// out\n    /* \"#utility.yul\":3456:3642   */\ntag_59:\n    /* \"#utility.yul\":3516:3636   */\ntag_115:\n    /* \"#utility.yul\":3533:3536   */\n  dup2\n    /* \"#utility.yul\":3526:3531   */\n  dup2\n    /* \"#utility.yul\":3523:3537   */\n  lt\n    /* \"#utility.yul\":3516:3636   */\n  iszero\n  tag_117\n  jumpi\n    /* \"#utility.yul\":3587:3626   */\n  tag_118\n    /* \"#utility.yul\":3624:3625   */\n  0x00\n    /* \"#utility.yul\":3617:3622   */\n  dup3\n    /* \"#utility.yul\":3587:3626   */\n  tag_58\n  jump\t// in\ntag_118:\n    /* \"#utility.yul\":3560:3561   */\n  0x01\n    /* \"#utility.yul\":3553:3558   */\n  dup2\n    /* \"#utility.yul\":3549:3562   */\n  add\n    /* \"#utility.yul\":3540:3562   */\n  swap1\n  pop\n    /* \"#utility.yul\":3516:3636   */\n  jump(tag_115)\ntag_117:\n    /* \"#utility.yul\":3456:3642   */\n  pop\n  pop\n  jump\t// out\n    /* \"#utility.yul\":3648:4191   */\ntag_60:\n    /* \"#utility.yul\":3749:3751   */\n  0x1f\n    /* \"#utility.yul\":3744:3747   */\n  dup3\n    /* \"#utility.yul\":3741:3752   */\n  gt\n    /* \"#utility.yul\":3738:4184   */\n  iszero\n  tag_120\n  jumpi\n    /* \"#utility.yul\":3783:3821   */\n  tag_121\n    /* \"#utility.yul\":3815:3820   */\n  dup2\n    /* \"#utility.yul\":3783:3821   */\n  tag_49\n  jump\t// in\ntag_121:\n    /* \"#utility.yul\":3867:3896   */\n  tag_122\n    /* \"#utility.yul\":3885:3895   */\n  dup5\n    /* \"#utility.yul\":3867:3896   */\n  tag_50\n  jump\t// in\ntag_122:\n    /* \"#utility.yul\":3857:3865   */\n  dup2\n    /* \"#utility.yul\":3853:3897   */\n  add\n    /* \"#utility.yul\":4050:4052   */\n  0x20\n    /* \"#utility.yul\":4038:4048   */\n  dup6\n    /* \"#utility.yul\":4035:4053   */\n  lt\n    /* \"#utility.yul\":4032:4081   */\n  iszero\n  tag_123\n  jumpi\n    /* \"#utility.yul\":4071:4079   */\n  dup2\n    /* \"#utility.yul\":4056:4079   */\n  swap1\n  pop\n    /* \"#utility.yul\":4032:4081   */\ntag_123:\n    /* \"#utility.yul\":4094:4174   */\n  tag_124\n    /* \"#utility.yul\":4150:4172   */\n  tag_125\n    /* \"#utility.yul\":4168:4171   */\n  dup6\n    /* \"#utility.yul\":4150:4172   */\n  tag_50\n  jump\t// in\ntag_125:\n    /* \"#utility.yul\":4140:4148   */\n  dup4\n    /* \"#utility.yul\":4136:4173   */\n  add\n    /* \"#utility.yul\":4123:4134   */\n  dup3\n    /* \"#utility.yul\":4094:4174   */\n  tag_59\n  jump\t// in\ntag_124:\n    /* \"#utility.yul\":3753:4184   */\n  pop\n  pop\n    /* \"#utility.yul\":3738:4184   */\ntag_120:\n    /* \"#utility.yul\":3648:4191   */\n  pop\n  pop\n  pop\n  jump\t// out\n    /* \"#utility.yul\":4197:4314   */\ntag_61:\n    /* \"#utility.yul\":4251:4259   */\n  0x00\n    /* \"#utility.yul\":4301:4306   */\n  dup3\n    /* \"#utility.yul\":4295:4299   */\n  dup3\n    /* \"#utility.yul\":4291:4307   */\n  shr\n    /* \"#utility.yul\":4270:4307   */\n  swap1\n  pop\n    /* \"#utility.yul\":4197:4314   */\n  swap3\n  swap2\n  pop\n  pop\n  jump\t// out\n    /* \"#utility.yul\":4320:4489   */\ntag_62:\n    /* \"#utility.yul\":4364:4370   */\n  0x00\n    /* \"#utility.yul\":4397:4448   */\n  tag_128\n    /* \"#utility.yul\":4445:4446   */\n  0x00\n    /* \"#utility.yul\":4441:4447   */\n  not\n    /* \"#utility.yul\":4433:4438   */\n  dup5\n    /* \"#utility.yul\":4430:4431   */\n  0x08\n    /* \"#utility.yul\":4426:4439   */\n  mul\n    /* \"#utility.yul\":4397:4448   */\n  tag_61\n  jump\t// in\ntag_128:\n    /* \"#utility.yul\":4393:4449   */\n  not\n    /* \"#utility.yul\":4478:4482   */\n  dup1\n    /* \"#utility.yul\":4472:4476   */\n  dup4\n    /* \"#utility.yul\":4468:4483   */\n  and\n    /* \"#utility.yul\":4458:4483   */\n  swap2\n  pop\n    /* \"#utility.yul\":4371:4489   */\n  pop\n    /* \"#utility.yul\":4320:4489   */\n  swap3\n  swap2\n  pop\n  pop\n  jump\t// out\n    /* \"#utility.yul\":4494:4789   */\ntag_63:\n    /* \"#utility.yul\":4570:4574   */\n  0x00\n    /* \"#utility.yul\":4716:4745   */\n  tag_130\n    /* \"#utility.yul\":4741:4744   */\n  dup4\n    /* \"#utility.yul\":4735:4739   */\n  dup4\n    /* \"#utility.yul\":4716:4745   */\n  tag_62\n  jump\t// in\ntag_130:\n    /* \"#utility.yul\":4708:4745   */\n  swap2\n  pop\n    /* \"#utility.yul\":4778:4781   */\n  dup3\n    /* \"#utility.yul\":4775:4776   */\n  0x02\n    /* \"#utility.yul\":4771:4782   */\n  mul\n    /* \"#utility.yul\":4765:4769   */\n  dup3\n    /* \"#utility.yul\":4762:4783   */\n  or\n    /* \"#utility.yul\":4754:4783   */\n  swap1\n  pop\n    /* \"#utility.yul\":4494:4789   */\n  swap3\n  swap2\n  pop\n  pop\n  jump\t// out\n    /* \"#utility.yul\":4794:6189   */\ntag_8:\n    /* \"#utility.yul\":4911:4948   */\n  tag_132\n    /* \"#utility.yul\":4944:4947   */\n  dup3\n    /* \"#utility.yul\":4911:4948   */\n  tag_45\n  jump\t// in\ntag_132:\n    /* \"#utility.yul\":5013:5031   */\n  0xffffffffffffffff\n    /* \"#utility.yul\":5005:5011   */\n  dup2\n    /* \"#utility.yul\":5002:5032   */\n  gt\n    /* \"#utility.yul\":4999:5055   */\n  iszero\n  tag_133\n  jumpi\n    /* \"#utility.yul\":5035:5053   */\n  tag_134\n  tag_46\n  jump\t// in\ntag_134:\n    /* \"#utility.yul\":4999:5055   */\ntag_133:\n    /* \"#utility.yul\":5079:5117   */\n  tag_135\n    /* \"#utility.yul\":5111:5115   */\n  dup3\n    /* \"#utility.yul\":5105:5116   */\n  sload\n    /* \"#utility.yul\":5079:5117   */\n  tag_48\n  jump\t// in\ntag_135:\n    /* \"#utility.yul\":5164:5231   */\n  tag_136\n    /* \"#utility.yul\":5224:5230   */\n  dup3\n    /* \"#utility.yul\":5216:5222   */\n  dup3\n    /* \"#utility.yul\":5210:5214   */\n  dup6\n    /* \"#utility.yul\":5164:5231   */\n  tag_60\n  jump\t// in\ntag_136:\n    /* \"#utility.yul\":5258:5259   */\n  0x00\n    /* \"#utility.yul\":5282:5286   */\n  0x20\n    /* \"#utility.yul\":5269:5286   */\n  swap1\n  pop\n    /* \"#utility.yul\":5314:5316   */\n  0x1f\n    /* \"#utility.yul\":5306:5312   */\n  dup4\n    /* \"#utility.yul\":5303:5317   */\n  gt\n    /* \"#utility.yul\":5331:5332   */\n  0x01\n    /* \"#utility.yul\":5326:5944   */\n  dup2\n  eq\n  tag_138\n  jumpi\n    /* \"#utility.yul\":5988:5989   */\n  0x00\n    /* \"#utility.yul\":6005:6011   */\n  dup5\n    /* \"#utility.yul\":6002:6079   */\n  iszero\n  tag_139\n  jumpi\n    /* \"#utility.yul\":6054:6063   */\n  dup3\n    /* \"#utility.yul\":6049:6052   */\n  dup8\n    /* \"#utility.yul\":6045:6064   */\n  add\n    /* \"#utility.yul\":6039:6065   */\n  mload\n    /* \"#utility.yul\":6030:6065   */\n  swap1\n  pop\n    /* \"#utility.yul\":6002:6079   */\ntag_139:\n    /* \"#utility.yul\":6105:6172   */\n  tag_140\n    /* \"#utility.yul\":6165:6171   */\n  dup6\n    /* \"#utility.yul\":6158:6163   */\n  dup3\n    /* \"#utility.yul\":6105:6172   */\n  tag_63\n  jump\t// in\ntag_140:\n    /* \"#utility.yul\":6099:6103   */\n  dup7\n    /* \"#utility.yul\":6092:6173   */\n  sstore\n    /* \"#utility.yul\":5961:6183   */\n  pop\n    /* \"#utility.yul\":5296:6183   */\n  jump(tag_137)\n    /* \"#utility.yul\":5326:5944   */\ntag_138:\n    /* \"#utility.yul\":5378:5382   */\n  0x1f\n    /* \"#utility.yul\":5374:5383   */\n  not\n    /* \"#utility.yul\":5366:5372   */\n  dup5\n    /* \"#utility.yul\":5362:5384   */\n  and\n    /* \"#utility.yul\":5412:5449   */\n  tag_141\n    /* \"#utility.yul\":5444:5448   */\n  dup7\n    /* \"#utility.yul\":5412:5449   */\n  tag_49\n  jump\t// in\ntag_141:\n    /* \"#utility.yul\":5471:5472   */\n  0x00\n    /* \"#utility.yul\":5485:5693   */\ntag_142:\n    /* \"#utility.yul\":5499:5506   */\n  dup3\n    /* \"#utility.yul\":5496:5497   */\n  dup2\n    /* \"#utility.yul\":5493:5507   */\n  lt\n    /* \"#utility.yul\":5485:5693   */\n  iszero\n  tag_144\n  jumpi\n    /* \"#utility.yul\":5578:5587   */\n  dup5\n    /* \"#utility.yul\":5573:5576   */\n  dup10\n    /* \"#utility.yul\":5569:5588   */\n  add\n    /* \"#utility.yul\":5563:5589   */\n  mload\n    /* \"#utility.yul\":5555:5561   */\n  dup3\n    /* \"#utility.yul\":5548:5590   */\n  sstore\n    /* \"#utility.yul\":5629:5630   */\n  0x01\n    /* \"#utility.yul\":5621:5627   */\n  dup3\n    /* \"#utility.yul\":5617:5631   */\n  add\n    /* \"#utility.yul\":5607:5631   */\n  swap2\n  pop\n    /* \"#utility.yul\":5676:5678   */\n  0x20\n    /* \"#utility.yul\":5665:5674   */\n  dup6\n    /* \"#utility.yul\":5661:5679   */\n  add\n    /* \"#utility.yul\":5648:5679   */\n  swap5\n  pop\n    /* \"#utility.yul\":5522:5526   */\n  0x20\n    /* \"#utility.yul\":5519:5520   */\n  dup2\n    /* \"#utility.yul\":5515:5527   */\n  add\n    /* \"#utility.yul\":5510:5527   */\n  swap1\n  pop\n    /* \"#utility.yul\":5485:5693   */\n  jump(tag_142)\ntag_144:\n    /* \"#utility.yul\":5721:5727   */\n  dup7\n    /* \"#utility.yul\":5712:5719   */\n  dup4\n    /* \"#utility.yul\":5709:5728   */\n  lt\n    /* \"#utility.yul\":5706:5885   */\n  iszero\n  tag_145\n  jumpi\n    /* \"#utility.yul\":5779:5788   */\n  dup5\n    /* \"#utility.yul\":5774:5777   */\n  dup10\n    /* \"#utility.yul\":5770:5789   */\n  add\n    /* \"#utility.yul\":5764:5790   */\n  mload\n    /* \"#utility.yul\":5822:5870   */\n  tag_146\n    /* \"#utility.yul\":5864:5868   */\n  0x1f\n    /* \"#utility.yul\":5856:5862   */\n  dup10\n    /* \"#utility.yul\":5852:5869   */\n  and\n    /* \"#utility.yul\":5841:5850   */\n  dup3\n    /* \"#utility.yul\":5822:5870   */\n  tag_62\n  jump\t// in\ntag_146:\n    /* \"#utility.yul\":5814:5820   */\n  dup4\n    /* \"#utility.yul\":5807:5871   */\n  sstore\n    /* \"#utility.yul\":5729:5885   */\n  pop\n    /* \"#utility.yul\":5706:5885   */\ntag_145:\n    /* \"#utility.yul\":5931:5932   */\n  0x01\n    /* \"#utility.yul\":5927:5928   */\n  0x02\n    /* \"#utility.yul\":5919:5925   */\n  dup9\n    /* \"#utility.yul\":5915:5929   */\n  mul\n    /* \"#utility.yul\":5911:5933   */\n  add\n    /* \"#utility.yul\":5905:5909   */\n  dup9\n    /* \"#utility.yul\":5898:5934   */\n  sstore\n    /* \"#utility.yul\":5333:5944   */\n  pop\n  pop\n  pop\n    /* \"#utility.yul\":5296:6183   */\ntag_137:\n  pop\n    /* \"#utility.yul\":4886:6189   */\n  pop\n  pop\n  pop\n    /* \"#utility.yul\":4794:6189   */\n  pop\n  pop\n  jump\t// out\n    /* \"#utility.yul\":6195:6375   */\ntag_64:\n    /* \"#utility.yul\":6243:6320   */\n  0x4e487b7100000000000000000000000000000000000000000000000000000000\n    /* \"#utility.yul\":6240:6241   */\n  0x00\n    /* \"#utility.yul\":6233:6321   */\n  mstore\n    /* \"#utility.yul\":6340:6344   */\n  0x11\n    /* \"#utility.yul\":6337:6338   */\n  0x04\n    /* \"#utility.yul\":6330:6345   */\n  mstore\n    /* \"#utility.yul\":6364:6368   */\n  0x24\n    /* \"#utility.yul\":6361:6362   */\n  0x00\n    /* \"#utility.yul\":6354:6369   */\n  revert\n    /* \"#utility.yul\":6381:6483   */\ntag_65:\n    /* \"#utility.yul\":6423:6431   */\n  0x00\n    /* \"#utility.yul\":6470:6475   */\n  dup2\n    /* \"#utility.yul\":6467:6468   */\n  0x01\n    /* \"#utility.yul\":6463:6476   */\n  shr\n    /* \"#utility.yul\":6442:6476   */\n  swap1\n  pop\n    /* \"#utility.yul\":6381:6483   */\n  swap2\n  swap1\n  pop\n  jump\t// out\n    /* \"#utility.yul\":6489:7337   */\ntag_66:\n    /* \"#utility.yul\":6550:6555   */\n  0x00\n    /* \"#utility.yul\":6557:6561   */\n  dup1\n    /* \"#utility.yul\":6581:6587   */\n  dup3\n    /* \"#utility.yul\":6572:6587   */\n  swap2\n  pop\n    /* \"#utility.yul\":6605:6610   */\n  dup4\n    /* \"#utility.yul\":6596:6610   */\n  swap1\n  pop\n    /* \"#utility.yul\":6619:7331   */\ntag_150:\n    /* \"#utility.yul\":6640:6641   */\n  0x01\n    /* \"#utility.yul\":6630:6638   */\n  dup6\n    /* \"#utility.yul\":6627:6642   */\n  gt\n    /* \"#utility.yul\":6619:7331   */\n  iszero\n  tag_152\n  jumpi\n    /* \"#utility.yul\":6735:6739   */\n  dup1\n    /* \"#utility.yul\":6730:6733   */\n  dup7\n    /* \"#utility.yul\":6726:6740   */\n  div\n    /* \"#utility.yul\":6720:6724   */\n  dup2\n    /* \"#utility.yul\":6717:6741   */\n  gt\n    /* \"#utility.yul\":6714:6764   */\n  iszero\n  tag_153\n  jumpi\n    /* \"#utility.yul\":6744:6762   */\n  tag_154\n  tag_64\n  jump\t// in\ntag_154:\n    /* \"#utility.yul\":6714:6764   */\ntag_153:\n    /* \"#utility.yul\":6794:6795   */\n  0x01\n    /* \"#utility.yul\":6784:6792   */\n  dup6\n    /* \"#utility.yul\":6780:6796   */\n  and\n    /* \"#utility.yul\":6777:7228   */\n  iszero\n  tag_155\n  jumpi\n    /* \"#utility.yul\":7209:7213   */\n  dup1\n    /* \"#utility.yul\":7202:7207   */\n  dup3\n    /* \"#utility.yul\":7198:7214   */\n  mul\n    /* \"#utility.yul\":7189:7214   */\n  swap2\n  pop\n    /* \"#utility.yul\":6777:7228   */\ntag_155:\n    /* \"#utility.yul\":7259:7263   */\n  dup1\n    /* \"#utility.yul\":7253:7257   */\n  dup2\n    /* \"#utility.yul\":7249:7264   */\n  mul\n    /* \"#utility.yul\":7241:7264   */\n  swap1\n  pop\n    /* \"#utility.yul\":7289:7321   */\n  tag_156\n    /* \"#utility.yul\":7312:7320   */\n  dup6\n    /* \"#utility.yul\":7289:7321   */\n  tag_65\n  jump\t// in\ntag_156:\n    /* \"#utility.yul\":7277:7321   */\n  swap5\n  pop\n    /* \"#utility.yul\":6619:7331   */\n  jump(tag_150)\ntag_152:\n    /* \"#utility.yul\":6489:7337   */\n  swap5\n  pop\n  swap5\n  swap3\n  pop\n  pop\n  pop\n  jump\t// out\n    /* \"#utility.yul\":7343:8416   */\ntag_67:\n    /* \"#utility.yul\":7397:7402   */\n  0x00\n    /* \"#utility.yul\":7588:7596   */\n  dup3\n    /* \"#utility.yul\":7578:7618   */\n  tag_158\n  jumpi\n    /* \"#utility.yul\":7609:7610   */\n  0x01\n    /* \"#utility.yul\":7600:7610   */\n  swap1\n  pop\n    /* \"#utility.yul\":7611:7616   */\n  jump(tag_157)\n    /* \"#utility.yul\":7578:7618   */\ntag_158:\n    /* \"#utility.yul\":7637:7641   */\n  dup2\n    /* \"#utility.yul\":7627:7663   */\n  tag_159\n  jumpi\n    /* \"#utility.yul\":7654:7655   */\n  0x00\n    /* \"#utility.yul\":7645:7655   */\n  swap1\n  pop\n    /* \"#utility.yul\":7656:7661   */\n  jump(tag_157)\n    /* \"#utility.yul\":7627:7663   */\ntag_159:\n    /* \"#utility.yul\":7723:7727   */\n  dup2\n    /* \"#utility.yul\":7771:7772   */\n  0x01\n    /* \"#utility.yul\":7766:7793   */\n  dup2\n  eq\n  tag_161\n  jumpi\n    /* \"#utility.yul\":7807:7808   */\n  0x02\n    /* \"#utility.yul\":7802:7993   */\n  dup2\n  eq\n  tag_162\n  jumpi\n    /* \"#utility.yul\":7716:7993   */\n  jump(tag_160)\n    /* \"#utility.yul\":7766:7793   */\ntag_161:\n    /* \"#utility.yul\":7784:7785   */\n  0x01\n    /* \"#utility.yul\":7775:7785   */\n  swap2\n  pop\n    /* \"#utility.yul\":7786:7791   */\n  pop\n  jump(tag_157)\n    /* \"#utility.yul\":7802:7993   */\ntag_162:\n    /* \"#utility.yul\":7847:7850   */\n  0xff\n    /* \"#utility.yul\":7837:7845   */\n  dup5\n    /* \"#utility.yul\":7834:7851   */\n  gt\n    /* \"#utility.yul\":7831:7874   */\n  iszero\n  tag_163\n  jumpi\n    /* \"#utility.yul\":7854:7872   */\n  tag_164\n  tag_64\n  jump\t// in\ntag_164:\n    /* \"#utility.yul\":7831:7874   */\ntag_163:\n    /* \"#utility.yul\":7903:7911   */\n  dup4\n    /* \"#utility.yul\":7900:7901   */\n  0x02\n    /* \"#utility.yul\":7896:7912   */\n  exp\n    /* \"#utility.yul\":7887:7912   */\n  swap2\n  pop\n    /* \"#utility.yul\":7938:7941   */\n  dup5\n    /* \"#utility.yul\":7931:7936   */\n  dup3\n    /* \"#utility.yul\":7928:7942   */\n  gt\n    /* \"#utility.yul\":7925:7965   */\n  iszero\n  tag_165\n  jumpi\n    /* \"#utility.yul\":7945:7963   */\n  tag_166\n  tag_64\n  jump\t// in\ntag_166:\n    /* \"#utility.yul\":7925:7965   */\ntag_165:\n    /* \"#utility.yul\":7978:7983   */\n  pop\n  jump(tag_157)\n    /* \"#utility.yul\":7716:7993   */\ntag_160:\n  pop\n    /* \"#utility.yul\":8102:8104   */\n  0x20\n    /* \"#utility.yul\":8092:8100   */\n  dup4\n    /* \"#utility.yul\":8089:8105   */\n  lt\n    /* \"#utility.yul\":8083:8086   */\n  0x0133\n    /* \"#utility.yul\":8077:8081   */\n  dup4\n    /* \"#utility.yul\":8074:8087   */\n  lt\n    /* \"#utility.yul\":8070:8106   */\n  and\n    /* \"#utility.yul\":8052:8054   */\n  0x4e\n    /* \"#utility.yul\":8042:8050   */\n  dup5\n    /* \"#utility.yul\":8039:8055   */\n  lt\n    /* \"#utility.yul\":8034:8036   */\n  0x0b\n    /* \"#utility.yul\":8028:8032   */\n  dup5\n    /* \"#utility.yul\":8025:8037   */\n  lt\n    /* \"#utility.yul\":8021:8056   */\n  and\n    /* \"#utility.yul\":8005:8116   */\n  or\n    /* \"#utility.yul\":8002:8248   */\n  iszero\n  tag_167\n  jumpi\n    /* \"#utility.yul\":8158:8166   */\n  dup3\n    /* \"#utility.yul\":8152:8156   */\n  dup3\n    /* \"#utility.yul\":8148:8167   */\n  exp\n    /* \"#utility.yul\":8139:8167   */\n  swap1\n  pop\n    /* \"#utility.yul\":8193:8196   */\n  dup4\n    /* \"#utility.yul\":8186:8191   */\n  dup2\n    /* \"#utility.yul\":8183:8197   */\n  gt\n    /* \"#utility.yul\":8180:8220   */\n  iszero\n  tag_168\n  jumpi\n    /* \"#utility.yul\":8200:8218   */\n  tag_169\n  tag_64\n  jump\t// in\ntag_169:\n    /* \"#utility.yul\":8180:8220   */\ntag_168:\n    /* \"#utility.yul\":8233:8238   */\n  jump(tag_157)\n    /* \"#utility.yul\":8002:8248   */\ntag_167:\n    /* \"#utility.yul\":8273:8315   */\n  tag_170\n    /* \"#utility.yul\":8311:8314   */\n  dup5\n    /* \"#utility.yul\":8301:8309   */\n  dup5\n    /* \"#utility.yul\":8295:8299   */\n  dup5\n    /* \"#utility.yul\":8292:8293   */\n  0x01\n    /* \"#utility.yul\":8273:8315   */\n  tag_66\n  jump\t// in\ntag_170:\n    /* \"#utility.yul\":8258:8315   */\n  swap3\n  pop\n  swap1\n  pop\n    /* \"#utility.yul\":8347:8351   */\n  dup2\n    /* \"#utility.yul\":8342:8345   */\n  dup5\n    /* \"#utility.yul\":8338:8352   */\n  div\n    /* \"#utility.yul\":8331:8336   */\n  dup2\n    /* \"#utility.yul\":8328:8353   */\n  gt\n    /* \"#utility.yul\":8325:8376   */\n  iszero\n  tag_171\n  jumpi\n    /* \"#utility.yul\":8356:8374   */\n  tag_172\n  tag_64\n  jump\t// in\ntag_172:\n    /* \"#utility.yul\":8325:8376   */\ntag_171:\n    /* \"#utility.yul\":8405:8409   */\n  dup2\n    /* \"#utility.yul\":8398:8403   */\n  dup2\n    /* \"#utility.yul\":8394:8410   */\n  mul\n    /* \"#utility.yul\":8385:8410   */\n  swap1\n  pop\n    /* \"#utility.yul\":7343:8416   */\ntag_157:\n  swap4\n  swap3\n  pop\n  pop\n  pop\n  jump\t// out\n    /* \"#utility.yul\":8422:8508   */\ntag_68:\n    /* \"#utility.yul\":8457:8464   */\n  0x00\n    /* \"#utility.yul\":8497:8501   */\n  0xff\n    /* \"#utility.yul\":8490:8495   */\n  dup3\n    /* \"#utility.yul\":8486:8502   */\n  and\n    /* \"#utility.yul\":8475:8502   */\n  swap1\n  pop\n    /* \"#utility.yul\":8422:8508   */\n  swap2\n  swap1\n  pop\n  jump\t// out\n    /* \"#utility.yul\":8514:8795   */\ntag_15:\n    /* \"#utility.yul\":8572:8577   */\n  0x00\n    /* \"#utility.yul\":8596:8619   */\n  tag_175\n    /* \"#utility.yul\":8614:8618   */\n  dup3\n    /* \"#utility.yul\":8596:8619   */\n  tag_42\n  jump\t// in\ntag_175:\n    /* \"#utility.yul\":8588:8619   */\n  swap2\n  pop\n    /* \"#utility.yul\":8640:8665   */\n  tag_176\n    /* \"#utility.yul\":8656:8664   */\n  dup4\n    /* \"#utility.yul\":8640:8665   */\n  tag_68\n  jump\t// in\ntag_176:\n    /* \"#utility.yul\":8628:8665   */\n  swap3\n  pop\n    /* \"#utility.yul\":8684:8788   */\n  tag_177\n    /* \"#utility.yul\":8721:8787   */\n  0xffffffffffffffffffffffffffffffffffffffffffffffffffffffffffffffff\n    /* \"#utility.yul\":8711:8719   */\n  dup5\n    /* \"#utility.yul\":8705:8709   */\n  dup5\n    /* \"#utility.yul\":8684:8788   */\n  tag_67\n  jump\t// in\ntag_177:\n    /* \"#utility.yul\":8675:8788   */\n  swap1\n  pop\n    /* \"#utility.yul\":8514:8795   */\n  swap3\n  swap2\n  pop\n  pop\n  jump\t// out\n    /* \"#utility.yul\":8801:9211   */\ntag_17:\n    /* \"#utility.yul\":8841:8848   */\n  0x00\n    /* \"#utility.yul\":8864:8884   */\n  tag_179\n    /* \"#utility.yul\":8882:8883   */\n  dup3\n    /* \"#utility.yul\":8864:8884   */\n  tag_42\n  jump\t// in\ntag_179:\n    /* \"#utility.yul\":8859:8884   */\n  swap2\n  pop\n    /* \"#utility.yul\":8898:8918   */\n  tag_180\n    /* \"#utility.yul\":8916:8917   */\n  dup4\n    /* \"#utility.yul\":8898:8918   */\n  tag_42\n  jump\t// in\ntag_180:\n    /* \"#utility.yul\":8893:8918   */\n  swap3\n  pop\n    /* \"#utility.yul\":8953:8954   */\n  dup3\n    /* \"#utility.yul\":8950:8951   */\n  dup3\n    /* \"#utility.yul\":8946:8955   */\n  mul\n    /* \"#utility.yul\":8975:9005   */\n  tag_181\n    /* \"#utility.yul\":8993:9004   */\n  dup2\n    /* \"#utility.yul\":8975:9005   */\n  tag_42\n  jump\t// in\ntag_181:\n    /* \"#utility.yul\":8964:9005   */\n  swap2\n  pop\n    /* \"#utility.yul\":9154:9155   */\n  dup3\n    /* \"#utility.yul\":9145:9152   */\n  dup3\n    /* \"#utility.yul\":9141:9156   */\n  div\n    /* \"#utility.yul\":9138:9139   */\n  dup5\n    /* \"#utility.yul\":9135:9157   */\n  eq\n    /* \"#utility.yul\":9115:9116   */\n  dup4\n    /* \"#utility.yul\":9108:9117   */\n  iszero\n    /* \"#utility.yul\":9088:9171   */\n  or\n    /* \"#utility.yul\":9065:9204   */\n  tag_182\n  jumpi\n    /* \"#utility.yul\":9184:9202   */\n  tag_183\n  tag_64\n  jump\t// in\ntag_183:\n    /* \"#utility.yul\":9065:9204   */\ntag_182:\n    /* \"#utility.yul\":8849:9211   */\n  pop\n    /* \"#utility.yul\":8801:9211   */\n  swap3\n  swap2\n  pop\n  pop\n  jump\t// out\n    /* \"#utility.yul\":9217:9343   */\ntag_69:\n    /* \"#utility.yul\":9254:9261   */\n  0x00\n    /* \"#utility.yul\":9294:9336   */\n  0xffffffffffffffffffffffffffffffffffffffff\n    /* \"#utility.yul\":9287:9292   */\n  dup3\n    /* \"#utility.yul\":9283:9337   */\n  and\n    /* \"#utility.yul\":9272:9337   */\n  swap1\n  pop\n    /* \"#utility.yul\":9217:9343   */\n  swap2\n  swap1\n  pop\n  jump\t// out\n    /* \"#utility.yul\":9349:9445   */\ntag_70:\n    /* \"#utility.yul\":9386:9393   */\n  0x00\n    /* \"#utility.yul\":9415:9439   */\n  tag_186\n    /* \"#utility.yul\":9433:9438   */\n  dup3\n    /* \"#utility.yul\":9415:9439   */\n  tag_69\n  jump\t// in\ntag_186:\n    /* \"#utility.yul\":9404:9439   */\n  swap1\n  pop\n    /* \"#utility.yul\":9349:9445   */\n  swap2\n  swap1\n  pop\n  jump\t// out\n    /* \"#utility.yul\":9451:9569   */\ntag_71:\n    /* \"#utility.yul\":9538:9562   */\n  tag_188\n    /* \"#utility.yul\":9556:9561   */\n  dup2\n    /* \"#utility.yul\":9538:9562   */\n  tag_70\n  jump\t// in\ntag_188:\n    /* \"#utility.yul\":9533:9536   */\n  dup3\n    /* \"#utility.yul\":9526:9563   */\n  mstore\n    /* \"#utility.yul\":9451:9569   */\n  pop\n  pop\n  jump\t// out\n    /* \"#utility.yul\":9575:9797   */\ntag_24:\n    /* \"#utility.yul\":9668:9672   */\n  0x00\n    /* \"#utility.yul\":9706:9708   */\n  0x20\n    /* \"#utility.yul\":9695:9704   */\n  dup3\n    /* \"#utility.yul\":9691:9709   */\n  add\n    /* \"#utility.yul\":9683:9709   */\n  swap1\n  pop\n    /* \"#utility.yul\":9719:9790   */\n  tag_190\n    /* \"#utility.yul\":9787:9788   */\n  0x00\n    /* \"#utility.yul\":9776:9785   */\n  dup4\n    /* \"#utility.yul\":9772:9789   */\n  add\n    /* \"#utility.yul\":9763:9769   */\n  dup5\n    /* \"#utility.yul\":9719:9790   */\n  tag_71\n  jump\t// in\ntag_190:\n    /* \"#utility.yul\":9575:9797   */\n  swap3\n  swap2\n  pop\n  pop\n  jump\t// out\n    /* \"#utility.yul\":9803:9994   */\ntag_30:\n    /* \"#utility.yul\":9843:9846   */\n  0x00\n    /* \"#utility.yul\":9862:9882   */\n  tag_192\n    /* \"#utility.yul\":9880:9881   */\n  dup3\n    /* \"#utility.yul\":9862:9882   */\n  tag_42\n  jump\t// in\ntag_192:\n    /* \"#utility.yul\":9857:9882   */\n  swap2\n  pop\n    /* \"#utility.yul\":9896:9916   */\n  tag_193\n    /* \"#utility.yul\":9914:9915   */\n  dup4\n    /* \"#utility.yul\":9896:9916   */\n  tag_42\n  jump\t// in\ntag_193:\n    /* \"#utility.yul\":9891:9916   */\n  swap3\n  pop\n    /* \"#utility.yul\":9939:9940   */\n  dup3\n    /* \"#utility.yul\":9936:9937   */\n  dup3\n    /* \"#utility.yul\":9932:9941   */\n  add\n    /* \"#utility.yul\":9925:9941   */\n  swap1\n  pop\n    /* \"#utility.yul\":9960:9963   */\n  dup1\n    /* \"#utility.yul\":9957:9958   */\n  dup3\n    /* \"#utility.yul\":9954:9964   */\n  gt\n    /* \"#utility.yul\":9951:9987   */\n  iszero\n  tag_194\n  jumpi\n    /* \"#utility.yul\":9967:9985   */\n  tag_195\n  tag_64\n  jump\t// in\ntag_195:\n    /* \"#utility.yul\":9951:9987   */\ntag_194:\n    /* \"#utility.yul\":9803:9994   */\n  swap3\n  swap2\n  pop\n  pop\n  jump\t// out\n    /* \"#utility.yul\":10000:10118   */\ntag_72:\n    /* \"#utility.yul\":10087:10111   */\n  tag_197\n    /* \"#utility.yul\":10105:10110   */\n  dup2\n    /* \"#utility.yul\":10087:10111   */\n  tag_42\n  jump\t// in\ntag_197:\n    /* \"#utility.yul\":10082:10085   */\n  dup3\n    /* \"#utility.yul\":10075:10112   */\n  mstore\n    /* \"#utility.yul\":10000:10118   */\n  pop\n  pop\n  jump\t// out\n    /* \"#utility.yul\":10124:10566   */\ntag_34:\n    /* \"#utility.yul\":10273:10277   */\n  0x00\n    /* \"#utility.yul\":10311:10313   */\n  0x60\n    /* \"#utility.yul\":10300:10309   */\n  dup3\n    /* \"#utility.yul\":10296:10314   */\n  add\n    /* \"#utility.yul\":10288:10314   */\n  swap1\n  pop\n    /* \"#utility.yul\":10324:10395   */\n  tag_199\n    /* \"#utility.yul\":10392:10393   */\n  0x00\n    /* \"#utility.yul\":10381:10390   */\n  dup4\n    /* \"#utility.yul\":10377:10394   */\n  add\n    /* \"#utility.yul\":10368:10374   */\n  dup7\n    /* \"#utility.yul\":10324:10395   */\n  tag_71\n  jump\t// in\ntag_199:\n    /* \"#utility.yul\":10405:10477   */\n  tag_200\n    /* \"#utility.yul\":10473:10475   */\n  0x20\n    /* \"#utility.yul\":10462:10471   */\n  dup4\n    /* \"#utility.yul\":10458:10476   */\n  add\n    /* \"#utility.yul\":10449:10455   */\n  dup6\n    /* \"#utility.yul\":10405:10477   */\n  tag_72\n  jump\t// in\ntag_200:\n    /* \"#utility.yul\":10487:10559   */\n  tag_201\n    /* \"#utility.yul\":10555:10557   */\n  0x40\n    /* \"#utility.yul\":10544:10553   */\n  dup4\n    /* \"#utility.yul\":10540:10558   */\n  add\n    /* \"#utility.yul\":10531:10537   */\n  dup5\n    /* \"#utility.yul\":10487:10559   */\n  tag_72\n  jump\t// in\ntag_201:\n    /* \"#utility.yul\":10124:10566   */\n  swap5\n  swap4\n  pop\n  pop\n  pop\n  pop\n  jump\t// out\n    /* \"#utility.yul\":10572:10794   */\ntag_38:\n    /* \"#utility.yul\":10665:10669   */\n  0x00\n    /* \"#utility.yul\":10703:10705   */\n  0x20\n    /* \"#utility.yul\":10692:10701   */\n  dup3\n    /* \"#utility.yul\":10688:10706   */\n  add\n    /* \"#utility.yul\":10680:10706   */\n  swap1\n  pop\n    /* \"#utility.yul\":10716:10787   */\n  tag_203\n    /* \"#utility.yul\":10784:10785   */\n  0x00\n    /* \"#utility.yul\":10773:10782   */\n  dup4\n    /* \"#utility.yul\":10769:10786   */\n  add\n    /* \"#utility.yul\":10760:10766   */\n  dup5\n    /* \"#utility.yul\":10716:10787   */\n  tag_72\n  jump\t// in\ntag_203:\n    /* \"#utility.yul\":10572:10794   */\n  swap3\n  swap2\n  pop\n  pop\n  jump\t// out\n    /* \"GreenCreditToken.sol\":119:6087  contract GreenCreditToken is ERC20 {... */\ntag_19:\n  dataSize(sub_0)\n  dup1\n  dataOffset(sub_0)\n  0x00\n  codecopy\n  0x00\n  return\nstop\n\nsub_0: assembly {\n        /* \"GreenCreditToken.sol\":119:6087  contract GreenCreditToken is ERC20 {... */\n      mstore(0x40, 0x80)\n      jumpi(tag_1, lt(calldatasize, 0x04))\n      shr(0xe0, calldataload(0x00))\n      dup1\n      0x7ff9b596\n      gt\n      tag_29\n      jumpi\n      dup1\n      0xcb8c0c1d\n      gt\n      tag_30\n      jumpi\n      dup1\n      0xdd62ed3e\n      gt\n      tag_31\n      jumpi\n      dup1\n      0xdd62ed3e\n      eq\n      tag_25\n      jumpi\n      dup1\n      0xde74e57b\n      eq\n      tag_26\n      jumpi\n      dup1\n      0xf13e8331\n      eq\n      tag_27\n      jumpi\n      dup1\n      0xfbd9be8b\n      eq\n      tag_28\n      jumpi\n      jump(tag_1)\n    tag_31:\n      dup1\n      0xcb8c0c1d\n      eq\n      tag_22\n      jumpi\n      dup1\n      0xd1df306c\n      eq\n      tag_23\n      jumpi\n      dup1\n      0xd22b2ed0\n      eq\n      tag_24\n      jumpi\n      jump(tag_1)\n    tag_30:\n      dup1\n      0xa9059cbb\n      gt\n      tag_32\n      jumpi\n      dup1\n      0xa9059cbb\n      eq\n      tag_18\n      jumpi\n      dup1\n      0xa9b07c26\n      eq\n      tag_19\n      jumpi\n      dup1\n      0xb6267ae8\n      eq\n      tag_20\n      jumpi\n      dup1\n      0xbd3507da\n      eq\n      tag_21\n      jumpi\n      jump(tag_1)\n    tag_32:\n      dup1\n      0x7ff9b596\n      eq\n      tag_15\n      jumpi\n      dup1\n      0x95d89b41\n      eq\n      tag_16\n      jumpi\n      dup1\n      0x9a83dc3d\n      eq\n      tag_17\n      jumpi\n      jump(tag_1)\n    tag_29:\n      dup1\n      0x313ce567\n      gt\n      tag_33\n      jumpi\n      dup1\n      0x5fe01930\n      gt\n      tag_34\n      jumpi\n      dup1\n      0x5fe01930\n      eq\n      tag_11\n      jumpi\n      dup1\n      0x692bf4a8\n      eq\n      tag_12\n      jumpi\n      dup1\n      0x6a61e5fc\n      eq\n      tag_13\n      jumpi\n      dup1\n      0x70a08231\n      eq\n      tag_14\n      jumpi\n      jump(tag_1)\n    tag_34:\n      dup1\n      0x313ce567\n      eq\n      tag_8\n      jumpi\n      dup1\n      0x4fac0168\n      eq\n      tag_9\n      jumpi\n      dup1\n      0x51e73a16\n      eq\n      tag_10\n      jumpi\n      jump(tag_1)\n    tag_33:\n      dup1\n      0x06fdde03\n      eq\n      tag_2\n      jumpi\n      dup1\n      0x095ea7b3\n      eq\n      tag_3\n      jumpi\n      dup1\n      0x0a8c8f20\n      eq\n      tag_4\n      jumpi\n      dup1\n      0x18160ddd\n      eq\n      tag_5\n      jumpi\n      dup1\n      0x23b872dd\n      eq\n      tag_6\n      jumpi\n      dup1\n      0x2ea665cd\n      eq\n      tag_7\n      jumpi\n    tag_1:\n      0x00\n      dup1\n      revert\n        /* \"@openzeppelin/contracts/token/ERC20/ERC20.sol\":2074:2163  function name() public view virtual returns (string memory) {... */\n    tag_2:\n      callvalue\n      dup1\n      iszero\n      tag_35\n      jumpi\n      0x00\n      dup1\n      revert\n    tag_35:\n      pop\n      tag_36\n      tag_37\n      jump\t// in\n    tag_36:\n      mload(0x40)\n      tag_38\n      swap2\n      swap1\n      tag_39\n      jump\t// in\n    tag_38:\n      mload(0x40)\n      dup1\n      swap2\n      sub\n      swap1\n      return\n        /* \"@openzeppelin/contracts/token/ERC20/ERC20.sol\":4293:4479  function approve(address spender, uint256 value) public virtual returns (bool) {... */\n    tag_3:\n      callvalue\n      dup1\n      iszero\n      tag_40\n      jumpi\n      0x00\n      dup1\n      revert\n    tag_40:\n      pop\n      tag_41\n      0x04\n      dup1\n      calldatasize\n      sub\n      dup2\n      add\n      swap1\n      tag_42\n      swap2\n      swap1\n      tag_43\n      jump\t// in\n    tag_42:\n      tag_44\n      jump\t// in\n    tag_41:\n      mload(0x40)\n      tag_45\n      swap2\n      swap1\n      tag_46\n      jump\t// in\n    tag_45:\n      mload(0x40)\n      dup1\n      swap2\n      sub\n      swap1\n      return\n        /* \"GreenCreditToken.sol\":302:350  mapping(address => bool) public IndustryAccounts */\n    tag_4:\n      callvalue\n      dup1\n      iszero\n      tag_47\n      jumpi\n      0x00\n      dup1\n      revert\n    tag_47:\n      pop\n      tag_48\n      0x04\n      dup1\n      calldatasize\n      sub\n      dup2\n      add\n      swap1\n      tag_49\n      swap2\n      swap1\n      tag_50\n      jump\t// in\n    tag_49:\n      tag_51\n      jump\t// in\n    tag_48:\n      mload(0x40)\n      tag_52\n      swap2\n      swap1\n      tag_46\n      jump\t// in\n    tag_52:\n      mload(0x40)\n      dup1\n      swap2\n      sub\n      swap1\n      return\n        /* \"@openzeppelin/contracts/token/ERC20/ERC20.sol\":3144:3241  function totalSupply() public view virtual returns (uint256) {... */\n    tag_5:\n      callvalue\n      dup1\n      iszero\n      tag_53\n      jumpi\n      0x00\n      dup1\n      revert\n    tag_53:\n      pop\n      tag_54\n      tag_55\n      jump\t// in\n    tag_54:\n      mload(0x40)\n      tag_56\n      swap2\n      swap1\n      tag_57\n      jump\t// in\n    tag_56:\n      mload(0x40)\n      dup1\n      swap2\n      sub\n      swap1\n      return\n        /* \"@openzeppelin/contracts/token/ERC20/ERC20.sol\":5039:5283  function transferFrom(address from, address to, uint256 value) public virtual returns (bool) {... */\n    tag_6:\n      callvalue\n      dup1\n      iszero\n      tag_58\n      jumpi\n      0x00\n      dup1\n      revert\n    tag_58:\n      pop\n      tag_59\n      0x04\n      dup1\n      calldatasize\n      sub\n      dup2\n      add\n      swap1\n      tag_60\n      swap2\n      swap1\n      tag_61\n      jump\t// in\n    tag_60:\n      tag_62\n      jump\t// in\n    tag_59:\n      mload(0x40)\n      tag_63\n      swap2\n      swap1\n      tag_46\n      jump\t// in\n    tag_63:\n      mload(0x40)\n      dup1\n      swap2\n      sub\n      swap1\n      return\n        /* \"GreenCreditToken.sol\":161:207  address payable public EcoZapPlatformOwner */\n    tag_7:\n      callvalue\n      dup1\n      iszero\n      tag_64\n      jumpi\n      0x00\n      dup1\n      revert\n    tag_64:\n      pop\n      tag_65\n      tag_66\n      jump\t// in\n    tag_65:\n      mload(0x40)\n      tag_67\n      swap2\n      swap1\n      tag_68\n      jump\t// in\n    tag_67:\n      mload(0x40)\n      dup1\n      swap2\n      sub\n      swap1\n      return\n        /* \"@openzeppelin/contracts/token/ERC20/ERC20.sol\":3002:3084  function decimals() public view virtual returns (uint8) {... */\n    tag_8:\n      callvalue\n      dup1\n      iszero\n      tag_69\n      jumpi\n      0x00\n      dup1\n      revert\n    tag_69:\n      pop\n      tag_70\n      tag_71\n      jump\t// in\n    tag_70:\n      mload(0x40)\n      tag_72\n      swap2\n      swap1\n      tag_73\n      jump\t// in\n    tag_72:\n      mload(0x40)\n      dup1\n      swap2\n      sub\n      swap1\n      return\n        /* \"GreenCreditToken.sol\":358:408  mapping(address => bool) public IndividualAccounts */\n    tag_9:\n      callvalue\n      dup1\n      iszero\n      tag_74\n      jumpi\n      0x00\n      dup1\n      revert\n    tag_74:\n      pop\n      tag_75\n      0x04\n      dup1\n      calldatasize\n      sub\n      dup2\n      add\n      swap1\n      tag_76\n      swap2\n      swap1\n      tag_50\n      jump\t// in\n    tag_76:\n      tag_77\n      jump\t// in\n    tag_75:\n      mload(0x40)\n      tag_78\n      swap2\n      swap1\n      tag_46\n      jump\t// in\n    tag_78:\n      mload(0x40)\n      dup1\n      swap2\n      sub\n      swap1\n      return\n        /* \"GreenCreditToken.sol\":1670:2211  function initialAllowance(... */\n    tag_10:\n      callvalue\n      dup1\n      iszero\n      tag_79\n      jumpi\n      0x00\n      dup1\n      revert\n    tag_79:\n      pop\n      tag_80\n      0x04\n      dup1\n      calldatasize\n      sub\n      dup2\n      add\n      swap1\n      tag_81\n      swap2\n      swap1\n      tag_82\n      jump\t// in\n    tag_81:\n      tag_83\n      jump\t// in\n    tag_80:\n      stop\n        /* \"GreenCreditToken.sol\":2901:3010  function grantIndustryPrivilege(address _account) public {... */\n    tag_11:\n      callvalue\n      dup1\n      iszero\n      tag_84\n      jumpi\n      0x00\n      dup1\n      revert\n    tag_84:\n      pop\n      tag_85\n      0x04\n      dup1\n      calldatasize\n      sub\n      dup2\n      add\n      swap1\n      tag_86\n      swap2\n      swap1\n      tag_50\n      jump\t// in\n    tag_86:\n      tag_87\n      jump\t// in\n    tag_85:\n      stop\n        /* \"GreenCreditToken.sol\":3446:4102  function buyToken(... */\n    tag_12:\n      tag_88\n      0x04\n      dup1\n      calldatasize\n      sub\n      dup2\n      add\n      swap1\n      tag_89\n      swap2\n      swap1\n      tag_90\n      jump\t// in\n    tag_89:\n      tag_91\n      jump\t// in\n    tag_88:\n      stop\n        /* \"GreenCreditToken.sol\":1562:1662  function setTokenPrice(uint newPrice) public onlyGovernment {... */\n    tag_13:\n      callvalue\n      dup1\n      iszero\n      tag_92\n      jumpi\n      0x00\n      dup1\n      revert\n    tag_92:\n      pop\n      tag_93\n      0x04\n      dup1\n      calldatasize\n      sub\n      dup2\n      add\n      swap1\n      tag_94\n      swap2\n      swap1\n      tag_95\n      jump\t// in\n    tag_94:\n      tag_96\n      jump\t// in\n    tag_93:\n      stop\n        /* \"@openzeppelin/contracts/token/ERC20/ERC20.sol\":3299:3415  function balanceOf(address account) public view virtual returns (uint256) {... */\n    tag_14:\n      callvalue\n      dup1\n      iszero\n      tag_97\n      jumpi\n      0x00\n      dup1\n      revert\n    tag_97:\n      pop\n      tag_98\n      0x04\n      dup1\n      calldatasize\n      sub\n      dup2\n      add\n      swap1\n      tag_99\n      swap2\n      swap1\n      tag_50\n      jump\t// in\n    tag_99:\n      tag_100\n      jump\t// in\n    tag_98:\n      mload(0x40)\n      tag_101\n      swap2\n      swap1\n      tag_57\n      jump\t// in\n    tag_101:\n      mload(0x40)\n      dup1\n      swap2\n      sub\n      swap1\n      return\n        /* \"GreenCreditToken.sol\":214:236  uint public tokenPrice */\n    tag_15:\n      callvalue\n      dup1\n      iszero\n      tag_102\n      jumpi\n      0x00\n      dup1\n      revert\n    tag_102:\n      pop\n      tag_103\n      tag_104\n      jump\t// in\n    tag_103:\n      mload(0x40)\n      tag_105\n      swap2\n      swap1\n      tag_57\n      jump\t// in\n    tag_105:\n      mload(0x40)\n      dup1\n      swap2\n      sub\n      swap1\n      return\n        /* \"@openzeppelin/contracts/token/ERC20/ERC20.sol\":2276:2369  function symbol() public view virtual returns (string memory) {... */\n    tag_16:\n      callvalue\n      dup1\n      iszero\n      tag_106\n      jumpi\n      0x00\n      dup1\n      revert\n    tag_106:\n      pop\n      tag_107\n      tag_108\n      jump\t// in\n    tag_107:\n      mload(0x40)\n      tag_109\n      swap2\n      swap1\n      tag_39\n      jump\t// in\n    tag_109:\n      mload(0x40)\n      dup1\n      swap2\n      sub\n      swap1\n      return\n        /* \"GreenCreditToken.sol\":5394:6084  function buyTokensFromMarketpalce(uint _listingId) public payable onlyIndustry {... */\n    tag_17:\n      tag_110\n      0x04\n      dup1\n      calldatasize\n      sub\n      dup2\n      add\n      swap1\n      tag_111\n      swap2\n      swap1\n      tag_95\n      jump\t// in\n    tag_111:\n      tag_112\n      jump\t// in\n    tag_110:\n      stop\n        /* \"@openzeppelin/contracts/token/ERC20/ERC20.sol\":3610:3788  function transfer(address to, uint256 value) public virtual returns (bool) {... */\n    tag_18:\n      callvalue\n      dup1\n      iszero\n      tag_113\n      jumpi\n      0x00\n      dup1\n      revert\n    tag_113:\n      pop\n      tag_114\n      0x04\n      dup1\n      calldatasize\n      sub\n      dup2\n      add\n      swap1\n      tag_115\n      swap2\n      swap1\n      tag_43\n      jump\t// in\n    tag_115:\n      tag_116\n      jump\t// in\n    tag_114:\n      mload(0x40)\n      tag_117\n      swap2\n      swap1\n      tag_46\n      jump\t// in\n    tag_117:\n      mload(0x40)\n      dup1\n      swap2\n      sub\n      swap1\n      return\n        /* \"GreenCreditToken.sol\":4344:4368  uint public listingCount */\n    tag_19:\n      callvalue\n      dup1\n      iszero\n      tag_118\n      jumpi\n      0x00\n      dup1\n      revert\n    tag_118:\n      pop\n      tag_119\n      tag_120\n      jump\t// in\n    tag_119:\n      mload(0x40)\n      tag_121\n      swap2\n      swap1\n      tag_57\n      jump\t// in\n    tag_121:\n      mload(0x40)\n      dup1\n      swap2\n      sub\n      swap1\n      return\n        /* \"GreenCreditToken.sol\":2261:2444  function registerIndividual() public {... */\n    tag_20:\n      callvalue\n      dup1\n      iszero\n      tag_122\n      jumpi\n      0x00\n      dup1\n      revert\n    tag_122:\n      pop\n      tag_123\n      tag_124\n      jump\t// in\n    tag_123:\n      stop\n        /* \"GreenCreditToken.sol\":2652:2861  function collectReward(uint rewardAmount) public onlyIndividual {... */\n    tag_21:\n      callvalue\n      dup1\n      iszero\n      tag_125\n      jumpi\n      0x00\n      dup1\n      revert\n    tag_125:\n      pop\n      tag_126\n      0x04\n      dup1\n      calldatasize\n      sub\n      dup2\n      add\n      swap1\n      tag_127\n      swap2\n      swap1\n      tag_95\n      jump\t// in\n    tag_127:\n      tag_128\n      jump\t// in\n    tag_126:\n      stop\n        /* \"GreenCreditToken.sol\":417:466  mapping(address => uint) public IndustryAllowance */\n    tag_22:\n      callvalue\n      dup1\n      iszero\n      tag_129\n      jumpi\n      0x00\n      dup1\n      revert\n    tag_129:\n      pop\n      tag_130\n      0x04\n      dup1\n      calldatasize\n      sub\n      dup2\n      add\n      swap1\n      tag_131\n      swap2\n      swap1\n      tag_50\n      jump\t// in\n    tag_131:\n      tag_132\n      jump\t// in\n    tag_130:\n      mload(0x40)\n      tag_133\n      swap2\n      swap1\n      tag_57\n      jump\t// in\n    tag_133:\n      mload(0x40)\n      dup1\n      swap2\n      sub\n      swap1\n      return\n        /* \"GreenCreditToken.sol\":892:1155  function burnToken(address _address, uint _tokenCount) public {... */\n    tag_23:\n      callvalue\n      dup1\n      iszero\n      tag_134\n      jumpi\n      0x00\n      dup1\n      revert\n    tag_134:\n      pop\n      tag_135\n      0x04\n      dup1\n      calldatasize\n      sub\n      dup2\n      add\n      swap1\n      tag_136\n      swap2\n      swap1\n      tag_43\n      jump\t// in\n    tag_136:\n      tag_137\n      jump\t// in\n    tag_135:\n      stop\n        /* \"GreenCreditToken.sol\":1190:1354  function grantGovernmentPrivilege(address _account) public {... */\n    tag_24:\n      callvalue\n      dup1\n      iszero\n      tag_138\n      jumpi\n      0x00\n      dup1\n      revert\n    tag_138:\n      pop\n      tag_139\n      0x04\n      dup1\n      calldatasize\n      sub\n      dup2\n      add\n      swap1\n      tag_140\n      swap2\n      swap1\n      tag_50\n      jump\t// in\n    tag_140:\n      tag_141\n      jump\t// in\n    tag_139:\n      stop\n        /* \"@openzeppelin/contracts/token/ERC20/ERC20.sol\":3846:3986  function allowance(address owner, address spender) public view virtual returns (uint256) {... */\n    tag_25:\n      callvalue\n      dup1\n      iszero\n      tag_142\n      jumpi\n      0x00\n      dup1\n      revert\n    tag_142:\n      pop\n      tag_143\n      0x04\n      dup1\n      calldatasize\n      sub\n      dup2\n      add\n      swap1\n      tag_144\n      swap2\n      swap1\n      tag_145\n      jump\t// in\n    tag_144:\n      tag_146\n      jump\t// in\n    tag_143:\n      mload(0x40)\n      tag_147\n      swap2\n      swap1\n      tag_57\n      jump\t// in\n    tag_147:\n      mload(0x40)\n      dup1\n      swap2\n      sub\n      swap1\n      return\n        /* \"GreenCreditToken.sol\":4292:4337  mapping(uint => TokenListing) public listings */\n    tag_26:\n      callvalue\n      dup1\n      iszero\n      tag_148\n      jumpi\n      0x00\n      dup1\n      revert\n    tag_148:\n      pop\n      tag_149\n      0x04\n      dup1\n      calldatasize\n      sub\n      dup2\n      add\n      swap1\n      tag_150\n      swap2\n      swap1\n      tag_95\n      jump\t// in\n    tag_150:\n      tag_151\n      jump\t// in\n    tag_149:\n      mload(0x40)\n      tag_152\n      swap5\n      swap4\n      swap3\n      swap2\n      swap1\n      tag_153\n      jump\t// in\n    tag_152:\n      mload(0x40)\n      dup1\n      swap2\n      sub\n      swap1\n      return\n        /* \"GreenCreditToken.sol\":245:295  mapping(address => bool) public GovernmentAccounts */\n    tag_27:\n      callvalue\n      dup1\n      iszero\n      tag_154\n      jumpi\n      0x00\n      dup1\n      revert\n    tag_154:\n      pop\n      tag_155\n      0x04\n      dup1\n      calldatasize\n      sub\n      dup2\n      add\n      swap1\n      tag_156\n      swap2\n      swap1\n      tag_50\n      jump\t// in\n    tag_156:\n      tag_157\n      jump\t// in\n    tag_155:\n      mload(0x40)\n      tag_158\n      swap2\n      swap1\n      tag_46\n      jump\t// in\n    tag_158:\n      mload(0x40)\n      dup1\n      swap2\n      sub\n      swap1\n      return\n        /* \"GreenCreditToken.sol\":4857:5357  function listTokensForSale(uint _tokenCount, uint _price)... */\n    tag_28:\n      callvalue\n      dup1\n      iszero\n      tag_159\n      jumpi\n      0x00\n      dup1\n      revert\n    tag_159:\n      pop\n      tag_160\n      0x04\n      dup1\n      calldatasize\n      sub\n      dup2\n      add\n      swap1\n      tag_161\n      swap2\n      swap1\n      tag_162\n      jump\t// in\n    tag_161:\n      tag_163\n      jump\t// in\n    tag_160:\n      stop\n        /* \"@openzeppelin/contracts/token/ERC20/ERC20.sol\":2074:2163  function name() public view virtual returns (string memory) {... */\n    tag_37:\n        /* \"@openzeppelin/contracts/token/ERC20/ERC20.sol\":2119:2132  string memory */\n      0x60\n        /* \"@openzeppelin/contracts/token/ERC20/ERC20.sol\":2151:2156  _name */\n      0x03\n        /* \"@openzeppelin/contracts/token/ERC20/ERC20.sol\":2144:2156  return _name */\n      dup1\n      sload\n      tag_165\n      swap1\n      tag_166\n      jump\t// in\n    tag_165:\n      dup1\n      0x1f\n      add\n      0x20\n      dup1\n      swap2\n      div\n      mul\n      0x20\n      add\n      mload(0x40)\n      swap1\n      dup2\n      add\n      0x40\n      mstore\n      dup1\n      swap3\n      swap2\n      swap1\n      dup2\n      dup2\n      mstore\n      0x20\n      add\n      dup3\n      dup1\n      sload\n      tag_167\n      swap1\n      tag_166\n      jump\t// in\n    tag_167:\n      dup1\n      iszero\n      tag_168\n      jumpi\n      dup1\n      0x1f\n      lt\n      tag_169\n      jumpi\n      0x0100\n      dup1\n      dup4\n      sload\n      div\n      mul\n      dup4\n      mstore\n      swap2\n      0x20\n      add\n      swap2\n      jump(tag_168)\n    tag_169:\n      dup3\n      add\n      swap2\n      swap1\n      0x00\n      mstore\n      keccak256(0x00, 0x20)\n      swap1\n    tag_170:\n      dup2\n      sload\n      dup2\n      mstore\n      swap1\n      0x01\n      add\n      swap1\n      0x20\n      add\n      dup1\n      dup4\n      gt\n      tag_170\n      jumpi\n      dup3\n      swap1\n      sub\n      0x1f\n      and\n      dup3\n      add\n      swap2\n    tag_168:\n      pop\n      pop\n      pop\n      pop\n      pop\n      swap1\n      pop\n        /* \"@openzeppelin/contracts/token/ERC20/ERC20.sol\":2074:2163  function name() public view virtual returns (string memory) {... */\n      swap1\n      jump\t// out\n        /* \"@openzeppelin/contracts/token/ERC20/ERC20.sol\":4293:4479  function approve(address spender, uint256 value) public virtual returns (bool) {... */\n    tag_44:\n        /* \"@openzeppelin/contracts/token/ERC20/ERC20.sol\":4366:4370  bool */\n      0x00\n        /* \"@openzeppelin/contracts/token/ERC20/ERC20.sol\":4382:4395  address owner */\n      dup1\n        /* \"@openzeppelin/contracts/token/ERC20/ERC20.sol\":4398:4410  _msgSender() */\n      tag_172\n        /* \"@openzeppelin/contracts/token/ERC20/ERC20.sol\":4398:4408  _msgSender */\n      tag_173\n        /* \"@openzeppelin/contracts/token/ERC20/ERC20.sol\":4398:4410  _msgSender() */\n      jump\t// in\n    tag_172:\n        /* \"@openzeppelin/contracts/token/ERC20/ERC20.sol\":4382:4410  address owner = _msgSender() */\n      swap1\n      pop\n        /* \"@openzeppelin/contracts/token/ERC20/ERC20.sol\":4420:4451  _approve(owner, spender, value) */\n      tag_174\n        /* \"@openzeppelin/contracts/token/ERC20/ERC20.sol\":4429:4434  owner */\n      dup2\n        /* \"@openzeppelin/contracts/token/ERC20/ERC20.sol\":4436:4443  spender */\n      dup6\n        /* \"@openzeppelin/contracts/token/ERC20/ERC20.sol\":4445:4450  value */\n      dup6\n        /* \"@openzeppelin/contracts/token/ERC20/ERC20.sol\":4420:4428  _approve */\n      tag_175\n        /* \"@openzeppelin/contracts/token/ERC20/ERC20.sol\":4420:4451  _approve(owner, spender, value) */\n      jump\t// in\n    tag_174:\n        /* \"@openzeppelin/contracts/token/ERC20/ERC20.sol\":4468:4472  true */\n      0x01\n        /* \"@openzeppelin/contracts/token/ERC20/ERC20.sol\":4461:4472  return true */\n      swap2\n      pop\n      pop\n        /* \"@openzeppelin/contracts/token/ERC20/ERC20.sol\":4293:4479  function approve(address spender, uint256 value) public virtual returns (bool) {... */\n      swap3\n      swap2\n      pop\n      pop\n      jump\t// out\n        /* \"GreenCreditToken.sol\":302:350  mapping(address => bool) public IndustryAccounts */\n    tag_51:\n      mstore(0x20, 0x08)\n      dup1\n      0x00\n      mstore\n      keccak256(0x00, 0x40)\n      0x00\n      swap2\n      pop\n      sload\n      swap1\n      0x0100\n      exp\n      swap1\n      div\n      0xff\n      and\n      dup2\n      jump\t// out\n        /* \"@openzeppelin/contracts/token/ERC20/ERC20.sol\":3144:3241  function totalSupply() public view virtual returns (uint256) {... */\n    tag_55:\n        /* \"@openzeppelin/contracts/token/ERC20/ERC20.sol\":3196:3203  uint256 */\n      0x00\n        /* \"@openzeppelin/contracts/token/ERC20/ERC20.sol\":3222:3234  _totalSupply */\n      sload(0x02)\n        /* \"@openzeppelin/contracts/token/ERC20/ERC20.sol\":3215:3234  return _totalSupply */\n      swap1\n      pop\n        /* \"@openzeppelin/contracts/token/ERC20/ERC20.sol\":3144:3241  function totalSupply() public view virtual returns (uint256) {... */\n      swap1\n      jump\t// out\n        /* \"@openzeppelin/contracts/token/ERC20/ERC20.sol\":5039:5283  function transferFrom(address from, address to, uint256 value) public virtual returns (bool) {... */\n    tag_62:\n        /* \"@openzeppelin/contracts/token/ERC20/ERC20.sol\":5126:5130  bool */\n      0x00\n        /* \"@openzeppelin/contracts/token/ERC20/ERC20.sol\":5142:5157  address spender */\n      dup1\n        /* \"@openzeppelin/contracts/token/ERC20/ERC20.sol\":5160:5172  _msgSender() */\n      tag_178\n        /* \"@openzeppelin/contracts/token/ERC20/ERC20.sol\":5160:5170  _msgSender */\n      tag_173\n        /* \"@openzeppelin/contracts/token/ERC20/ERC20.sol\":5160:5172  _msgSender() */\n      jump\t// in\n    tag_178:\n        /* \"@openzeppelin/contracts/token/ERC20/ERC20.sol\":5142:5172  address spender = _msgSender() */\n      swap1\n      pop\n        /* \"@openzeppelin/contracts/token/ERC20/ERC20.sol\":5182:5219  _spendAllowance(from, spender, value) */\n      tag_179\n        /* \"@openzeppelin/contracts/token/ERC20/ERC20.sol\":5198:5202  from */\n      dup6\n        /* \"@openzeppelin/contracts/token/ERC20/ERC20.sol\":5204:5211  spender */\n      dup3\n        /* \"@openzeppelin/contracts/token/ERC20/ERC20.sol\":5213:5218  value */\n      dup6\n        /* \"@openzeppelin/contracts/token/ERC20/ERC20.sol\":5182:5197  _spendAllowance */\n      tag_180\n        /* \"@openzeppelin/contracts/token/ERC20/ERC20.sol\":5182:5219  _spendAllowance(from, spender, value) */\n      jump\t// in\n    tag_179:\n        /* \"@openzeppelin/contracts/token/ERC20/ERC20.sol\":5229:5255  _transfer(from, to, value) */\n      tag_181\n        /* \"@openzeppelin/contracts/token/ERC20/ERC20.sol\":5239:5243  from */\n      dup6\n        /* \"@openzeppelin/contracts/token/ERC20/ERC20.sol\":5245:5247  to */\n      dup6\n        /* \"@openzeppelin/contracts/token/ERC20/ERC20.sol\":5249:5254  value */\n      dup6\n        /* \"@openzeppelin/contracts/token/ERC20/ERC20.sol\":5229:5238  _transfer */\n      tag_182\n        /* \"@openzeppelin/contracts/token/ERC20/ERC20.sol\":5229:5255  _transfer(from, to, value) */\n      jump\t// in\n    tag_181:\n        /* \"@openzeppelin/contracts/token/ERC20/ERC20.sol\":5272:5276  true */\n      0x01\n        /* \"@openzeppelin/contracts/token/ERC20/ERC20.sol\":5265:5276  return true */\n      swap2\n      pop\n      pop\n        /* \"@openzeppelin/contracts/token/ERC20/ERC20.sol\":5039:5283  function transferFrom(address from, address to, uint256 value) public virtual returns (bool) {... */\n      swap4\n      swap3\n      pop\n      pop\n      pop\n      jump\t// out\n        /* \"GreenCreditToken.sol\":161:207  address payable public EcoZapPlatformOwner */\n    tag_66:\n      0x05\n      0x00\n      swap1\n      sload\n      swap1\n      0x0100\n      exp\n      swap1\n      div\n      0xffffffffffffffffffffffffffffffffffffffff\n      and\n      dup2\n      jump\t// out\n        /* \"@openzeppelin/contracts/token/ERC20/ERC20.sol\":3002:3084  function decimals() public view virtual returns (uint8) {... */\n    tag_71:\n        /* \"@openzeppelin/contracts/token/ERC20/ERC20.sol\":3051:3056  uint8 */\n      0x00\n        /* \"@openzeppelin/contracts/token/ERC20/ERC20.sol\":3075:3077  18 */\n      0x12\n        /* \"@openzeppelin/contracts/token/ERC20/ERC20.sol\":3068:3077  return 18 */\n      swap1\n      pop\n        /* \"@openzeppelin/contracts/token/ERC20/ERC20.sol\":3002:3084  function decimals() public view virtual returns (uint8) {... */\n      swap1\n      jump\t// out\n        /* \"GreenCreditToken.sol\":358:408  mapping(address => bool) public IndividualAccounts */\n    tag_77:\n      mstore(0x20, 0x09)\n      dup1\n      0x00\n      mstore\n      keccak256(0x00, 0x40)\n      0x00\n      swap2\n      pop\n      sload\n      swap1\n      0x0100\n      exp\n      swap1\n      div\n      0xff\n      and\n      dup2\n      jump\t// out\n        /* \"GreenCreditToken.sol\":1670:2211  function initialAllowance(... */\n    tag_83:\n        /* \"GreenCreditToken.sol\":1455:1459  true */\n      0x01\n        /* \"GreenCreditToken.sol\":1421:1459  GovernmentAccounts[msg.sender] == true */\n      iszero\n      iszero\n        /* \"GreenCreditToken.sol\":1421:1439  GovernmentAccounts */\n      0x07\n        /* \"GreenCreditToken.sol\":1421:1451  GovernmentAccounts[msg.sender] */\n      0x00\n        /* \"GreenCreditToken.sol\":1440:1450  msg.sender */\n      caller\n        /* \"GreenCreditToken.sol\":1421:1451  GovernmentAccounts[msg.sender] */\n      0xffffffffffffffffffffffffffffffffffffffff\n      and\n      0xffffffffffffffffffffffffffffffffffffffff\n      and\n      dup2\n      mstore\n      0x20\n      add\n      swap1\n      dup2\n      mstore\n      0x20\n      add\n      0x00\n      keccak256\n      0x00\n      swap1\n      sload\n      swap1\n      0x0100\n      exp\n      swap1\n      div\n      0xff\n      and\n        /* \"GreenCreditToken.sol\":1421:1459  GovernmentAccounts[msg.sender] == true */\n      iszero\n      iszero\n      eq\n        /* \"GreenCreditToken.sol\":1399:1534  require(... */\n      tag_185\n      jumpi\n      mload(0x40)\n      0x08c379a000000000000000000000000000000000000000000000000000000000\n      dup2\n      mstore\n      0x04\n      add\n      tag_186\n      swap1\n      tag_187\n      jump\t// in\n    tag_186:\n      mload(0x40)\n      dup1\n      swap2\n      sub\n      swap1\n      revert\n    tag_185:\n        /* \"GreenCreditToken.sol\":1849:1850  0 */\n      0x00\n        /* \"GreenCreditToken.sol\":1828:1851  _industry != address(0) */\n      0xffffffffffffffffffffffffffffffffffffffff\n      and\n        /* \"GreenCreditToken.sol\":1828:1837  _industry */\n      dup4\n        /* \"GreenCreditToken.sol\":1828:1851  _industry != address(0) */\n      0xffffffffffffffffffffffffffffffffffffffff\n      and\n      sub\n        /* \"GreenCreditToken.sol\":1820:1873  require(_industry != address(0), \"Invalid addresses\") */\n      tag_189\n      jumpi\n      mload(0x40)\n      0x08c379a000000000000000000000000000000000000000000000000000000000\n      dup2\n      mstore\n      0x04\n      add\n      tag_190\n      swap1\n      tag_191\n      jump\t// in\n    tag_190:\n      mload(0x40)\n      dup1\n      swap2\n      sub\n      swap1\n      revert\n    tag_189:\n        /* \"GreenCreditToken.sol\":1937:1941  true */\n      0x01\n        /* \"GreenCreditToken.sol\":1906:1941  IndustryAccounts[_industry] == true */\n      iszero\n      iszero\n        /* \"GreenCreditToken.sol\":1906:1922  IndustryAccounts */\n      0x08\n        /* \"GreenCreditToken.sol\":1906:1933  IndustryAccounts[_industry] */\n      0x00\n        /* \"GreenCreditToken.sol\":1923:1932  _industry */\n      dup6\n        /* \"GreenCreditToken.sol\":1906:1933  IndustryAccounts[_industry] */\n      0xffffffffffffffffffffffffffffffffffffffff\n      and\n      0xffffffffffffffffffffffffffffffffffffffff\n      and\n      dup2\n      mstore\n      0x20\n      add\n      swap1\n      dup2\n      mstore\n      0x20\n      add\n      0x00\n      keccak256\n      0x00\n      swap1\n      sload\n      swap1\n      0x0100\n      exp\n      swap1\n      div\n      0xff\n      and\n        /* \"GreenCreditToken.sol\":1906:1941  IndustryAccounts[_industry] == true */\n      iszero\n      iszero\n      eq\n        /* \"GreenCreditToken.sol\":1884:2002  require(... */\n      tag_192\n      jumpi\n      mload(0x40)\n      0x08c379a000000000000000000000000000000000000000000000000000000000\n      dup2\n      mstore\n      0x04\n      add\n      tag_193\n      swap1\n      tag_194\n      jump\t// in\n    tag_193:\n      mload(0x40)\n      dup1\n      swap2\n      sub\n      swap1\n      revert\n    tag_192:\n        /* \"GreenCreditToken.sol\":2035:2036  0 */\n      0x00\n        /* \"GreenCreditToken.sol\":2021:2032  _tokenCount */\n      dup2\n        /* \"GreenCreditToken.sol\":2021:2036  _tokenCount > 0 */\n      gt\n        /* \"GreenCreditToken.sol\":2013:2075  require(_tokenCount > 0, \"token Count must be greater than 0\") */\n      tag_195\n      jumpi\n      mload(0x40)\n      0x08c379a000000000000000000000000000000000000000000000000000000000\n      dup2\n      mstore\n      0x04\n      add\n      tag_196\n      swap1\n      tag_197\n      jump\t// in\n    tag_196:\n      mload(0x40)\n      dup1\n      swap2\n      sub\n      swap1\n      revert\n    tag_195:\n        /* \"GreenCreditToken.sol\":2117:2130  _maxAllowance */\n      dup2\n        /* \"GreenCreditToken.sol\":2086:2103  IndustryAllowance */\n      0x0a\n        /* \"GreenCreditToken.sol\":2086:2114  IndustryAllowance[_industry] */\n      0x00\n        /* \"GreenCreditToken.sol\":2104:2113  _industry */\n      dup6\n        /* \"GreenCreditToken.sol\":2086:2114  IndustryAllowance[_industry] */\n      0xffffffffffffffffffffffffffffffffffffffff\n      and\n      0xffffffffffffffffffffffffffffffffffffffff\n      and\n      dup2\n      mstore\n      0x20\n      add\n      swap1\n      dup2\n      mstore\n      0x20\n      add\n      0x00\n      keccak256\n        /* \"GreenCreditToken.sol\":2086:2130  IndustryAllowance[_industry] = _maxAllowance */\n      dup2\n      swap1\n      sstore\n      pop\n        /* \"GreenCreditToken.sol\":2141:2203  _transfer(msg.sender, _industry, _tokenCount * 10**decimals()) */\n      tag_198\n        /* \"GreenCreditToken.sol\":2151:2161  msg.sender */\n      caller\n        /* \"GreenCreditToken.sol\":2163:2172  _industry */\n      dup5\n        /* \"GreenCreditToken.sol\":2192:2202  decimals() */\n      tag_199\n        /* \"GreenCreditToken.sol\":2192:2200  decimals */\n      tag_71\n        /* \"GreenCreditToken.sol\":2192:2202  decimals() */\n      jump\t// in\n    tag_199:\n        /* \"GreenCreditToken.sol\":2188:2190  10 */\n      0x0a\n        /* \"GreenCreditToken.sol\":2188:2202  10**decimals() */\n      tag_200\n      swap2\n      swap1\n      tag_201\n      jump\t// in\n    tag_200:\n        /* \"GreenCreditToken.sol\":2174:2185  _tokenCount */\n      dup5\n        /* \"GreenCreditToken.sol\":2174:2202  _tokenCount * 10**decimals() */\n      tag_202\n      swap2\n      swap1\n      tag_203\n      jump\t// in\n    tag_202:\n        /* \"GreenCreditToken.sol\":2141:2150  _transfer */\n      tag_182\n        /* \"GreenCreditToken.sol\":2141:2203  _transfer(msg.sender, _industry, _tokenCount * 10**decimals()) */\n      jump\t// in\n    tag_198:\n        /* \"GreenCreditToken.sol\":1670:2211  function initialAllowance(... */\n      pop\n      pop\n      pop\n      jump\t// out\n        /* \"GreenCreditToken.sol\":2901:3010  function grantIndustryPrivilege(address _account) public {... */\n    tag_87:\n        /* \"GreenCreditToken.sol\":2998:3002  true */\n      0x01\n        /* \"GreenCreditToken.sol\":2969:2985  IndustryAccounts */\n      0x08\n        /* \"GreenCreditToken.sol\":2969:2995  IndustryAccounts[_account] */\n      0x00\n        /* \"GreenCreditToken.sol\":2986:2994  _account */\n      dup4\n        /* \"GreenCreditToken.sol\":2969:2995  IndustryAccounts[_account] */\n      0xffffffffffffffffffffffffffffffffffffffff\n      and\n      0xffffffffffffffffffffffffffffffffffffffff\n      and\n      dup2\n      mstore\n      0x20\n      add\n      swap1\n      dup2\n      mstore\n      0x20\n      add\n      0x00\n      keccak256\n      0x00\n        /* \"GreenCreditToken.sol\":2969:3002  IndustryAccounts[_account] = true */\n      0x0100\n      exp\n      dup2\n      sload\n      dup2\n      0xff\n      mul\n      not\n      and\n      swap1\n      dup4\n      iszero\n      iszero\n      mul\n      or\n      swap1\n      sstore\n      pop\n        /* \"GreenCreditToken.sol\":2901:3010  function grantIndustryPrivilege(address _account) public {... */\n      pop\n      jump\t// out\n        /* \"GreenCreditToken.sol\":3446:4102  function buyToken(... */\n    tag_91:\n        /* \"GreenCreditToken.sol\":3107:3111  true */\n      0x01\n        /* \"GreenCreditToken.sol\":3075:3111  IndustryAccounts[msg.sender] == true */\n      iszero\n      iszero\n        /* \"GreenCreditToken.sol\":3075:3091  IndustryAccounts */\n      0x08\n        /* \"GreenCreditToken.sol\":3075:3103  IndustryAccounts[msg.sender] */\n      0x00\n        /* \"GreenCreditToken.sol\":3092:3102  msg.sender */\n      caller\n        /* \"GreenCreditToken.sol\":3075:3103  IndustryAccounts[msg.sender] */\n      0xffffffffffffffffffffffffffffffffffffffff\n      and\n      0xffffffffffffffffffffffffffffffffffffffff\n      and\n      dup2\n      mstore\n      0x20\n      add\n      swap1\n      dup2\n      mstore\n      0x20\n      add\n      0x00\n      keccak256\n      0x00\n      swap1\n      sload\n      swap1\n      0x0100\n      exp\n      swap1\n      div\n      0xff\n      and\n        /* \"GreenCreditToken.sol\":3075:3111  IndustryAccounts[msg.sender] == true */\n      iszero\n      iszero\n      eq\n        /* \"GreenCreditToken.sol\":3053:3184  require(... */\n      tag_206\n      jumpi\n      mload(0x40)\n      0x08c379a000000000000000000000000000000000000000000000000000000000\n      dup2\n      mstore\n      0x04\n      add\n      tag_207\n      swap1\n      tag_208\n      jump\t// in\n    tag_207:\n      mload(0x40)\n      dup1\n      swap2\n      sub\n      swap1\n      revert\n    tag_206:\n        /* \"GreenCreditToken.sol\":3619:3620  0 */\n      0x00\n        /* \"GreenCreditToken.sol\":3605:3616  _tokenCount */\n      dup3\n        /* \"GreenCreditToken.sol\":3605:3620  _tokenCount > 0 */\n      gt\n        /* \"GreenCreditToken.sol\":3597:3659  require(_tokenCount > 0, \"Token count must be greater than 0\") */\n      tag_210\n      jumpi\n      mload(0x40)\n      0x08c379a000000000000000000000000000000000000000000000000000000000\n      dup2\n      mstore\n      0x04\n      add\n      tag_211\n      swap1\n      tag_212\n      jump\t// in\n    tag_211:\n      mload(0x40)\n      dup1\n      swap2\n      sub\n      swap1\n      revert\n    tag_210:\n        /* \"GreenCreditToken.sol\":3706:3715  msg.value */\n      callvalue\n        /* \"GreenCreditToken.sol\":3691:3702  _tokenCount */\n      dup3\n        /* \"GreenCreditToken.sol\":3678:3688  tokenPrice */\n      sload(0x06)\n        /* \"GreenCreditToken.sol\":3678:3702  tokenPrice * _tokenCount */\n      tag_213\n      swap2\n      swap1\n      tag_203\n      jump\t// in\n    tag_213:\n        /* \"GreenCreditToken.sol\":3678:3715  tokenPrice * _tokenCount == msg.value */\n      eq\n        /* \"GreenCreditToken.sol\":3670:3736  require(tokenPrice * _tokenCount == msg.value, \"Incorrect amount\") */\n      tag_214\n      jumpi\n      mload(0x40)\n      0x08c379a000000000000000000000000000000000000000000000000000000000\n      dup2\n      mstore\n      0x04\n      add\n      tag_215\n      swap1\n      tag_216\n      jump\t// in\n    tag_215:\n      mload(0x40)\n      dup1\n      swap2\n      sub\n      swap1\n      revert\n    tag_214:\n        /* \"GreenCreditToken.sol\":3781:3792  _tokenCount */\n      dup2\n        /* \"GreenCreditToken.sol\":3755:3772  IndustryAllowance */\n      0x0a\n        /* \"GreenCreditToken.sol\":3755:3777  IndustryAllowance[_to] */\n      0x00\n        /* \"GreenCreditToken.sol\":3773:3776  _to */\n      dup6\n        /* \"GreenCreditToken.sol\":3755:3777  IndustryAllowance[_to] */\n      0xffffffffffffffffffffffffffffffffffffffff\n      and\n      0xffffffffffffffffffffffffffffffffffffffff\n      and\n      dup2\n      mstore\n      0x20\n      add\n      swap1\n      dup2\n      mstore\n      0x20\n      add\n      0x00\n      keccak256\n      sload\n        /* \"GreenCreditToken.sol\":3755:3792  IndustryAllowance[_to] >= _tokenCount */\n      lt\n      iszero\n        /* \"GreenCreditToken.sol\":3747:3815  require(IndustryAllowance[_to] >= _tokenCount, \"Allowance exceeded\") */\n      tag_217\n      jumpi\n      mload(0x40)\n      0x08c379a000000000000000000000000000000000000000000000000000000000\n      dup2\n      mstore\n      0x04\n      add\n      tag_218\n      swap1\n      tag_219\n      jump\t// in\n    tag_218:\n      mload(0x40)\n      dup1\n      swap2\n      sub\n      swap1\n      revert\n    tag_217:\n        /* \"GreenCreditToken.sol\":3828:3868  _mint(_to, _tokenCount * 10**decimals()) */\n      tag_220\n        /* \"GreenCreditToken.sol\":3834:3837  _to */\n      dup4\n        /* \"GreenCreditToken.sol\":3857:3867  decimals() */\n      tag_221\n        /* \"GreenCreditToken.sol\":3857:3865  decimals */\n      tag_71\n        /* \"GreenCreditToken.sol\":3857:3867  decimals() */\n      jump\t// in\n    tag_221:\n        /* \"GreenCreditToken.sol\":3853:3855  10 */\n      0x0a\n        /* \"GreenCreditToken.sol\":3853:3867  10**decimals() */\n      tag_222\n      swap2\n      swap1\n      tag_201\n      jump\t// in\n    tag_222:\n        /* \"GreenCreditToken.sol\":3839:3850  _tokenCount */\n      dup5\n        /* \"GreenCreditToken.sol\":3839:3867  _tokenCount * 10**decimals() */\n      tag_223\n      swap2\n      swap1\n      tag_203\n      jump\t// in\n    tag_223:\n        /* \"GreenCreditToken.sol\":3828:3833  _mint */\n      tag_224\n        /* \"GreenCreditToken.sol\":3828:3868  _mint(_to, _tokenCount * 10**decimals()) */\n      jump\t// in\n    tag_220:\n        /* \"GreenCreditToken.sol\":3879:3890  _govAddress */\n      dup1\n        /* \"GreenCreditToken.sol\":3879:3899  _govAddress.transfer */\n      0xffffffffffffffffffffffffffffffffffffffff\n      and\n        /* \"GreenCreditToken.sol\":3879:3910  _govAddress.transfer(msg.value) */\n      0x08fc\n        /* \"GreenCreditToken.sol\":3900:3909  msg.value */\n      callvalue\n        /* \"GreenCreditToken.sol\":3879:3910  _govAddress.transfer(msg.value) */\n      swap1\n      dup2\n      iszero\n      mul\n      swap1\n      mload(0x40)\n      0x00\n      mload(0x40)\n      dup1\n      dup4\n      sub\n      dup2\n      dup6\n      dup9\n      dup9\n      call\n      swap4\n      pop\n      pop\n      pop\n      pop\n      iszero\n      dup1\n      iszero\n      tag_226\n      jumpi\n      returndatasize\n      0x00\n      dup1\n      returndatacopy\n      revert(0x00, returndatasize)\n    tag_226:\n      pop\n        /* \"GreenCreditToken.sol\":4011:4022  _tokenCount */\n      dup2\n        /* \"GreenCreditToken.sol\":3986:4003  IndustryAllowance */\n      0x0a\n        /* \"GreenCreditToken.sol\":3986:4008  IndustryAllowance[_to] */\n      0x00\n        /* \"GreenCreditToken.sol\":4004:4007  _to */\n      dup6\n        /* \"GreenCreditToken.sol\":3986:4008  IndustryAllowance[_to] */\n      0xffffffffffffffffffffffffffffffffffffffff\n      and\n      0xffffffffffffffffffffffffffffffffffffffff\n      and\n      dup2\n      mstore\n      0x20\n      add\n      swap1\n      dup2\n      mstore\n      0x20\n      add\n      0x00\n      keccak256\n      sload\n        /* \"GreenCreditToken.sol\":3986:4022  IndustryAllowance[_to] - _tokenCount */\n      tag_227\n      swap2\n      swap1\n      tag_228\n      jump\t// in\n    tag_227:\n        /* \"GreenCreditToken.sol\":3961:3978  IndustryAllowance */\n      0x0a\n        /* \"GreenCreditToken.sol\":3961:3983  IndustryAllowance[_to] */\n      0x00\n        /* \"GreenCreditToken.sol\":3979:3982  _to */\n      dup6\n        /* \"GreenCreditToken.sol\":3961:3983  IndustryAllowance[_to] */\n      0xffffffffffffffffffffffffffffffffffffffff\n      and\n      0xffffffffffffffffffffffffffffffffffffffff\n      and\n      dup2\n      mstore\n      0x20\n      add\n      swap1\n      dup2\n      mstore\n      0x20\n      add\n      0x00\n      keccak256\n        /* \"GreenCreditToken.sol\":3961:4022  IndustryAllowance[_to] = IndustryAllowance[_to] - _tokenCount */\n      dup2\n      swap1\n      sstore\n      pop\n        /* \"GreenCreditToken.sol\":4071:4082  _tokenCount */\n      dup2\n        /* \"GreenCreditToken.sol\":4058:4069  _govAddress */\n      dup2\n        /* \"GreenCreditToken.sol\":4038:4094  tokenPurchased(_to, _govAddress, _tokenCount, msg.value) */\n      0xffffffffffffffffffffffffffffffffffffffff\n      and\n        /* \"GreenCreditToken.sol\":4053:4056  _to */\n      dup5\n        /* \"GreenCreditToken.sol\":4038:4094  tokenPurchased(_to, _govAddress, _tokenCount, msg.value) */\n      0xffffffffffffffffffffffffffffffffffffffff\n      and\n      0x5fc4872a04fc9ef9e80a6593db4a82874ea60fbc1f93bd4d0b7a00d4aa8ae556\n        /* \"GreenCreditToken.sol\":4084:4093  msg.value */\n      callvalue\n        /* \"GreenCreditToken.sol\":4038:4094  tokenPurchased(_to, _govAddress, _tokenCount, msg.value) */\n      mload(0x40)\n      tag_229\n      swap2\n      swap1\n      tag_57\n      jump\t// in\n    tag_229:\n      mload(0x40)\n      dup1\n      swap2\n      sub\n      swap1\n      log4\n        /* \"GreenCreditToken.sol\":3446:4102  function buyToken(... */\n      pop\n      pop\n      pop\n      jump\t// out\n        /* \"GreenCreditToken.sol\":1562:1662  function setTokenPrice(uint newPrice) public onlyGovernment {... */\n    tag_96:\n        /* \"GreenCreditToken.sol\":1455:1459  true */\n      0x01\n        /* \"GreenCreditToken.sol\":1421:1459  GovernmentAccounts[msg.sender] == true */\n      iszero\n      iszero\n        /* \"GreenCreditToken.sol\":1421:1439  GovernmentAccounts */\n      0x07\n        /* \"GreenCreditToken.sol\":1421:1451  GovernmentAccounts[msg.sender] */\n      0x00\n        /* \"GreenCreditToken.sol\":1440:1450  msg.sender */\n      caller\n        /* \"GreenCreditToken.sol\":1421:1451  GovernmentAccounts[msg.sender] */\n      0xffffffffffffffffffffffffffffffffffffffff\n      and\n      0xffffffffffffffffffffffffffffffffffffffff\n      and\n      dup2\n      mstore\n      0x20\n      add\n      swap1\n      dup2\n      mstore\n      0x20\n      add\n      0x00\n      keccak256\n      0x00\n      swap1\n      sload\n      swap1\n      0x0100\n      exp\n      swap1\n      div\n      0xff\n      and\n        /* \"GreenCreditToken.sol\":1421:1459  GovernmentAccounts[msg.sender] == true */\n      iszero\n      iszero\n      eq\n        /* \"GreenCreditToken.sol\":1399:1534  require(... */\n      tag_231\n      jumpi\n      mload(0x40)\n      0x08c379a000000000000000000000000000000000000000000000000000000000\n      dup2\n      mstore\n      0x04\n      add\n      tag_232\n      swap1\n      tag_187\n      jump\t// in\n    tag_232:\n      mload(0x40)\n      dup1\n      swap2\n      sub\n      swap1\n      revert\n    tag_231:\n        /* \"GreenCreditToken.sol\":1646:1654  newPrice */\n      dup1\n        /* \"GreenCreditToken.sol\":1633:1643  tokenPrice */\n      0x06\n        /* \"GreenCreditToken.sol\":1633:1654  tokenPrice = newPrice */\n      dup2\n      swap1\n      sstore\n      pop\n        /* \"GreenCreditToken.sol\":1562:1662  function setTokenPrice(uint newPrice) public onlyGovernment {... */\n      pop\n      jump\t// out\n        /* \"@openzeppelin/contracts/token/ERC20/ERC20.sol\":3299:3415  function balanceOf(address account) public view virtual returns (uint256) {... */\n    tag_100:\n        /* \"@openzeppelin/contracts/token/ERC20/ERC20.sol\":3364:3371  uint256 */\n      0x00\n        /* \"@openzeppelin/contracts/token/ERC20/ERC20.sol\":3390:3399  _balances */\n      dup1\n        /* \"@openzeppelin/contracts/token/ERC20/ERC20.sol\":3390:3408  _balances[account] */\n      0x00\n        /* \"@openzeppelin/contracts/token/ERC20/ERC20.sol\":3400:3407  account */\n      dup4\n        /* \"@openzeppelin/contracts/token/ERC20/ERC20.sol\":3390:3408  _balances[account] */\n      0xffffffffffffffffffffffffffffffffffffffff\n      and\n      0xffffffffffffffffffffffffffffffffffffffff\n      and\n      dup2\n      mstore\n      0x20\n      add\n      swap1\n      dup2\n      mstore\n      0x20\n      add\n      0x00\n      keccak256\n      sload\n        /* \"@openzeppelin/contracts/token/ERC20/ERC20.sol\":3383:3408  return _balances[account] */\n      swap1\n      pop\n        /* \"@openzeppelin/contracts/token/ERC20/ERC20.sol\":3299:3415  function balanceOf(address account) public view virtual returns (uint256) {... */\n      swap2\n      swap1\n      pop\n      jump\t// out\n        /* \"GreenCreditToken.sol\":214:236  uint public tokenPrice */\n    tag_104:\n      sload(0x06)\n      dup2\n      jump\t// out\n        /* \"@openzeppelin/contracts/token/ERC20/ERC20.sol\":2276:2369  function symbol() public view virtual returns (string memory) {... */\n    tag_108:\n        /* \"@openzeppelin/contracts/token/ERC20/ERC20.sol\":2323:2336  string memory */\n      0x60\n        /* \"@openzeppelin/contracts/token/ERC20/ERC20.sol\":2355:2362  _symbol */\n      0x04\n        /* \"@openzeppelin/contracts/token/ERC20/ERC20.sol\":2348:2362  return _symbol */\n      dup1\n      sload\n      tag_236\n      swap1\n      tag_166\n      jump\t// in\n    tag_236:\n      dup1\n      0x1f\n      add\n      0x20\n      dup1\n      swap2\n      div\n      mul\n      0x20\n      add\n      mload(0x40)\n      swap1\n      dup2\n      add\n      0x40\n      mstore\n      dup1\n      swap3\n      swap2\n      swap1\n      dup2\n      dup2\n      mstore\n      0x20\n      add\n      dup3\n      dup1\n      sload\n      tag_237\n      swap1\n      tag_166\n      jump\t// in\n    tag_237:\n      dup1\n      iszero\n      tag_238\n      jumpi\n      dup1\n      0x1f\n      lt\n      tag_239\n      jumpi\n      0x0100\n      dup1\n      dup4\n      sload\n      div\n      mul\n      dup4\n      mstore\n      swap2\n      0x20\n      add\n      swap2\n      jump(tag_238)\n    tag_239:\n      dup3\n      add\n      swap2\n      swap1\n      0x00\n      mstore\n      keccak256(0x00, 0x20)\n      swap1\n    tag_240:\n      dup2\n      sload\n      dup2\n      mstore\n      swap1\n      0x01\n      add\n      swap1\n      0x20\n      add\n      dup1\n      dup4\n      gt\n      tag_240\n      jumpi\n      dup3\n      swap1\n      sub\n      0x1f\n      and\n      dup3\n      add\n      swap2\n    tag_238:\n      pop\n      pop\n      pop\n      pop\n      pop\n      swap1\n      pop\n        /* \"@openzeppelin/contracts/token/ERC20/ERC20.sol\":2276:2369  function symbol() public view virtual returns (string memory) {... */\n      swap1\n      jump\t// out\n        /* \"GreenCreditToken.sol\":5394:6084  function buyTokensFromMarketpalce(uint _listingId) public payable onlyIndustry {... */\n    tag_112:\n        /* \"GreenCreditToken.sol\":3107:3111  true */\n      0x01\n        /* \"GreenCreditToken.sol\":3075:3111  IndustryAccounts[msg.sender] == true */\n      iszero\n      iszero\n        /* \"GreenCreditToken.sol\":3075:3091  IndustryAccounts */\n      0x08\n        /* \"GreenCreditToken.sol\":3075:3103  IndustryAccounts[msg.sender] */\n      0x00\n        /* \"GreenCreditToken.sol\":3092:3102  msg.sender */\n      caller\n        /* \"GreenCreditToken.sol\":3075:3103  IndustryAccounts[msg.sender] */\n      0xffffffffffffffffffffffffffffffffffffffff\n      and\n      0xffffffffffffffffffffffffffffffffffffffff\n      and\n      dup2\n      mstore\n      0x20\n      add\n      swap1\n      dup2\n      mstore\n      0x20\n      add\n      0x00\n      keccak256\n      0x00\n      swap1\n      sload\n      swap1\n      0x0100\n      exp\n      swap1\n      div\n      0xff\n      and\n        /* \"GreenCreditToken.sol\":3075:3111  IndustryAccounts[msg.sender] == true */\n      iszero\n      iszero\n      eq\n        /* \"GreenCreditToken.sol\":3053:3184  require(... */\n      tag_242\n      jumpi\n      mload(0x40)\n      0x08c379a000000000000000000000000000000000000000000000000000000000\n      dup2\n      mstore\n      0x04\n      add\n      tag_243\n      swap1\n      tag_208\n      jump\t// in\n    tag_243:\n      mload(0x40)\n      dup1\n      swap2\n      sub\n      swap1\n      revert\n    tag_242:\n        /* \"GreenCreditToken.sol\":5484:5512  TokenListing storage listing */\n      0x00\n        /* \"GreenCreditToken.sol\":5515:5523  listings */\n      0x0b\n        /* \"GreenCreditToken.sol\":5515:5535  listings[_listingId] */\n      0x00\n        /* \"GreenCreditToken.sol\":5524:5534  _listingId */\n      dup4\n        /* \"GreenCreditToken.sol\":5515:5535  listings[_listingId] */\n      dup2\n      mstore\n      0x20\n      add\n      swap1\n      dup2\n      mstore\n      0x20\n      add\n      0x00\n      keccak256\n        /* \"GreenCreditToken.sol\":5484:5535  TokenListing storage listing = listings[_listingId] */\n      swap1\n      pop\n        /* \"GreenCreditToken.sol\":5554:5561  listing */\n      dup1\n        /* \"GreenCreditToken.sol\":5554:5570  listing.isActive */\n      0x03\n      add\n      0x00\n      swap1\n      sload\n      swap1\n      0x0100\n      exp\n      swap1\n      div\n      0xff\n      and\n        /* \"GreenCreditToken.sol\":5546:5596  require(listing.isActive, \"Listing is not active\") */\n      tag_245\n      jumpi\n      mload(0x40)\n      0x08c379a000000000000000000000000000000000000000000000000000000000\n      dup2\n      mstore\n      0x04\n      add\n      tag_246\n      swap1\n      tag_247\n      jump\t// in\n    tag_246:\n      mload(0x40)\n      dup1\n      swap2\n      sub\n      swap1\n      revert\n    tag_245:\n        /* \"GreenCreditToken.sol\":5628:5635  listing */\n      dup1\n        /* \"GreenCreditToken.sol\":5628:5641  listing.price */\n      0x02\n      add\n      sload\n        /* \"GreenCreditToken.sol\":5615:5624  msg.value */\n      callvalue\n        /* \"GreenCreditToken.sol\":5615:5641  msg.value == listing.price */\n      eq\n        /* \"GreenCreditToken.sol\":5607:5670  require(msg.value == listing.price, \"Incorrect payment amount\") */\n      tag_248\n      jumpi\n      mload(0x40)\n      0x08c379a000000000000000000000000000000000000000000000000000000000\n      dup2\n      mstore\n      0x04\n      add\n      tag_249\n      swap1\n      tag_250\n      jump\t// in\n    tag_249:\n      mload(0x40)\n      dup1\n      swap2\n      sub\n      swap1\n      revert\n    tag_248:\n        /* \"GreenCreditToken.sol\":5683:5808  _transfer(... */\n      tag_251\n        /* \"GreenCreditToken.sol\":5707:5714  listing */\n      dup2\n        /* \"GreenCreditToken.sol\":5707:5721  listing.seller */\n      0x00\n      add\n      0x00\n      swap1\n      sload\n      swap1\n      0x0100\n      exp\n      swap1\n      div\n      0xffffffffffffffffffffffffffffffffffffffff\n      and\n        /* \"GreenCreditToken.sol\":5736:5746  msg.sender */\n      caller\n        /* \"GreenCreditToken.sol\":5787:5797  decimals() */\n      tag_252\n        /* \"GreenCreditToken.sol\":5787:5795  decimals */\n      tag_71\n        /* \"GreenCreditToken.sol\":5787:5797  decimals() */\n      jump\t// in\n    tag_252:\n        /* \"GreenCreditToken.sol\":5783:5785  10 */\n      0x0a\n        /* \"GreenCreditToken.sol\":5783:5797  10**decimals() */\n      tag_253\n      swap2\n      swap1\n      tag_201\n      jump\t// in\n    tag_253:\n        /* \"GreenCreditToken.sol\":5761:5768  listing */\n      dup5\n        /* \"GreenCreditToken.sol\":5761:5780  listing.tokenAmount */\n      0x01\n      add\n      sload\n        /* \"GreenCreditToken.sol\":5761:5797  listing.tokenAmount * 10**decimals() */\n      tag_254\n      swap2\n      swap1\n      tag_203\n      jump\t// in\n    tag_254:\n        /* \"GreenCreditToken.sol\":5683:5692  _transfer */\n      tag_182\n        /* \"GreenCreditToken.sol\":5683:5808  _transfer(... */\n      jump\t// in\n    tag_251:\n        /* \"GreenCreditToken.sol\":5829:5836  listing */\n      dup1\n        /* \"GreenCreditToken.sol\":5829:5843  listing.seller */\n      0x00\n      add\n      0x00\n      swap1\n      sload\n      swap1\n      0x0100\n      exp\n      swap1\n      div\n      0xffffffffffffffffffffffffffffffffffffffff\n      and\n        /* \"GreenCreditToken.sol\":5821:5853  payable(listing.seller).transfer */\n      0xffffffffffffffffffffffffffffffffffffffff\n      and\n        /* \"GreenCreditToken.sol\":5821:5864  payable(listing.seller).transfer(msg.value) */\n      0x08fc\n        /* \"GreenCreditToken.sol\":5854:5863  msg.value */\n      callvalue\n        /* \"GreenCreditToken.sol\":5821:5864  payable(listing.seller).transfer(msg.value) */\n      swap1\n      dup2\n      iszero\n      mul\n      swap1\n      mload(0x40)\n      0x00\n      mload(0x40)\n      dup1\n      dup4\n      sub\n      dup2\n      dup6\n      dup9\n      dup9\n      call\n      swap4\n      pop\n      pop\n      pop\n      pop\n      iszero\n      dup1\n      iszero\n      tag_256\n      jumpi\n      returndatasize\n      0x00\n      dup1\n      returndatacopy\n      revert(0x00, returndatasize)\n    tag_256:\n      pop\n        /* \"GreenCreditToken.sol\":5896:5901  false */\n      0x00\n        /* \"GreenCreditToken.sol\":5877:5884  listing */\n      dup2\n        /* \"GreenCreditToken.sol\":5877:5893  listing.isActive */\n      0x03\n      add\n      0x00\n        /* \"GreenCreditToken.sol\":5877:5901  listing.isActive = false */\n      0x0100\n      exp\n      dup2\n      sload\n      dup2\n      0xff\n      mul\n      not\n      and\n      swap1\n      dup4\n      iszero\n      iszero\n      mul\n      or\n      swap1\n      sstore\n      pop\n        /* \"GreenCreditToken.sol\":5989:5996  listing */\n      dup1\n        /* \"GreenCreditToken.sol\":5989:6003  listing.seller */\n      0x00\n      add\n      0x00\n      swap1\n      sload\n      swap1\n      0x0100\n      exp\n      swap1\n      div\n      0xffffffffffffffffffffffffffffffffffffffff\n      and\n        /* \"GreenCreditToken.sol\":5919:6076  TokensPurchasedFromMarketplace(... */\n      0xffffffffffffffffffffffffffffffffffffffff\n      and\n        /* \"GreenCreditToken.sol\":5964:5974  msg.sender */\n      caller\n        /* \"GreenCreditToken.sol\":5919:6076  TokensPurchasedFromMarketplace(... */\n      0xffffffffffffffffffffffffffffffffffffffff\n      and\n      0x85f10505be3ed7bf7f1e02cf6bf521e67cd27c4b1e91954cc55d67c262fa64ff\n        /* \"GreenCreditToken.sol\":6018:6025  listing */\n      dup4\n        /* \"GreenCreditToken.sol\":6018:6037  listing.tokenAmount */\n      0x01\n      add\n      sload\n        /* \"GreenCreditToken.sol\":6052:6059  listing */\n      dup5\n        /* \"GreenCreditToken.sol\":6052:6065  listing.price */\n      0x02\n      add\n      sload\n        /* \"GreenCreditToken.sol\":5919:6076  TokensPurchasedFromMarketplace(... */\n      mload(0x40)\n      tag_257\n      swap3\n      swap2\n      swap1\n      tag_258\n      jump\t// in\n    tag_257:\n      mload(0x40)\n      dup1\n      swap2\n      sub\n      swap1\n      log3\n        /* \"GreenCreditToken.sol\":5473:6084  {... */\n      pop\n        /* \"GreenCreditToken.sol\":5394:6084  function buyTokensFromMarketpalce(uint _listingId) public payable onlyIndustry {... */\n      pop\n      jump\t// out\n        /* \"@openzeppelin/contracts/token/ERC20/ERC20.sol\":3610:3788  function transfer(address to, uint256 value) public virtual returns (bool) {... */\n    tag_116:\n        /* \"@openzeppelin/contracts/token/ERC20/ERC20.sol\":3679:3683  bool */\n      0x00\n        /* \"@openzeppelin/contracts/token/ERC20/ERC20.sol\":3695:3708  address owner */\n      dup1\n        /* \"@openzeppelin/contracts/token/ERC20/ERC20.sol\":3711:3723  _msgSender() */\n      tag_260\n        /* \"@openzeppelin/contracts/token/ERC20/ERC20.sol\":3711:3721  _msgSender */\n      tag_173\n        /* \"@openzeppelin/contracts/token/ERC20/ERC20.sol\":3711:3723  _msgSender() */\n      jump\t// in\n    tag_260:\n        /* \"@openzeppelin/contracts/token/ERC20/ERC20.sol\":3695:3723  address owner = _msgSender() */\n      swap1\n      pop\n        /* \"@openzeppelin/contracts/token/ERC20/ERC20.sol\":3733:3760  _transfer(owner, to, value) */\n      tag_261\n        /* \"@openzeppelin/contracts/token/ERC20/ERC20.sol\":3743:3748  owner */\n      dup2\n        /* \"@openzeppelin/contracts/token/ERC20/ERC20.sol\":3750:3752  to */\n      dup6\n        /* \"@openzeppelin/contracts/token/ERC20/ERC20.sol\":3754:3759  value */\n      dup6\n        /* \"@openzeppelin/contracts/token/ERC20/ERC20.sol\":3733:3742  _transfer */\n      tag_182\n        /* \"@openzeppelin/contracts/token/ERC20/ERC20.sol\":3733:3760  _transfer(owner, to, value) */\n      jump\t// in\n    tag_261:\n        /* \"@openzeppelin/contracts/token/ERC20/ERC20.sol\":3777:3781  true */\n      0x01\n        /* \"@openzeppelin/contracts/token/ERC20/ERC20.sol\":3770:3781  return true */\n      swap2\n      pop\n      pop\n        /* \"@openzeppelin/contracts/token/ERC20/ERC20.sol\":3610:3788  function transfer(address to, uint256 value) public virtual returns (bool) {... */\n      swap3\n      swap2\n      pop\n      pop\n      jump\t// out\n        /* \"GreenCreditToken.sol\":4344:4368  uint public listingCount */\n    tag_120:\n      sload(0x0c)\n      dup2\n      jump\t// out\n        /* \"GreenCreditToken.sol\":2261:2444  function registerIndividual() public {... */\n    tag_124:\n        /* \"GreenCreditToken.sol\":2318:2336  IndividualAccounts */\n      0x09\n        /* \"GreenCreditToken.sol\":2318:2348  IndividualAccounts[msg.sender] */\n      0x00\n        /* \"GreenCreditToken.sol\":2337:2347  msg.sender */\n      caller\n        /* \"GreenCreditToken.sol\":2318:2348  IndividualAccounts[msg.sender] */\n      0xffffffffffffffffffffffffffffffffffffffff\n      and\n      0xffffffffffffffffffffffffffffffffffffffff\n      and\n      dup2\n      mstore\n      0x20\n      add\n      swap1\n      dup2\n      mstore\n      0x20\n      add\n      0x00\n      keccak256\n      0x00\n      swap1\n      sload\n      swap1\n      0x0100\n      exp\n      swap1\n      div\n      0xff\n      and\n        /* \"GreenCreditToken.sol\":2317:2348  !IndividualAccounts[msg.sender] */\n      iszero\n        /* \"GreenCreditToken.sol\":2309:2388  require(!IndividualAccounts[msg.sender], \"Already registered as an individual\") */\n      tag_263\n      jumpi\n      mload(0x40)\n      0x08c379a000000000000000000000000000000000000000000000000000000000\n      dup2\n      mstore\n      0x04\n      add\n      tag_264\n      swap1\n      tag_265\n      jump\t// in\n    tag_264:\n      mload(0x40)\n      dup1\n      swap2\n      sub\n      swap1\n      revert\n    tag_263:\n        /* \"GreenCreditToken.sol\":2432:2436  true */\n      0x01\n        /* \"GreenCreditToken.sol\":2399:2417  IndividualAccounts */\n      0x09\n        /* \"GreenCreditToken.sol\":2399:2429  IndividualAccounts[msg.sender] */\n      0x00\n        /* \"GreenCreditToken.sol\":2418:2428  msg.sender */\n      caller\n        /* \"GreenCreditToken.sol\":2399:2429  IndividualAccounts[msg.sender] */\n      0xffffffffffffffffffffffffffffffffffffffff\n      and\n      0xffffffffffffffffffffffffffffffffffffffff\n      and\n      dup2\n      mstore\n      0x20\n      add\n      swap1\n      dup2\n      mstore\n      0x20\n      add\n      0x00\n      keccak256\n      0x00\n        /* \"GreenCreditToken.sol\":2399:2436  IndividualAccounts[msg.sender] = true */\n      0x0100\n      exp\n      dup2\n      sload\n      dup2\n      0xff\n      mul\n      not\n      and\n      swap1\n      dup4\n      iszero\n      iszero\n      mul\n      or\n      swap1\n      sstore\n      pop\n        /* \"GreenCreditToken.sol\":2261:2444  function registerIndividual() public {... */\n      jump\t// out\n        /* \"GreenCreditToken.sol\":2652:2861  function collectReward(uint rewardAmount) public onlyIndividual {... */\n    tag_128:\n        /* \"GreenCreditToken.sol\":2511:2529  IndividualAccounts */\n      0x09\n        /* \"GreenCreditToken.sol\":2511:2541  IndividualAccounts[msg.sender] */\n      0x00\n        /* \"GreenCreditToken.sol\":2530:2540  msg.sender */\n      caller\n        /* \"GreenCreditToken.sol\":2511:2541  IndividualAccounts[msg.sender] */\n      0xffffffffffffffffffffffffffffffffffffffff\n      and\n      0xffffffffffffffffffffffffffffffffffffffff\n      and\n      dup2\n      mstore\n      0x20\n      add\n      swap1\n      dup2\n      mstore\n      0x20\n      add\n      0x00\n      keccak256\n      0x00\n      swap1\n      sload\n      swap1\n      0x0100\n      exp\n      swap1\n      div\n      0xff\n      and\n        /* \"GreenCreditToken.sol\":2489:2624  require(... */\n      tag_267\n      jumpi\n      mload(0x40)\n      0x08c379a000000000000000000000000000000000000000000000000000000000\n      dup2\n      mstore\n      0x04\n      add\n      tag_268\n      swap1\n      tag_269\n      jump\t// in\n    tag_268:\n      mload(0x40)\n      dup1\n      swap2\n      sub\n      swap1\n      revert\n    tag_267:\n        /* \"GreenCreditToken.sol\":2750:2751  0 */\n      0x00\n        /* \"GreenCreditToken.sol\":2735:2747  rewardAmount */\n      dup2\n        /* \"GreenCreditToken.sol\":2735:2751  rewardAmount > 0 */\n      gt\n        /* \"GreenCreditToken.sol\":2727:2792  require(rewardAmount > 0, \"Reward amount must be greater than 0\") */\n      tag_271\n      jumpi\n      mload(0x40)\n      0x08c379a000000000000000000000000000000000000000000000000000000000\n      dup2\n      mstore\n      0x04\n      add\n      tag_272\n      swap1\n      tag_273\n      jump\t// in\n    tag_272:\n      mload(0x40)\n      dup1\n      swap2\n      sub\n      swap1\n      revert\n    tag_271:\n        /* \"GreenCreditToken.sol\":2805:2853  _mint(msg.sender, rewardAmount * 10**decimals()) */\n      tag_274\n        /* \"GreenCreditToken.sol\":2811:2821  msg.sender */\n      caller\n        /* \"GreenCreditToken.sol\":2842:2852  decimals() */\n      tag_275\n        /* \"GreenCreditToken.sol\":2842:2850  decimals */\n      tag_71\n        /* \"GreenCreditToken.sol\":2842:2852  decimals() */\n      jump\t// in\n    tag_275:\n        /* \"GreenCreditToken.sol\":2838:2840  10 */\n      0x0a\n        /* \"GreenCreditToken.sol\":2838:2852  10**decimals() */\n      tag_276\n      swap2\n      swap1\n      tag_201\n      jump\t// in\n    tag_276:\n        /* \"GreenCreditToken.sol\":2823:2835  rewardAmount */\n      dup4\n        /* \"GreenCreditToken.sol\":2823:2852  rewardAmount * 10**decimals() */\n      tag_277\n      swap2\n      swap1\n      tag_203\n      jump\t// in\n    tag_277:\n        /* \"GreenCreditToken.sol\":2805:2810  _mint */\n      tag_224\n        /* \"GreenCreditToken.sol\":2805:2853  _mint(msg.sender, rewardAmount * 10**decimals()) */\n      jump\t// in\n    tag_274:\n        /* \"GreenCreditToken.sol\":2652:2861  function collectReward(uint rewardAmount) public onlyIndividual {... */\n      pop\n      jump\t// out\n        /* \"GreenCreditToken.sol\":417:466  mapping(address => uint) public IndustryAllowance */\n    tag_132:\n      mstore(0x20, 0x0a)\n      dup1\n      0x00\n      mstore\n      keccak256(0x00, 0x40)\n      0x00\n      swap2\n      pop\n      swap1\n      pop\n      sload\n      dup2\n      jump\t// out\n        /* \"GreenCreditToken.sol\":892:1155  function burnToken(address _address, uint _tokenCount) public {... */\n    tag_137:\n        /* \"GreenCreditToken.sol\":1028:1038  decimals() */\n      tag_279\n        /* \"GreenCreditToken.sol\":1028:1036  decimals */\n      tag_71\n        /* \"GreenCreditToken.sol\":1028:1038  decimals() */\n      jump\t// in\n    tag_279:\n        /* \"GreenCreditToken.sol\":1024:1026  10 */\n      0x0a\n        /* \"GreenCreditToken.sol\":1024:1038  10**decimals() */\n      tag_280\n      swap2\n      swap1\n      tag_201\n      jump\t// in\n    tag_280:\n        /* \"GreenCreditToken.sol\":1010:1021  _tokenCount */\n      dup2\n        /* \"GreenCreditToken.sol\":1010:1038  _tokenCount * 10**decimals() */\n      tag_281\n      swap2\n      swap1\n      tag_203\n      jump\t// in\n    tag_281:\n        /* \"GreenCreditToken.sol\":987:1006  balanceOf(_address) */\n      tag_282\n        /* \"GreenCreditToken.sol\":997:1005  _address */\n      dup4\n        /* \"GreenCreditToken.sol\":987:996  balanceOf */\n      tag_100\n        /* \"GreenCreditToken.sol\":987:1006  balanceOf(_address) */\n      jump\t// in\n    tag_282:\n        /* \"GreenCreditToken.sol\":987:1038  balanceOf(_address) >= _tokenCount * 10**decimals() */\n      lt\n      iszero\n        /* \"GreenCreditToken.sol\":965:1091  require(... */\n      tag_283\n      jumpi\n      mload(0x40)\n      0x08c379a000000000000000000000000000000000000000000000000000000000\n      dup2\n      mstore\n      0x04\n      add\n      tag_284\n      swap1\n      tag_285\n      jump\t// in\n    tag_284:\n      mload(0x40)\n      dup1\n      swap2\n      sub\n      swap1\n      revert\n    tag_283:\n        /* \"GreenCreditToken.sol\":1102:1147  _burn(_address, _tokenCount * 10**decimals()) */\n      tag_286\n        /* \"GreenCreditToken.sol\":1108:1116  _address */\n      dup3\n        /* \"GreenCreditToken.sol\":1136:1146  decimals() */\n      tag_287\n        /* \"GreenCreditToken.sol\":1136:1144  decimals */\n      tag_71\n        /* \"GreenCreditToken.sol\":1136:1146  decimals() */\n      jump\t// in\n    tag_287:\n        /* \"GreenCreditToken.sol\":1132:1134  10 */\n      0x0a\n        /* \"GreenCreditToken.sol\":1132:1146  10**decimals() */\n      tag_288\n      swap2\n      swap1\n      tag_201\n      jump\t// in\n    tag_288:\n        /* \"GreenCreditToken.sol\":1118:1129  _tokenCount */\n      dup4\n        /* \"GreenCreditToken.sol\":1118:1146  _tokenCount * 10**decimals() */\n      tag_289\n      swap2\n      swap1\n      tag_203\n      jump\t// in\n    tag_289:\n        /* \"GreenCreditToken.sol\":1102:1107  _burn */\n      tag_290\n        /* \"GreenCreditToken.sol\":1102:1147  _burn(_address, _tokenCount * 10**decimals()) */\n      jump\t// in\n    tag_286:\n        /* \"GreenCreditToken.sol\":892:1155  function burnToken(address _address, uint _tokenCount) public {... */\n      pop\n      pop\n      jump\t// out\n        /* \"GreenCreditToken.sol\":1190:1354  function grantGovernmentPrivilege(address _account) public {... */\n    tag_141:\n        /* \"GreenCreditToken.sol\":1291:1295  true */\n      0x01\n        /* \"GreenCreditToken.sol\":1260:1278  GovernmentAccounts */\n      0x07\n        /* \"GreenCreditToken.sol\":1260:1288  GovernmentAccounts[_account] */\n      0x00\n        /* \"GreenCreditToken.sol\":1279:1287  _account */\n      dup4\n        /* \"GreenCreditToken.sol\":1260:1288  GovernmentAccounts[_account] */\n      0xffffffffffffffffffffffffffffffffffffffff\n      and\n      0xffffffffffffffffffffffffffffffffffffffff\n      and\n      dup2\n      mstore\n      0x20\n      add\n      swap1\n      dup2\n      mstore\n      0x20\n      add\n      0x00\n      keccak256\n      0x00\n        /* \"GreenCreditToken.sol\":1260:1295  GovernmentAccounts[_account] = true */\n      0x0100\n      exp\n      dup2\n      sload\n      dup2\n      0xff\n      mul\n      not\n      and\n      swap1\n      dup4\n      iszero\n      iszero\n      mul\n      or\n      swap1\n      sstore\n      pop\n        /* \"GreenCreditToken.sol\":1306:1346  _mint(msg.sender, 1000 * 10**decimals()) */\n      tag_292\n        /* \"GreenCreditToken.sol\":1312:1322  msg.sender */\n      caller\n        /* \"GreenCreditToken.sol\":1335:1345  decimals() */\n      tag_293\n        /* \"GreenCreditToken.sol\":1335:1343  decimals */\n      tag_71\n        /* \"GreenCreditToken.sol\":1335:1345  decimals() */\n      jump\t// in\n    tag_293:\n        /* \"GreenCreditToken.sol\":1331:1333  10 */\n      0x0a\n        /* \"GreenCreditToken.sol\":1331:1345  10**decimals() */\n      tag_294\n      swap2\n      swap1\n      tag_201\n      jump\t// in\n    tag_294:\n        /* \"GreenCreditToken.sol\":1324:1328  1000 */\n      0x03e8\n        /* \"GreenCreditToken.sol\":1324:1345  1000 * 10**decimals() */\n      tag_295\n      swap2\n      swap1\n      tag_203\n      jump\t// in\n    tag_295:\n        /* \"GreenCreditToken.sol\":1306:1311  _mint */\n      tag_224\n        /* \"GreenCreditToken.sol\":1306:1346  _mint(msg.sender, 1000 * 10**decimals()) */\n      jump\t// in\n    tag_292:\n        /* \"GreenCreditToken.sol\":1190:1354  function grantGovernmentPrivilege(address _account) public {... */\n      pop\n      jump\t// out\n        /* \"@openzeppelin/contracts/token/ERC20/ERC20.sol\":3846:3986  function allowance(address owner, address spender) public view virtual returns (uint256) {... */\n    tag_146:\n        /* \"@openzeppelin/contracts/token/ERC20/ERC20.sol\":3926:3933  uint256 */\n      0x00\n        /* \"@openzeppelin/contracts/token/ERC20/ERC20.sol\":3952:3963  _allowances */\n      0x01\n        /* \"@openzeppelin/contracts/token/ERC20/ERC20.sol\":3952:3970  _allowances[owner] */\n      0x00\n        /* \"@openzeppelin/contracts/token/ERC20/ERC20.sol\":3964:3969  owner */\n      dup5\n        /* \"@openzeppelin/contracts/token/ERC20/ERC20.sol\":3952:3970  _allowances[owner] */\n      0xffffffffffffffffffffffffffffffffffffffff\n      and\n      0xffffffffffffffffffffffffffffffffffffffff\n      and\n      dup2\n      mstore\n      0x20\n      add\n      swap1\n      dup2\n      mstore\n      0x20\n      add\n      0x00\n      keccak256\n        /* \"@openzeppelin/contracts/token/ERC20/ERC20.sol\":3952:3979  _allowances[owner][spender] */\n      0x00\n        /* \"@openzeppelin/contracts/token/ERC20/ERC20.sol\":3971:3978  spender */\n      dup4\n        /* \"@openzeppelin/contracts/token/ERC20/ERC20.sol\":3952:3979  _allowances[owner][spender] */\n      0xffffffffffffffffffffffffffffffffffffffff\n      and\n      0xffffffffffffffffffffffffffffffffffffffff\n      and\n      dup2\n      mstore\n      0x20\n      add\n      swap1\n      dup2\n      mstore\n      0x20\n      add\n      0x00\n      keccak256\n      sload\n        /* \"@openzeppelin/contracts/token/ERC20/ERC20.sol\":3945:3979  return _allowances[owner][spender] */\n      swap1\n      pop\n        /* \"@openzeppelin/contracts/token/ERC20/ERC20.sol\":3846:3986  function allowance(address owner, address spender) public view virtual returns (uint256) {... */\n      swap3\n      swap2\n      pop\n      pop\n      jump\t// out\n        /* \"GreenCreditToken.sol\":4292:4337  mapping(uint => TokenListing) public listings */\n    tag_151:\n      mstore(0x20, 0x0b)\n      dup1\n      0x00\n      mstore\n      keccak256(0x00, 0x40)\n      0x00\n      swap2\n      pop\n      swap1\n      pop\n      dup1\n      0x00\n      add\n      0x00\n      swap1\n      sload\n      swap1\n      0x0100\n      exp\n      swap1\n      div\n      0xffffffffffffffffffffffffffffffffffffffff\n      and\n      swap1\n      dup1\n      0x01\n      add\n      sload\n      swap1\n      dup1\n      0x02\n      add\n      sload\n      swap1\n      dup1\n      0x03\n      add\n      0x00\n      swap1\n      sload\n      swap1\n      0x0100\n      exp\n      swap1\n      div\n      0xff\n      and\n      swap1\n      pop\n      dup5\n      jump\t// out\n        /* \"GreenCreditToken.sol\":245:295  mapping(address => bool) public GovernmentAccounts */\n    tag_157:\n      mstore(0x20, 0x07)\n      dup1\n      0x00\n      mstore\n      keccak256(0x00, 0x40)\n      0x00\n      swap2\n      pop\n      sload\n      swap1\n      0x0100\n      exp\n      swap1\n      div\n      0xff\n      and\n      dup2\n      jump\t// out\n        /* \"GreenCreditToken.sol\":4857:5357  function listTokensForSale(uint _tokenCount, uint _price)... */\n    tag_163:\n        /* \"GreenCreditToken.sol\":3107:3111  true */\n      0x01\n        /* \"GreenCreditToken.sol\":3075:3111  IndustryAccounts[msg.sender] == true */\n      iszero\n      iszero\n        /* \"GreenCreditToken.sol\":3075:3091  IndustryAccounts */\n      0x08\n        /* \"GreenCreditToken.sol\":3075:3103  IndustryAccounts[msg.sender] */\n      0x00\n        /* \"GreenCreditToken.sol\":3092:3102  msg.sender */\n      caller\n        /* \"GreenCreditToken.sol\":3075:3103  IndustryAccounts[msg.sender] */\n      0xffffffffffffffffffffffffffffffffffffffff\n      and\n      0xffffffffffffffffffffffffffffffffffffffff\n      and\n      dup2\n      mstore\n      0x20\n      add\n      swap1\n      dup2\n      mstore\n      0x20\n      add\n      0x00\n      keccak256\n      0x00\n      swap1\n      sload\n      swap1\n      0x0100\n      exp\n      swap1\n      div\n      0xff\n      and\n        /* \"GreenCreditToken.sol\":3075:3111  IndustryAccounts[msg.sender] == true */\n      iszero\n      iszero\n      eq\n        /* \"GreenCreditToken.sol\":3053:3184  require(... */\n      tag_298\n      jumpi\n      mload(0x40)\n      0x08c379a000000000000000000000000000000000000000000000000000000000\n      dup2\n      mstore\n      0x04\n      add\n      tag_299\n      swap1\n      tag_208\n      jump\t// in\n    tag_299:\n      mload(0x40)\n      dup1\n      swap2\n      sub\n      swap1\n      revert\n    tag_298:\n        /* \"GreenCreditToken.sol\":4975:4986  _tokenCount */\n      dup2\n        /* \"GreenCreditToken.sol\":4771:4781  decimals() */\n      tag_301\n        /* \"GreenCreditToken.sol\":4771:4779  decimals */\n      tag_71\n        /* \"GreenCreditToken.sol\":4771:4781  decimals() */\n      jump\t// in\n    tag_301:\n        /* \"GreenCreditToken.sol\":4767:4769  10 */\n      0x0a\n        /* \"GreenCreditToken.sol\":4767:4781  10**decimals() */\n      tag_302\n      swap2\n      swap1\n      tag_201\n      jump\t// in\n    tag_302:\n        /* \"GreenCreditToken.sol\":4753:4764  _tokenCount */\n      dup2\n        /* \"GreenCreditToken.sol\":4753:4781  _tokenCount * 10**decimals() */\n      tag_303\n      swap2\n      swap1\n      tag_203\n      jump\t// in\n    tag_303:\n        /* \"GreenCreditToken.sol\":4728:4749  balanceOf(msg.sender) */\n      tag_304\n        /* \"GreenCreditToken.sol\":4738:4748  msg.sender */\n      caller\n        /* \"GreenCreditToken.sol\":4728:4737  balanceOf */\n      tag_100\n        /* \"GreenCreditToken.sol\":4728:4749  balanceOf(msg.sender) */\n      jump\t// in\n    tag_304:\n        /* \"GreenCreditToken.sol\":4728:4781  balanceOf(msg.sender) >= _tokenCount * 10**decimals() */\n      lt\n      iszero\n        /* \"GreenCreditToken.sol\":4706:4829  require(... */\n      tag_305\n      jumpi\n      mload(0x40)\n      0x08c379a000000000000000000000000000000000000000000000000000000000\n      dup2\n      mstore\n      0x04\n      add\n      tag_306\n      swap1\n      tag_307\n      jump\t// in\n    tag_306:\n      mload(0x40)\n      dup1\n      swap2\n      sub\n      swap1\n      revert\n    tag_305:\n        /* \"GreenCreditToken.sol\":5026:5027  0 */\n      0x00\n        /* \"GreenCreditToken.sol\":5012:5023  _tokenCount */\n      dup4\n        /* \"GreenCreditToken.sol\":5012:5027  _tokenCount > 0 */\n      gt\n        /* \"GreenCreditToken.sol\":5012:5041  _tokenCount > 0 && _price > 0 */\n      dup1\n      iszero\n      tag_309\n      jumpi\n      pop\n        /* \"GreenCreditToken.sol\":5040:5041  0 */\n      0x00\n        /* \"GreenCreditToken.sol\":5031:5037  _price */\n      dup3\n        /* \"GreenCreditToken.sol\":5031:5041  _price > 0 */\n      gt\n        /* \"GreenCreditToken.sol\":5012:5041  _tokenCount > 0 && _price > 0 */\n    tag_309:\n        /* \"GreenCreditToken.sol\":5004:5069  require(_tokenCount > 0 && _price > 0, \"Invalid amount or price\") */\n      tag_310\n      jumpi\n      mload(0x40)\n      0x08c379a000000000000000000000000000000000000000000000000000000000\n      dup2\n      mstore\n      0x04\n      add\n      tag_311\n      swap1\n      tag_312\n      jump\t// in\n    tag_311:\n      mload(0x40)\n      dup1\n      swap2\n      sub\n      swap1\n      revert\n    tag_310:\n        /* \"GreenCreditToken.sol\":5107:5261  TokenListing({... */\n      mload(0x40)\n      dup1\n      0x80\n      add\n      0x40\n      mstore\n      dup1\n        /* \"GreenCreditToken.sol\":5143:5153  msg.sender */\n      caller\n        /* \"GreenCreditToken.sol\":5107:5261  TokenListing({... */\n      0xffffffffffffffffffffffffffffffffffffffff\n      and\n      dup2\n      mstore\n      0x20\n      add\n        /* \"GreenCreditToken.sol\":5181:5192  _tokenCount */\n      dup5\n        /* \"GreenCreditToken.sol\":5107:5261  TokenListing({... */\n      dup2\n      mstore\n      0x20\n      add\n        /* \"GreenCreditToken.sol\":5214:5220  _price */\n      dup4\n        /* \"GreenCreditToken.sol\":5107:5261  TokenListing({... */\n      dup2\n      mstore\n      0x20\n      add\n        /* \"GreenCreditToken.sol\":5245:5249  true */\n      0x01\n        /* \"GreenCreditToken.sol\":5107:5261  TokenListing({... */\n      iszero\n      iszero\n      dup2\n      mstore\n      pop\n        /* \"GreenCreditToken.sol\":5082:5090  listings */\n      0x0b\n        /* \"GreenCreditToken.sol\":5082:5104  listings[listingCount] */\n      0x00\n        /* \"GreenCreditToken.sol\":5091:5103  listingCount */\n      sload(0x0c)\n        /* \"GreenCreditToken.sol\":5082:5104  listings[listingCount] */\n      dup2\n      mstore\n      0x20\n      add\n      swap1\n      dup2\n      mstore\n      0x20\n      add\n      0x00\n      keccak256\n        /* \"GreenCreditToken.sol\":5082:5261  listings[listingCount] = TokenListing({... */\n      0x00\n      dup3\n      add\n      mload\n      dup2\n      0x00\n      add\n      exp(0x0100, 0x00)\n      dup2\n      sload\n      dup2\n      0xffffffffffffffffffffffffffffffffffffffff\n      mul\n      not\n      and\n      swap1\n      dup4\n      0xffffffffffffffffffffffffffffffffffffffff\n      and\n      mul\n      or\n      swap1\n      sstore\n      pop\n      0x20\n      dup3\n      add\n      mload\n      dup2\n      0x01\n      add\n      sstore\n      0x40\n      dup3\n      add\n      mload\n      dup2\n      0x02\n      add\n      sstore\n      0x60\n      dup3\n      add\n      mload\n      dup2\n      0x03\n      add\n      exp(0x0100, 0x00)\n      dup2\n      sload\n      dup2\n      0xff\n      mul\n      not\n      and\n      swap1\n      dup4\n      iszero\n      iszero\n      mul\n      or\n      swap1\n      sstore\n      pop\n      swap1\n      pop\n      pop\n        /* \"GreenCreditToken.sol\":5292:5302  msg.sender */\n      caller\n        /* \"GreenCreditToken.sol\":5279:5324  TokensListed(msg.sender, _tokenCount, _price) */\n      0xffffffffffffffffffffffffffffffffffffffff\n      and\n      0xcf412bfe866866664047e9f9e38cc21c13173a37c85de5d29b65f1822231ec00\n        /* \"GreenCreditToken.sol\":5304:5315  _tokenCount */\n      dup5\n        /* \"GreenCreditToken.sol\":5317:5323  _price */\n      dup5\n        /* \"GreenCreditToken.sol\":5279:5324  TokensListed(msg.sender, _tokenCount, _price) */\n      mload(0x40)\n      tag_313\n      swap3\n      swap2\n      swap1\n      tag_258\n      jump\t// in\n    tag_313:\n      mload(0x40)\n      dup1\n      swap2\n      sub\n      swap1\n      log2\n        /* \"GreenCreditToken.sol\":5335:5347  listingCount */\n      0x0c\n      0x00\n        /* \"GreenCreditToken.sol\":5335:5349  listingCount++ */\n      dup2\n      sload\n      dup1\n      swap3\n      swap2\n      swap1\n      tag_314\n      swap1\n      tag_315\n      jump\t// in\n    tag_314:\n      swap2\n      swap1\n      pop\n      sstore\n      pop\n        /* \"GreenCreditToken.sol\":3195:3196  _ */\n      pop\n        /* \"GreenCreditToken.sol\":4857:5357  function listTokensForSale(uint _tokenCount, uint _price)... */\n      pop\n      pop\n      jump\t// out\n        /* \"@openzeppelin/contracts/utils/Context.sol\":656:752  function _msgSender() internal view virtual returns (address) {... */\n    tag_173:\n        /* \"@openzeppelin/contracts/utils/Context.sol\":709:716  address */\n      0x00\n        /* \"@openzeppelin/contracts/utils/Context.sol\":735:745  msg.sender */\n      caller\n        /* \"@openzeppelin/contracts/utils/Context.sol\":728:745  return msg.sender */\n      swap1\n      pop\n        /* \"@openzeppelin/contracts/utils/Context.sol\":656:752  function _msgSender() internal view virtual returns (address) {... */\n      swap1\n      jump\t// out\n        /* \"@openzeppelin/contracts/token/ERC20/ERC20.sol\":8989:9117  function _approve(address owner, address spender, uint256 value) internal {... */\n    tag_175:\n        /* \"@openzeppelin/contracts/token/ERC20/ERC20.sol\":9073:9110  _approve(owner, spender, value, true) */\n      tag_318\n        /* \"@openzeppelin/contracts/token/ERC20/ERC20.sol\":9082:9087  owner */\n      dup4\n        /* \"@openzeppelin/contracts/token/ERC20/ERC20.sol\":9089:9096  spender */\n      dup4\n        /* \"@openzeppelin/contracts/token/ERC20/ERC20.sol\":9098:9103  value */\n      dup4\n        /* \"@openzeppelin/contracts/token/ERC20/ERC20.sol\":9105:9109  true */\n      0x01\n        /* \"@openzeppelin/contracts/token/ERC20/ERC20.sol\":9073:9081  _approve */\n      tag_319\n        /* \"@openzeppelin/contracts/token/ERC20/ERC20.sol\":9073:9110  _approve(owner, spender, value, true) */\n      jump\t// in\n    tag_318:\n        /* \"@openzeppelin/contracts/token/ERC20/ERC20.sol\":8989:9117  function _approve(address owner, address spender, uint256 value) internal {... */\n      pop\n      pop\n      pop\n      jump\t// out\n        /* \"@openzeppelin/contracts/token/ERC20/ERC20.sol\":10663:11140  function _spendAllowance(address owner, address spender, uint256 value) internal virtual {... */\n    tag_180:\n        /* \"@openzeppelin/contracts/token/ERC20/ERC20.sol\":10762:10786  uint256 currentAllowance */\n      0x00\n        /* \"@openzeppelin/contracts/token/ERC20/ERC20.sol\":10789:10814  allowance(owner, spender) */\n      tag_321\n        /* \"@openzeppelin/contracts/token/ERC20/ERC20.sol\":10799:10804  owner */\n      dup5\n        /* \"@openzeppelin/contracts/token/ERC20/ERC20.sol\":10806:10813  spender */\n      dup5\n        /* \"@openzeppelin/contracts/token/ERC20/ERC20.sol\":10789:10798  allowance */\n      tag_146\n        /* \"@openzeppelin/contracts/token/ERC20/ERC20.sol\":10789:10814  allowance(owner, spender) */\n      jump\t// in\n    tag_321:\n        /* \"@openzeppelin/contracts/token/ERC20/ERC20.sol\":10762:10814  uint256 currentAllowance = allowance(owner, spender) */\n      swap1\n      pop\n        /* \"@openzeppelin/contracts/token/ERC20/ERC20.sol\":10848:10865  type(uint256).max */\n      0xffffffffffffffffffffffffffffffffffffffffffffffffffffffffffffffff\n        /* \"@openzeppelin/contracts/token/ERC20/ERC20.sol\":10828:10844  currentAllowance */\n      dup2\n        /* \"@openzeppelin/contracts/token/ERC20/ERC20.sol\":10828:10865  currentAllowance != type(uint256).max */\n      eq\n        /* \"@openzeppelin/contracts/token/ERC20/ERC20.sol\":10824:11134  if (currentAllowance != type(uint256).max) {... */\n      tag_322\n      jumpi\n        /* \"@openzeppelin/contracts/token/ERC20/ERC20.sol\":10904:10909  value */\n      dup2\n        /* \"@openzeppelin/contracts/token/ERC20/ERC20.sol\":10885:10901  currentAllowance */\n      dup2\n        /* \"@openzeppelin/contracts/token/ERC20/ERC20.sol\":10885:10909  currentAllowance < value */\n      lt\n        /* \"@openzeppelin/contracts/token/ERC20/ERC20.sol\":10881:11011  if (currentAllowance < value) {... */\n      iszero\n      tag_323\n      jumpi\n        /* \"@openzeppelin/contracts/token/ERC20/ERC20.sol\":10963:10970  spender */\n      dup3\n        /* \"@openzeppelin/contracts/token/ERC20/ERC20.sol\":10972:10988  currentAllowance */\n      dup2\n        /* \"@openzeppelin/contracts/token/ERC20/ERC20.sol\":10990:10995  value */\n      dup4\n        /* \"@openzeppelin/contracts/token/ERC20/ERC20.sol\":10936:10996  ERC20InsufficientAllowance(spender, currentAllowance, value) */\n      mload(0x40)\n      0xfb8f41b200000000000000000000000000000000000000000000000000000000\n      dup2\n      mstore\n      0x04\n      add\n      tag_324\n      swap4\n      swap3\n      swap2\n      swap1\n      tag_325\n      jump\t// in\n    tag_324:\n      mload(0x40)\n      dup1\n      swap2\n      sub\n      swap1\n      revert\n        /* \"@openzeppelin/contracts/token/ERC20/ERC20.sol\":10881:11011  if (currentAllowance < value) {... */\n    tag_323:\n        /* \"@openzeppelin/contracts/token/ERC20/ERC20.sol\":11052:11109  _approve(owner, spender, currentAllowance - value, false) */\n      tag_326\n        /* \"@openzeppelin/contracts/token/ERC20/ERC20.sol\":11061:11066  owner */\n      dup5\n        /* \"@openzeppelin/contracts/token/ERC20/ERC20.sol\":11068:11075  spender */\n      dup5\n        /* \"@openzeppelin/contracts/token/ERC20/ERC20.sol\":11096:11101  value */\n      dup5\n        /* \"@openzeppelin/contracts/token/ERC20/ERC20.sol\":11077:11093  currentAllowance */\n      dup5\n        /* \"@openzeppelin/contracts/token/ERC20/ERC20.sol\":11077:11101  currentAllowance - value */\n      sub\n        /* \"@openzeppelin/contracts/token/ERC20/ERC20.sol\":11103:11108  false */\n      0x00\n        /* \"@openzeppelin/contracts/token/ERC20/ERC20.sol\":11052:11060  _approve */\n      tag_319\n        /* \"@openzeppelin/contracts/token/ERC20/ERC20.sol\":11052:11109  _approve(owner, spender, currentAllowance - value, false) */\n      jump\t// in\n    tag_326:\n        /* \"@openzeppelin/contracts/token/ERC20/ERC20.sol\":10824:11134  if (currentAllowance != type(uint256).max) {... */\n    tag_322:\n        /* \"@openzeppelin/contracts/token/ERC20/ERC20.sol\":10752:11140  {... */\n      pop\n        /* \"@openzeppelin/contracts/token/ERC20/ERC20.sol\":10663:11140  function _spendAllowance(address owner, address spender, uint256 value) internal virtual {... */\n      pop\n      pop\n      pop\n      jump\t// out\n        /* \"@openzeppelin/contracts/token/ERC20/ERC20.sol\":5656:5956  function _transfer(address from, address to, uint256 value) internal {... */\n    tag_182:\n        /* \"@openzeppelin/contracts/token/ERC20/ERC20.sol\":5755:5756  0 */\n      0x00\n        /* \"@openzeppelin/contracts/token/ERC20/ERC20.sol\":5739:5757  from == address(0) */\n      0xffffffffffffffffffffffffffffffffffffffff\n      and\n        /* \"@openzeppelin/contracts/token/ERC20/ERC20.sol\":5739:5743  from */\n      dup4\n        /* \"@openzeppelin/contracts/token/ERC20/ERC20.sol\":5739:5757  from == address(0) */\n      0xffffffffffffffffffffffffffffffffffffffff\n      and\n      sub\n        /* \"@openzeppelin/contracts/token/ERC20/ERC20.sol\":5735:5821  if (from == address(0)) {... */\n      tag_328\n      jumpi\n        /* \"@openzeppelin/contracts/token/ERC20/ERC20.sol\":5807:5808  0 */\n      0x00\n        /* \"@openzeppelin/contracts/token/ERC20/ERC20.sol\":5780:5810  ERC20InvalidSender(address(0)) */\n      mload(0x40)\n      0x96c6fd1e00000000000000000000000000000000000000000000000000000000\n      dup2\n      mstore\n      0x04\n      add\n      tag_329\n      swap2\n      swap1\n      tag_330\n      jump\t// in\n    tag_329:\n      mload(0x40)\n      dup1\n      swap2\n      sub\n      swap1\n      revert\n        /* \"@openzeppelin/contracts/token/ERC20/ERC20.sol\":5735:5821  if (from == address(0)) {... */\n    tag_328:\n        /* \"@openzeppelin/contracts/token/ERC20/ERC20.sol\":5848:5849  0 */\n      0x00\n        /* \"@openzeppelin/contracts/token/ERC20/ERC20.sol\":5834:5850  to == address(0) */\n      0xffffffffffffffffffffffffffffffffffffffff\n      and\n        /* \"@openzeppelin/contracts/token/ERC20/ERC20.sol\":5834:5836  to */\n      dup3\n        /* \"@openzeppelin/contracts/token/ERC20/ERC20.sol\":5834:5850  to == address(0) */\n      0xffffffffffffffffffffffffffffffffffffffff\n      and\n      sub\n        /* \"@openzeppelin/contracts/token/ERC20/ERC20.sol\":5830:5916  if (to == address(0)) {... */\n      tag_331\n      jumpi\n        /* \"@openzeppelin/contracts/token/ERC20/ERC20.sol\":5902:5903  0 */\n      0x00\n        /* \"@openzeppelin/contracts/token/ERC20/ERC20.sol\":5873:5905  ERC20InvalidReceiver(address(0)) */\n      mload(0x40)\n      0xec442f0500000000000000000000000000000000000000000000000000000000\n      dup2\n      mstore\n      0x04\n      add\n      tag_332\n      swap2\n      swap1\n      tag_330\n      jump\t// in\n    tag_332:\n      mload(0x40)\n      dup1\n      swap2\n      sub\n      swap1\n      revert\n        /* \"@openzeppelin/contracts/token/ERC20/ERC20.sol\":5830:5916  if (to == address(0)) {... */\n    tag_331:\n        /* \"@openzeppelin/contracts/token/ERC20/ERC20.sol\":5925:5949  _update(from, to, value) */\n      tag_333\n        /* \"@openzeppelin/contracts/token/ERC20/ERC20.sol\":5933:5937  from */\n      dup4\n        /* \"@openzeppelin/contracts/token/ERC20/ERC20.sol\":5939:5941  to */\n      dup4\n        /* \"@openzeppelin/contracts/token/ERC20/ERC20.sol\":5943:5948  value */\n      dup4\n        /* \"@openzeppelin/contracts/token/ERC20/ERC20.sol\":5925:5932  _update */\n      tag_334\n        /* \"@openzeppelin/contracts/token/ERC20/ERC20.sol\":5925:5949  _update(from, to, value) */\n      jump\t// in\n    tag_333:\n        /* \"@openzeppelin/contracts/token/ERC20/ERC20.sol\":5656:5956  function _transfer(address from, address to, uint256 value) internal {... */\n      pop\n      pop\n      pop\n      jump\t// out\n        /* \"@openzeppelin/contracts/token/ERC20/ERC20.sol\":7721:7929  function _mint(address account, uint256 value) internal {... */\n    tag_224:\n        /* \"@openzeppelin/contracts/token/ERC20/ERC20.sol\":7810:7811  0 */\n      0x00\n        /* \"@openzeppelin/contracts/token/ERC20/ERC20.sol\":7791:7812  account == address(0) */\n      0xffffffffffffffffffffffffffffffffffffffff\n      and\n        /* \"@openzeppelin/contracts/token/ERC20/ERC20.sol\":7791:7798  account */\n      dup3\n        /* \"@openzeppelin/contracts/token/ERC20/ERC20.sol\":7791:7812  account == address(0) */\n      0xffffffffffffffffffffffffffffffffffffffff\n      and\n      sub\n        /* \"@openzeppelin/contracts/token/ERC20/ERC20.sol\":7787:7878  if (account == address(0)) {... */\n      tag_336\n      jumpi\n        /* \"@openzeppelin/contracts/token/ERC20/ERC20.sol\":7864:7865  0 */\n      0x00\n        /* \"@openzeppelin/contracts/token/ERC20/ERC20.sol\":7835:7867  ERC20InvalidReceiver(address(0)) */\n      mload(0x40)\n      0xec442f0500000000000000000000000000000000000000000000000000000000\n      dup2\n      mstore\n      0x04\n      add\n      tag_337\n      swap2\n      swap1\n      tag_330\n      jump\t// in\n    tag_337:\n      mload(0x40)\n      dup1\n      swap2\n      sub\n      swap1\n      revert\n        /* \"@openzeppelin/contracts/token/ERC20/ERC20.sol\":7787:7878  if (account == address(0)) {... */\n    tag_336:\n        /* \"@openzeppelin/contracts/token/ERC20/ERC20.sol\":7887:7922  _update(address(0), account, value) */\n      tag_338\n        /* \"@openzeppelin/contracts/token/ERC20/ERC20.sol\":7903:7904  0 */\n      0x00\n        /* \"@openzeppelin/contracts/token/ERC20/ERC20.sol\":7907:7914  account */\n      dup4\n        /* \"@openzeppelin/contracts/token/ERC20/ERC20.sol\":7916:7921  value */\n      dup4\n        /* \"@openzeppelin/contracts/token/ERC20/ERC20.sol\":7887:7894  _update */\n      tag_334\n        /* \"@openzeppelin/contracts/token/ERC20/ERC20.sol\":7887:7922  _update(address(0), account, value) */\n      jump\t// in\n    tag_338:\n        /* \"@openzeppelin/contracts/token/ERC20/ERC20.sol\":7721:7929  function _mint(address account, uint256 value) internal {... */\n      pop\n      pop\n      jump\t// out\n        /* \"@openzeppelin/contracts/token/ERC20/ERC20.sol\":8247:8453  function _burn(address account, uint256 value) internal {... */\n    tag_290:\n        /* \"@openzeppelin/contracts/token/ERC20/ERC20.sol\":8336:8337  0 */\n      0x00\n        /* \"@openzeppelin/contracts/token/ERC20/ERC20.sol\":8317:8338  account == address(0) */\n      0xffffffffffffffffffffffffffffffffffffffff\n      and\n        /* \"@openzeppelin/contracts/token/ERC20/ERC20.sol\":8317:8324  account */\n      dup3\n        /* \"@openzeppelin/contracts/token/ERC20/ERC20.sol\":8317:8338  account == address(0) */\n      0xffffffffffffffffffffffffffffffffffffffff\n      and\n      sub\n        /* \"@openzeppelin/contracts/token/ERC20/ERC20.sol\":8313:8402  if (account == address(0)) {... */\n      tag_340\n      jumpi\n        /* \"@openzeppelin/contracts/token/ERC20/ERC20.sol\":8388:8389  0 */\n      0x00\n        /* \"@openzeppelin/contracts/token/ERC20/ERC20.sol\":8361:8391  ERC20InvalidSender(address(0)) */\n      mload(0x40)\n      0x96c6fd1e00000000000000000000000000000000000000000000000000000000\n      dup2\n      mstore\n      0x04\n      add\n      tag_341\n      swap2\n      swap1\n      tag_330\n      jump\t// in\n    tag_341:\n      mload(0x40)\n      dup1\n      swap2\n      sub\n      swap1\n      revert\n        /* \"@openzeppelin/contracts/token/ERC20/ERC20.sol\":8313:8402  if (account == address(0)) {... */\n    tag_340:\n        /* \"@openzeppelin/contracts/token/ERC20/ERC20.sol\":8411:8446  _update(account, address(0), value) */\n      tag_342\n        /* \"@openzeppelin/contracts/token/ERC20/ERC20.sol\":8419:8426  account */\n      dup3\n        /* \"@openzeppelin/contracts/token/ERC20/ERC20.sol\":8436:8437  0 */\n      0x00\n        /* \"@openzeppelin/contracts/token/ERC20/ERC20.sol\":8440:8445  value */\n      dup4\n        /* \"@openzeppelin/contracts/token/ERC20/ERC20.sol\":8411:8418  _update */\n      tag_334\n        /* \"@openzeppelin/contracts/token/ERC20/ERC20.sol\":8411:8446  _update(account, address(0), value) */\n      jump\t// in\n    tag_342:\n        /* \"@openzeppelin/contracts/token/ERC20/ERC20.sol\":8247:8453  function _burn(address account, uint256 value) internal {... */\n      pop\n      pop\n      jump\t// out\n        /* \"@openzeppelin/contracts/token/ERC20/ERC20.sol\":9949:10381  function _approve(address owner, address spender, uint256 value, bool emitEvent) internal virtual {... */\n    tag_319:\n        /* \"@openzeppelin/contracts/token/ERC20/ERC20.sol\":10078:10079  0 */\n      0x00\n        /* \"@openzeppelin/contracts/token/ERC20/ERC20.sol\":10061:10080  owner == address(0) */\n      0xffffffffffffffffffffffffffffffffffffffff\n      and\n        /* \"@openzeppelin/contracts/token/ERC20/ERC20.sol\":10061:10066  owner */\n      dup5\n        /* \"@openzeppelin/contracts/token/ERC20/ERC20.sol\":10061:10080  owner == address(0) */\n      0xffffffffffffffffffffffffffffffffffffffff\n      and\n      sub\n        /* \"@openzeppelin/contracts/token/ERC20/ERC20.sol\":10057:10146  if (owner == address(0)) {... */\n      tag_344\n      jumpi\n        /* \"@openzeppelin/contracts/token/ERC20/ERC20.sol\":10132:10133  0 */\n      0x00\n        /* \"@openzeppelin/contracts/token/ERC20/ERC20.sol\":10103:10135  ERC20InvalidApprover(address(0)) */\n      mload(0x40)\n      0xe602df0500000000000000000000000000000000000000000000000000000000\n      dup2\n      mstore\n      0x04\n      add\n      tag_345\n      swap2\n      swap1\n      tag_330\n      jump\t// in\n    tag_345:\n      mload(0x40)\n      dup1\n      swap2\n      sub\n      swap1\n      revert\n        /* \"@openzeppelin/contracts/token/ERC20/ERC20.sol\":10057:10146  if (owner == address(0)) {... */\n    tag_344:\n        /* \"@openzeppelin/contracts/token/ERC20/ERC20.sol\":10178:10179  0 */\n      0x00\n        /* \"@openzeppelin/contracts/token/ERC20/ERC20.sol\":10159:10180  spender == address(0) */\n      0xffffffffffffffffffffffffffffffffffffffff\n      and\n        /* \"@openzeppelin/contracts/token/ERC20/ERC20.sol\":10159:10166  spender */\n      dup4\n        /* \"@openzeppelin/contracts/token/ERC20/ERC20.sol\":10159:10180  spender == address(0) */\n      0xffffffffffffffffffffffffffffffffffffffff\n      and\n      sub\n        /* \"@openzeppelin/contracts/token/ERC20/ERC20.sol\":10155:10245  if (spender == address(0)) {... */\n      tag_346\n      jumpi\n        /* \"@openzeppelin/contracts/token/ERC20/ERC20.sol\":10231:10232  0 */\n      0x00\n        /* \"@openzeppelin/contracts/token/ERC20/ERC20.sol\":10203:10234  ERC20InvalidSpender(address(0)) */\n      mload(0x40)\n      0x94280d6200000000000000000000000000000000000000000000000000000000\n      dup2\n      mstore\n      0x04\n      add\n      tag_347\n      swap2\n      swap1\n      tag_330\n      jump\t// in\n    tag_347:\n      mload(0x40)\n      dup1\n      swap2\n      sub\n      swap1\n      revert\n        /* \"@openzeppelin/contracts/token/ERC20/ERC20.sol\":10155:10245  if (spender == address(0)) {... */\n    tag_346:\n        /* \"@openzeppelin/contracts/token/ERC20/ERC20.sol\":10284:10289  value */\n      dup2\n        /* \"@openzeppelin/contracts/token/ERC20/ERC20.sol\":10254:10265  _allowances */\n      0x01\n        /* \"@openzeppelin/contracts/token/ERC20/ERC20.sol\":10254:10272  _allowances[owner] */\n      0x00\n        /* \"@openzeppelin/contracts/token/ERC20/ERC20.sol\":10266:10271  owner */\n      dup7\n        /* \"@openzeppelin/contracts/token/ERC20/ERC20.sol\":10254:10272  _allowances[owner] */\n      0xffffffffffffffffffffffffffffffffffffffff\n      and\n      0xffffffffffffffffffffffffffffffffffffffff\n      and\n      dup2\n      mstore\n      0x20\n      add\n      swap1\n      dup2\n      mstore\n      0x20\n      add\n      0x00\n      keccak256\n        /* \"@openzeppelin/contracts/token/ERC20/ERC20.sol\":10254:10281  _allowances[owner][spender] */\n      0x00\n        /* \"@openzeppelin/contracts/token/ERC20/ERC20.sol\":10273:10280  spender */\n      dup6\n        /* \"@openzeppelin/contracts/token/ERC20/ERC20.sol\":10254:10281  _allowances[owner][spender] */\n      0xffffffffffffffffffffffffffffffffffffffff\n      and\n      0xffffffffffffffffffffffffffffffffffffffff\n      and\n      dup2\n      mstore\n      0x20\n      add\n      swap1\n      dup2\n      mstore\n      0x20\n      add\n      0x00\n      keccak256\n        /* \"@openzeppelin/contracts/token/ERC20/ERC20.sol\":10254:10289  _allowances[owner][spender] = value */\n      dup2\n      swap1\n      sstore\n      pop\n        /* \"@openzeppelin/contracts/token/ERC20/ERC20.sol\":10303:10312  emitEvent */\n      dup1\n        /* \"@openzeppelin/contracts/token/ERC20/ERC20.sol\":10299:10375  if (emitEvent) {... */\n      iszero\n      tag_348\n      jumpi\n        /* \"@openzeppelin/contracts/token/ERC20/ERC20.sol\":10349:10356  spender */\n      dup3\n        /* \"@openzeppelin/contracts/token/ERC20/ERC20.sol\":10333:10364  Approval(owner, spender, value) */\n      0xffffffffffffffffffffffffffffffffffffffff\n      and\n        /* \"@openzeppelin/contracts/token/ERC20/ERC20.sol\":10342:10347  owner */\n      dup5\n        /* \"@openzeppelin/contracts/token/ERC20/ERC20.sol\":10333:10364  Approval(owner, spender, value) */\n      0xffffffffffffffffffffffffffffffffffffffff\n      and\n      0x8c5be1e5ebec7d5bd14f71427d1e84f3dd0314c0f7b2291e5b200ac8c7c3b925\n        /* \"@openzeppelin/contracts/token/ERC20/ERC20.sol\":10358:10363  value */\n      dup5\n        /* \"@openzeppelin/contracts/token/ERC20/ERC20.sol\":10333:10364  Approval(owner, spender, value) */\n      mload(0x40)\n      tag_349\n      swap2\n      swap1\n      tag_57\n      jump\t// in\n    tag_349:\n      mload(0x40)\n      dup1\n      swap2\n      sub\n      swap1\n      log3\n        /* \"@openzeppelin/contracts/token/ERC20/ERC20.sol\":10299:10375  if (emitEvent) {... */\n    tag_348:\n        /* \"@openzeppelin/contracts/token/ERC20/ERC20.sol\":9949:10381  function _approve(address owner, address spender, uint256 value, bool emitEvent) internal virtual {... */\n      pop\n      pop\n      pop\n      pop\n      jump\t// out\n        /* \"@openzeppelin/contracts/token/ERC20/ERC20.sol\":6271:7378  function _update(address from, address to, uint256 value) internal virtual {... */\n    tag_334:\n        /* \"@openzeppelin/contracts/token/ERC20/ERC20.sol\":6376:6377  0 */\n      0x00\n        /* \"@openzeppelin/contracts/token/ERC20/ERC20.sol\":6360:6378  from == address(0) */\n      0xffffffffffffffffffffffffffffffffffffffff\n      and\n        /* \"@openzeppelin/contracts/token/ERC20/ERC20.sol\":6360:6364  from */\n      dup4\n        /* \"@openzeppelin/contracts/token/ERC20/ERC20.sol\":6360:6378  from == address(0) */\n      0xffffffffffffffffffffffffffffffffffffffff\n      and\n      sub\n        /* \"@openzeppelin/contracts/token/ERC20/ERC20.sol\":6356:6896  if (from == address(0)) {... */\n      tag_351\n      jumpi\n        /* \"@openzeppelin/contracts/token/ERC20/ERC20.sol\":6512:6517  value */\n      dup1\n        /* \"@openzeppelin/contracts/token/ERC20/ERC20.sol\":6496:6508  _totalSupply */\n      0x02\n      0x00\n        /* \"@openzeppelin/contracts/token/ERC20/ERC20.sol\":6496:6517  _totalSupply += value */\n      dup3\n      dup3\n      sload\n      tag_352\n      swap2\n      swap1\n      tag_353\n      jump\t// in\n    tag_352:\n      swap3\n      pop\n      pop\n      dup2\n      swap1\n      sstore\n      pop\n        /* \"@openzeppelin/contracts/token/ERC20/ERC20.sol\":6356:6896  if (from == address(0)) {... */\n      jump(tag_354)\n    tag_351:\n        /* \"@openzeppelin/contracts/token/ERC20/ERC20.sol\":6548:6567  uint256 fromBalance */\n      0x00\n        /* \"@openzeppelin/contracts/token/ERC20/ERC20.sol\":6570:6579  _balances */\n      dup1\n        /* \"@openzeppelin/contracts/token/ERC20/ERC20.sol\":6570:6585  _balances[from] */\n      0x00\n        /* \"@openzeppelin/contracts/token/ERC20/ERC20.sol\":6580:6584  from */\n      dup6\n        /* \"@openzeppelin/contracts/token/ERC20/ERC20.sol\":6570:6585  _balances[from] */\n      0xffffffffffffffffffffffffffffffffffffffff\n      and\n      0xffffffffffffffffffffffffffffffffffffffff\n      and\n      dup2\n      mstore\n      0x20\n      add\n      swap1\n      dup2\n      mstore\n      0x20\n      add\n      0x00\n      keccak256\n      sload\n        /* \"@openzeppelin/contracts/token/ERC20/ERC20.sol\":6548:6585  uint256 fromBalance = _balances[from] */\n      swap1\n      pop\n        /* \"@openzeppelin/contracts/token/ERC20/ERC20.sol\":6617:6622  value */\n      dup2\n        /* \"@openzeppelin/contracts/token/ERC20/ERC20.sol\":6603:6614  fromBalance */\n      dup2\n        /* \"@openzeppelin/contracts/token/ERC20/ERC20.sol\":6603:6622  fromBalance < value */\n      lt\n        /* \"@openzeppelin/contracts/token/ERC20/ERC20.sol\":6599:6714  if (fromBalance < value) {... */\n      iszero\n      tag_355\n      jumpi\n        /* \"@openzeppelin/contracts/token/ERC20/ERC20.sol\":6674:6678  from */\n      dup4\n        /* \"@openzeppelin/contracts/token/ERC20/ERC20.sol\":6680:6691  fromBalance */\n      dup2\n        /* \"@openzeppelin/contracts/token/ERC20/ERC20.sol\":6693:6698  value */\n      dup4\n        /* \"@openzeppelin/contracts/token/ERC20/ERC20.sol\":6649:6699  ERC20InsufficientBalance(from, fromBalance, value) */\n      mload(0x40)\n      0xe450d38c00000000000000000000000000000000000000000000000000000000\n      dup2\n      mstore\n      0x04\n      add\n      tag_356\n      swap4\n      swap3\n      swap2\n      swap1\n      tag_325\n      jump\t// in\n    tag_356:\n      mload(0x40)\n      dup1\n      swap2\n      sub\n      swap1\n      revert\n        /* \"@openzeppelin/contracts/token/ERC20/ERC20.sol\":6599:6714  if (fromBalance < value) {... */\n    tag_355:\n        /* \"@openzeppelin/contracts/token/ERC20/ERC20.sol\":6866:6871  value */\n      dup2\n        /* \"@openzeppelin/contracts/token/ERC20/ERC20.sol\":6852:6863  fromBalance */\n      dup2\n        /* \"@openzeppelin/contracts/token/ERC20/ERC20.sol\":6852:6871  fromBalance - value */\n      sub\n        /* \"@openzeppelin/contracts/token/ERC20/ERC20.sol\":6834:6843  _balances */\n      0x00\n        /* \"@openzeppelin/contracts/token/ERC20/ERC20.sol\":6834:6849  _balances[from] */\n      dup1\n        /* \"@openzeppelin/contracts/token/ERC20/ERC20.sol\":6844:6848  from */\n      dup7\n        /* \"@openzeppelin/contracts/token/ERC20/ERC20.sol\":6834:6849  _balances[from] */\n      0xffffffffffffffffffffffffffffffffffffffff\n      and\n      0xffffffffffffffffffffffffffffffffffffffff\n      and\n      dup2\n      mstore\n      0x20\n      add\n      swap1\n      dup2\n      mstore\n      0x20\n      add\n      0x00\n      keccak256\n        /* \"@openzeppelin/contracts/token/ERC20/ERC20.sol\":6834:6871  _balances[from] = fromBalance - value */\n      dup2\n      swap1\n      sstore\n      pop\n        /* \"@openzeppelin/contracts/token/ERC20/ERC20.sol\":6534:6896  {... */\n      pop\n        /* \"@openzeppelin/contracts/token/ERC20/ERC20.sol\":6356:6896  if (from == address(0)) {... */\n    tag_354:\n        /* \"@openzeppelin/contracts/token/ERC20/ERC20.sol\":6924:6925  0 */\n      0x00\n        /* \"@openzeppelin/contracts/token/ERC20/ERC20.sol\":6910:6926  to == address(0) */\n      0xffffffffffffffffffffffffffffffffffffffff\n      and\n        /* \"@openzeppelin/contracts/token/ERC20/ERC20.sol\":6910:6912  to */\n      dup3\n        /* \"@openzeppelin/contracts/token/ERC20/ERC20.sol\":6910:6926  to == address(0) */\n      0xffffffffffffffffffffffffffffffffffffffff\n      and\n      sub\n        /* \"@openzeppelin/contracts/token/ERC20/ERC20.sol\":6906:7331  if (to == address(0)) {... */\n      tag_357\n      jumpi\n        /* \"@openzeppelin/contracts/token/ERC20/ERC20.sol\":7089:7094  value */\n      dup1\n        /* \"@openzeppelin/contracts/token/ERC20/ERC20.sol\":7073:7085  _totalSupply */\n      0x02\n      0x00\n        /* \"@openzeppelin/contracts/token/ERC20/ERC20.sol\":7073:7094  _totalSupply -= value */\n      dup3\n      dup3\n      sload\n      sub\n      swap3\n      pop\n      pop\n      dup2\n      swap1\n      sstore\n      pop\n        /* \"@openzeppelin/contracts/token/ERC20/ERC20.sol\":6906:7331  if (to == address(0)) {... */\n      jump(tag_358)\n    tag_357:\n        /* \"@openzeppelin/contracts/token/ERC20/ERC20.sol\":7301:7306  value */\n      dup1\n        /* \"@openzeppelin/contracts/token/ERC20/ERC20.sol\":7284:7293  _balances */\n      0x00\n        /* \"@openzeppelin/contracts/token/ERC20/ERC20.sol\":7284:7297  _balances[to] */\n      dup1\n        /* \"@openzeppelin/contracts/token/ERC20/ERC20.sol\":7294:7296  to */\n      dup5\n        /* \"@openzeppelin/contracts/token/ERC20/ERC20.sol\":7284:7297  _balances[to] */\n      0xffffffffffffffffffffffffffffffffffffffff\n      and\n      0xffffffffffffffffffffffffffffffffffffffff\n      and\n      dup2\n      mstore\n      0x20\n      add\n      swap1\n      dup2\n      mstore\n      0x20\n      add\n      0x00\n      keccak256\n      0x00\n        /* \"@openzeppelin/contracts/token/ERC20/ERC20.sol\":7284:7306  _balances[to] += value */\n      dup3\n      dup3\n      sload\n      add\n      swap3\n      pop\n      pop\n      dup2\n      swap1\n      sstore\n      pop\n        /* \"@openzeppelin/contracts/token/ERC20/ERC20.sol\":6906:7331  if (to == address(0)) {... */\n    tag_358:\n        /* \"@openzeppelin/contracts/token/ERC20/ERC20.sol\":7361:7363  to */\n      dup2\n        /* \"@openzeppelin/contracts/token/ERC20/ERC20.sol\":7346:7371  Transfer(from, to, value) */\n      0xffffffffffffffffffffffffffffffffffffffff\n      and\n        /* \"@openzeppelin/contracts/token/ERC20/ERC20.sol\":7355:7359  from */\n      dup4\n        /* \"@openzeppelin/contracts/token/ERC20/ERC20.sol\":7346:7371  Transfer(from, to, value) */\n      0xffffffffffffffffffffffffffffffffffffffff\n      and\n      0xddf252ad1be2c89b69c2b068fc378daa952ba7f163c4a11628f55a4df523b3ef\n        /* \"@openzeppelin/contracts/token/ERC20/ERC20.sol\":7365:7370  value */\n      dup4\n        /* \"@openzeppelin/contracts/token/ERC20/ERC20.sol\":7346:7371  Transfer(from, to, value) */\n      mload(0x40)\n      tag_359\n      swap2\n      swap1\n      tag_57\n      jump\t// in\n    tag_359:\n      mload(0x40)\n      dup1\n      swap2\n      sub\n      swap1\n      log3\n        /* \"@openzeppelin/contracts/token/ERC20/ERC20.sol\":6271:7378  function _update(address from, address to, uint256 value) internal virtual {... */\n      pop\n      pop\n      pop\n      jump\t// out\n        /* \"#utility.yul\":7:106   */\n    tag_360:\n        /* \"#utility.yul\":59:65   */\n      0x00\n        /* \"#utility.yul\":93:98   */\n      dup2\n        /* \"#utility.yul\":87:99   */\n      mload\n        /* \"#utility.yul\":77:99   */\n      swap1\n      pop\n        /* \"#utility.yul\":7:106   */\n      swap2\n      swap1\n      pop\n      jump\t// out\n        /* \"#utility.yul\":112:281   */\n    tag_361:\n        /* \"#utility.yul\":196:207   */\n      0x00\n        /* \"#utility.yul\":230:236   */\n      dup3\n        /* \"#utility.yul\":225:228   */\n      dup3\n        /* \"#utility.yul\":218:237   */\n      mstore\n        /* \"#utility.yul\":270:274   */\n      0x20\n        /* \"#utility.yul\":265:268   */\n      dup3\n        /* \"#utility.yul\":261:275   */\n      add\n        /* \"#utility.yul\":246:275   */\n      swap1\n      pop\n        /* \"#utility.yul\":112:281   */\n      swap3\n      swap2\n      pop\n      pop\n      jump\t// out\n        /* \"#utility.yul\":287:426   */\n    tag_362:\n        /* \"#utility.yul\":376:382   */\n      dup3\n        /* \"#utility.yul\":371:374   */\n      dup2\n        /* \"#utility.yul\":366:369   */\n      dup4\n        /* \"#utility.yul\":360:383   */\n      mcopy\n        /* \"#utility.yul\":417:418   */\n      0x00\n        /* \"#utility.yul\":408:414   */\n      dup4\n        /* \"#utility.yul\":403:406   */\n      dup4\n        /* \"#utility.yul\":399:415   */\n      add\n        /* \"#utility.yul\":392:419   */\n      mstore\n        /* \"#utility.yul\":287:426   */\n      pop\n      pop\n      pop\n      jump\t// out\n        /* \"#utility.yul\":432:534   */\n    tag_363:\n        /* \"#utility.yul\":473:479   */\n      0x00\n        /* \"#utility.yul\":524:526   */\n      0x1f\n        /* \"#utility.yul\":520:527   */\n      not\n        /* \"#utility.yul\":515:517   */\n      0x1f\n        /* \"#utility.yul\":508:513   */\n      dup4\n        /* \"#utility.yul\":504:518   */\n      add\n        /* \"#utility.yul\":500:528   */\n      and\n        /* \"#utility.yul\":490:528   */\n      swap1\n      pop\n        /* \"#utility.yul\":432:534   */\n      swap2\n      swap1\n      pop\n      jump\t// out\n        /* \"#utility.yul\":540:917   */\n    tag_364:\n        /* \"#utility.yul\":628:631   */\n      0x00\n        /* \"#utility.yul\":656:695   */\n      tag_428\n        /* \"#utility.yul\":689:694   */\n      dup3\n        /* \"#utility.yul\":656:695   */\n      tag_360\n      jump\t// in\n    tag_428:\n        /* \"#utility.yul\":711:782   */\n      tag_429\n        /* \"#utility.yul\":775:781   */\n      dup2\n        /* \"#utility.yul\":770:773   */\n      dup6\n        /* \"#utility.yul\":711:782   */\n      tag_361\n      jump\t// in\n    tag_429:\n        /* \"#utility.yul\":704:782   */\n      swap4\n      pop\n        /* \"#utility.yul\":791:856   */\n      tag_430\n        /* \"#utility.yul\":849:855   */\n      dup2\n        /* \"#utility.yul\":844:847   */\n      dup6\n        /* \"#utility.yul\":837:841   */\n      0x20\n        /* \"#utility.yul\":830:835   */\n      dup7\n        /* \"#utility.yul\":826:842   */\n      add\n        /* \"#utility.yul\":791:856   */\n      tag_362\n      jump\t// in\n    tag_430:\n        /* \"#utility.yul\":881:910   */\n      tag_431\n        /* \"#utility.yul\":903:909   */\n      dup2\n        /* \"#utility.yul\":881:910   */\n      tag_363\n      jump\t// in\n    tag_431:\n        /* \"#utility.yul\":876:879   */\n      dup5\n        /* \"#utility.yul\":872:911   */\n      add\n        /* \"#utility.yul\":865:911   */\n      swap2\n      pop\n        /* \"#utility.yul\":632:917   */\n      pop\n        /* \"#utility.yul\":540:917   */\n      swap3\n      swap2\n      pop\n      pop\n      jump\t// out\n        /* \"#utility.yul\":923:1236   */\n    tag_39:\n        /* \"#utility.yul\":1036:1040   */\n      0x00\n        /* \"#utility.yul\":1074:1076   */\n      0x20\n        /* \"#utility.yul\":1063:1072   */\n      dup3\n        /* \"#utility.yul\":1059:1077   */\n      add\n        /* \"#utility.yul\":1051:1077   */\n      swap1\n      pop\n        /* \"#utility.yul\":1123:1132   */\n      dup2\n        /* \"#utility.yul\":1117:1121   */\n      dup2\n        /* \"#utility.yul\":1113:1133   */\n      sub\n        /* \"#utility.yul\":1109:1110   */\n      0x00\n        /* \"#utility.yul\":1098:1107   */\n      dup4\n        /* \"#utility.yul\":1094:1111   */\n      add\n        /* \"#utility.yul\":1087:1134   */\n      mstore\n        /* \"#utility.yul\":1151:1229   */\n      tag_433\n        /* \"#utility.yul\":1224:1228   */\n      dup2\n        /* \"#utility.yul\":1215:1221   */\n      dup5\n        /* \"#utility.yul\":1151:1229   */\n      tag_364\n      jump\t// in\n    tag_433:\n        /* \"#utility.yul\":1143:1229   */\n      swap1\n      pop\n        /* \"#utility.yul\":923:1236   */\n      swap3\n      swap2\n      pop\n      pop\n      jump\t// out\n        /* \"#utility.yul\":1323:1440   */\n    tag_366:\n        /* \"#utility.yul\":1432:1433   */\n      0x00\n        /* \"#utility.yul\":1429:1430   */\n      dup1\n        /* \"#utility.yul\":1422:1434   */\n      revert\n        /* \"#utility.yul\":1569:1695   */\n    tag_368:\n        /* \"#utility.yul\":1606:1613   */\n      0x00\n        /* \"#utility.yul\":1646:1688   */\n      0xffffffffffffffffffffffffffffffffffffffff\n        /* \"#utility.yul\":1639:1644   */\n      dup3\n        /* \"#utility.yul\":1635:1689   */\n      and\n        /* \"#utility.yul\":1624:1689   */\n      swap1\n      pop\n        /* \"#utility.yul\":1569:1695   */\n      swap2\n      swap1\n      pop\n      jump\t// out\n        /* \"#utility.yul\":1701:1797   */\n    tag_369:\n        /* \"#utility.yul\":1738:1745   */\n      0x00\n        /* \"#utility.yul\":1767:1791   */\n      tag_439\n        /* \"#utility.yul\":1785:1790   */\n      dup3\n        /* \"#utility.yul\":1767:1791   */\n      tag_368\n      jump\t// in\n    tag_439:\n        /* \"#utility.yul\":1756:1791   */\n      swap1\n      pop\n        /* \"#utility.yul\":1701:1797   */\n      swap2\n      swap1\n      pop\n      jump\t// out\n        /* \"#utility.yul\":1803:1925   */\n    tag_370:\n        /* \"#utility.yul\":1876:1900   */\n      tag_441\n        /* \"#utility.yul\":1894:1899   */\n      dup2\n        /* \"#utility.yul\":1876:1900   */\n      tag_369\n      jump\t// in\n    tag_441:\n        /* \"#utility.yul\":1869:1874   */\n      dup2\n        /* \"#utility.yul\":1866:1901   */\n      eq\n        /* \"#utility.yul\":1856:1919   */\n      tag_442\n      jumpi\n        /* \"#utility.yul\":1915:1916   */\n      0x00\n        /* \"#utility.yul\":1912:1913   */\n      dup1\n        /* \"#utility.yul\":1905:1917   */\n      revert\n        /* \"#utility.yul\":1856:1919   */\n    tag_442:\n        /* \"#utility.yul\":1803:1925   */\n      pop\n      jump\t// out\n        /* \"#utility.yul\":1931:2070   */\n    tag_371:\n        /* \"#utility.yul\":1977:1982   */\n      0x00\n        /* \"#utility.yul\":2015:2021   */\n      dup2\n        /* \"#utility.yul\":2002:2022   */\n      calldataload\n        /* \"#utility.yul\":1993:2022   */\n      swap1\n      pop\n        /* \"#utility.yul\":2031:2064   */\n      tag_444\n        /* \"#utility.yul\":2058:2063   */\n      dup2\n        /* \"#utility.yul\":2031:2064   */\n      tag_370\n      jump\t// in\n    tag_444:\n        /* \"#utility.yul\":1931:2070   */\n      swap3\n      swap2\n      pop\n      pop\n      jump\t// out\n        /* \"#utility.yul\":2076:2153   */\n    tag_372:\n        /* \"#utility.yul\":2113:2120   */\n      0x00\n        /* \"#utility.yul\":2142:2147   */\n      dup2\n        /* \"#utility.yul\":2131:2147   */\n      swap1\n      pop\n        /* \"#utility.yul\":2076:2153   */\n      swap2\n      swap1\n      pop\n      jump\t// out\n        /* \"#utility.yul\":2159:2281   */\n    tag_373:\n        /* \"#utility.yul\":2232:2256   */\n      tag_447\n        /* \"#utility.yul\":2250:2255   */\n      dup2\n        /* \"#utility.yul\":2232:2256   */\n      tag_372\n      jump\t// in\n    tag_447:\n        /* \"#utility.yul\":2225:2230   */\n      dup2\n        /* \"#utility.yul\":2222:2257   */\n      eq\n        /* \"#utility.yul\":2212:2275   */\n      tag_448\n      jumpi\n        /* \"#utility.yul\":2271:2272   */\n      0x00\n        /* \"#utility.yul\":2268:2269   */\n      dup1\n        /* \"#utility.yul\":2261:2273   */\n      revert\n        /* \"#utility.yul\":2212:2275   */\n    tag_448:\n        /* \"#utility.yul\":2159:2281   */\n      pop\n      jump\t// out\n        /* \"#utility.yul\":2287:2426   */\n    tag_374:\n        /* \"#utility.yul\":2333:2338   */\n      0x00\n        /* \"#utility.yul\":2371:2377   */\n      dup2\n        /* \"#utility.yul\":2358:2378   */\n      calldataload\n        /* \"#utility.yul\":2349:2378   */\n      swap1\n      pop\n        /* \"#utility.yul\":2387:2420   */\n      tag_450\n        /* \"#utility.yul\":2414:2419   */\n      dup2\n        /* \"#utility.yul\":2387:2420   */\n      tag_373\n      jump\t// in\n    tag_450:\n        /* \"#utility.yul\":2287:2426   */\n      swap3\n      swap2\n      pop\n      pop\n      jump\t// out\n        /* \"#utility.yul\":2432:2906   */\n    tag_43:\n        /* \"#utility.yul\":2500:2506   */\n      0x00\n        /* \"#utility.yul\":2508:2514   */\n      dup1\n        /* \"#utility.yul\":2557:2559   */\n      0x40\n        /* \"#utility.yul\":2545:2554   */\n      dup4\n        /* \"#utility.yul\":2536:2543   */\n      dup6\n        /* \"#utility.yul\":2532:2555   */\n      sub\n        /* \"#utility.yul\":2528:2560   */\n      slt\n        /* \"#utility.yul\":2525:2644   */\n      iszero\n      tag_452\n      jumpi\n        /* \"#utility.yul\":2563:2642   */\n      tag_453\n      tag_366\n      jump\t// in\n    tag_453:\n        /* \"#utility.yul\":2525:2644   */\n    tag_452:\n        /* \"#utility.yul\":2683:2684   */\n      0x00\n        /* \"#utility.yul\":2708:2761   */\n      tag_454\n        /* \"#utility.yul\":2753:2760   */\n      dup6\n        /* \"#utility.yul\":2744:2750   */\n      dup3\n        /* \"#utility.yul\":2733:2742   */\n      dup7\n        /* \"#utility.yul\":2729:2751   */\n      add\n        /* \"#utility.yul\":2708:2761   */\n      tag_371\n      jump\t// in\n    tag_454:\n        /* \"#utility.yul\":2698:2761   */\n      swap3\n      pop\n        /* \"#utility.yul\":2654:2771   */\n      pop\n        /* \"#utility.yul\":2810:2812   */\n      0x20\n        /* \"#utility.yul\":2836:2889   */\n      tag_455\n        /* \"#utility.yul\":2881:2888   */\n      dup6\n        /* \"#utility.yul\":2872:2878   */\n      dup3\n        /* \"#utility.yul\":2861:2870   */\n      dup7\n        /* \"#utility.yul\":2857:2879   */\n      add\n        /* \"#utility.yul\":2836:2889   */\n      tag_374\n      jump\t// in\n    tag_455:\n        /* \"#utility.yul\":2826:2889   */\n      swap2\n      pop\n        /* \"#utility.yul\":2781:2899   */\n      pop\n        /* \"#utility.yul\":2432:2906   */\n      swap3\n      pop\n      swap3\n      swap1\n      pop\n      jump\t// out\n        /* \"#utility.yul\":2912:3002   */\n    tag_375:\n        /* \"#utility.yul\":2946:2953   */\n      0x00\n        /* \"#utility.yul\":2989:2994   */\n      dup2\n        /* \"#utility.yul\":2982:2995   */\n      iszero\n        /* \"#utility.yul\":2975:2996   */\n      iszero\n        /* \"#utility.yul\":2964:2996   */\n      swap1\n      pop\n        /* \"#utility.yul\":2912:3002   */\n      swap2\n      swap1\n      pop\n      jump\t// out\n        /* \"#utility.yul\":3008:3117   */\n    tag_376:\n        /* \"#utility.yul\":3089:3110   */\n      tag_458\n        /* \"#utility.yul\":3104:3109   */\n      dup2\n        /* \"#utility.yul\":3089:3110   */\n      tag_375\n      jump\t// in\n    tag_458:\n        /* \"#utility.yul\":3084:3087   */\n      dup3\n        /* \"#utility.yul\":3077:3111   */\n      mstore\n        /* \"#utility.yul\":3008:3117   */\n      pop\n      pop\n      jump\t// out\n        /* \"#utility.yul\":3123:3333   */\n    tag_46:\n        /* \"#utility.yul\":3210:3214   */\n      0x00\n        /* \"#utility.yul\":3248:3250   */\n      0x20\n        /* \"#utility.yul\":3237:3246   */\n      dup3\n        /* \"#utility.yul\":3233:3251   */\n      add\n        /* \"#utility.yul\":3225:3251   */\n      swap1\n      pop\n        /* \"#utility.yul\":3261:3326   */\n      tag_460\n        /* \"#utility.yul\":3323:3324   */\n      0x00\n        /* \"#utility.yul\":3312:3321   */\n      dup4\n        /* \"#utility.yul\":3308:3325   */\n      add\n        /* \"#utility.yul\":3299:3305   */\n      dup5\n        /* \"#utility.yul\":3261:3326   */\n      tag_376\n      jump\t// in\n    tag_460:\n        /* \"#utility.yul\":3123:3333   */\n      swap3\n      swap2\n      pop\n      pop\n      jump\t// out\n        /* \"#utility.yul\":3339:3668   */\n    tag_50:\n        /* \"#utility.yul\":3398:3404   */\n      0x00\n        /* \"#utility.yul\":3447:3449   */\n      0x20\n        /* \"#utility.yul\":3435:3444   */\n      dup3\n        /* \"#utility.yul\":3426:3433   */\n      dup5\n        /* \"#utility.yul\":3422:3445   */\n      sub\n        /* \"#utility.yul\":3418:3450   */\n      slt\n        /* \"#utility.yul\":3415:3534   */\n      iszero\n      tag_462\n      jumpi\n        /* \"#utility.yul\":3453:3532   */\n      tag_463\n      tag_366\n      jump\t// in\n    tag_463:\n        /* \"#utility.yul\":3415:3534   */\n    tag_462:\n        /* \"#utility.yul\":3573:3574   */\n      0x00\n        /* \"#utility.yul\":3598:3651   */\n      tag_464\n        /* \"#utility.yul\":3643:3650   */\n      dup5\n        /* \"#utility.yul\":3634:3640   */\n      dup3\n        /* \"#utility.yul\":3623:3632   */\n      dup6\n        /* \"#utility.yul\":3619:3641   */\n      add\n        /* \"#utility.yul\":3598:3651   */\n      tag_371\n      jump\t// in\n    tag_464:\n        /* \"#utility.yul\":3588:3651   */\n      swap2\n      pop\n        /* \"#utility.yul\":3544:3661   */\n      pop\n        /* \"#utility.yul\":3339:3668   */\n      swap3\n      swap2\n      pop\n      pop\n      jump\t// out\n        /* \"#utility.yul\":3674:3792   */\n    tag_377:\n        /* \"#utility.yul\":3761:3785   */\n      tag_466\n        /* \"#utility.yul\":3779:3784   */\n      dup2\n        /* \"#utility.yul\":3761:3785   */\n      tag_372\n      jump\t// in\n    tag_466:\n        /* \"#utility.yul\":3756:3759   */\n      dup3\n        /* \"#utility.yul\":3749:3786   */\n      mstore\n        /* \"#utility.yul\":3674:3792   */\n      pop\n      pop\n      jump\t// out\n        /* \"#utility.yul\":3798:4020   */\n    tag_57:\n        /* \"#utility.yul\":3891:3895   */\n      0x00\n        /* \"#utility.yul\":3929:3931   */\n      0x20\n        /* \"#utility.yul\":3918:3927   */\n      dup3\n        /* \"#utility.yul\":3914:3932   */\n      add\n        /* \"#utility.yul\":3906:3932   */\n      swap1\n      pop\n        /* \"#utility.yul\":3942:4013   */\n      tag_468\n        /* \"#utility.yul\":4010:4011   */\n      0x00\n        /* \"#utility.yul\":3999:4008   */\n      dup4\n        /* \"#utility.yul\":3995:4012   */\n      add\n        /* \"#utility.yul\":3986:3992   */\n      dup5\n        /* \"#utility.yul\":3942:4013   */\n      tag_377\n      jump\t// in\n    tag_468:\n        /* \"#utility.yul\":3798:4020   */\n      swap3\n      swap2\n      pop\n      pop\n      jump\t// out\n        /* \"#utility.yul\":4026:4645   */\n    tag_61:\n        /* \"#utility.yul\":4103:4109   */\n      0x00\n        /* \"#utility.yul\":4111:4117   */\n      dup1\n        /* \"#utility.yul\":4119:4125   */\n      0x00\n        /* \"#utility.yul\":4168:4170   */\n      0x60\n        /* \"#utility.yul\":4156:4165   */\n      dup5\n        /* \"#utility.yul\":4147:4154   */\n      dup7\n        /* \"#utility.yul\":4143:4166   */\n      sub\n        /* \"#utility.yul\":4139:4171   */\n      slt\n        /* \"#utility.yul\":4136:4255   */\n      iszero\n      tag_470\n      jumpi\n        /* \"#utility.yul\":4174:4253   */\n      tag_471\n      tag_366\n      jump\t// in\n    tag_471:\n        /* \"#utility.yul\":4136:4255   */\n    tag_470:\n        /* \"#utility.yul\":4294:4295   */\n      0x00\n        /* \"#utility.yul\":4319:4372   */\n      tag_472\n        /* \"#utility.yul\":4364:4371   */\n      dup7\n        /* \"#utility.yul\":4355:4361   */\n      dup3\n        /* \"#utility.yul\":4344:4353   */\n      dup8\n        /* \"#utility.yul\":4340:4362   */\n      add\n        /* \"#utility.yul\":4319:4372   */\n      tag_371\n      jump\t// in\n    tag_472:\n        /* \"#utility.yul\":4309:4372   */\n      swap4\n      pop\n        /* \"#utility.yul\":4265:4382   */\n      pop\n        /* \"#utility.yul\":4421:4423   */\n      0x20\n        /* \"#utility.yul\":4447:4500   */\n      tag_473\n        /* \"#utility.yul\":4492:4499   */\n      dup7\n        /* \"#utility.yul\":4483:4489   */\n      dup3\n        /* \"#utility.yul\":4472:4481   */\n      dup8\n        /* \"#utility.yul\":4468:4490   */\n      add\n        /* \"#utility.yul\":4447:4500   */\n      tag_371\n      jump\t// in\n    tag_473:\n        /* \"#utility.yul\":4437:4500   */\n      swap3\n      pop\n        /* \"#utility.yul\":4392:4510   */\n      pop\n        /* \"#utility.yul\":4549:4551   */\n      0x40\n        /* \"#utility.yul\":4575:4628   */\n      tag_474\n        /* \"#utility.yul\":4620:4627   */\n      dup7\n        /* \"#utility.yul\":4611:4617   */\n      dup3\n        /* \"#utility.yul\":4600:4609   */\n      dup8\n        /* \"#utility.yul\":4596:4618   */\n      add\n        /* \"#utility.yul\":4575:4628   */\n      tag_374\n      jump\t// in\n    tag_474:\n        /* \"#utility.yul\":4565:4628   */\n      swap2\n      pop\n        /* \"#utility.yul\":4520:4638   */\n      pop\n        /* \"#utility.yul\":4026:4645   */\n      swap3\n      pop\n      swap3\n      pop\n      swap3\n      jump\t// out\n        /* \"#utility.yul\":4651:4755   */\n    tag_378:\n        /* \"#utility.yul\":4696:4703   */\n      0x00\n        /* \"#utility.yul\":4725:4749   */\n      tag_476\n        /* \"#utility.yul\":4743:4748   */\n      dup3\n        /* \"#utility.yul\":4725:4749   */\n      tag_368\n      jump\t// in\n    tag_476:\n        /* \"#utility.yul\":4714:4749   */\n      swap1\n      pop\n        /* \"#utility.yul\":4651:4755   */\n      swap2\n      swap1\n      pop\n      jump\t// out\n        /* \"#utility.yul\":4761:4903   */\n    tag_379:\n        /* \"#utility.yul\":4864:4896   */\n      tag_478\n        /* \"#utility.yul\":4890:4895   */\n      dup2\n        /* \"#utility.yul\":4864:4896   */\n      tag_378\n      jump\t// in\n    tag_478:\n        /* \"#utility.yul\":4859:4862   */\n      dup3\n        /* \"#utility.yul\":4852:4897   */\n      mstore\n        /* \"#utility.yul\":4761:4903   */\n      pop\n      pop\n      jump\t// out\n        /* \"#utility.yul\":4909:5163   */\n    tag_68:\n        /* \"#utility.yul\":5018:5022   */\n      0x00\n        /* \"#utility.yul\":5056:5058   */\n      0x20\n        /* \"#utility.yul\":5045:5054   */\n      dup3\n        /* \"#utility.yul\":5041:5059   */\n      add\n        /* \"#utility.yul\":5033:5059   */\n      swap1\n      pop\n        /* \"#utility.yul\":5069:5156   */\n      tag_480\n        /* \"#utility.yul\":5153:5154   */\n      0x00\n        /* \"#utility.yul\":5142:5151   */\n      dup4\n        /* \"#utility.yul\":5138:5155   */\n      add\n        /* \"#utility.yul\":5129:5135   */\n      dup5\n        /* \"#utility.yul\":5069:5156   */\n      tag_379\n      jump\t// in\n    tag_480:\n        /* \"#utility.yul\":4909:5163   */\n      swap3\n      swap2\n      pop\n      pop\n      jump\t// out\n        /* \"#utility.yul\":5169:5255   */\n    tag_380:\n        /* \"#utility.yul\":5204:5211   */\n      0x00\n        /* \"#utility.yul\":5244:5248   */\n      0xff\n        /* \"#utility.yul\":5237:5242   */\n      dup3\n        /* \"#utility.yul\":5233:5249   */\n      and\n        /* \"#utility.yul\":5222:5249   */\n      swap1\n      pop\n        /* \"#utility.yul\":5169:5255   */\n      swap2\n      swap1\n      pop\n      jump\t// out\n        /* \"#utility.yul\":5261:5373   */\n    tag_381:\n        /* \"#utility.yul\":5344:5366   */\n      tag_483\n        /* \"#utility.yul\":5360:5365   */\n      dup2\n        /* \"#utility.yul\":5344:5366   */\n      tag_380\n      jump\t// in\n    tag_483:\n        /* \"#utility.yul\":5339:5342   */\n      dup3\n        /* \"#utility.yul\":5332:5367   */\n      mstore\n        /* \"#utility.yul\":5261:5373   */\n      pop\n      pop\n      jump\t// out\n        /* \"#utility.yul\":5379:5593   */\n    tag_73:\n        /* \"#utility.yul\":5468:5472   */\n      0x00\n        /* \"#utility.yul\":5506:5508   */\n      0x20\n        /* \"#utility.yul\":5495:5504   */\n      dup3\n        /* \"#utility.yul\":5491:5509   */\n      add\n        /* \"#utility.yul\":5483:5509   */\n      swap1\n      pop\n        /* \"#utility.yul\":5519:5586   */\n      tag_485\n        /* \"#utility.yul\":5583:5584   */\n      0x00\n        /* \"#utility.yul\":5572:5581   */\n      dup4\n        /* \"#utility.yul\":5568:5585   */\n      add\n        /* \"#utility.yul\":5559:5565   */\n      dup5\n        /* \"#utility.yul\":5519:5586   */\n      tag_381\n      jump\t// in\n    tag_485:\n        /* \"#utility.yul\":5379:5593   */\n      swap3\n      swap2\n      pop\n      pop\n      jump\t// out\n        /* \"#utility.yul\":5599:6218   */\n    tag_82:\n        /* \"#utility.yul\":5676:5682   */\n      0x00\n        /* \"#utility.yul\":5684:5690   */\n      dup1\n        /* \"#utility.yul\":5692:5698   */\n      0x00\n        /* \"#utility.yul\":5741:5743   */\n      0x60\n        /* \"#utility.yul\":5729:5738   */\n      dup5\n        /* \"#utility.yul\":5720:5727   */\n      dup7\n        /* \"#utility.yul\":5716:5739   */\n      sub\n        /* \"#utility.yul\":5712:5744   */\n      slt\n        /* \"#utility.yul\":5709:5828   */\n      iszero\n      tag_487\n      jumpi\n        /* \"#utility.yul\":5747:5826   */\n      tag_488\n      tag_366\n      jump\t// in\n    tag_488:\n        /* \"#utility.yul\":5709:5828   */\n    tag_487:\n        /* \"#utility.yul\":5867:5868   */\n      0x00\n        /* \"#utility.yul\":5892:5945   */\n      tag_489\n        /* \"#utility.yul\":5937:5944   */\n      dup7\n        /* \"#utility.yul\":5928:5934   */\n      dup3\n        /* \"#utility.yul\":5917:5926   */\n      dup8\n        /* \"#utility.yul\":5913:5935   */\n      add\n        /* \"#utility.yul\":5892:5945   */\n      tag_371\n      jump\t// in\n    tag_489:\n        /* \"#utility.yul\":5882:5945   */\n      swap4\n      pop\n        /* \"#utility.yul\":5838:5955   */\n      pop\n        /* \"#utility.yul\":5994:5996   */\n      0x20\n        /* \"#utility.yul\":6020:6073   */\n      tag_490\n        /* \"#utility.yul\":6065:6072   */\n      dup7\n        /* \"#utility.yul\":6056:6062   */\n      dup3\n        /* \"#utility.yul\":6045:6054   */\n      dup8\n        /* \"#utility.yul\":6041:6063   */\n      add\n        /* \"#utility.yul\":6020:6073   */\n      tag_374\n      jump\t// in\n    tag_490:\n        /* \"#utility.yul\":6010:6073   */\n      swap3\n      pop\n        /* \"#utility.yul\":5965:6083   */\n      pop\n        /* \"#utility.yul\":6122:6124   */\n      0x40\n        /* \"#utility.yul\":6148:6201   */\n      tag_491\n        /* \"#utility.yul\":6193:6200   */\n      dup7\n        /* \"#utility.yul\":6184:6190   */\n      dup3\n        /* \"#utility.yul\":6173:6182   */\n      dup8\n        /* \"#utility.yul\":6169:6191   */\n      add\n        /* \"#utility.yul\":6148:6201   */\n      tag_374\n      jump\t// in\n    tag_491:\n        /* \"#utility.yul\":6138:6201   */\n      swap2\n      pop\n        /* \"#utility.yul\":6093:6211   */\n      pop\n        /* \"#utility.yul\":5599:6218   */\n      swap3\n      pop\n      swap3\n      pop\n      swap3\n      jump\t// out\n        /* \"#utility.yul\":6224:6362   */\n    tag_382:\n        /* \"#utility.yul\":6305:6337   */\n      tag_493\n        /* \"#utility.yul\":6331:6336   */\n      dup2\n        /* \"#utility.yul\":6305:6337   */\n      tag_378\n      jump\t// in\n    tag_493:\n        /* \"#utility.yul\":6298:6303   */\n      dup2\n        /* \"#utility.yul\":6295:6338   */\n      eq\n        /* \"#utility.yul\":6285:6356   */\n      tag_494\n      jumpi\n        /* \"#utility.yul\":6352:6353   */\n      0x00\n        /* \"#utility.yul\":6349:6350   */\n      dup1\n        /* \"#utility.yul\":6342:6354   */\n      revert\n        /* \"#utility.yul\":6285:6356   */\n    tag_494:\n        /* \"#utility.yul\":6224:6362   */\n      pop\n      jump\t// out\n        /* \"#utility.yul\":6368:6523   */\n    tag_383:\n        /* \"#utility.yul\":6422:6427   */\n      0x00\n        /* \"#utility.yul\":6460:6466   */\n      dup2\n        /* \"#utility.yul\":6447:6467   */\n      calldataload\n        /* \"#utility.yul\":6438:6467   */\n      swap1\n      pop\n        /* \"#utility.yul\":6476:6517   */\n      tag_496\n        /* \"#utility.yul\":6511:6516   */\n      dup2\n        /* \"#utility.yul\":6476:6517   */\n      tag_382\n      jump\t// in\n    tag_496:\n        /* \"#utility.yul\":6368:6523   */\n      swap3\n      swap2\n      pop\n      pop\n      jump\t// out\n        /* \"#utility.yul\":6529:7164   */\n    tag_90:\n        /* \"#utility.yul\":6614:6620   */\n      0x00\n        /* \"#utility.yul\":6622:6628   */\n      dup1\n        /* \"#utility.yul\":6630:6636   */\n      0x00\n        /* \"#utility.yul\":6679:6681   */\n      0x60\n        /* \"#utility.yul\":6667:6676   */\n      dup5\n        /* \"#utility.yul\":6658:6665   */\n      dup7\n        /* \"#utility.yul\":6654:6677   */\n      sub\n        /* \"#utility.yul\":6650:6682   */\n      slt\n        /* \"#utility.yul\":6647:6766   */\n      iszero\n      tag_498\n      jumpi\n        /* \"#utility.yul\":6685:6764   */\n      tag_499\n      tag_366\n      jump\t// in\n    tag_499:\n        /* \"#utility.yul\":6647:6766   */\n    tag_498:\n        /* \"#utility.yul\":6805:6806   */\n      0x00\n        /* \"#utility.yul\":6830:6883   */\n      tag_500\n        /* \"#utility.yul\":6875:6882   */\n      dup7\n        /* \"#utility.yul\":6866:6872   */\n      dup3\n        /* \"#utility.yul\":6855:6864   */\n      dup8\n        /* \"#utility.yul\":6851:6873   */\n      add\n        /* \"#utility.yul\":6830:6883   */\n      tag_371\n      jump\t// in\n    tag_500:\n        /* \"#utility.yul\":6820:6883   */\n      swap4\n      pop\n        /* \"#utility.yul\":6776:6893   */\n      pop\n        /* \"#utility.yul\":6932:6934   */\n      0x20\n        /* \"#utility.yul\":6958:7011   */\n      tag_501\n        /* \"#utility.yul\":7003:7010   */\n      dup7\n        /* \"#utility.yul\":6994:7000   */\n      dup3\n        /* \"#utility.yul\":6983:6992   */\n      dup8\n        /* \"#utility.yul\":6979:7001   */\n      add\n        /* \"#utility.yul\":6958:7011   */\n      tag_374\n      jump\t// in\n    tag_501:\n        /* \"#utility.yul\":6948:7011   */\n      swap3\n      pop\n        /* \"#utility.yul\":6903:7021   */\n      pop\n        /* \"#utility.yul\":7060:7062   */\n      0x40\n        /* \"#utility.yul\":7086:7147   */\n      tag_502\n        /* \"#utility.yul\":7139:7146   */\n      dup7\n        /* \"#utility.yul\":7130:7136   */\n      dup3\n        /* \"#utility.yul\":7119:7128   */\n      dup8\n        /* \"#utility.yul\":7115:7137   */\n      add\n        /* \"#utility.yul\":7086:7147   */\n      tag_383\n      jump\t// in\n    tag_502:\n        /* \"#utility.yul\":7076:7147   */\n      swap2\n      pop\n        /* \"#utility.yul\":7031:7157   */\n      pop\n        /* \"#utility.yul\":6529:7164   */\n      swap3\n      pop\n      swap3\n      pop\n      swap3\n      jump\t// out\n        /* \"#utility.yul\":7170:7499   */\n    tag_95:\n        /* \"#utility.yul\":7229:7235   */\n      0x00\n        /* \"#utility.yul\":7278:7280   */\n      0x20\n        /* \"#utility.yul\":7266:7275   */\n      dup3\n        /* \"#utility.yul\":7257:7264   */\n      dup5\n        /* \"#utility.yul\":7253:7276   */\n      sub\n        /* \"#utility.yul\":7249:7281   */\n      slt\n        /* \"#utility.yul\":7246:7365   */\n      iszero\n      tag_504\n      jumpi\n        /* \"#utility.yul\":7284:7363   */\n      tag_505\n      tag_366\n      jump\t// in\n    tag_505:\n        /* \"#utility.yul\":7246:7365   */\n    tag_504:\n        /* \"#utility.yul\":7404:7405   */\n      0x00\n        /* \"#utility.yul\":7429:7482   */\n      tag_506\n        /* \"#utility.yul\":7474:7481   */\n      dup5\n        /* \"#utility.yul\":7465:7471   */\n      dup3\n        /* \"#utility.yul\":7454:7463   */\n      dup6\n        /* \"#utility.yul\":7450:7472   */\n      add\n        /* \"#utility.yul\":7429:7482   */\n      tag_374\n      jump\t// in\n    tag_506:\n        /* \"#utility.yul\":7419:7482   */\n      swap2\n      pop\n        /* \"#utility.yul\":7375:7492   */\n      pop\n        /* \"#utility.yul\":7170:7499   */\n      swap3\n      swap2\n      pop\n      pop\n      jump\t// out\n        /* \"#utility.yul\":7505:7979   */\n    tag_145:\n        /* \"#utility.yul\":7573:7579   */\n      0x00\n        /* \"#utility.yul\":7581:7587   */\n      dup1\n        /* \"#utility.yul\":7630:7632   */\n      0x40\n        /* \"#utility.yul\":7618:7627   */\n      dup4\n        /* \"#utility.yul\":7609:7616   */\n      dup6\n        /* \"#utility.yul\":7605:7628   */\n      sub\n        /* \"#utility.yul\":7601:7633   */\n      slt\n        /* \"#utility.yul\":7598:7717   */\n      iszero\n      tag_508\n      jumpi\n        /* \"#utility.yul\":7636:7715   */\n      tag_509\n      tag_366\n      jump\t// in\n    tag_509:\n        /* \"#utility.yul\":7598:7717   */\n    tag_508:\n        /* \"#utility.yul\":7756:7757   */\n      0x00\n        /* \"#utility.yul\":7781:7834   */\n      tag_510\n        /* \"#utility.yul\":7826:7833   */\n      dup6\n        /* \"#utility.yul\":7817:7823   */\n      dup3\n        /* \"#utility.yul\":7806:7815   */\n      dup7\n        /* \"#utility.yul\":7802:7824   */\n      add\n        /* \"#utility.yul\":7781:7834   */\n      tag_371\n      jump\t// in\n    tag_510:\n        /* \"#utility.yul\":7771:7834   */\n      swap3\n      pop\n        /* \"#utility.yul\":7727:7844   */\n      pop\n        /* \"#utility.yul\":7883:7885   */\n      0x20\n        /* \"#utility.yul\":7909:7962   */\n      tag_511\n        /* \"#utility.yul\":7954:7961   */\n      dup6\n        /* \"#utility.yul\":7945:7951   */\n      dup3\n        /* \"#utility.yul\":7934:7943   */\n      dup7\n        /* \"#utility.yul\":7930:7952   */\n      add\n        /* \"#utility.yul\":7909:7962   */\n      tag_371\n      jump\t// in\n    tag_511:\n        /* \"#utility.yul\":7899:7962   */\n      swap2\n      pop\n        /* \"#utility.yul\":7854:7972   */\n      pop\n        /* \"#utility.yul\":7505:7979   */\n      swap3\n      pop\n      swap3\n      swap1\n      pop\n      jump\t// out\n        /* \"#utility.yul\":7985:8103   */\n    tag_384:\n        /* \"#utility.yul\":8072:8096   */\n      tag_513\n        /* \"#utility.yul\":8090:8095   */\n      dup2\n        /* \"#utility.yul\":8072:8096   */\n      tag_369\n      jump\t// in\n    tag_513:\n        /* \"#utility.yul\":8067:8070   */\n      dup3\n        /* \"#utility.yul\":8060:8097   */\n      mstore\n        /* \"#utility.yul\":7985:8103   */\n      pop\n      pop\n      jump\t// out\n        /* \"#utility.yul\":8109:8650   */\n    tag_153:\n        /* \"#utility.yul\":8280:8284   */\n      0x00\n        /* \"#utility.yul\":8318:8321   */\n      0x80\n        /* \"#utility.yul\":8307:8316   */\n      dup3\n        /* \"#utility.yul\":8303:8322   */\n      add\n        /* \"#utility.yul\":8295:8322   */\n      swap1\n      pop\n        /* \"#utility.yul\":8332:8403   */\n      tag_515\n        /* \"#utility.yul\":8400:8401   */\n      0x00\n        /* \"#utility.yul\":8389:8398   */\n      dup4\n        /* \"#utility.yul\":8385:8402   */\n      add\n        /* \"#utility.yul\":8376:8382   */\n      dup8\n        /* \"#utility.yul\":8332:8403   */\n      tag_384\n      jump\t// in\n    tag_515:\n        /* \"#utility.yul\":8413:8485   */\n      tag_516\n        /* \"#utility.yul\":8481:8483   */\n      0x20\n        /* \"#utility.yul\":8470:8479   */\n      dup4\n        /* \"#utility.yul\":8466:8484   */\n      add\n        /* \"#utility.yul\":8457:8463   */\n      dup7\n        /* \"#utility.yul\":8413:8485   */\n      tag_377\n      jump\t// in\n    tag_516:\n        /* \"#utility.yul\":8495:8567   */\n      tag_517\n        /* \"#utility.yul\":8563:8565   */\n      0x40\n        /* \"#utility.yul\":8552:8561   */\n      dup4\n        /* \"#utility.yul\":8548:8566   */\n      add\n        /* \"#utility.yul\":8539:8545   */\n      dup6\n        /* \"#utility.yul\":8495:8567   */\n      tag_377\n      jump\t// in\n    tag_517:\n        /* \"#utility.yul\":8577:8643   */\n      tag_518\n        /* \"#utility.yul\":8639:8641   */\n      0x60\n        /* \"#utility.yul\":8628:8637   */\n      dup4\n        /* \"#utility.yul\":8624:8642   */\n      add\n        /* \"#utility.yul\":8615:8621   */\n      dup5\n        /* \"#utility.yul\":8577:8643   */\n      tag_376\n      jump\t// in\n    tag_518:\n        /* \"#utility.yul\":8109:8650   */\n      swap6\n      swap5\n      pop\n      pop\n      pop\n      pop\n      pop\n      jump\t// out\n        /* \"#utility.yul\":8656:9130   */\n    tag_162:\n        /* \"#utility.yul\":8724:8730   */\n      0x00\n        /* \"#utility.yul\":8732:8738   */\n      dup1\n        /* \"#utility.yul\":8781:8783   */\n      0x40\n        /* \"#utility.yul\":8769:8778   */\n      dup4\n        /* \"#utility.yul\":8760:8767   */\n      dup6\n        /* \"#utility.yul\":8756:8779   */\n      sub\n        /* \"#utility.yul\":8752:8784   */\n      slt\n        /* \"#utility.yul\":8749:8868   */\n      iszero\n      tag_520\n      jumpi\n        /* \"#utility.yul\":8787:8866   */\n      tag_521\n      tag_366\n      jump\t// in\n    tag_521:\n        /* \"#utility.yul\":8749:8868   */\n    tag_520:\n        /* \"#utility.yul\":8907:8908   */\n      0x00\n        /* \"#utility.yul\":8932:8985   */\n      tag_522\n        /* \"#utility.yul\":8977:8984   */\n      dup6\n        /* \"#utility.yul\":8968:8974   */\n      dup3\n        /* \"#utility.yul\":8957:8966   */\n      dup7\n        /* \"#utility.yul\":8953:8975   */\n      add\n        /* \"#utility.yul\":8932:8985   */\n      tag_374\n      jump\t// in\n    tag_522:\n        /* \"#utility.yul\":8922:8985   */\n      swap3\n      pop\n        /* \"#utility.yul\":8878:8995   */\n      pop\n        /* \"#utility.yul\":9034:9036   */\n      0x20\n        /* \"#utility.yul\":9060:9113   */\n      tag_523\n        /* \"#utility.yul\":9105:9112   */\n      dup6\n        /* \"#utility.yul\":9096:9102   */\n      dup3\n        /* \"#utility.yul\":9085:9094   */\n      dup7\n        /* \"#utility.yul\":9081:9103   */\n      add\n        /* \"#utility.yul\":9060:9113   */\n      tag_374\n      jump\t// in\n    tag_523:\n        /* \"#utility.yul\":9050:9113   */\n      swap2\n      pop\n        /* \"#utility.yul\":9005:9123   */\n      pop\n        /* \"#utility.yul\":8656:9130   */\n      swap3\n      pop\n      swap3\n      swap1\n      pop\n      jump\t// out\n        /* \"#utility.yul\":9136:9316   */\n    tag_385:\n        /* \"#utility.yul\":9184:9261   */\n      0x4e487b7100000000000000000000000000000000000000000000000000000000\n        /* \"#utility.yul\":9181:9182   */\n      0x00\n        /* \"#utility.yul\":9174:9262   */\n      mstore\n        /* \"#utility.yul\":9281:9285   */\n      0x22\n        /* \"#utility.yul\":9278:9279   */\n      0x04\n        /* \"#utility.yul\":9271:9286   */\n      mstore\n        /* \"#utility.yul\":9305:9309   */\n      0x24\n        /* \"#utility.yul\":9302:9303   */\n      0x00\n        /* \"#utility.yul\":9295:9310   */\n      revert\n        /* \"#utility.yul\":9322:9642   */\n    tag_166:\n        /* \"#utility.yul\":9366:9372   */\n      0x00\n        /* \"#utility.yul\":9403:9404   */\n      0x02\n        /* \"#utility.yul\":9397:9401   */\n      dup3\n        /* \"#utility.yul\":9393:9405   */\n      div\n        /* \"#utility.yul\":9383:9405   */\n      swap1\n      pop\n        /* \"#utility.yul\":9450:9451   */\n      0x01\n        /* \"#utility.yul\":9444:9448   */\n      dup3\n        /* \"#utility.yul\":9440:9452   */\n      and\n        /* \"#utility.yul\":9471:9489   */\n      dup1\n        /* \"#utility.yul\":9461:9542   */\n      tag_526\n      jumpi\n        /* \"#utility.yul\":9527:9531   */\n      0x7f\n        /* \"#utility.yul\":9519:9525   */\n      dup3\n        /* \"#utility.yul\":9515:9532   */\n      and\n        /* \"#utility.yul\":9505:9532   */\n      swap2\n      pop\n        /* \"#utility.yul\":9461:9542   */\n    tag_526:\n        /* \"#utility.yul\":9589:9591   */\n      0x20\n        /* \"#utility.yul\":9581:9587   */\n      dup3\n        /* \"#utility.yul\":9578:9592   */\n      lt\n        /* \"#utility.yul\":9558:9576   */\n      dup2\n        /* \"#utility.yul\":9555:9593   */\n      sub\n        /* \"#utility.yul\":9552:9636   */\n      tag_527\n      jumpi\n        /* \"#utility.yul\":9608:9626   */\n      tag_528\n      tag_385\n      jump\t// in\n    tag_528:\n        /* \"#utility.yul\":9552:9636   */\n    tag_527:\n        /* \"#utility.yul\":9373:9642   */\n      pop\n        /* \"#utility.yul\":9322:9642   */\n      swap2\n      swap1\n      pop\n      jump\t// out\n        /* \"#utility.yul\":9648:9882   */\n    tag_386:\n        /* \"#utility.yul\":9788:9822   */\n      0x6f6e6c7920676f7665726e6d656e7420617574686f726974792063616e207573\n        /* \"#utility.yul\":9784:9785   */\n      0x00\n        /* \"#utility.yul\":9776:9782   */\n      dup3\n        /* \"#utility.yul\":9772:9786   */\n      add\n        /* \"#utility.yul\":9765:9823   */\n      mstore\n        /* \"#utility.yul\":9857:9874   */\n      0x6520746869732066756e6374696f6e0000000000000000000000000000000000\n        /* \"#utility.yul\":9852:9854   */\n      0x20\n        /* \"#utility.yul\":9844:9850   */\n      dup3\n        /* \"#utility.yul\":9840:9855   */\n      add\n        /* \"#utility.yul\":9833:9875   */\n      mstore\n        /* \"#utility.yul\":9648:9882   */\n      pop\n      jump\t// out\n        /* \"#utility.yul\":9888:10254   */\n    tag_387:\n        /* \"#utility.yul\":10030:10033   */\n      0x00\n        /* \"#utility.yul\":10051:10118   */\n      tag_531\n        /* \"#utility.yul\":10115:10117   */\n      0x2f\n        /* \"#utility.yul\":10110:10113   */\n      dup4\n        /* \"#utility.yul\":10051:10118   */\n      tag_361\n      jump\t// in\n    tag_531:\n        /* \"#utility.yul\":10044:10118   */\n      swap2\n      pop\n        /* \"#utility.yul\":10127:10220   */\n      tag_532\n        /* \"#utility.yul\":10216:10219   */\n      dup3\n        /* \"#utility.yul\":10127:10220   */\n      tag_386\n      jump\t// in\n    tag_532:\n        /* \"#utility.yul\":10245:10247   */\n      0x40\n        /* \"#utility.yul\":10240:10243   */\n      dup3\n        /* \"#utility.yul\":10236:10248   */\n      add\n        /* \"#utility.yul\":10229:10248   */\n      swap1\n      pop\n        /* \"#utility.yul\":9888:10254   */\n      swap2\n      swap1\n      pop\n      jump\t// out\n        /* \"#utility.yul\":10260:10679   */\n    tag_187:\n        /* \"#utility.yul\":10426:10430   */\n      0x00\n        /* \"#utility.yul\":10464:10466   */\n      0x20\n        /* \"#utility.yul\":10453:10462   */\n      dup3\n        /* \"#utility.yul\":10449:10467   */\n      add\n        /* \"#utility.yul\":10441:10467   */\n      swap1\n      pop\n        /* \"#utility.yul\":10513:10522   */\n      dup2\n        /* \"#utility.yul\":10507:10511   */\n      dup2\n        /* \"#utility.yul\":10503:10523   */\n      sub\n        /* \"#utility.yul\":10499:10500   */\n      0x00\n        /* \"#utility.yul\":10488:10497   */\n      dup4\n        /* \"#utility.yul\":10484:10501   */\n      add\n        /* \"#utility.yul\":10477:10524   */\n      mstore\n        /* \"#utility.yul\":10541:10672   */\n      tag_534\n        /* \"#utility.yul\":10667:10671   */\n      dup2\n        /* \"#utility.yul\":10541:10672   */\n      tag_387\n      jump\t// in\n    tag_534:\n        /* \"#utility.yul\":10533:10672   */\n      swap1\n      pop\n        /* \"#utility.yul\":10260:10679   */\n      swap2\n      swap1\n      pop\n      jump\t// out\n        /* \"#utility.yul\":10685:10852   */\n    tag_388:\n        /* \"#utility.yul\":10825:10844   */\n      0x496e76616c696420616464726573736573000000000000000000000000000000\n        /* \"#utility.yul\":10821:10822   */\n      0x00\n        /* \"#utility.yul\":10813:10819   */\n      dup3\n        /* \"#utility.yul\":10809:10823   */\n      add\n        /* \"#utility.yul\":10802:10845   */\n      mstore\n        /* \"#utility.yul\":10685:10852   */\n      pop\n      jump\t// out\n        /* \"#utility.yul\":10858:11224   */\n    tag_389:\n        /* \"#utility.yul\":11000:11003   */\n      0x00\n        /* \"#utility.yul\":11021:11088   */\n      tag_537\n        /* \"#utility.yul\":11085:11087   */\n      0x11\n        /* \"#utility.yul\":11080:11083   */\n      dup4\n        /* \"#utility.yul\":11021:11088   */\n      tag_361\n      jump\t// in\n    tag_537:\n        /* \"#utility.yul\":11014:11088   */\n      swap2\n      pop\n        /* \"#utility.yul\":11097:11190   */\n      tag_538\n        /* \"#utility.yul\":11186:11189   */\n      dup3\n        /* \"#utility.yul\":11097:11190   */\n      tag_388\n      jump\t// in\n    tag_538:\n        /* \"#utility.yul\":11215:11217   */\n      0x20\n        /* \"#utility.yul\":11210:11213   */\n      dup3\n        /* \"#utility.yul\":11206:11218   */\n      add\n        /* \"#utility.yul\":11199:11218   */\n      swap1\n      pop\n        /* \"#utility.yul\":10858:11224   */\n      swap2\n      swap1\n      pop\n      jump\t// out\n        /* \"#utility.yul\":11230:11649   */\n    tag_191:\n        /* \"#utility.yul\":11396:11400   */\n      0x00\n        /* \"#utility.yul\":11434:11436   */\n      0x20\n        /* \"#utility.yul\":11423:11432   */\n      dup3\n        /* \"#utility.yul\":11419:11437   */\n      add\n        /* \"#utility.yul\":11411:11437   */\n      swap1\n      pop\n        /* \"#utility.yul\":11483:11492   */\n      dup2\n        /* \"#utility.yul\":11477:11481   */\n      dup2\n        /* \"#utility.yul\":11473:11493   */\n      sub\n        /* \"#utility.yul\":11469:11470   */\n      0x00\n        /* \"#utility.yul\":11458:11467   */\n      dup4\n        /* \"#utility.yul\":11454:11471   */\n      add\n        /* \"#utility.yul\":11447:11494   */\n      mstore\n        /* \"#utility.yul\":11511:11642   */\n      tag_540\n        /* \"#utility.yul\":11637:11641   */\n      dup2\n        /* \"#utility.yul\":11511:11642   */\n      tag_389\n      jump\t// in\n    tag_540:\n        /* \"#utility.yul\":11503:11642   */\n      swap1\n      pop\n        /* \"#utility.yul\":11230:11649   */\n      swap2\n      swap1\n      pop\n      jump\t// out\n        /* \"#utility.yul\":11655:11875   */\n    tag_390:\n        /* \"#utility.yul\":11795:11829   */\n      0x676976656e2061646472657373206d75737420626520616e20696e6475737472\n        /* \"#utility.yul\":11791:11792   */\n      0x00\n        /* \"#utility.yul\":11783:11789   */\n      dup3\n        /* \"#utility.yul\":11779:11793   */\n      add\n        /* \"#utility.yul\":11772:11830   */\n      mstore\n        /* \"#utility.yul\":11864:11867   */\n      0x7900000000000000000000000000000000000000000000000000000000000000\n        /* \"#utility.yul\":11859:11861   */\n      0x20\n        /* \"#utility.yul\":11851:11857   */\n      dup3\n        /* \"#utility.yul\":11847:11862   */\n      add\n        /* \"#utility.yul\":11840:11868   */\n      mstore\n        /* \"#utility.yul\":11655:11875   */\n      pop\n      jump\t// out\n        /* \"#utility.yul\":11881:12247   */\n    tag_391:\n        /* \"#utility.yul\":12023:12026   */\n      0x00\n        /* \"#utility.yul\":12044:12111   */\n      tag_543\n        /* \"#utility.yul\":12108:12110   */\n      0x21\n        /* \"#utility.yul\":12103:12106   */\n      dup4\n        /* \"#utility.yul\":12044:12111   */\n      tag_361\n      jump\t// in\n    tag_543:\n        /* \"#utility.yul\":12037:12111   */\n      swap2\n      pop\n        /* \"#utility.yul\":12120:12213   */\n      tag_544\n        /* \"#utility.yul\":12209:12212   */\n      dup3\n        /* \"#utility.yul\":12120:12213   */\n      tag_390\n      jump\t// in\n    tag_544:\n        /* \"#utility.yul\":12238:12240   */\n      0x40\n        /* \"#utility.yul\":12233:12236   */\n      dup3\n        /* \"#utility.yul\":12229:12241   */\n      add\n        /* \"#utility.yul\":12222:12241   */\n      swap1\n      pop\n        /* \"#utility.yul\":11881:12247   */\n      swap2\n      swap1\n      pop\n      jump\t// out\n        /* \"#utility.yul\":12253:12672   */\n    tag_194:\n        /* \"#utility.yul\":12419:12423   */\n      0x00\n        /* \"#utility.yul\":12457:12459   */\n      0x20\n        /* \"#utility.yul\":12446:12455   */\n      dup3\n        /* \"#utility.yul\":12442:12460   */\n      add\n        /* \"#utility.yul\":12434:12460   */\n      swap1\n      pop\n        /* \"#utility.yul\":12506:12515   */\n      dup2\n        /* \"#utility.yul\":12500:12504   */\n      dup2\n        /* \"#utility.yul\":12496:12516   */\n      sub\n        /* \"#utility.yul\":12492:12493   */\n      0x00\n        /* \"#utility.yul\":12481:12490   */\n      dup4\n        /* \"#utility.yul\":12477:12494   */\n      add\n        /* \"#utility.yul\":12470:12517   */\n      mstore\n        /* \"#utility.yul\":12534:12665   */\n      tag_546\n        /* \"#utility.yul\":12660:12664   */\n      dup2\n        /* \"#utility.yul\":12534:12665   */\n      tag_391\n      jump\t// in\n    tag_546:\n        /* \"#utility.yul\":12526:12665   */\n      swap1\n      pop\n        /* \"#utility.yul\":12253:12672   */\n      swap2\n      swap1\n      pop\n      jump\t// out\n        /* \"#utility.yul\":12678:12899   */\n    tag_392:\n        /* \"#utility.yul\":12818:12852   */\n      0x746f6b656e20436f756e74206d7573742062652067726561746572207468616e\n        /* \"#utility.yul\":12814:12815   */\n      0x00\n        /* \"#utility.yul\":12806:12812   */\n      dup3\n        /* \"#utility.yul\":12802:12816   */\n      add\n        /* \"#utility.yul\":12795:12853   */\n      mstore\n        /* \"#utility.yul\":12887:12891   */\n      0x2030000000000000000000000000000000000000000000000000000000000000\n        /* \"#utility.yul\":12882:12884   */\n      0x20\n        /* \"#utility.yul\":12874:12880   */\n      dup3\n        /* \"#utility.yul\":12870:12885   */\n      add\n        /* \"#utility.yul\":12863:12892   */\n      mstore\n        /* \"#utility.yul\":12678:12899   */\n      pop\n      jump\t// out\n        /* \"#utility.yul\":12905:13271   */\n    tag_393:\n        /* \"#utility.yul\":13047:13050   */\n      0x00\n        /* \"#utility.yul\":13068:13135   */\n      tag_549\n        /* \"#utility.yul\":13132:13134   */\n      0x22\n        /* \"#utility.yul\":13127:13130   */\n      dup4\n        /* \"#utility.yul\":13068:13135   */\n      tag_361\n      jump\t// in\n    tag_549:\n        /* \"#utility.yul\":13061:13135   */\n      swap2\n      pop\n        /* \"#utility.yul\":13144:13237   */\n      tag_550\n        /* \"#utility.yul\":13233:13236   */\n      dup3\n        /* \"#utility.yul\":13144:13237   */\n      tag_392\n      jump\t// in\n    tag_550:\n        /* \"#utility.yul\":13262:13264   */\n      0x40\n        /* \"#utility.yul\":13257:13260   */\n      dup3\n        /* \"#utility.yul\":13253:13265   */\n      add\n        /* \"#utility.yul\":13246:13265   */\n      swap1\n      pop\n        /* \"#utility.yul\":12905:13271   */\n      swap2\n      swap1\n      pop\n      jump\t// out\n        /* \"#utility.yul\":13277:13696   */\n    tag_197:\n        /* \"#utility.yul\":13443:13447   */\n      0x00\n        /* \"#utility.yul\":13481:13483   */\n      0x20\n        /* \"#utility.yul\":13470:13479   */\n      dup3\n        /* \"#utility.yul\":13466:13484   */\n      add\n        /* \"#utility.yul\":13458:13484   */\n      swap1\n      pop\n        /* \"#utility.yul\":13530:13539   */\n      dup2\n        /* \"#utility.yul\":13524:13528   */\n      dup2\n        /* \"#utility.yul\":13520:13540   */\n      sub\n        /* \"#utility.yul\":13516:13517   */\n      0x00\n        /* \"#utility.yul\":13505:13514   */\n      dup4\n        /* \"#utility.yul\":13501:13518   */\n      add\n        /* \"#utility.yul\":13494:13541   */\n      mstore\n        /* \"#utility.yul\":13558:13689   */\n      tag_552\n        /* \"#utility.yul\":13684:13688   */\n      dup2\n        /* \"#utility.yul\":13558:13689   */\n      tag_393\n      jump\t// in\n    tag_552:\n        /* \"#utility.yul\":13550:13689   */\n      swap1\n      pop\n        /* \"#utility.yul\":13277:13696   */\n      swap2\n      swap1\n      pop\n      jump\t// out\n        /* \"#utility.yul\":13702:13882   */\n    tag_394:\n        /* \"#utility.yul\":13750:13827   */\n      0x4e487b7100000000000000000000000000000000000000000000000000000000\n        /* \"#utility.yul\":13747:13748   */\n      0x00\n        /* \"#utility.yul\":13740:13828   */\n      mstore\n        /* \"#utility.yul\":13847:13851   */\n      0x11\n        /* \"#utility.yul\":13844:13845   */\n      0x04\n        /* \"#utility.yul\":13837:13852   */\n      mstore\n        /* \"#utility.yul\":13871:13875   */\n      0x24\n        /* \"#utility.yul\":13868:13869   */\n      0x00\n        /* \"#utility.yul\":13861:13876   */\n      revert\n        /* \"#utility.yul\":13888:13990   */\n    tag_395:\n        /* \"#utility.yul\":13930:13938   */\n      0x00\n        /* \"#utility.yul\":13977:13982   */\n      dup2\n        /* \"#utility.yul\":13974:13975   */\n      0x01\n        /* \"#utility.yul\":13970:13983   */\n      shr\n        /* \"#utility.yul\":13949:13983   */\n      swap1\n      pop\n        /* \"#utility.yul\":13888:13990   */\n      swap2\n      swap1\n      pop\n      jump\t// out\n        /* \"#utility.yul\":13996:14844   */\n    tag_396:\n        /* \"#utility.yul\":14057:14062   */\n      0x00\n        /* \"#utility.yul\":14064:14068   */\n      dup1\n        /* \"#utility.yul\":14088:14094   */\n      dup3\n        /* \"#utility.yul\":14079:14094   */\n      swap2\n      pop\n        /* \"#utility.yul\":14112:14117   */\n      dup4\n        /* \"#utility.yul\":14103:14117   */\n      swap1\n      pop\n        /* \"#utility.yul\":14126:14838   */\n    tag_556:\n        /* \"#utility.yul\":14147:14148   */\n      0x01\n        /* \"#utility.yul\":14137:14145   */\n      dup6\n        /* \"#utility.yul\":14134:14149   */\n      gt\n        /* \"#utility.yul\":14126:14838   */\n      iszero\n      tag_558\n      jumpi\n        /* \"#utility.yul\":14242:14246   */\n      dup1\n        /* \"#utility.yul\":14237:14240   */\n      dup7\n        /* \"#utility.yul\":14233:14247   */\n      div\n        /* \"#utility.yul\":14227:14231   */\n      dup2\n        /* \"#utility.yul\":14224:14248   */\n      gt\n        /* \"#utility.yul\":14221:14271   */\n      iszero\n      tag_559\n      jumpi\n        /* \"#utility.yul\":14251:14269   */\n      tag_560\n      tag_394\n      jump\t// in\n    tag_560:\n        /* \"#utility.yul\":14221:14271   */\n    tag_559:\n        /* \"#utility.yul\":14301:14302   */\n      0x01\n        /* \"#utility.yul\":14291:14299   */\n      dup6\n        /* \"#utility.yul\":14287:14303   */\n      and\n        /* \"#utility.yul\":14284:14735   */\n      iszero\n      tag_561\n      jumpi\n        /* \"#utility.yul\":14716:14720   */\n      dup1\n        /* \"#utility.yul\":14709:14714   */\n      dup3\n        /* \"#utility.yul\":14705:14721   */\n      mul\n        /* \"#utility.yul\":14696:14721   */\n      swap2\n      pop\n        /* \"#utility.yul\":14284:14735   */\n    tag_561:\n        /* \"#utility.yul\":14766:14770   */\n      dup1\n        /* \"#utility.yul\":14760:14764   */\n      dup2\n        /* \"#utility.yul\":14756:14771   */\n      mul\n        /* \"#utility.yul\":14748:14771   */\n      swap1\n      pop\n        /* \"#utility.yul\":14796:14828   */\n      tag_562\n        /* \"#utility.yul\":14819:14827   */\n      dup6\n        /* \"#utility.yul\":14796:14828   */\n      tag_395\n      jump\t// in\n    tag_562:\n        /* \"#utility.yul\":14784:14828   */\n      swap5\n      pop\n        /* \"#utility.yul\":14126:14838   */\n      jump(tag_556)\n    tag_558:\n        /* \"#utility.yul\":13996:14844   */\n      swap5\n      pop\n      swap5\n      swap3\n      pop\n      pop\n      pop\n      jump\t// out\n        /* \"#utility.yul\":14850:15923   */\n    tag_397:\n        /* \"#utility.yul\":14904:14909   */\n      0x00\n        /* \"#utility.yul\":15095:15103   */\n      dup3\n        /* \"#utility.yul\":15085:15125   */\n      tag_564\n      jumpi\n        /* \"#utility.yul\":15116:15117   */\n      0x01\n        /* \"#utility.yul\":15107:15117   */\n      swap1\n      pop\n        /* \"#utility.yul\":15118:15123   */\n      jump(tag_563)\n        /* \"#utility.yul\":15085:15125   */\n    tag_564:\n        /* \"#utility.yul\":15144:15148   */\n      dup2\n        /* \"#utility.yul\":15134:15170   */\n      tag_565\n      jumpi\n        /* \"#utility.yul\":15161:15162   */\n      0x00\n        /* \"#utility.yul\":15152:15162   */\n      swap1\n      pop\n        /* \"#utility.yul\":15163:15168   */\n      jump(tag_563)\n        /* \"#utility.yul\":15134:15170   */\n    tag_565:\n        /* \"#utility.yul\":15230:15234   */\n      dup2\n        /* \"#utility.yul\":15278:15279   */\n      0x01\n        /* \"#utility.yul\":15273:15300   */\n      dup2\n      eq\n      tag_567\n      jumpi\n        /* \"#utility.yul\":15314:15315   */\n      0x02\n        /* \"#utility.yul\":15309:15500   */\n      dup2\n      eq\n      tag_568\n      jumpi\n        /* \"#utility.yul\":15223:15500   */\n      jump(tag_566)\n        /* \"#utility.yul\":15273:15300   */\n    tag_567:\n        /* \"#utility.yul\":15291:15292   */\n      0x01\n        /* \"#utility.yul\":15282:15292   */\n      swap2\n      pop\n        /* \"#utility.yul\":15293:15298   */\n      pop\n      jump(tag_563)\n        /* \"#utility.yul\":15309:15500   */\n    tag_568:\n        /* \"#utility.yul\":15354:15357   */\n      0xff\n        /* \"#utility.yul\":15344:15352   */\n      dup5\n        /* \"#utility.yul\":15341:15358   */\n      gt\n        /* \"#utility.yul\":15338:15381   */\n      iszero\n      tag_569\n      jumpi\n        /* \"#utility.yul\":15361:15379   */\n      tag_570\n      tag_394\n      jump\t// in\n    tag_570:\n        /* \"#utility.yul\":15338:15381   */\n    tag_569:\n        /* \"#utility.yul\":15410:15418   */\n      dup4\n        /* \"#utility.yul\":15407:15408   */\n      0x02\n        /* \"#utility.yul\":15403:15419   */\n      exp\n        /* \"#utility.yul\":15394:15419   */\n      swap2\n      pop\n        /* \"#utility.yul\":15445:15448   */\n      dup5\n        /* \"#utility.yul\":15438:15443   */\n      dup3\n        /* \"#utility.yul\":15435:15449   */\n      gt\n        /* \"#utility.yul\":15432:15472   */\n      iszero\n      tag_571\n      jumpi\n        /* \"#utility.yul\":15452:15470   */\n      tag_572\n      tag_394\n      jump\t// in\n    tag_572:\n        /* \"#utility.yul\":15432:15472   */\n    tag_571:\n        /* \"#utility.yul\":15485:15490   */\n      pop\n      jump(tag_563)\n        /* \"#utility.yul\":15223:15500   */\n    tag_566:\n      pop\n        /* \"#utility.yul\":15609:15611   */\n      0x20\n        /* \"#utility.yul\":15599:15607   */\n      dup4\n        /* \"#utility.yul\":15596:15612   */\n      lt\n        /* \"#utility.yul\":15590:15593   */\n      0x0133\n        /* \"#utility.yul\":15584:15588   */\n      dup4\n        /* \"#utility.yul\":15581:15594   */\n      lt\n        /* \"#utility.yul\":15577:15613   */\n      and\n        /* \"#utility.yul\":15559:15561   */\n      0x4e\n        /* \"#utility.yul\":15549:15557   */\n      dup5\n        /* \"#utility.yul\":15546:15562   */\n      lt\n        /* \"#utility.yul\":15541:15543   */\n      0x0b\n        /* \"#utility.yul\":15535:15539   */\n      dup5\n        /* \"#utility.yul\":15532:15544   */\n      lt\n        /* \"#utility.yul\":15528:15563   */\n      and\n        /* \"#utility.yul\":15512:15623   */\n      or\n        /* \"#utility.yul\":15509:15755   */\n      iszero\n      tag_573\n      jumpi\n        /* \"#utility.yul\":15665:15673   */\n      dup3\n        /* \"#utility.yul\":15659:15663   */\n      dup3\n        /* \"#utility.yul\":15655:15674   */\n      exp\n        /* \"#utility.yul\":15646:15674   */\n      swap1\n      pop\n        /* \"#utility.yul\":15700:15703   */\n      dup4\n        /* \"#utility.yul\":15693:15698   */\n      dup2\n        /* \"#utility.yul\":15690:15704   */\n      gt\n        /* \"#utility.yul\":15687:15727   */\n      iszero\n      tag_574\n      jumpi\n        /* \"#utility.yul\":15707:15725   */\n      tag_575\n      tag_394\n      jump\t// in\n    tag_575:\n        /* \"#utility.yul\":15687:15727   */\n    tag_574:\n        /* \"#utility.yul\":15740:15745   */\n      jump(tag_563)\n        /* \"#utility.yul\":15509:15755   */\n    tag_573:\n        /* \"#utility.yul\":15780:15822   */\n      tag_576\n        /* \"#utility.yul\":15818:15821   */\n      dup5\n        /* \"#utility.yul\":15808:15816   */\n      dup5\n        /* \"#utility.yul\":15802:15806   */\n      dup5\n        /* \"#utility.yul\":15799:15800   */\n      0x01\n        /* \"#utility.yul\":15780:15822   */\n      tag_396\n      jump\t// in\n    tag_576:\n        /* \"#utility.yul\":15765:15822   */\n      swap3\n      pop\n      swap1\n      pop\n        /* \"#utility.yul\":15854:15858   */\n      dup2\n        /* \"#utility.yul\":15849:15852   */\n      dup5\n        /* \"#utility.yul\":15845:15859   */\n      div\n        /* \"#utility.yul\":15838:15843   */\n      dup2\n        /* \"#utility.yul\":15835:15860   */\n      gt\n        /* \"#utility.yul\":15832:15883   */\n      iszero\n      tag_577\n      jumpi\n        /* \"#utility.yul\":15863:15881   */\n      tag_578\n      tag_394\n      jump\t// in\n    tag_578:\n        /* \"#utility.yul\":15832:15883   */\n    tag_577:\n        /* \"#utility.yul\":15912:15916   */\n      dup2\n        /* \"#utility.yul\":15905:15910   */\n      dup2\n        /* \"#utility.yul\":15901:15917   */\n      mul\n        /* \"#utility.yul\":15892:15917   */\n      swap1\n      pop\n        /* \"#utility.yul\":14850:15923   */\n    tag_563:\n      swap4\n      swap3\n      pop\n      pop\n      pop\n      jump\t// out\n        /* \"#utility.yul\":15929:16210   */\n    tag_201:\n        /* \"#utility.yul\":15987:15992   */\n      0x00\n        /* \"#utility.yul\":16011:16034   */\n      tag_580\n        /* \"#utility.yul\":16029:16033   */\n      dup3\n        /* \"#utility.yul\":16011:16034   */\n      tag_372\n      jump\t// in\n    tag_580:\n        /* \"#utility.yul\":16003:16034   */\n      swap2\n      pop\n        /* \"#utility.yul\":16055:16080   */\n      tag_581\n        /* \"#utility.yul\":16071:16079   */\n      dup4\n        /* \"#utility.yul\":16055:16080   */\n      tag_380\n      jump\t// in\n    tag_581:\n        /* \"#utility.yul\":16043:16080   */\n      swap3\n      pop\n        /* \"#utility.yul\":16099:16203   */\n      tag_582\n        /* \"#utility.yul\":16136:16202   */\n      0xffffffffffffffffffffffffffffffffffffffffffffffffffffffffffffffff\n        /* \"#utility.yul\":16126:16134   */\n      dup5\n        /* \"#utility.yul\":16120:16124   */\n      dup5\n        /* \"#utility.yul\":16099:16203   */\n      tag_397\n      jump\t// in\n    tag_582:\n        /* \"#utility.yul\":16090:16203   */\n      swap1\n      pop\n        /* \"#utility.yul\":15929:16210   */\n      swap3\n      swap2\n      pop\n      pop\n      jump\t// out\n        /* \"#utility.yul\":16216:16626   */\n    tag_203:\n        /* \"#utility.yul\":16256:16263   */\n      0x00\n        /* \"#utility.yul\":16279:16299   */\n      tag_584\n        /* \"#utility.yul\":16297:16298   */\n      dup3\n        /* \"#utility.yul\":16279:16299   */\n      tag_372\n      jump\t// in\n    tag_584:\n        /* \"#utility.yul\":16274:16299   */\n      swap2\n      pop\n        /* \"#utility.yul\":16313:16333   */\n      tag_585\n        /* \"#utility.yul\":16331:16332   */\n      dup4\n        /* \"#utility.yul\":16313:16333   */\n      tag_372\n      jump\t// in\n    tag_585:\n        /* \"#utility.yul\":16308:16333   */\n      swap3\n      pop\n        /* \"#utility.yul\":16368:16369   */\n      dup3\n        /* \"#utility.yul\":16365:16366   */\n      dup3\n        /* \"#utility.yul\":16361:16370   */\n      mul\n        /* \"#utility.yul\":16390:16420   */\n      tag_586\n        /* \"#utility.yul\":16408:16419   */\n      dup2\n        /* \"#utility.yul\":16390:16420   */\n      tag_372\n      jump\t// in\n    tag_586:\n        /* \"#utility.yul\":16379:16420   */\n      swap2\n      pop\n        /* \"#utility.yul\":16569:16570   */\n      dup3\n        /* \"#utility.yul\":16560:16567   */\n      dup3\n        /* \"#utility.yul\":16556:16571   */\n      div\n        /* \"#utility.yul\":16553:16554   */\n      dup5\n        /* \"#utility.yul\":16550:16572   */\n      eq\n        /* \"#utility.yul\":16530:16531   */\n      dup4\n        /* \"#utility.yul\":16523:16532   */\n      iszero\n        /* \"#utility.yul\":16503:16586   */\n      or\n        /* \"#utility.yul\":16480:16619   */\n      tag_587\n      jumpi\n        /* \"#utility.yul\":16599:16617   */\n      tag_588\n      tag_394\n      jump\t// in\n    tag_588:\n        /* \"#utility.yul\":16480:16619   */\n    tag_587:\n        /* \"#utility.yul\":16264:16626   */\n      pop\n        /* \"#utility.yul\":16216:16626   */\n      swap3\n      swap2\n      pop\n      pop\n      jump\t// out\n        /* \"#utility.yul\":16632:16864   */\n    tag_398:\n        /* \"#utility.yul\":16772:16806   */\n      0x6f6e6c7920696e64757374727920617574686f726974792063616e2075736520\n        /* \"#utility.yul\":16768:16769   */\n      0x00\n        /* \"#utility.yul\":16760:16766   */\n      dup3\n        /* \"#utility.yul\":16756:16770   */\n      add\n        /* \"#utility.yul\":16749:16807   */\n      mstore\n        /* \"#utility.yul\":16841:16856   */\n      0x746869732066756e6374696f6e00000000000000000000000000000000000000\n        /* \"#utility.yul\":16836:16838   */\n      0x20\n        /* \"#utility.yul\":16828:16834   */\n      dup3\n        /* \"#utility.yul\":16824:16839   */\n      add\n        /* \"#utility.yul\":16817:16857   */\n      mstore\n        /* \"#utility.yul\":16632:16864   */\n      pop\n      jump\t// out\n        /* \"#utility.yul\":16870:17236   */\n    tag_399:\n        /* \"#utility.yul\":17012:17015   */\n      0x00\n        /* \"#utility.yul\":17033:17100   */\n      tag_591\n        /* \"#utility.yul\":17097:17099   */\n      0x2d\n        /* \"#utility.yul\":17092:17095   */\n      dup4\n        /* \"#utility.yul\":17033:17100   */\n      tag_361\n      jump\t// in\n    tag_591:\n        /* \"#utility.yul\":17026:17100   */\n      swap2\n      pop\n        /* \"#utility.yul\":17109:17202   */\n      tag_592\n        /* \"#utility.yul\":17198:17201   */\n      dup3\n        /* \"#utility.yul\":17109:17202   */\n      tag_398\n      jump\t// in\n    tag_592:\n        /* \"#utility.yul\":17227:17229   */\n      0x40\n        /* \"#utility.yul\":17222:17225   */\n      dup3\n        /* \"#utility.yul\":17218:17230   */\n      add\n        /* \"#utility.yul\":17211:17230   */\n      swap1\n      pop\n        /* \"#utility.yul\":16870:17236   */\n      swap2\n      swap1\n      pop\n      jump\t// out\n        /* \"#utility.yul\":17242:17661   */\n    tag_208:\n        /* \"#utility.yul\":17408:17412   */\n      0x00\n        /* \"#utility.yul\":17446:17448   */\n      0x20\n        /* \"#utility.yul\":17435:17444   */\n      dup3\n        /* \"#utility.yul\":17431:17449   */\n      add\n        /* \"#utility.yul\":17423:17449   */\n      swap1\n      pop\n        /* \"#utility.yul\":17495:17504   */\n      dup2\n        /* \"#utility.yul\":17489:17493   */\n      dup2\n        /* \"#utility.yul\":17485:17505   */\n      sub\n        /* \"#utility.yul\":17481:17482   */\n      0x00\n        /* \"#utility.yul\":17470:17479   */\n      dup4\n        /* \"#utility.yul\":17466:17483   */\n      add\n        /* \"#utility.yul\":17459:17506   */\n      mstore\n        /* \"#utility.yul\":17523:17654   */\n      tag_594\n        /* \"#utility.yul\":17649:17653   */\n      dup2\n        /* \"#utility.yul\":17523:17654   */\n      tag_399\n      jump\t// in\n    tag_594:\n        /* \"#utility.yul\":17515:17654   */\n      swap1\n      pop\n        /* \"#utility.yul\":17242:17661   */\n      swap2\n      swap1\n      pop\n      jump\t// out\n        /* \"#utility.yul\":17667:17888   */\n    tag_400:\n        /* \"#utility.yul\":17807:17841   */\n      0x546f6b656e20636f756e74206d7573742062652067726561746572207468616e\n        /* \"#utility.yul\":17803:17804   */\n      0x00\n        /* \"#utility.yul\":17795:17801   */\n      dup3\n        /* \"#utility.yul\":17791:17805   */\n      add\n        /* \"#utility.yul\":17784:17842   */\n      mstore\n        /* \"#utility.yul\":17876:17880   */\n      0x2030000000000000000000000000000000000000000000000000000000000000\n        /* \"#utility.yul\":17871:17873   */\n      0x20\n        /* \"#utility.yul\":17863:17869   */\n      dup3\n        /* \"#utility.yul\":17859:17874   */\n      add\n        /* \"#utility.yul\":17852:17881   */\n      mstore\n        /* \"#utility.yul\":17667:17888   */\n      pop\n      jump\t// out\n        /* \"#utility.yul\":17894:18260   */\n    tag_401:\n        /* \"#utility.yul\":18036:18039   */\n      0x00\n        /* \"#utility.yul\":18057:18124   */\n      tag_597\n        /* \"#utility.yul\":18121:18123   */\n      0x22\n        /* \"#utility.yul\":18116:18119   */\n      dup4\n        /* \"#utility.yul\":18057:18124   */\n      tag_361\n      jump\t// in\n    tag_597:\n        /* \"#utility.yul\":18050:18124   */\n      swap2\n      pop\n        /* \"#utility.yul\":18133:18226   */\n      tag_598\n        /* \"#utility.yul\":18222:18225   */\n      dup3\n        /* \"#utility.yul\":18133:18226   */\n      tag_400\n      jump\t// in\n    tag_598:\n        /* \"#utility.yul\":18251:18253   */\n      0x40\n        /* \"#utility.yul\":18246:18249   */\n      dup3\n        /* \"#utility.yul\":18242:18254   */\n      add\n        /* \"#utility.yul\":18235:18254   */\n      swap1\n      pop\n        /* \"#utility.yul\":17894:18260   */\n      swap2\n      swap1\n      pop\n      jump\t// out\n        /* \"#utility.yul\":18266:18685   */\n    tag_212:\n        /* \"#utility.yul\":18432:18436   */\n      0x00\n        /* \"#utility.yul\":18470:18472   */\n      0x20\n        /* \"#utility.yul\":18459:18468   */\n      dup3\n        /* \"#utility.yul\":18455:18473   */\n      add\n        /* \"#utility.yul\":18447:18473   */\n      swap1\n      pop\n        /* \"#utility.yul\":18519:18528   */\n      dup2\n        /* \"#utility.yul\":18513:18517   */\n      dup2\n        /* \"#utility.yul\":18509:18529   */\n      sub\n        /* \"#utility.yul\":18505:18506   */\n      0x00\n        /* \"#utility.yul\":18494:18503   */\n      dup4\n        /* \"#utility.yul\":18490:18507   */\n      add\n        /* \"#utility.yul\":18483:18530   */\n      mstore\n        /* \"#utility.yul\":18547:18678   */\n      tag_600\n        /* \"#utility.yul\":18673:18677   */\n      dup2\n        /* \"#utility.yul\":18547:18678   */\n      tag_401\n      jump\t// in\n    tag_600:\n        /* \"#utility.yul\":18539:18678   */\n      swap1\n      pop\n        /* \"#utility.yul\":18266:18685   */\n      swap2\n      swap1\n      pop\n      jump\t// out\n        /* \"#utility.yul\":18691:18857   */\n    tag_402:\n        /* \"#utility.yul\":18831:18849   */\n      0x496e636f727265637420616d6f756e7400000000000000000000000000000000\n        /* \"#utility.yul\":18827:18828   */\n      0x00\n        /* \"#utility.yul\":18819:18825   */\n      dup3\n        /* \"#utility.yul\":18815:18829   */\n      add\n        /* \"#utility.yul\":18808:18850   */\n      mstore\n        /* \"#utility.yul\":18691:18857   */\n      pop\n      jump\t// out\n        /* \"#utility.yul\":18863:19229   */\n    tag_403:\n        /* \"#utility.yul\":19005:19008   */\n      0x00\n        /* \"#utility.yul\":19026:19093   */\n      tag_603\n        /* \"#utility.yul\":19090:19092   */\n      0x10\n        /* \"#utility.yul\":19085:19088   */\n      dup4\n        /* \"#utility.yul\":19026:19093   */\n      tag_361\n      jump\t// in\n    tag_603:\n        /* \"#utility.yul\":19019:19093   */\n      swap2\n      pop\n        /* \"#utility.yul\":19102:19195   */\n      tag_604\n        /* \"#utility.yul\":19191:19194   */\n      dup3\n        /* \"#utility.yul\":19102:19195   */\n      tag_402\n      jump\t// in\n    tag_604:\n        /* \"#utility.yul\":19220:19222   */\n      0x20\n        /* \"#utility.yul\":19215:19218   */\n      dup3\n        /* \"#utility.yul\":19211:19223   */\n      add\n        /* \"#utility.yul\":19204:19223   */\n      swap1\n      pop\n        /* \"#utility.yul\":18863:19229   */\n      swap2\n      swap1\n      pop\n      jump\t// out\n        /* \"#utility.yul\":19235:19654   */\n    tag_216:\n        /* \"#utility.yul\":19401:19405   */\n      0x00\n        /* \"#utility.yul\":19439:19441   */\n      0x20\n        /* \"#utility.yul\":19428:19437   */\n      dup3\n        /* \"#utility.yul\":19424:19442   */\n      add\n        /* \"#utility.yul\":19416:19442   */\n      swap1\n      pop\n        /* \"#utility.yul\":19488:19497   */\n      dup2\n        /* \"#utility.yul\":19482:19486   */\n      dup2\n        /* \"#utility.yul\":19478:19498   */\n      sub\n        /* \"#utility.yul\":19474:19475   */\n      0x00\n        /* \"#utility.yul\":19463:19472   */\n      dup4\n        /* \"#utility.yul\":19459:19476   */\n      add\n        /* \"#utility.yul\":19452:19499   */\n      mstore\n        /* \"#utility.yul\":19516:19647   */\n      tag_606\n        /* \"#utility.yul\":19642:19646   */\n      dup2\n        /* \"#utility.yul\":19516:19647   */\n      tag_403\n      jump\t// in\n    tag_606:\n        /* \"#utility.yul\":19508:19647   */\n      swap1\n      pop\n        /* \"#utility.yul\":19235:19654   */\n      swap2\n      swap1\n      pop\n      jump\t// out\n        /* \"#utility.yul\":19660:19828   */\n    tag_404:\n        /* \"#utility.yul\":19800:19820   */\n      0x416c6c6f77616e63652065786365656465640000000000000000000000000000\n        /* \"#utility.yul\":19796:19797   */\n      0x00\n        /* \"#utility.yul\":19788:19794   */\n      dup3\n        /* \"#utility.yul\":19784:19798   */\n      add\n        /* \"#utility.yul\":19777:19821   */\n      mstore\n        /* \"#utility.yul\":19660:19828   */\n      pop\n      jump\t// out\n        /* \"#utility.yul\":19834:20200   */\n    tag_405:\n        /* \"#utility.yul\":19976:19979   */\n      0x00\n        /* \"#utility.yul\":19997:20064   */\n      tag_609\n        /* \"#utility.yul\":20061:20063   */\n      0x12\n        /* \"#utility.yul\":20056:20059   */\n      dup4\n        /* \"#utility.yul\":19997:20064   */\n      tag_361\n      jump\t// in\n    tag_609:\n        /* \"#utility.yul\":19990:20064   */\n      swap2\n      pop\n        /* \"#utility.yul\":20073:20166   */\n      tag_610\n        /* \"#utility.yul\":20162:20165   */\n      dup3\n        /* \"#utility.yul\":20073:20166   */\n      tag_404\n      jump\t// in\n    tag_610:\n        /* \"#utility.yul\":20191:20193   */\n      0x20\n        /* \"#utility.yul\":20186:20189   */\n      dup3\n        /* \"#utility.yul\":20182:20194   */\n      add\n        /* \"#utility.yul\":20175:20194   */\n      swap1\n      pop\n        /* \"#utility.yul\":19834:20200   */\n      swap2\n      swap1\n      pop\n      jump\t// out\n        /* \"#utility.yul\":20206:20625   */\n    tag_219:\n        /* \"#utility.yul\":20372:20376   */\n      0x00\n        /* \"#utility.yul\":20410:20412   */\n      0x20\n        /* \"#utility.yul\":20399:20408   */\n      dup3\n        /* \"#utility.yul\":20395:20413   */\n      add\n        /* \"#utility.yul\":20387:20413   */\n      swap1\n      pop\n        /* \"#utility.yul\":20459:20468   */\n      dup2\n        /* \"#utility.yul\":20453:20457   */\n      dup2\n        /* \"#utility.yul\":20449:20469   */\n      sub\n        /* \"#utility.yul\":20445:20446   */\n      0x00\n        /* \"#utility.yul\":20434:20443   */\n      dup4\n        /* \"#utility.yul\":20430:20447   */\n      add\n        /* \"#utility.yul\":20423:20470   */\n      mstore\n        /* \"#utility.yul\":20487:20618   */\n      tag_612\n        /* \"#utility.yul\":20613:20617   */\n      dup2\n        /* \"#utility.yul\":20487:20618   */\n      tag_405\n      jump\t// in\n    tag_612:\n        /* \"#utility.yul\":20479:20618   */\n      swap1\n      pop\n        /* \"#utility.yul\":20206:20625   */\n      swap2\n      swap1\n      pop\n      jump\t// out\n        /* \"#utility.yul\":20631:20825   */\n    tag_228:\n        /* \"#utility.yul\":20671:20675   */\n      0x00\n        /* \"#utility.yul\":20691:20711   */\n      tag_614\n        /* \"#utility.yul\":20709:20710   */\n      dup3\n        /* \"#utility.yul\":20691:20711   */\n      tag_372\n      jump\t// in\n    tag_614:\n        /* \"#utility.yul\":20686:20711   */\n      swap2\n      pop\n        /* \"#utility.yul\":20725:20745   */\n      tag_615\n        /* \"#utility.yul\":20743:20744   */\n      dup4\n        /* \"#utility.yul\":20725:20745   */\n      tag_372\n      jump\t// in\n    tag_615:\n        /* \"#utility.yul\":20720:20745   */\n      swap3\n      pop\n        /* \"#utility.yul\":20769:20770   */\n      dup3\n        /* \"#utility.yul\":20766:20767   */\n      dup3\n        /* \"#utility.yul\":20762:20771   */\n      sub\n        /* \"#utility.yul\":20754:20771   */\n      swap1\n      pop\n        /* \"#utility.yul\":20793:20794   */\n      dup2\n        /* \"#utility.yul\":20787:20791   */\n      dup2\n        /* \"#utility.yul\":20784:20795   */\n      gt\n        /* \"#utility.yul\":20781:20818   */\n      iszero\n      tag_616\n      jumpi\n        /* \"#utility.yul\":20798:20816   */\n      tag_617\n      tag_394\n      jump\t// in\n    tag_617:\n        /* \"#utility.yul\":20781:20818   */\n    tag_616:\n        /* \"#utility.yul\":20631:20825   */\n      swap3\n      swap2\n      pop\n      pop\n      jump\t// out\n        /* \"#utility.yul\":20831:21002   */\n    tag_406:\n        /* \"#utility.yul\":20971:20994   */\n      0x4c697374696e67206973206e6f74206163746976650000000000000000000000\n        /* \"#utility.yul\":20967:20968   */\n      0x00\n        /* \"#utility.yul\":20959:20965   */\n      dup3\n        /* \"#utility.yul\":20955:20969   */\n      add\n        /* \"#utility.yul\":20948:20995   */\n      mstore\n        /* \"#utility.yul\":20831:21002   */\n      pop\n      jump\t// out\n        /* \"#utility.yul\":21008:21374   */\n    tag_407:\n        /* \"#utility.yul\":21150:21153   */\n      0x00\n        /* \"#utility.yul\":21171:21238   */\n      tag_620\n        /* \"#utility.yul\":21235:21237   */\n      0x15\n        /* \"#utility.yul\":21230:21233   */\n      dup4\n        /* \"#utility.yul\":21171:21238   */\n      tag_361\n      jump\t// in\n    tag_620:\n        /* \"#utility.yul\":21164:21238   */\n      swap2\n      pop\n        /* \"#utility.yul\":21247:21340   */\n      tag_621\n        /* \"#utility.yul\":21336:21339   */\n      dup3\n        /* \"#utility.yul\":21247:21340   */\n      tag_406\n      jump\t// in\n    tag_621:\n        /* \"#utility.yul\":21365:21367   */\n      0x20\n        /* \"#utility.yul\":21360:21363   */\n      dup3\n        /* \"#utility.yul\":21356:21368   */\n      add\n        /* \"#utility.yul\":21349:21368   */\n      swap1\n      pop\n        /* \"#utility.yul\":21008:21374   */\n      swap2\n      swap1\n      pop\n      jump\t// out\n        /* \"#utility.yul\":21380:21799   */\n    tag_247:\n        /* \"#utility.yul\":21546:21550   */\n      0x00\n        /* \"#utility.yul\":21584:21586   */\n      0x20\n        /* \"#utility.yul\":21573:21582   */\n      dup3\n        /* \"#utility.yul\":21569:21587   */\n      add\n        /* \"#utility.yul\":21561:21587   */\n      swap1\n      pop\n        /* \"#utility.yul\":21633:21642   */\n      dup2\n        /* \"#utility.yul\":21627:21631   */\n      dup2\n        /* \"#utility.yul\":21623:21643   */\n      sub\n        /* \"#utility.yul\":21619:21620   */\n      0x00\n        /* \"#utility.yul\":21608:21617   */\n      dup4\n        /* \"#utility.yul\":21604:21621   */\n      add\n        /* \"#utility.yul\":21597:21644   */\n      mstore\n        /* \"#utility.yul\":21661:21792   */\n      tag_623\n        /* \"#utility.yul\":21787:21791   */\n      dup2\n        /* \"#utility.yul\":21661:21792   */\n      tag_407\n      jump\t// in\n    tag_623:\n        /* \"#utility.yul\":21653:21792   */\n      swap1\n      pop\n        /* \"#utility.yul\":21380:21799   */\n      swap2\n      swap1\n      pop\n      jump\t// out\n        /* \"#utility.yul\":21805:21979   */\n    tag_408:\n        /* \"#utility.yul\":21945:21971   */\n      0x496e636f7272656374207061796d656e7420616d6f756e740000000000000000\n        /* \"#utility.yul\":21941:21942   */\n      0x00\n        /* \"#utility.yul\":21933:21939   */\n      dup3\n        /* \"#utility.yul\":21929:21943   */\n      add\n        /* \"#utility.yul\":21922:21972   */\n      mstore\n        /* \"#utility.yul\":21805:21979   */\n      pop\n      jump\t// out\n        /* \"#utility.yul\":21985:22351   */\n    tag_409:\n        /* \"#utility.yul\":22127:22130   */\n      0x00\n        /* \"#utility.yul\":22148:22215   */\n      tag_626\n        /* \"#utility.yul\":22212:22214   */\n      0x18\n        /* \"#utility.yul\":22207:22210   */\n      dup4\n        /* \"#utility.yul\":22148:22215   */\n      tag_361\n      jump\t// in\n    tag_626:\n        /* \"#utility.yul\":22141:22215   */\n      swap2\n      pop\n        /* \"#utility.yul\":22224:22317   */\n      tag_627\n        /* \"#utility.yul\":22313:22316   */\n      dup3\n        /* \"#utility.yul\":22224:22317   */\n      tag_408\n      jump\t// in\n    tag_627:\n        /* \"#utility.yul\":22342:22344   */\n      0x20\n        /* \"#utility.yul\":22337:22340   */\n      dup3\n        /* \"#utility.yul\":22333:22345   */\n      add\n        /* \"#utility.yul\":22326:22345   */\n      swap1\n      pop\n        /* \"#utility.yul\":21985:22351   */\n      swap2\n      swap1\n      pop\n      jump\t// out\n        /* \"#utility.yul\":22357:22776   */\n    tag_250:\n        /* \"#utility.yul\":22523:22527   */\n      0x00\n        /* \"#utility.yul\":22561:22563   */\n      0x20\n        /* \"#utility.yul\":22550:22559   */\n      dup3\n        /* \"#utility.yul\":22546:22564   */\n      add\n        /* \"#utility.yul\":22538:22564   */\n      swap1\n      pop\n        /* \"#utility.yul\":22610:22619   */\n      dup2\n        /* \"#utility.yul\":22604:22608   */\n      dup2\n        /* \"#utility.yul\":22600:22620   */\n      sub\n        /* \"#utility.yul\":22596:22597   */\n      0x00\n        /* \"#utility.yul\":22585:22594   */\n      dup4\n        /* \"#utility.yul\":22581:22598   */\n      add\n        /* \"#utility.yul\":22574:22621   */\n      mstore\n        /* \"#utility.yul\":22638:22769   */\n      tag_629\n        /* \"#utility.yul\":22764:22768   */\n      dup2\n        /* \"#utility.yul\":22638:22769   */\n      tag_409\n      jump\t// in\n    tag_629:\n        /* \"#utility.yul\":22630:22769   */\n      swap1\n      pop\n        /* \"#utility.yul\":22357:22776   */\n      swap2\n      swap1\n      pop\n      jump\t// out\n        /* \"#utility.yul\":22782:23114   */\n    tag_258:\n        /* \"#utility.yul\":22903:22907   */\n      0x00\n        /* \"#utility.yul\":22941:22943   */\n      0x40\n        /* \"#utility.yul\":22930:22939   */\n      dup3\n        /* \"#utility.yul\":22926:22944   */\n      add\n        /* \"#utility.yul\":22918:22944   */\n      swap1\n      pop\n        /* \"#utility.yul\":22954:23025   */\n      tag_631\n        /* \"#utility.yul\":23022:23023   */\n      0x00\n        /* \"#utility.yul\":23011:23020   */\n      dup4\n        /* \"#utility.yul\":23007:23024   */\n      add\n        /* \"#utility.yul\":22998:23004   */\n      dup6\n        /* \"#utility.yul\":22954:23025   */\n      tag_377\n      jump\t// in\n    tag_631:\n        /* \"#utility.yul\":23035:23107   */\n      tag_632\n        /* \"#utility.yul\":23103:23105   */\n      0x20\n        /* \"#utility.yul\":23092:23101   */\n      dup4\n        /* \"#utility.yul\":23088:23106   */\n      add\n        /* \"#utility.yul\":23079:23085   */\n      dup5\n        /* \"#utility.yul\":23035:23107   */\n      tag_377\n      jump\t// in\n    tag_632:\n        /* \"#utility.yul\":22782:23114   */\n      swap4\n      swap3\n      pop\n      pop\n      pop\n      jump\t// out\n        /* \"#utility.yul\":23120:23342   */\n    tag_410:\n        /* \"#utility.yul\":23260:23294   */\n      0x416c7265616479207265676973746572656420617320616e20696e6469766964\n        /* \"#utility.yul\":23256:23257   */\n      0x00\n        /* \"#utility.yul\":23248:23254   */\n      dup3\n        /* \"#utility.yul\":23244:23258   */\n      add\n        /* \"#utility.yul\":23237:23295   */\n      mstore\n        /* \"#utility.yul\":23329:23334   */\n      0x75616c0000000000000000000000000000000000000000000000000000000000\n        /* \"#utility.yul\":23324:23326   */\n      0x20\n        /* \"#utility.yul\":23316:23322   */\n      dup3\n        /* \"#utility.yul\":23312:23327   */\n      add\n        /* \"#utility.yul\":23305:23335   */\n      mstore\n        /* \"#utility.yul\":23120:23342   */\n      pop\n      jump\t// out\n        /* \"#utility.yul\":23348:23714   */\n    tag_411:\n        /* \"#utility.yul\":23490:23493   */\n      0x00\n        /* \"#utility.yul\":23511:23578   */\n      tag_635\n        /* \"#utility.yul\":23575:23577   */\n      0x23\n        /* \"#utility.yul\":23570:23573   */\n      dup4\n        /* \"#utility.yul\":23511:23578   */\n      tag_361\n      jump\t// in\n    tag_635:\n        /* \"#utility.yul\":23504:23578   */\n      swap2\n      pop\n        /* \"#utility.yul\":23587:23680   */\n      tag_636\n        /* \"#utility.yul\":23676:23679   */\n      dup3\n        /* \"#utility.yul\":23587:23680   */\n      tag_410\n      jump\t// in\n    tag_636:\n        /* \"#utility.yul\":23705:23707   */\n      0x40\n        /* \"#utility.yul\":23700:23703   */\n      dup3\n        /* \"#utility.yul\":23696:23708   */\n      add\n        /* \"#utility.yul\":23689:23708   */\n      swap1\n      pop\n        /* \"#utility.yul\":23348:23714   */\n      swap2\n      swap1\n      pop\n      jump\t// out\n        /* \"#utility.yul\":23720:24139   */\n    tag_265:\n        /* \"#utility.yul\":23886:23890   */\n      0x00\n        /* \"#utility.yul\":23924:23926   */\n      0x20\n        /* \"#utility.yul\":23913:23922   */\n      dup3\n        /* \"#utility.yul\":23909:23927   */\n      add\n        /* \"#utility.yul\":23901:23927   */\n      swap1\n      pop\n        /* \"#utility.yul\":23973:23982   */\n      dup2\n        /* \"#utility.yul\":23967:23971   */\n      dup2\n        /* \"#utility.yul\":23963:23983   */\n      sub\n        /* \"#utility.yul\":23959:23960   */\n      0x00\n        /* \"#utility.yul\":23948:23957   */\n      dup4\n        /* \"#utility.yul\":23944:23961   */\n      add\n        /* \"#utility.yul\":23937:23984   */\n      mstore\n        /* \"#utility.yul\":24001:24132   */\n      tag_638\n        /* \"#utility.yul\":24127:24131   */\n      dup2\n        /* \"#utility.yul\":24001:24132   */\n      tag_411\n      jump\t// in\n    tag_638:\n        /* \"#utility.yul\":23993:24132   */\n      swap1\n      pop\n        /* \"#utility.yul\":23720:24139   */\n      swap2\n      swap1\n      pop\n      jump\t// out\n        /* \"#utility.yul\":24145:24387   */\n    tag_412:\n        /* \"#utility.yul\":24285:24319   */\n      0x4f6e6c79207265676973746572656420696e646976696475616c207573657273\n        /* \"#utility.yul\":24281:24282   */\n      0x00\n        /* \"#utility.yul\":24273:24279   */\n      dup3\n        /* \"#utility.yul\":24269:24283   */\n      add\n        /* \"#utility.yul\":24262:24320   */\n      mstore\n        /* \"#utility.yul\":24354:24379   */\n      0x2063616e2063616c6c20746869732066756e6374696f6e000000000000000000\n        /* \"#utility.yul\":24349:24351   */\n      0x20\n        /* \"#utility.yul\":24341:24347   */\n      dup3\n        /* \"#utility.yul\":24337:24352   */\n      add\n        /* \"#utility.yul\":24330:24380   */\n      mstore\n        /* \"#utility.yul\":24145:24387   */\n      pop\n      jump\t// out\n        /* \"#utility.yul\":24393:24759   */\n    tag_413:\n        /* \"#utility.yul\":24535:24538   */\n      0x00\n        /* \"#utility.yul\":24556:24623   */\n      tag_641\n        /* \"#utility.yul\":24620:24622   */\n      0x37\n        /* \"#utility.yul\":24615:24618   */\n      dup4\n        /* \"#utility.yul\":24556:24623   */\n      tag_361\n      jump\t// in\n    tag_641:\n        /* \"#utility.yul\":24549:24623   */\n      swap2\n      pop\n        /* \"#utility.yul\":24632:24725   */\n      tag_642\n        /* \"#utility.yul\":24721:24724   */\n      dup3\n        /* \"#utility.yul\":24632:24725   */\n      tag_412\n      jump\t// in\n    tag_642:\n        /* \"#utility.yul\":24750:24752   */\n      0x40\n        /* \"#utility.yul\":24745:24748   */\n      dup3\n        /* \"#utility.yul\":24741:24753   */\n      add\n        /* \"#utility.yul\":24734:24753   */\n      swap1\n      pop\n        /* \"#utility.yul\":24393:24759   */\n      swap2\n      swap1\n      pop\n      jump\t// out\n        /* \"#utility.yul\":24765:25184   */\n    tag_269:\n        /* \"#utility.yul\":24931:24935   */\n      0x00\n        /* \"#utility.yul\":24969:24971   */\n      0x20\n        /* \"#utility.yul\":24958:24967   */\n      dup3\n        /* \"#utility.yul\":24954:24972   */\n      add\n        /* \"#utility.yul\":24946:24972   */\n      swap1\n      pop\n        /* \"#utility.yul\":25018:25027   */\n      dup2\n        /* \"#utility.yul\":25012:25016   */\n      dup2\n        /* \"#utility.yul\":25008:25028   */\n      sub\n        /* \"#utility.yul\":25004:25005   */\n      0x00\n        /* \"#utility.yul\":24993:25002   */\n      dup4\n        /* \"#utility.yul\":24989:25006   */\n      add\n        /* \"#utility.yul\":24982:25029   */\n      mstore\n        /* \"#utility.yul\":25046:25177   */\n      tag_644\n        /* \"#utility.yul\":25172:25176   */\n      dup2\n        /* \"#utility.yul\":25046:25177   */\n      tag_413\n      jump\t// in\n    tag_644:\n        /* \"#utility.yul\":25038:25177   */\n      swap1\n      pop\n        /* \"#utility.yul\":24765:25184   */\n      swap2\n      swap1\n      pop\n      jump\t// out\n        /* \"#utility.yul\":25190:25413   */\n    tag_414:\n        /* \"#utility.yul\":25330:25364   */\n      0x52657761726420616d6f756e74206d7573742062652067726561746572207468\n        /* \"#utility.yul\":25326:25327   */\n      0x00\n        /* \"#utility.yul\":25318:25324   */\n      dup3\n        /* \"#utility.yul\":25314:25328   */\n      add\n        /* \"#utility.yul\":25307:25365   */\n      mstore\n        /* \"#utility.yul\":25399:25405   */\n      0x616e203000000000000000000000000000000000000000000000000000000000\n        /* \"#utility.yul\":25394:25396   */\n      0x20\n        /* \"#utility.yul\":25386:25392   */\n      dup3\n        /* \"#utility.yul\":25382:25397   */\n      add\n        /* \"#utility.yul\":25375:25406   */\n      mstore\n        /* \"#utility.yul\":25190:25413   */\n      pop\n      jump\t// out\n        /* \"#utility.yul\":25419:25785   */\n    tag_415:\n        /* \"#utility.yul\":25561:25564   */\n      0x00\n        /* \"#utility.yul\":25582:25649   */\n      tag_647\n        /* \"#utility.yul\":25646:25648   */\n      0x24\n        /* \"#utility.yul\":25641:25644   */\n      dup4\n        /* \"#utility.yul\":25582:25649   */\n      tag_361\n      jump\t// in\n    tag_647:\n        /* \"#utility.yul\":25575:25649   */\n      swap2\n      pop\n        /* \"#utility.yul\":25658:25751   */\n      tag_648\n        /* \"#utility.yul\":25747:25750   */\n      dup3\n        /* \"#utility.yul\":25658:25751   */\n      tag_414\n      jump\t// in\n    tag_648:\n        /* \"#utility.yul\":25776:25778   */\n      0x40\n        /* \"#utility.yul\":25771:25774   */\n      dup3\n        /* \"#utility.yul\":25767:25779   */\n      add\n        /* \"#utility.yul\":25760:25779   */\n      swap1\n      pop\n        /* \"#utility.yul\":25419:25785   */\n      swap2\n      swap1\n      pop\n      jump\t// out\n        /* \"#utility.yul\":25791:26210   */\n    tag_273:\n        /* \"#utility.yul\":25957:25961   */\n      0x00\n        /* \"#utility.yul\":25995:25997   */\n      0x20\n        /* \"#utility.yul\":25984:25993   */\n      dup3\n        /* \"#utility.yul\":25980:25998   */\n      add\n        /* \"#utility.yul\":25972:25998   */\n      swap1\n      pop\n        /* \"#utility.yul\":26044:26053   */\n      dup2\n        /* \"#utility.yul\":26038:26042   */\n      dup2\n        /* \"#utility.yul\":26034:26054   */\n      sub\n        /* \"#utility.yul\":26030:26031   */\n      0x00\n        /* \"#utility.yul\":26019:26028   */\n      dup4\n        /* \"#utility.yul\":26015:26032   */\n      add\n        /* \"#utility.yul\":26008:26055   */\n      mstore\n        /* \"#utility.yul\":26072:26203   */\n      tag_650\n        /* \"#utility.yul\":26198:26202   */\n      dup2\n        /* \"#utility.yul\":26072:26203   */\n      tag_415\n      jump\t// in\n    tag_650:\n        /* \"#utility.yul\":26064:26203   */\n      swap1\n      pop\n        /* \"#utility.yul\":25791:26210   */\n      swap2\n      swap1\n      pop\n      jump\t// out\n        /* \"#utility.yul\":26216:26391   */\n    tag_416:\n        /* \"#utility.yul\":26356:26383   */\n      0x746f6b656e20636f756e74206973206e6f7420656e6f75676800000000000000\n        /* \"#utility.yul\":26352:26353   */\n      0x00\n        /* \"#utility.yul\":26344:26350   */\n      dup3\n        /* \"#utility.yul\":26340:26354   */\n      add\n        /* \"#utility.yul\":26333:26384   */\n      mstore\n        /* \"#utility.yul\":26216:26391   */\n      pop\n      jump\t// out\n        /* \"#utility.yul\":26397:26763   */\n    tag_417:\n        /* \"#utility.yul\":26539:26542   */\n      0x00\n        /* \"#utility.yul\":26560:26627   */\n      tag_653\n        /* \"#utility.yul\":26624:26626   */\n      0x19\n        /* \"#utility.yul\":26619:26622   */\n      dup4\n        /* \"#utility.yul\":26560:26627   */\n      tag_361\n      jump\t// in\n    tag_653:\n        /* \"#utility.yul\":26553:26627   */\n      swap2\n      pop\n        /* \"#utility.yul\":26636:26729   */\n      tag_654\n        /* \"#utility.yul\":26725:26728   */\n      dup3\n        /* \"#utility.yul\":26636:26729   */\n      tag_416\n      jump\t// in\n    tag_654:\n        /* \"#utility.yul\":26754:26756   */\n      0x20\n        /* \"#utility.yul\":26749:26752   */\n      dup3\n        /* \"#utility.yul\":26745:26757   */\n      add\n        /* \"#utility.yul\":26738:26757   */\n      swap1\n      pop\n        /* \"#utility.yul\":26397:26763   */\n      swap2\n      swap1\n      pop\n      jump\t// out\n        /* \"#utility.yul\":26769:27188   */\n    tag_285:\n        /* \"#utility.yul\":26935:26939   */\n      0x00\n        /* \"#utility.yul\":26973:26975   */\n      0x20\n        /* \"#utility.yul\":26962:26971   */\n      dup3\n        /* \"#utility.yul\":26958:26976   */\n      add\n        /* \"#utility.yul\":26950:26976   */\n      swap1\n      pop\n        /* \"#utility.yul\":27022:27031   */\n      dup2\n        /* \"#utility.yul\":27016:27020   */\n      dup2\n        /* \"#utility.yul\":27012:27032   */\n      sub\n        /* \"#utility.yul\":27008:27009   */\n      0x00\n        /* \"#utility.yul\":26997:27006   */\n      dup4\n        /* \"#utility.yul\":26993:27010   */\n      add\n        /* \"#utility.yul\":26986:27033   */\n      mstore\n        /* \"#utility.yul\":27050:27181   */\n      tag_656\n        /* \"#utility.yul\":27176:27180   */\n      dup2\n        /* \"#utility.yul\":27050:27181   */\n      tag_417\n      jump\t// in\n    tag_656:\n        /* \"#utility.yul\":27042:27181   */\n      swap1\n      pop\n        /* \"#utility.yul\":26769:27188   */\n      swap2\n      swap1\n      pop\n      jump\t// out\n        /* \"#utility.yul\":27194:27364   */\n    tag_418:\n        /* \"#utility.yul\":27334:27356   */\n      0x496e73756666696369656e742062616c616e6365000000000000000000000000\n        /* \"#utility.yul\":27330:27331   */\n      0x00\n        /* \"#utility.yul\":27322:27328   */\n      dup3\n        /* \"#utility.yul\":27318:27332   */\n      add\n        /* \"#utility.yul\":27311:27357   */\n      mstore\n        /* \"#utility.yul\":27194:27364   */\n      pop\n      jump\t// out\n        /* \"#utility.yul\":27370:27736   */\n    tag_419:\n        /* \"#utility.yul\":27512:27515   */\n      0x00\n        /* \"#utility.yul\":27533:27600   */\n      tag_659\n        /* \"#utility.yul\":27597:27599   */\n      0x14\n        /* \"#utility.yul\":27592:27595   */\n      dup4\n        /* \"#utility.yul\":27533:27600   */\n      tag_361\n      jump\t// in\n    tag_659:\n        /* \"#utility.yul\":27526:27600   */\n      swap2\n      pop\n        /* \"#utility.yul\":27609:27702   */\n      tag_660\n        /* \"#utility.yul\":27698:27701   */\n      dup3\n        /* \"#utility.yul\":27609:27702   */\n      tag_418\n      jump\t// in\n    tag_660:\n        /* \"#utility.yul\":27727:27729   */\n      0x20\n        /* \"#utility.yul\":27722:27725   */\n      dup3\n        /* \"#utility.yul\":27718:27730   */\n      add\n        /* \"#utility.yul\":27711:27730   */\n      swap1\n      pop\n        /* \"#utility.yul\":27370:27736   */\n      swap2\n      swap1\n      pop\n      jump\t// out\n        /* \"#utility.yul\":27742:28161   */\n    tag_307:\n        /* \"#utility.yul\":27908:27912   */\n      0x00\n        /* \"#utility.yul\":27946:27948   */\n      0x20\n        /* \"#utility.yul\":27935:27944   */\n      dup3\n        /* \"#utility.yul\":27931:27949   */\n      add\n        /* \"#utility.yul\":27923:27949   */\n      swap1\n      pop\n        /* \"#utility.yul\":27995:28004   */\n      dup2\n        /* \"#utility.yul\":27989:27993   */\n      dup2\n        /* \"#utility.yul\":27985:28005   */\n      sub\n        /* \"#utility.yul\":27981:27982   */\n      0x00\n        /* \"#utility.yul\":27970:27979   */\n      dup4\n        /* \"#utility.yul\":27966:27983   */\n      add\n        /* \"#utility.yul\":27959:28006   */\n      mstore\n        /* \"#utility.yul\":28023:28154   */\n      tag_662\n        /* \"#utility.yul\":28149:28153   */\n      dup2\n        /* \"#utility.yul\":28023:28154   */\n      tag_419\n      jump\t// in\n    tag_662:\n        /* \"#utility.yul\":28015:28154   */\n      swap1\n      pop\n        /* \"#utility.yul\":27742:28161   */\n      swap2\n      swap1\n      pop\n      jump\t// out\n        /* \"#utility.yul\":28167:28340   */\n    tag_420:\n        /* \"#utility.yul\":28307:28332   */\n      0x496e76616c696420616d6f756e74206f72207072696365000000000000000000\n        /* \"#utility.yul\":28303:28304   */\n      0x00\n        /* \"#utility.yul\":28295:28301   */\n      dup3\n        /* \"#utility.yul\":28291:28305   */\n      add\n        /* \"#utility.yul\":28284:28333   */\n      mstore\n        /* \"#utility.yul\":28167:28340   */\n      pop\n      jump\t// out\n        /* \"#utility.yul\":28346:28712   */\n    tag_421:\n        /* \"#utility.yul\":28488:28491   */\n      0x00\n        /* \"#utility.yul\":28509:28576   */\n      tag_665\n        /* \"#utility.yul\":28573:28575   */\n      0x17\n        /* \"#utility.yul\":28568:28571   */\n      dup4\n        /* \"#utility.yul\":28509:28576   */\n      tag_361\n      jump\t// in\n    tag_665:\n        /* \"#utility.yul\":28502:28576   */\n      swap2\n      pop\n        /* \"#utility.yul\":28585:28678   */\n      tag_666\n        /* \"#utility.yul\":28674:28677   */\n      dup3\n        /* \"#utility.yul\":28585:28678   */\n      tag_420\n      jump\t// in\n    tag_666:\n        /* \"#utility.yul\":28703:28705   */\n      0x20\n        /* \"#utility.yul\":28698:28701   */\n      dup3\n        /* \"#utility.yul\":28694:28706   */\n      add\n        /* \"#utility.yul\":28687:28706   */\n      swap1\n      pop\n        /* \"#utility.yul\":28346:28712   */\n      swap2\n      swap1\n      pop\n      jump\t// out\n        /* \"#utility.yul\":28718:29137   */\n    tag_312:\n        /* \"#utility.yul\":28884:28888   */\n      0x00\n        /* \"#utility.yul\":28922:28924   */\n      0x20\n        /* \"#utility.yul\":28911:28920   */\n      dup3\n        /* \"#utility.yul\":28907:28925   */\n      add\n        /* \"#utility.yul\":28899:28925   */\n      swap1\n      pop\n        /* \"#utility.yul\":28971:28980   */\n      dup2\n        /* \"#utility.yul\":28965:28969   */\n      dup2\n        /* \"#utility.yul\":28961:28981   */\n      sub\n        /* \"#utility.yul\":28957:28958   */\n      0x00\n        /* \"#utility.yul\":28946:28955   */\n      dup4\n        /* \"#utility.yul\":28942:28959   */\n      add\n        /* \"#utility.yul\":28935:28982   */\n      mstore\n        /* \"#utility.yul\":28999:29130   */\n      tag_668\n        /* \"#utility.yul\":29125:29129   */\n      dup2\n        /* \"#utility.yul\":28999:29130   */\n      tag_421\n      jump\t// in\n    tag_668:\n        /* \"#utility.yul\":28991:29130   */\n      swap1\n      pop\n        /* \"#utility.yul\":28718:29137   */\n      swap2\n      swap1\n      pop\n      jump\t// out\n        /* \"#utility.yul\":29143:29376   */\n    tag_315:\n        /* \"#utility.yul\":29182:29185   */\n      0x00\n        /* \"#utility.yul\":29205:29229   */\n      tag_670\n        /* \"#utility.yul\":29223:29228   */\n      dup3\n        /* \"#utility.yul\":29205:29229   */\n      tag_372\n      jump\t// in\n    tag_670:\n        /* \"#utility.yul\":29196:29229   */\n      swap2\n      pop\n        /* \"#utility.yul\":29251:29317   */\n      0xffffffffffffffffffffffffffffffffffffffffffffffffffffffffffffffff\n        /* \"#utility.yul\":29244:29249   */\n      dup3\n        /* \"#utility.yul\":29241:29318   */\n      sub\n        /* \"#utility.yul\":29238:29341   */\n      tag_671\n      jumpi\n        /* \"#utility.yul\":29321:29339   */\n      tag_672\n      tag_394\n      jump\t// in\n    tag_672:\n        /* \"#utility.yul\":29238:29341   */\n    tag_671:\n        /* \"#utility.yul\":29368:29369   */\n      0x01\n        /* \"#utility.yul\":29361:29366   */\n      dup3\n        /* \"#utility.yul\":29357:29370   */\n      add\n        /* \"#utility.yul\":29350:29370   */\n      swap1\n      pop\n        /* \"#utility.yul\":29143:29376   */\n      swap2\n      swap1\n      pop\n      jump\t// out\n        /* \"#utility.yul\":29382:29824   */\n    tag_325:\n        /* \"#utility.yul\":29531:29535   */\n      0x00\n        /* \"#utility.yul\":29569:29571   */\n      0x60\n        /* \"#utility.yul\":29558:29567   */\n      dup3\n        /* \"#utility.yul\":29554:29572   */\n      add\n        /* \"#utility.yul\":29546:29572   */\n      swap1\n      pop\n        /* \"#utility.yul\":29582:29653   */\n      tag_674\n        /* \"#utility.yul\":29650:29651   */\n      0x00\n        /* \"#utility.yul\":29639:29648   */\n      dup4\n        /* \"#utility.yul\":29635:29652   */\n      add\n        /* \"#utility.yul\":29626:29632   */\n      dup7\n        /* \"#utility.yul\":29582:29653   */\n      tag_384\n      jump\t// in\n    tag_674:\n        /* \"#utility.yul\":29663:29735   */\n      tag_675\n        /* \"#utility.yul\":29731:29733   */\n      0x20\n        /* \"#utility.yul\":29720:29729   */\n      dup4\n        /* \"#utility.yul\":29716:29734   */\n      add\n        /* \"#utility.yul\":29707:29713   */\n      dup6\n        /* \"#utility.yul\":29663:29735   */\n      tag_377\n      jump\t// in\n    tag_675:\n        /* \"#utility.yul\":29745:29817   */\n      tag_676\n        /* \"#utility.yul\":29813:29815   */\n      0x40\n        /* \"#utility.yul\":29802:29811   */\n      dup4\n        /* \"#utility.yul\":29798:29816   */\n      add\n        /* \"#utility.yul\":29789:29795   */\n      dup5\n        /* \"#utility.yul\":29745:29817   */\n      tag_377\n      jump\t// in\n    tag_676:\n        /* \"#utility.yul\":29382:29824   */\n      swap5\n      swap4\n      pop\n      pop\n      pop\n      pop\n      jump\t// out\n        /* \"#utility.yul\":29830:30052   */\n    tag_330:\n        /* \"#utility.yul\":29923:29927   */\n      0x00\n        /* \"#utility.yul\":29961:29963   */\n      0x20\n        /* \"#utility.yul\":29950:29959   */\n      dup3\n        /* \"#utility.yul\":29946:29964   */\n      add\n        /* \"#utility.yul\":29938:29964   */\n      swap1\n      pop\n        /* \"#utility.yul\":29974:30045   */\n      tag_678\n        /* \"#utility.yul\":30042:30043   */\n      0x00\n        /* \"#utility.yul\":30031:30040   */\n      dup4\n        /* \"#utility.yul\":30027:30044   */\n      add\n        /* \"#utility.yul\":30018:30024   */\n      dup5\n        /* \"#utility.yul\":29974:30045   */\n      tag_384\n      jump\t// in\n    tag_678:\n        /* \"#utility.yul\":29830:30052   */\n      swap3\n      swap2\n      pop\n      pop\n      jump\t// out\n        /* \"#utility.yul\":30058:30249   */\n    tag_353:\n        /* \"#utility.yul\":30098:30101   */\n      0x00\n        /* \"#utility.yul\":30117:30137   */\n      tag_680\n        /* \"#utility.yul\":30135:30136   */\n      dup3\n        /* \"#utility.yul\":30117:30137   */\n      tag_372\n      jump\t// in\n    tag_680:\n        /* \"#utility.yul\":30112:30137   */\n      swap2\n      pop\n        /* \"#utility.yul\":30151:30171   */\n      tag_681\n        /* \"#utility.yul\":30169:30170   */\n      dup4\n        /* \"#utility.yul\":30151:30171   */\n      tag_372\n      jump\t// in\n    tag_681:\n        /* \"#utility.yul\":30146:30171   */\n      swap3\n      pop\n        /* \"#utility.yul\":30194:30195   */\n      dup3\n        /* \"#utility.yul\":30191:30192   */\n      dup3\n        /* \"#utility.yul\":30187:30196   */\n      add\n        /* \"#utility.yul\":30180:30196   */\n      swap1\n      pop\n        /* \"#utility.yul\":30215:30218   */\n      dup1\n        /* \"#utility.yul\":30212:30213   */\n      dup3\n        /* \"#utility.yul\":30209:30219   */\n      gt\n        /* \"#utility.yul\":30206:30242   */\n      iszero\n      tag_682\n      jumpi\n        /* \"#utility.yul\":30222:30240   */\n      tag_683\n      tag_394\n      jump\t// in\n    tag_683:\n        /* \"#utility.yul\":30206:30242   */\n    tag_682:\n        /* \"#utility.yul\":30058:30249   */\n      swap3\n      swap2\n      pop\n      pop\n      jump\t// out\n\n    auxdata: 0xa2646970667358221220ae0d1eae3d8417b07d1a583de42fa6176431363761a3fe5588d3d3787a2bcb4964736f6c634300081a0033\n}\n",
				"bytecode": {
					"linkReferences": {},
					"object": "608060405234801561000f575f80fd5b506040516138a33803806138a38339818101604052810190610031919061043f565b6040518060400160405280600b81526020017f477265656e4372656469740000000000000000000000000000000000000000008152506040518060400160405280600381526020017f474354000000000000000000000000000000000000000000000000000000000081525081600390816100ac919061069b565b5080600490816100bc919061069b565b5050503360055f6101000a81548173ffffffffffffffffffffffffffffffffffffffff021916908373ffffffffffffffffffffffffffffffffffffffff1602179055508060068190555061015c60055f9054906101000a900473ffffffffffffffffffffffffffffffffffffffff1661013961016260201b60201c565b600a61014591906108d2565b6064610151919061091c565b61016a60201b60201c565b50610a45565b5f6012905090565b5f73ffffffffffffffffffffffffffffffffffffffff168273ffffffffffffffffffffffffffffffffffffffff16036101da575f6040517fec442f050000000000000000000000000000000000000000000000000000000081526004016101d1919061099c565b60405180910390fd5b6101eb5f83836101ef60201b60201c565b5050565b5f73ffffffffffffffffffffffffffffffffffffffff168373ffffffffffffffffffffffffffffffffffffffff160361023f578060025f82825461023391906109b5565b9250508190555061030d565b5f805f8573ffffffffffffffffffffffffffffffffffffffff1673ffffffffffffffffffffffffffffffffffffffff1681526020019081526020015f20549050818110156102c8578381836040517fe450d38c0000000000000000000000000000000000000000000000000000000081526004016102bf939291906109f7565b60405180910390fd5b8181035f808673ffffffffffffffffffffffffffffffffffffffff1673ffffffffffffffffffffffffffffffffffffffff1681526020019081526020015f2081905550505b5f73ffffffffffffffffffffffffffffffffffffffff168273ffffffffffffffffffffffffffffffffffffffff1603610354578060025f828254039250508190555061039e565b805f808473ffffffffffffffffffffffffffffffffffffffff1673ffffffffffffffffffffffffffffffffffffffff1681526020019081526020015f205f82825401925050819055505b8173ffffffffffffffffffffffffffffffffffffffff168373ffffffffffffffffffffffffffffffffffffffff167fddf252ad1be2c89b69c2b068fc378daa952ba7f163c4a11628f55a4df523b3ef836040516103fb9190610a2c565b60405180910390a3505050565b5f80fd5b5f819050919050565b61041e8161040c565b8114610428575f80fd5b50565b5f8151905061043981610415565b92915050565b5f6020828403121561045457610453610408565b5b5f6104618482850161042b565b91505092915050565b5f81519050919050565b7f4e487b71000000000000000000000000000000000000000000000000000000005f52604160045260245ffd5b7f4e487b71000000000000000000000000000000000000000000000000000000005f52602260045260245ffd5b5f60028204905060018216806104e557607f821691505b6020821081036104f8576104f76104a1565b5b50919050565b5f819050815f5260205f209050919050565b5f6020601f8301049050919050565b5f82821b905092915050565b5f6008830261055a7fffffffffffffffffffffffffffffffffffffffffffffffffffffffffffffffff8261051f565b610564868361051f565b95508019841693508086168417925050509392505050565b5f819050919050565b5f61059f61059a6105958461040c565b61057c565b61040c565b9050919050565b5f819050919050565b6105b883610585565b6105cc6105c4826105a6565b84845461052b565b825550505050565b5f90565b6105e06105d4565b6105eb8184846105af565b505050565b5b8181101561060e576106035f826105d8565b6001810190506105f1565b5050565b601f82111561065357610624816104fe565b61062d84610510565b8101602085101561063c578190505b61065061064885610510565b8301826105f0565b50505b505050565b5f82821c905092915050565b5f6106735f1984600802610658565b1980831691505092915050565b5f61068b8383610664565b9150826002028217905092915050565b6106a48261046a565b67ffffffffffffffff8111156106bd576106bc610474565b5b6106c782546104ce565b6106d2828285610612565b5f60209050601f831160018114610703575f84156106f1578287015190505b6106fb8582610680565b865550610762565b601f198416610711866104fe565b5f5b8281101561073857848901518255600182019150602085019450602081019050610713565b868310156107555784890151610751601f891682610664565b8355505b6001600288020188555050505b505050505050565b7f4e487b71000000000000000000000000000000000000000000000000000000005f52601160045260245ffd5b5f8160011c9050919050565b5f808291508390505b60018511156107ec578086048111156107c8576107c761076a565b5b60018516156107d75780820291505b80810290506107e585610797565b94506107ac565b94509492505050565b5f8261080457600190506108bf565b81610811575f90506108bf565b8160018114610827576002811461083157610860565b60019150506108bf565b60ff8411156108435761084261076a565b5b8360020a91508482111561085a5761085961076a565b5b506108bf565b5060208310610133831016604e8410600b84101617156108955782820a9050838111156108905761088f61076a565b5b6108bf565b6108a284848460016107a3565b925090508184048111156108b9576108b861076a565b5b81810290505b9392505050565b5f60ff82169050919050565b5f6108dc8261040c565b91506108e7836108c6565b92506109147fffffffffffffffffffffffffffffffffffffffffffffffffffffffffffffffff84846107f5565b905092915050565b5f6109268261040c565b91506109318361040c565b925082820261093f8161040c565b915082820484148315176109565761095561076a565b5b5092915050565b5f73ffffffffffffffffffffffffffffffffffffffff82169050919050565b5f6109868261095d565b9050919050565b6109968161097c565b82525050565b5f6020820190506109af5f83018461098d565b92915050565b5f6109bf8261040c565b91506109ca8361040c565b92508282019050808211156109e2576109e161076a565b5b92915050565b6109f18161040c565b82525050565b5f606082019050610a0a5f83018661098d565b610a1760208301856109e8565b610a2460408301846109e8565b949350505050565b5f602082019050610a3f5f8301846109e8565b92915050565b612e5180610a525f395ff3fe60806040526004361061019b575f3560e01c80637ff9b596116100eb578063cb8c0c1d11610089578063dd62ed3e11610063578063dd62ed3e146105a7578063de74e57b146105e3578063f13e833114610622578063fbd9be8b1461065e5761019b565b8063cb8c0c1d1461051b578063d1df306c14610557578063d22b2ed01461057f5761019b565b8063a9059cbb116100c5578063a9059cbb14610477578063a9b07c26146104b3578063b6267ae8146104dd578063bd3507da146104f35761019b565b80637ff9b5961461040757806395d89b41146104315780639a83dc3d1461045b5761019b565b8063313ce567116101585780635fe01930116101325780635fe019301461035f578063692bf4a8146103875780636a61e5fc146103a357806370a08231146103cb5761019b565b8063313ce567146102d15780634fac0168146102fb57806351e73a16146103375761019b565b806306fdde031461019f578063095ea7b3146101c95780630a8c8f201461020557806318160ddd1461024157806323b872dd1461026b5780632ea665cd146102a7575b5f80fd5b3480156101aa575f80fd5b506101b3610686565b6040516101c09190611f10565b60405180910390f35b3480156101d4575f80fd5b506101ef60048036038101906101ea9190611fc1565b610716565b6040516101fc9190612019565b60405180910390f35b348015610210575f80fd5b5061022b60048036038101906102269190612032565b610738565b6040516102389190612019565b60405180910390f35b34801561024c575f80fd5b50610255610755565b604051610262919061206c565b60405180910390f35b348015610276575f80fd5b50610291600480360381019061028c9190612085565b61075e565b60405161029e9190612019565b60405180910390f35b3480156102b2575f80fd5b506102bb61078c565b6040516102c891906120f5565b60405180910390f35b3480156102dc575f80fd5b506102e56107b1565b6040516102f29190612129565b60405180910390f35b348015610306575f80fd5b50610321600480360381019061031c9190612032565b6107b9565b60405161032e9190612019565b60405180910390f35b348015610342575f80fd5b5061035d60048036038101906103589190612142565b6107d6565b005b34801561036a575f80fd5b5061038560048036038101906103809190612032565b610a16565b005b6103a1600480360381019061039c91906121bc565b610a6e565b005b3480156103ae575f80fd5b506103c960048036038101906103c4919061220c565b610d70565b005b3480156103d6575f80fd5b506103f160048036038101906103ec9190612032565b610e0a565b6040516103fe919061206c565b60405180910390f35b348015610412575f80fd5b5061041b610e4f565b604051610428919061206c565b60405180910390f35b34801561043c575f80fd5b50610445610e55565b6040516104529190611f10565b60405180910390f35b6104756004803603810190610470919061220c565b610ee5565b005b348015610482575f80fd5b5061049d60048036038101906104989190611fc1565b611184565b6040516104aa9190612019565b60405180910390f35b3480156104be575f80fd5b506104c76111a6565b6040516104d4919061206c565b60405180910390f35b3480156104e8575f80fd5b506104f16111ac565b005b3480156104fe575f80fd5b506105196004803603810190610514919061220c565b61128d565b005b348015610526575f80fd5b50610541600480360381019061053c9190612032565b611383565b60405161054e919061206c565b60405180910390f35b348015610562575f80fd5b5061057d60048036038101906105789190611fc1565b611398565b005b34801561058a575f80fd5b506105a560048036038101906105a09190612032565b61142d565b005b3480156105b2575f80fd5b506105cd60048036038101906105c89190612237565b6114af565b6040516105da919061206c565b60405180910390f35b3480156105ee575f80fd5b506106096004803603810190610604919061220c565b611531565b6040516106199493929190612284565b60405180910390f35b34801561062d575f80fd5b5061064860048036038101906106439190612032565b611588565b6040516106559190612019565b60405180910390f35b348015610669575f80fd5b50610684600480360381019061067f91906122c7565b6115a5565b005b60606003805461069590612332565b80601f01602080910402602001604051908101604052809291908181526020018280546106c190612332565b801561070c5780601f106106e35761010080835404028352916020019161070c565b820191905f5260205f20905b8154815290600101906020018083116106ef57829003601f168201915b5050505050905090565b5f8061072061181f565b905061072d818585611826565b600191505092915050565b6008602052805f5260405f205f915054906101000a900460ff1681565b5f600254905090565b5f8061076861181f565b9050610775858285611838565b6107808585856118ca565b60019150509392505050565b60055f9054906101000a900473ffffffffffffffffffffffffffffffffffffffff1681565b5f6012905090565b6009602052805f5260405f205f915054906101000a900460ff1681565b6001151560075f3373ffffffffffffffffffffffffffffffffffffffff1673ffffffffffffffffffffffffffffffffffffffff1681526020019081526020015f205f9054906101000a900460ff16151514610866576040517f08c379a000000000000000000000000000000000000000000000000000000000815260040161085d906123d2565b60405180910390fd5b5f73ffffffffffffffffffffffffffffffffffffffff168373ffffffffffffffffffffffffffffffffffffffff16036108d4576040517f08c379a00000000000000000000000000000000000000000000000000000000081526004016108cb9061243a565b60405180910390fd5b6001151560085f8573ffffffffffffffffffffffffffffffffffffffff1673ffffffffffffffffffffffffffffffffffffffff1681526020019081526020015f205f9054906101000a900460ff16151514610964576040517f08c379a000000000000000000000000000000000000000000000000000000000815260040161095b906124c8565b60405180910390fd5b5f81116109a6576040517f08c379a000000000000000000000000000000000000000000000000000000000815260040161099d90612556565b60405180910390fd5b81600a5f8573ffffffffffffffffffffffffffffffffffffffff1673ffffffffffffffffffffffffffffffffffffffff1681526020019081526020015f2081905550610a1133846109f56107b1565b600a610a0191906126d0565b84610a0c919061271a565b6118ca565b505050565b600160085f8373ffffffffffffffffffffffffffffffffffffffff1673ffffffffffffffffffffffffffffffffffffffff1681526020019081526020015f205f6101000a81548160ff02191690831515021790555050565b6001151560085f3373ffffffffffffffffffffffffffffffffffffffff1673ffffffffffffffffffffffffffffffffffffffff1681526020019081526020015f205f9054906101000a900460ff16151514610afe576040517f08c379a0000000000000000000000000000000000000000000000000000000008152600401610af5906127cb565b60405180910390fd5b5f8211610b40576040517f08c379a0000000000000000000000000000000000000000000000000000000008152600401610b3790612859565b60405180910390fd5b3482600654610b4f919061271a565b14610b8f576040517f08c379a0000000000000000000000000000000000000000000000000000000008152600401610b86906128c1565b60405180910390fd5b81600a5f8573ffffffffffffffffffffffffffffffffffffffff1673ffffffffffffffffffffffffffffffffffffffff1681526020019081526020015f20541015610c0f576040517f08c379a0000000000000000000000000000000000000000000000000000000008152600401610c0690612929565b60405180910390fd5b610c3783610c1b6107b1565b600a610c2791906126d0565b84610c32919061271a565b6119ba565b8073ffffffffffffffffffffffffffffffffffffffff166108fc3490811502906040515f60405180830381858888f19350505050158015610c7a573d5f803e3d5ffd5b5081600a5f8573ffffffffffffffffffffffffffffffffffffffff1673ffffffffffffffffffffffffffffffffffffffff1681526020019081526020015f2054610cc49190612947565b600a5f8573ffffffffffffffffffffffffffffffffffffffff1673ffffffffffffffffffffffffffffffffffffffff1681526020019081526020015f2081905550818173ffffffffffffffffffffffffffffffffffffffff168473ffffffffffffffffffffffffffffffffffffffff167f5fc4872a04fc9ef9e80a6593db4a82874ea60fbc1f93bd4d0b7a00d4aa8ae55634604051610d63919061206c565b60405180910390a4505050565b6001151560075f3373ffffffffffffffffffffffffffffffffffffffff1673ffffffffffffffffffffffffffffffffffffffff1681526020019081526020015f205f9054906101000a900460ff16151514610e00576040517f08c379a0000000000000000000000000000000000000000000000000000000008152600401610df7906123d2565b60405180910390fd5b8060068190555050565b5f805f8373ffffffffffffffffffffffffffffffffffffffff1673ffffffffffffffffffffffffffffffffffffffff1681526020019081526020015f20549050919050565b60065481565b606060048054610e6490612332565b80601f0160208091040260200160405190810160405280929190818152602001828054610e9090612332565b8015610edb5780601f10610eb257610100808354040283529160200191610edb565b820191905f5260205f20905b815481529060010190602001808311610ebe57829003601f168201915b5050505050905090565b6001151560085f3373ffffffffffffffffffffffffffffffffffffffff1673ffffffffffffffffffffffffffffffffffffffff1681526020019081526020015f205f9054906101000a900460ff16151514610f75576040517f08c379a0000000000000000000000000000000000000000000000000000000008152600401610f6c906127cb565b60405180910390fd5b5f600b5f8381526020019081526020015f209050806003015f9054906101000a900460ff16610fd9576040517f08c379a0000000000000000000000000000000000000000000000000000000008152600401610fd0906129c4565b60405180910390fd5b8060020154341461101f576040517f08c379a000000000000000000000000000000000000000000000000000000000815260040161101690612a2c565b60405180910390fd5b61106e815f015f9054906101000a900473ffffffffffffffffffffffffffffffffffffffff163361104e6107b1565b600a61105a91906126d0565b8460010154611069919061271a565b6118ca565b805f015f9054906101000a900473ffffffffffffffffffffffffffffffffffffffff1673ffffffffffffffffffffffffffffffffffffffff166108fc3490811502906040515f60405180830381858888f193505050501580156110d3573d5f803e3d5ffd5b505f816003015f6101000a81548160ff021916908315150217905550805f015f9054906101000a900473ffffffffffffffffffffffffffffffffffffffff1673ffffffffffffffffffffffffffffffffffffffff163373ffffffffffffffffffffffffffffffffffffffff167f85f10505be3ed7bf7f1e02cf6bf521e67cd27c4b1e91954cc55d67c262fa64ff83600101548460020154604051611178929190612a4a565b60405180910390a35050565b5f8061118e61181f565b905061119b8185856118ca565b600191505092915050565b600c5481565b60095f3373ffffffffffffffffffffffffffffffffffffffff1673ffffffffffffffffffffffffffffffffffffffff1681526020019081526020015f205f9054906101000a900460ff1615611236576040517f08c379a000000000000000000000000000000000000000000000000000000000815260040161122d90612ae1565b60405180910390fd5b600160095f3373ffffffffffffffffffffffffffffffffffffffff1673ffffffffffffffffffffffffffffffffffffffff1681526020019081526020015f205f6101000a81548160ff021916908315150217905550565b60095f3373ffffffffffffffffffffffffffffffffffffffff1673ffffffffffffffffffffffffffffffffffffffff1681526020019081526020015f205f9054906101000a900460ff16611316576040517f08c379a000000000000000000000000000000000000000000000000000000000815260040161130d90612b6f565b60405180910390fd5b5f8111611358576040517f08c379a000000000000000000000000000000000000000000000000000000000815260040161134f90612bfd565b60405180910390fd5b611380336113646107b1565b600a61137091906126d0565b8361137b919061271a565b6119ba565b50565b600a602052805f5260405f205f915090505481565b6113a06107b1565b600a6113ac91906126d0565b816113b7919061271a565b6113c083610e0a565b1015611401576040517f08c379a00000000000000000000000000000000000000000000000000000000081526004016113f890612c65565b60405180910390fd5b6114298261140d6107b1565b600a61141991906126d0565b83611424919061271a565b611a39565b5050565b600160075f8373ffffffffffffffffffffffffffffffffffffffff1673ffffffffffffffffffffffffffffffffffffffff1681526020019081526020015f205f6101000a81548160ff0219169083151502179055506114ac3361148e6107b1565b600a61149a91906126d0565b6103e86114a7919061271a565b6119ba565b50565b5f60015f8473ffffffffffffffffffffffffffffffffffffffff1673ffffffffffffffffffffffffffffffffffffffff1681526020019081526020015f205f8373ffffffffffffffffffffffffffffffffffffffff1673ffffffffffffffffffffffffffffffffffffffff1681526020019081526020015f2054905092915050565b600b602052805f5260405f205f91509050805f015f9054906101000a900473ffffffffffffffffffffffffffffffffffffffff1690806001015490806002015490806003015f9054906101000a900460ff16905084565b6007602052805f5260405f205f915054906101000a900460ff1681565b6001151560085f3373ffffffffffffffffffffffffffffffffffffffff1673ffffffffffffffffffffffffffffffffffffffff1681526020019081526020015f205f9054906101000a900460ff16151514611635576040517f08c379a000000000000000000000000000000000000000000000000000000000815260040161162c906127cb565b60405180910390fd5b8161163e6107b1565b600a61164a91906126d0565b81611655919061271a565b61165e33610e0a565b101561169f576040517f08c379a000000000000000000000000000000000000000000000000000000000815260040161169690612ccd565b60405180910390fd5b5f831180156116ad57505f82115b6116ec576040517f08c379a00000000000000000000000000000000000000000000000000000000081526004016116e390612d35565b60405180910390fd5b60405180608001604052803373ffffffffffffffffffffffffffffffffffffffff16815260200184815260200183815260200160011515815250600b5f600c5481526020019081526020015f205f820151815f015f6101000a81548173ffffffffffffffffffffffffffffffffffffffff021916908373ffffffffffffffffffffffffffffffffffffffff16021790555060208201518160010155604082015181600201556060820151816003015f6101000a81548160ff0219169083151502179055509050503373ffffffffffffffffffffffffffffffffffffffff167fcf412bfe866866664047e9f9e38cc21c13173a37c85de5d29b65f1822231ec0084846040516117fb929190612a4a565b60405180910390a2600c5f81548092919061181590612d53565b9190505550505050565b5f33905090565b6118338383836001611ab8565b505050565b5f61184384846114af565b90507fffffffffffffffffffffffffffffffffffffffffffffffffffffffffffffffff81146118c457818110156118b5578281836040517ffb8f41b20000000000000000000000000000000000000000000000000000000081526004016118ac93929190612d9a565b60405180910390fd5b6118c384848484035f611ab8565b5b50505050565b5f73ffffffffffffffffffffffffffffffffffffffff168373ffffffffffffffffffffffffffffffffffffffff160361193a575f6040517f96c6fd1e0000000000000000000000000000000000000000000000000000000081526004016119319190612dcf565b60405180910390fd5b5f73ffffffffffffffffffffffffffffffffffffffff168273ffffffffffffffffffffffffffffffffffffffff16036119aa575f6040517fec442f050000000000000000000000000000000000000000000000000000000081526004016119a19190612dcf565b60405180910390fd5b6119b5838383611c87565b505050565b5f73ffffffffffffffffffffffffffffffffffffffff168273ffffffffffffffffffffffffffffffffffffffff1603611a2a575f6040517fec442f05000000000000000000000000000000000000000000000000000000008152600401611a219190612dcf565b60405180910390fd5b611a355f8383611c87565b5050565b5f73ffffffffffffffffffffffffffffffffffffffff168273ffffffffffffffffffffffffffffffffffffffff1603611aa9575f6040517f96c6fd1e000000000000000000000000000000000000000000000000000000008152600401611aa09190612dcf565b60405180910390fd5b611ab4825f83611c87565b5050565b5f73ffffffffffffffffffffffffffffffffffffffff168473ffffffffffffffffffffffffffffffffffffffff1603611b28575f6040517fe602df05000000000000000000000000000000000000000000000000000000008152600401611b1f9190612dcf565b60405180910390fd5b5f73ffffffffffffffffffffffffffffffffffffffff168373ffffffffffffffffffffffffffffffffffffffff1603611b98575f6040517f94280d62000000000000000000000000000000000000000000000000000000008152600401611b8f9190612dcf565b60405180910390fd5b8160015f8673ffffffffffffffffffffffffffffffffffffffff1673ffffffffffffffffffffffffffffffffffffffff1681526020019081526020015f205f8573ffffffffffffffffffffffffffffffffffffffff1673ffffffffffffffffffffffffffffffffffffffff1681526020019081526020015f20819055508015611c81578273ffffffffffffffffffffffffffffffffffffffff168473ffffffffffffffffffffffffffffffffffffffff167f8c5be1e5ebec7d5bd14f71427d1e84f3dd0314c0f7b2291e5b200ac8c7c3b92584604051611c78919061206c565b60405180910390a35b50505050565b5f73ffffffffffffffffffffffffffffffffffffffff168373ffffffffffffffffffffffffffffffffffffffff1603611cd7578060025f828254611ccb9190612de8565b92505081905550611da5565b5f805f8573ffffffffffffffffffffffffffffffffffffffff1673ffffffffffffffffffffffffffffffffffffffff1681526020019081526020015f2054905081811015611d60578381836040517fe450d38c000000000000000000000000000000000000000000000000000000008152600401611d5793929190612d9a565b60405180910390fd5b8181035f808673ffffffffffffffffffffffffffffffffffffffff1673ffffffffffffffffffffffffffffffffffffffff1681526020019081526020015f2081905550505b5f73ffffffffffffffffffffffffffffffffffffffff168273ffffffffffffffffffffffffffffffffffffffff1603611dec578060025f8282540392505081905550611e36565b805f808473ffffffffffffffffffffffffffffffffffffffff1673ffffffffffffffffffffffffffffffffffffffff1681526020019081526020015f205f82825401925050819055505b8173ffffffffffffffffffffffffffffffffffffffff168373ffffffffffffffffffffffffffffffffffffffff167fddf252ad1be2c89b69c2b068fc378daa952ba7f163c4a11628f55a4df523b3ef83604051611e93919061206c565b60405180910390a3505050565b5f81519050919050565b5f82825260208201905092915050565b8281835e5f83830152505050565b5f601f19601f8301169050919050565b5f611ee282611ea0565b611eec8185611eaa565b9350611efc818560208601611eba565b611f0581611ec8565b840191505092915050565b5f6020820190508181035f830152611f288184611ed8565b905092915050565b5f80fd5b5f73ffffffffffffffffffffffffffffffffffffffff82169050919050565b5f611f5d82611f34565b9050919050565b611f6d81611f53565b8114611f77575f80fd5b50565b5f81359050611f8881611f64565b92915050565b5f819050919050565b611fa081611f8e565b8114611faa575f80fd5b50565b5f81359050611fbb81611f97565b92915050565b5f8060408385031215611fd757611fd6611f30565b5b5f611fe485828601611f7a565b9250506020611ff585828601611fad565b9150509250929050565b5f8115159050919050565b61201381611fff565b82525050565b5f60208201905061202c5f83018461200a565b92915050565b5f6020828403121561204757612046611f30565b5b5f61205484828501611f7a565b91505092915050565b61206681611f8e565b82525050565b5f60208201905061207f5f83018461205d565b92915050565b5f805f6060848603121561209c5761209b611f30565b5b5f6120a986828701611f7a565b93505060206120ba86828701611f7a565b92505060406120cb86828701611fad565b9150509250925092565b5f6120df82611f34565b9050919050565b6120ef816120d5565b82525050565b5f6020820190506121085f8301846120e6565b92915050565b5f60ff82169050919050565b6121238161210e565b82525050565b5f60208201905061213c5f83018461211a565b92915050565b5f805f6060848603121561215957612158611f30565b5b5f61216686828701611f7a565b935050602061217786828701611fad565b925050604061218886828701611fad565b9150509250925092565b61219b816120d5565b81146121a5575f80fd5b50565b5f813590506121b681612192565b92915050565b5f805f606084860312156121d3576121d2611f30565b5b5f6121e086828701611f7a565b93505060206121f186828701611fad565b9250506040612202868287016121a8565b9150509250925092565b5f6020828403121561222157612220611f30565b5b5f61222e84828501611fad565b91505092915050565b5f806040838503121561224d5761224c611f30565b5b5f61225a85828601611f7a565b925050602061226b85828601611f7a565b9150509250929050565b61227e81611f53565b82525050565b5f6080820190506122975f830187612275565b6122a4602083018661205d565b6122b1604083018561205d565b6122be606083018461200a565b95945050505050565b5f80604083850312156122dd576122dc611f30565b5b5f6122ea85828601611fad565b92505060206122fb85828601611fad565b9150509250929050565b7f4e487b71000000000000000000000000000000000000000000000000000000005f52602260045260245ffd5b5f600282049050600182168061234957607f821691505b60208210810361235c5761235b612305565b5b50919050565b7f6f6e6c7920676f7665726e6d656e7420617574686f726974792063616e2075735f8201527f6520746869732066756e6374696f6e0000000000000000000000000000000000602082015250565b5f6123bc602f83611eaa565b91506123c782612362565b604082019050919050565b5f6020820190508181035f8301526123e9816123b0565b9050919050565b7f496e76616c6964206164647265737365730000000000000000000000000000005f82015250565b5f612424601183611eaa565b915061242f826123f0565b602082019050919050565b5f6020820190508181035f83015261245181612418565b9050919050565b7f676976656e2061646472657373206d75737420626520616e20696e64757374725f8201527f7900000000000000000000000000000000000000000000000000000000000000602082015250565b5f6124b2602183611eaa565b91506124bd82612458565b604082019050919050565b5f6020820190508181035f8301526124df816124a6565b9050919050565b7f746f6b656e20436f756e74206d7573742062652067726561746572207468616e5f8201527f2030000000000000000000000000000000000000000000000000000000000000602082015250565b5f612540602283611eaa565b915061254b826124e6565b604082019050919050565b5f6020820190508181035f83015261256d81612534565b9050919050565b7f4e487b71000000000000000000000000000000000000000000000000000000005f52601160045260245ffd5b5f8160011c9050919050565b5f808291508390505b60018511156125f6578086048111156125d2576125d1612574565b5b60018516156125e15780820291505b80810290506125ef856125a1565b94506125b6565b94509492505050565b5f8261260e57600190506126c9565b8161261b575f90506126c9565b8160018114612631576002811461263b5761266a565b60019150506126c9565b60ff84111561264d5761264c612574565b5b8360020a91508482111561266457612663612574565b5b506126c9565b5060208310610133831016604e8410600b841016171561269f5782820a90508381111561269a57612699612574565b5b6126c9565b6126ac84848460016125ad565b925090508184048111156126c3576126c2612574565b5b81810290505b9392505050565b5f6126da82611f8e565b91506126e58361210e565b92506127127fffffffffffffffffffffffffffffffffffffffffffffffffffffffffffffffff84846125ff565b905092915050565b5f61272482611f8e565b915061272f83611f8e565b925082820261273d81611f8e565b9150828204841483151761275457612753612574565b5b5092915050565b7f6f6e6c7920696e64757374727920617574686f726974792063616e20757365205f8201527f746869732066756e6374696f6e00000000000000000000000000000000000000602082015250565b5f6127b5602d83611eaa565b91506127c08261275b565b604082019050919050565b5f6020820190508181035f8301526127e2816127a9565b9050919050565b7f546f6b656e20636f756e74206d7573742062652067726561746572207468616e5f8201527f2030000000000000000000000000000000000000000000000000000000000000602082015250565b5f612843602283611eaa565b915061284e826127e9565b604082019050919050565b5f6020820190508181035f83015261287081612837565b9050919050565b7f496e636f727265637420616d6f756e74000000000000000000000000000000005f82015250565b5f6128ab601083611eaa565b91506128b682612877565b602082019050919050565b5f6020820190508181035f8301526128d88161289f565b9050919050565b7f416c6c6f77616e636520657863656564656400000000000000000000000000005f82015250565b5f612913601283611eaa565b915061291e826128df565b602082019050919050565b5f6020820190508181035f83015261294081612907565b9050919050565b5f61295182611f8e565b915061295c83611f8e565b925082820390508181111561297457612973612574565b5b92915050565b7f4c697374696e67206973206e6f742061637469766500000000000000000000005f82015250565b5f6129ae601583611eaa565b91506129b98261297a565b602082019050919050565b5f6020820190508181035f8301526129db816129a2565b9050919050565b7f496e636f7272656374207061796d656e7420616d6f756e7400000000000000005f82015250565b5f612a16601883611eaa565b9150612a21826129e2565b602082019050919050565b5f6020820190508181035f830152612a4381612a0a565b9050919050565b5f604082019050612a5d5f83018561205d565b612a6a602083018461205d565b9392505050565b7f416c7265616479207265676973746572656420617320616e20696e64697669645f8201527f75616c0000000000000000000000000000000000000000000000000000000000602082015250565b5f612acb602383611eaa565b9150612ad682612a71565b604082019050919050565b5f6020820190508181035f830152612af881612abf565b9050919050565b7f4f6e6c79207265676973746572656420696e646976696475616c2075736572735f8201527f2063616e2063616c6c20746869732066756e6374696f6e000000000000000000602082015250565b5f612b59603783611eaa565b9150612b6482612aff565b604082019050919050565b5f6020820190508181035f830152612b8681612b4d565b9050919050565b7f52657761726420616d6f756e74206d75737420626520677265617465722074685f8201527f616e203000000000000000000000000000000000000000000000000000000000602082015250565b5f612be7602483611eaa565b9150612bf282612b8d565b604082019050919050565b5f6020820190508181035f830152612c1481612bdb565b9050919050565b7f746f6b656e20636f756e74206973206e6f7420656e6f756768000000000000005f82015250565b5f612c4f601983611eaa565b9150612c5a82612c1b565b602082019050919050565b5f6020820190508181035f830152612c7c81612c43565b9050919050565b7f496e73756666696369656e742062616c616e63650000000000000000000000005f82015250565b5f612cb7601483611eaa565b9150612cc282612c83565b602082019050919050565b5f6020820190508181035f830152612ce481612cab565b9050919050565b7f496e76616c696420616d6f756e74206f722070726963650000000000000000005f82015250565b5f612d1f601783611eaa565b9150612d2a82612ceb565b602082019050919050565b5f6020820190508181035f830152612d4c81612d13565b9050919050565b5f612d5d82611f8e565b91507fffffffffffffffffffffffffffffffffffffffffffffffffffffffffffffffff8203612d8f57612d8e612574565b5b600182019050919050565b5f606082019050612dad5f830186612275565b612dba602083018561205d565b612dc7604083018461205d565b949350505050565b5f602082019050612de25f830184612275565b92915050565b5f612df282611f8e565b9150612dfd83611f8e565b9250828201905080821115612e1557612e14612574565b5b9291505056fea2646970667358221220ae0d1eae3d8417b07d1a583de42fa6176431363761a3fe5588d3d3787a2bcb4964736f6c634300081a0033",
					"opcodes": "PUSH1 0x80 PUSH1 0x40 MSTORE CALLVALUE DUP1 ISZERO PUSH2 0xF JUMPI PUSH0 DUP1 REVERT JUMPDEST POP PUSH1 0x40 MLOAD PUSH2 0x38A3 CODESIZE SUB DUP1 PUSH2 0x38A3 DUP4 CODECOPY DUP2 DUP2 ADD PUSH1 0x40 MSTORE DUP2 ADD SWAP1 PUSH2 0x31 SWAP2 SWAP1 PUSH2 0x43F JUMP JUMPDEST PUSH1 0x40 MLOAD DUP1 PUSH1 0x40 ADD PUSH1 0x40 MSTORE DUP1 PUSH1 0xB DUP2 MSTORE PUSH1 0x20 ADD PUSH32 0x477265656E437265646974000000000000000000000000000000000000000000 DUP2 MSTORE POP PUSH1 0x40 MLOAD DUP1 PUSH1 0x40 ADD PUSH1 0x40 MSTORE DUP1 PUSH1 0x3 DUP2 MSTORE PUSH1 0x20 ADD PUSH32 0x4743540000000000000000000000000000000000000000000000000000000000 DUP2 MSTORE POP DUP2 PUSH1 0x3 SWAP1 DUP2 PUSH2 0xAC SWAP2 SWAP1 PUSH2 0x69B JUMP JUMPDEST POP DUP1 PUSH1 0x4 SWAP1 DUP2 PUSH2 0xBC SWAP2 SWAP1 PUSH2 0x69B JUMP JUMPDEST POP POP POP CALLER PUSH1 0x5 PUSH0 PUSH2 0x100 EXP DUP2 SLOAD DUP2 PUSH20 0xFFFFFFFFFFFFFFFFFFFFFFFFFFFFFFFFFFFFFFFF MUL NOT AND SWAP1 DUP4 PUSH20 0xFFFFFFFFFFFFFFFFFFFFFFFFFFFFFFFFFFFFFFFF AND MUL OR SWAP1 SSTORE POP DUP1 PUSH1 0x6 DUP2 SWAP1 SSTORE POP PUSH2 0x15C PUSH1 0x5 PUSH0 SWAP1 SLOAD SWAP1 PUSH2 0x100 EXP SWAP1 DIV PUSH20 0xFFFFFFFFFFFFFFFFFFFFFFFFFFFFFFFFFFFFFFFF AND PUSH2 0x139 PUSH2 0x162 PUSH1 0x20 SHL PUSH1 0x20 SHR JUMP JUMPDEST PUSH1 0xA PUSH2 0x145 SWAP2 SWAP1 PUSH2 0x8D2 JUMP JUMPDEST PUSH1 0x64 PUSH2 0x151 SWAP2 SWAP1 PUSH2 0x91C JUMP JUMPDEST PUSH2 0x16A PUSH1 0x20 SHL PUSH1 0x20 SHR JUMP JUMPDEST POP PUSH2 0xA45 JUMP JUMPDEST PUSH0 PUSH1 0x12 SWAP1 POP SWAP1 JUMP JUMPDEST PUSH0 PUSH20 0xFFFFFFFFFFFFFFFFFFFFFFFFFFFFFFFFFFFFFFFF AND DUP3 PUSH20 0xFFFFFFFFFFFFFFFFFFFFFFFFFFFFFFFFFFFFFFFF AND SUB PUSH2 0x1DA JUMPI PUSH0 PUSH1 0x40 MLOAD PUSH32 0xEC442F0500000000000000000000000000000000000000000000000000000000 DUP2 MSTORE PUSH1 0x4 ADD PUSH2 0x1D1 SWAP2 SWAP1 PUSH2 0x99C JUMP JUMPDEST PUSH1 0x40 MLOAD DUP1 SWAP2 SUB SWAP1 REVERT JUMPDEST PUSH2 0x1EB PUSH0 DUP4 DUP4 PUSH2 0x1EF PUSH1 0x20 SHL PUSH1 0x20 SHR JUMP JUMPDEST POP POP JUMP JUMPDEST PUSH0 PUSH20 0xFFFFFFFFFFFFFFFFFFFFFFFFFFFFFFFFFFFFFFFF AND DUP4 PUSH20 0xFFFFFFFFFFFFFFFFFFFFFFFFFFFFFFFFFFFFFFFF AND SUB PUSH2 0x23F JUMPI DUP1 PUSH1 0x2 PUSH0 DUP3 DUP3 SLOAD PUSH2 0x233 SWAP2 SWAP1 PUSH2 0x9B5 JUMP JUMPDEST SWAP3 POP POP DUP2 SWAP1 SSTORE POP PUSH2 0x30D JUMP JUMPDEST PUSH0 DUP1 PUSH0 DUP6 PUSH20 0xFFFFFFFFFFFFFFFFFFFFFFFFFFFFFFFFFFFFFFFF AND PUSH20 0xFFFFFFFFFFFFFFFFFFFFFFFFFFFFFFFFFFFFFFFF AND DUP2 MSTORE PUSH1 0x20 ADD SWAP1 DUP2 MSTORE PUSH1 0x20 ADD PUSH0 KECCAK256 SLOAD SWAP1 POP DUP2 DUP2 LT ISZERO PUSH2 0x2C8 JUMPI DUP4 DUP2 DUP4 PUSH1 0x40 MLOAD PUSH32 0xE450D38C00000000000000000000000000000000000000000000000000000000 DUP2 MSTORE PUSH1 0x4 ADD PUSH2 0x2BF SWAP4 SWAP3 SWAP2 SWAP1 PUSH2 0x9F7 JUMP JUMPDEST PUSH1 0x40 MLOAD DUP1 SWAP2 SUB SWAP1 REVERT JUMPDEST DUP2 DUP2 SUB PUSH0 DUP1 DUP7 PUSH20 0xFFFFFFFFFFFFFFFFFFFFFFFFFFFFFFFFFFFFFFFF AND PUSH20 0xFFFFFFFFFFFFFFFFFFFFFFFFFFFFFFFFFFFFFFFF AND DUP2 MSTORE PUSH1 0x20 ADD SWAP1 DUP2 MSTORE PUSH1 0x20 ADD PUSH0 KECCAK256 DUP2 SWAP1 SSTORE POP POP JUMPDEST PUSH0 PUSH20 0xFFFFFFFFFFFFFFFFFFFFFFFFFFFFFFFFFFFFFFFF AND DUP3 PUSH20 0xFFFFFFFFFFFFFFFFFFFFFFFFFFFFFFFFFFFFFFFF AND SUB PUSH2 0x354 JUMPI DUP1 PUSH1 0x2 PUSH0 DUP3 DUP3 SLOAD SUB SWAP3 POP POP DUP2 SWAP1 SSTORE POP PUSH2 0x39E JUMP JUMPDEST DUP1 PUSH0 DUP1 DUP5 PUSH20 0xFFFFFFFFFFFFFFFFFFFFFFFFFFFFFFFFFFFFFFFF AND PUSH20 0xFFFFFFFFFFFFFFFFFFFFFFFFFFFFFFFFFFFFFFFF AND DUP2 MSTORE PUSH1 0x20 ADD SWAP1 DUP2 MSTORE PUSH1 0x20 ADD PUSH0 KECCAK256 PUSH0 DUP3 DUP3 SLOAD ADD SWAP3 POP POP DUP2 SWAP1 SSTORE POP JUMPDEST DUP2 PUSH20 0xFFFFFFFFFFFFFFFFFFFFFFFFFFFFFFFFFFFFFFFF AND DUP4 PUSH20 0xFFFFFFFFFFFFFFFFFFFFFFFFFFFFFFFFFFFFFFFF AND PUSH32 0xDDF252AD1BE2C89B69C2B068FC378DAA952BA7F163C4A11628F55A4DF523B3EF DUP4 PUSH1 0x40 MLOAD PUSH2 0x3FB SWAP2 SWAP1 PUSH2 0xA2C JUMP JUMPDEST PUSH1 0x40 MLOAD DUP1 SWAP2 SUB SWAP1 LOG3 POP POP POP JUMP JUMPDEST PUSH0 DUP1 REVERT JUMPDEST PUSH0 DUP2 SWAP1 POP SWAP2 SWAP1 POP JUMP JUMPDEST PUSH2 0x41E DUP2 PUSH2 0x40C JUMP JUMPDEST DUP2 EQ PUSH2 0x428 JUMPI PUSH0 DUP1 REVERT JUMPDEST POP JUMP JUMPDEST PUSH0 DUP2 MLOAD SWAP1 POP PUSH2 0x439 DUP2 PUSH2 0x415 JUMP JUMPDEST SWAP3 SWAP2 POP POP JUMP JUMPDEST PUSH0 PUSH1 0x20 DUP3 DUP5 SUB SLT ISZERO PUSH2 0x454 JUMPI PUSH2 0x453 PUSH2 0x408 JUMP JUMPDEST JUMPDEST PUSH0 PUSH2 0x461 DUP5 DUP3 DUP6 ADD PUSH2 0x42B JUMP JUMPDEST SWAP2 POP POP SWAP3 SWAP2 POP POP JUMP JUMPDEST PUSH0 DUP2 MLOAD SWAP1 POP SWAP2 SWAP1 POP JUMP JUMPDEST PUSH32 0x4E487B7100000000000000000000000000000000000000000000000000000000 PUSH0 MSTORE PUSH1 0x41 PUSH1 0x4 MSTORE PUSH1 0x24 PUSH0 REVERT JUMPDEST PUSH32 0x4E487B7100000000000000000000000000000000000000000000000000000000 PUSH0 MSTORE PUSH1 0x22 PUSH1 0x4 MSTORE PUSH1 0x24 PUSH0 REVERT JUMPDEST PUSH0 PUSH1 0x2 DUP3 DIV SWAP1 POP PUSH1 0x1 DUP3 AND DUP1 PUSH2 0x4E5 JUMPI PUSH1 0x7F DUP3 AND SWAP2 POP JUMPDEST PUSH1 0x20 DUP3 LT DUP2 SUB PUSH2 0x4F8 JUMPI PUSH2 0x4F7 PUSH2 0x4A1 JUMP JUMPDEST JUMPDEST POP SWAP2 SWAP1 POP JUMP JUMPDEST PUSH0 DUP2 SWAP1 POP DUP2 PUSH0 MSTORE PUSH1 0x20 PUSH0 KECCAK256 SWAP1 POP SWAP2 SWAP1 POP JUMP JUMPDEST PUSH0 PUSH1 0x20 PUSH1 0x1F DUP4 ADD DIV SWAP1 POP SWAP2 SWAP1 POP JUMP JUMPDEST PUSH0 DUP3 DUP3 SHL SWAP1 POP SWAP3 SWAP2 POP POP JUMP JUMPDEST PUSH0 PUSH1 0x8 DUP4 MUL PUSH2 0x55A PUSH32 0xFFFFFFFFFFFFFFFFFFFFFFFFFFFFFFFFFFFFFFFFFFFFFFFFFFFFFFFFFFFFFFFF DUP3 PUSH2 0x51F JUMP JUMPDEST PUSH2 0x564 DUP7 DUP4 PUSH2 0x51F JUMP JUMPDEST SWAP6 POP DUP1 NOT DUP5 AND SWAP4 POP DUP1 DUP7 AND DUP5 OR SWAP3 POP POP POP SWAP4 SWAP3 POP POP POP JUMP JUMPDEST PUSH0 DUP2 SWAP1 POP SWAP2 SWAP1 POP JUMP JUMPDEST PUSH0 PUSH2 0x59F PUSH2 0x59A PUSH2 0x595 DUP5 PUSH2 0x40C JUMP JUMPDEST PUSH2 0x57C JUMP JUMPDEST PUSH2 0x40C JUMP JUMPDEST SWAP1 POP SWAP2 SWAP1 POP JUMP JUMPDEST PUSH0 DUP2 SWAP1 POP SWAP2 SWAP1 POP JUMP JUMPDEST PUSH2 0x5B8 DUP4 PUSH2 0x585 JUMP JUMPDEST PUSH2 0x5CC PUSH2 0x5C4 DUP3 PUSH2 0x5A6 JUMP JUMPDEST DUP5 DUP5 SLOAD PUSH2 0x52B JUMP JUMPDEST DUP3 SSTORE POP POP POP POP JUMP JUMPDEST PUSH0 SWAP1 JUMP JUMPDEST PUSH2 0x5E0 PUSH2 0x5D4 JUMP JUMPDEST PUSH2 0x5EB DUP2 DUP5 DUP5 PUSH2 0x5AF JUMP JUMPDEST POP POP POP JUMP JUMPDEST JUMPDEST DUP2 DUP2 LT ISZERO PUSH2 0x60E JUMPI PUSH2 0x603 PUSH0 DUP3 PUSH2 0x5D8 JUMP JUMPDEST PUSH1 0x1 DUP2 ADD SWAP1 POP PUSH2 0x5F1 JUMP JUMPDEST POP POP JUMP JUMPDEST PUSH1 0x1F DUP3 GT ISZERO PUSH2 0x653 JUMPI PUSH2 0x624 DUP2 PUSH2 0x4FE JUMP JUMPDEST PUSH2 0x62D DUP5 PUSH2 0x510 JUMP JUMPDEST DUP2 ADD PUSH1 0x20 DUP6 LT ISZERO PUSH2 0x63C JUMPI DUP2 SWAP1 POP JUMPDEST PUSH2 0x650 PUSH2 0x648 DUP6 PUSH2 0x510 JUMP JUMPDEST DUP4 ADD DUP3 PUSH2 0x5F0 JUMP JUMPDEST POP POP JUMPDEST POP POP POP JUMP JUMPDEST PUSH0 DUP3 DUP3 SHR SWAP1 POP SWAP3 SWAP2 POP POP JUMP JUMPDEST PUSH0 PUSH2 0x673 PUSH0 NOT DUP5 PUSH1 0x8 MUL PUSH2 0x658 JUMP JUMPDEST NOT DUP1 DUP4 AND SWAP2 POP POP SWAP3 SWAP2 POP POP JUMP JUMPDEST PUSH0 PUSH2 0x68B DUP4 DUP4 PUSH2 0x664 JUMP JUMPDEST SWAP2 POP DUP3 PUSH1 0x2 MUL DUP3 OR SWAP1 POP SWAP3 SWAP2 POP POP JUMP JUMPDEST PUSH2 0x6A4 DUP3 PUSH2 0x46A JUMP JUMPDEST PUSH8 0xFFFFFFFFFFFFFFFF DUP2 GT ISZERO PUSH2 0x6BD JUMPI PUSH2 0x6BC PUSH2 0x474 JUMP JUMPDEST JUMPDEST PUSH2 0x6C7 DUP3 SLOAD PUSH2 0x4CE JUMP JUMPDEST PUSH2 0x6D2 DUP3 DUP3 DUP6 PUSH2 0x612 JUMP JUMPDEST PUSH0 PUSH1 0x20 SWAP1 POP PUSH1 0x1F DUP4 GT PUSH1 0x1 DUP2 EQ PUSH2 0x703 JUMPI PUSH0 DUP5 ISZERO PUSH2 0x6F1 JUMPI DUP3 DUP8 ADD MLOAD SWAP1 POP JUMPDEST PUSH2 0x6FB DUP6 DUP3 PUSH2 0x680 JUMP JUMPDEST DUP7 SSTORE POP PUSH2 0x762 JUMP JUMPDEST PUSH1 0x1F NOT DUP5 AND PUSH2 0x711 DUP7 PUSH2 0x4FE JUMP JUMPDEST PUSH0 JUMPDEST DUP3 DUP2 LT ISZERO PUSH2 0x738 JUMPI DUP5 DUP10 ADD MLOAD DUP3 SSTORE PUSH1 0x1 DUP3 ADD SWAP2 POP PUSH1 0x20 DUP6 ADD SWAP5 POP PUSH1 0x20 DUP2 ADD SWAP1 POP PUSH2 0x713 JUMP JUMPDEST DUP7 DUP4 LT ISZERO PUSH2 0x755 JUMPI DUP5 DUP10 ADD MLOAD PUSH2 0x751 PUSH1 0x1F DUP10 AND DUP3 PUSH2 0x664 JUMP JUMPDEST DUP4 SSTORE POP JUMPDEST PUSH1 0x1 PUSH1 0x2 DUP9 MUL ADD DUP9 SSTORE POP POP POP JUMPDEST POP POP POP POP POP POP JUMP JUMPDEST PUSH32 0x4E487B7100000000000000000000000000000000000000000000000000000000 PUSH0 MSTORE PUSH1 0x11 PUSH1 0x4 MSTORE PUSH1 0x24 PUSH0 REVERT JUMPDEST PUSH0 DUP2 PUSH1 0x1 SHR SWAP1 POP SWAP2 SWAP1 POP JUMP JUMPDEST PUSH0 DUP1 DUP3 SWAP2 POP DUP4 SWAP1 POP JUMPDEST PUSH1 0x1 DUP6 GT ISZERO PUSH2 0x7EC JUMPI DUP1 DUP7 DIV DUP2 GT ISZERO PUSH2 0x7C8 JUMPI PUSH2 0x7C7 PUSH2 0x76A JUMP JUMPDEST JUMPDEST PUSH1 0x1 DUP6 AND ISZERO PUSH2 0x7D7 JUMPI DUP1 DUP3 MUL SWAP2 POP JUMPDEST DUP1 DUP2 MUL SWAP1 POP PUSH2 0x7E5 DUP6 PUSH2 0x797 JUMP JUMPDEST SWAP5 POP PUSH2 0x7AC JUMP JUMPDEST SWAP5 POP SWAP5 SWAP3 POP POP POP JUMP JUMPDEST PUSH0 DUP3 PUSH2 0x804 JUMPI PUSH1 0x1 SWAP1 POP PUSH2 0x8BF JUMP JUMPDEST DUP2 PUSH2 0x811 JUMPI PUSH0 SWAP1 POP PUSH2 0x8BF JUMP JUMPDEST DUP2 PUSH1 0x1 DUP2 EQ PUSH2 0x827 JUMPI PUSH1 0x2 DUP2 EQ PUSH2 0x831 JUMPI PUSH2 0x860 JUMP JUMPDEST PUSH1 0x1 SWAP2 POP POP PUSH2 0x8BF JUMP JUMPDEST PUSH1 0xFF DUP5 GT ISZERO PUSH2 0x843 JUMPI PUSH2 0x842 PUSH2 0x76A JUMP JUMPDEST JUMPDEST DUP4 PUSH1 0x2 EXP SWAP2 POP DUP5 DUP3 GT ISZERO PUSH2 0x85A JUMPI PUSH2 0x859 PUSH2 0x76A JUMP JUMPDEST JUMPDEST POP PUSH2 0x8BF JUMP JUMPDEST POP PUSH1 0x20 DUP4 LT PUSH2 0x133 DUP4 LT AND PUSH1 0x4E DUP5 LT PUSH1 0xB DUP5 LT AND OR ISZERO PUSH2 0x895 JUMPI DUP3 DUP3 EXP SWAP1 POP DUP4 DUP2 GT ISZERO PUSH2 0x890 JUMPI PUSH2 0x88F PUSH2 0x76A JUMP JUMPDEST JUMPDEST PUSH2 0x8BF JUMP JUMPDEST PUSH2 0x8A2 DUP5 DUP5 DUP5 PUSH1 0x1 PUSH2 0x7A3 JUMP JUMPDEST SWAP3 POP SWAP1 POP DUP2 DUP5 DIV DUP2 GT ISZERO PUSH2 0x8B9 JUMPI PUSH2 0x8B8 PUSH2 0x76A JUMP JUMPDEST JUMPDEST DUP2 DUP2 MUL SWAP1 POP JUMPDEST SWAP4 SWAP3 POP POP POP JUMP JUMPDEST PUSH0 PUSH1 0xFF DUP3 AND SWAP1 POP SWAP2 SWAP1 POP JUMP JUMPDEST PUSH0 PUSH2 0x8DC DUP3 PUSH2 0x40C JUMP JUMPDEST SWAP2 POP PUSH2 0x8E7 DUP4 PUSH2 0x8C6 JUMP JUMPDEST SWAP3 POP PUSH2 0x914 PUSH32 0xFFFFFFFFFFFFFFFFFFFFFFFFFFFFFFFFFFFFFFFFFFFFFFFFFFFFFFFFFFFFFFFF DUP5 DUP5 PUSH2 0x7F5 JUMP JUMPDEST SWAP1 POP SWAP3 SWAP2 POP POP JUMP JUMPDEST PUSH0 PUSH2 0x926 DUP3 PUSH2 0x40C JUMP JUMPDEST SWAP2 POP PUSH2 0x931 DUP4 PUSH2 0x40C JUMP JUMPDEST SWAP3 POP DUP3 DUP3 MUL PUSH2 0x93F DUP2 PUSH2 0x40C JUMP JUMPDEST SWAP2 POP DUP3 DUP3 DIV DUP5 EQ DUP4 ISZERO OR PUSH2 0x956 JUMPI PUSH2 0x955 PUSH2 0x76A JUMP JUMPDEST JUMPDEST POP SWAP3 SWAP2 POP POP JUMP JUMPDEST PUSH0 PUSH20 0xFFFFFFFFFFFFFFFFFFFFFFFFFFFFFFFFFFFFFFFF DUP3 AND SWAP1 POP SWAP2 SWAP1 POP JUMP JUMPDEST PUSH0 PUSH2 0x986 DUP3 PUSH2 0x95D JUMP JUMPDEST SWAP1 POP SWAP2 SWAP1 POP JUMP JUMPDEST PUSH2 0x996 DUP2 PUSH2 0x97C JUMP JUMPDEST DUP3 MSTORE POP POP JUMP JUMPDEST PUSH0 PUSH1 0x20 DUP3 ADD SWAP1 POP PUSH2 0x9AF PUSH0 DUP4 ADD DUP5 PUSH2 0x98D JUMP JUMPDEST SWAP3 SWAP2 POP POP JUMP JUMPDEST PUSH0 PUSH2 0x9BF DUP3 PUSH2 0x40C JUMP JUMPDEST SWAP2 POP PUSH2 0x9CA DUP4 PUSH2 0x40C JUMP JUMPDEST SWAP3 POP DUP3 DUP3 ADD SWAP1 POP DUP1 DUP3 GT ISZERO PUSH2 0x9E2 JUMPI PUSH2 0x9E1 PUSH2 0x76A JUMP JUMPDEST JUMPDEST SWAP3 SWAP2 POP POP JUMP JUMPDEST PUSH2 0x9F1 DUP2 PUSH2 0x40C JUMP JUMPDEST DUP3 MSTORE POP POP JUMP JUMPDEST PUSH0 PUSH1 0x60 DUP3 ADD SWAP1 POP PUSH2 0xA0A PUSH0 DUP4 ADD DUP7 PUSH2 0x98D JUMP JUMPDEST PUSH2 0xA17 PUSH1 0x20 DUP4 ADD DUP6 PUSH2 0x9E8 JUMP JUMPDEST PUSH2 0xA24 PUSH1 0x40 DUP4 ADD DUP5 PUSH2 0x9E8 JUMP JUMPDEST SWAP5 SWAP4 POP POP POP POP JUMP JUMPDEST PUSH0 PUSH1 0x20 DUP3 ADD SWAP1 POP PUSH2 0xA3F PUSH0 DUP4 ADD DUP5 PUSH2 0x9E8 JUMP JUMPDEST SWAP3 SWAP2 POP POP JUMP JUMPDEST PUSH2 0x2E51 DUP1 PUSH2 0xA52 PUSH0 CODECOPY PUSH0 RETURN INVALID PUSH1 0x80 PUSH1 0x40 MSTORE PUSH1 0x4 CALLDATASIZE LT PUSH2 0x19B JUMPI PUSH0 CALLDATALOAD PUSH1 0xE0 SHR DUP1 PUSH4 0x7FF9B596 GT PUSH2 0xEB JUMPI DUP1 PUSH4 0xCB8C0C1D GT PUSH2 0x89 JUMPI DUP1 PUSH4 0xDD62ED3E GT PUSH2 0x63 JUMPI DUP1 PUSH4 0xDD62ED3E EQ PUSH2 0x5A7 JUMPI DUP1 PUSH4 0xDE74E57B EQ PUSH2 0x5E3 JUMPI DUP1 PUSH4 0xF13E8331 EQ PUSH2 0x622 JUMPI DUP1 PUSH4 0xFBD9BE8B EQ PUSH2 0x65E JUMPI PUSH2 0x19B JUMP JUMPDEST DUP1 PUSH4 0xCB8C0C1D EQ PUSH2 0x51B JUMPI DUP1 PUSH4 0xD1DF306C EQ PUSH2 0x557 JUMPI DUP1 PUSH4 0xD22B2ED0 EQ PUSH2 0x57F JUMPI PUSH2 0x19B JUMP JUMPDEST DUP1 PUSH4 0xA9059CBB GT PUSH2 0xC5 JUMPI DUP1 PUSH4 0xA9059CBB EQ PUSH2 0x477 JUMPI DUP1 PUSH4 0xA9B07C26 EQ PUSH2 0x4B3 JUMPI DUP1 PUSH4 0xB6267AE8 EQ PUSH2 0x4DD JUMPI DUP1 PUSH4 0xBD3507DA EQ PUSH2 0x4F3 JUMPI PUSH2 0x19B JUMP JUMPDEST DUP1 PUSH4 0x7FF9B596 EQ PUSH2 0x407 JUMPI DUP1 PUSH4 0x95D89B41 EQ PUSH2 0x431 JUMPI DUP1 PUSH4 0x9A83DC3D EQ PUSH2 0x45B JUMPI PUSH2 0x19B JUMP JUMPDEST DUP1 PUSH4 0x313CE567 GT PUSH2 0x158 JUMPI DUP1 PUSH4 0x5FE01930 GT PUSH2 0x132 JUMPI DUP1 PUSH4 0x5FE01930 EQ PUSH2 0x35F JUMPI DUP1 PUSH4 0x692BF4A8 EQ PUSH2 0x387 JUMPI DUP1 PUSH4 0x6A61E5FC EQ PUSH2 0x3A3 JUMPI DUP1 PUSH4 0x70A08231 EQ PUSH2 0x3CB JUMPI PUSH2 0x19B JUMP JUMPDEST DUP1 PUSH4 0x313CE567 EQ PUSH2 0x2D1 JUMPI DUP1 PUSH4 0x4FAC0168 EQ PUSH2 0x2FB JUMPI DUP1 PUSH4 0x51E73A16 EQ PUSH2 0x337 JUMPI PUSH2 0x19B JUMP JUMPDEST DUP1 PUSH4 0x6FDDE03 EQ PUSH2 0x19F JUMPI DUP1 PUSH4 0x95EA7B3 EQ PUSH2 0x1C9 JUMPI DUP1 PUSH4 0xA8C8F20 EQ PUSH2 0x205 JUMPI DUP1 PUSH4 0x18160DDD EQ PUSH2 0x241 JUMPI DUP1 PUSH4 0x23B872DD EQ PUSH2 0x26B JUMPI DUP1 PUSH4 0x2EA665CD EQ PUSH2 0x2A7 JUMPI JUMPDEST PUSH0 DUP1 REVERT JUMPDEST CALLVALUE DUP1 ISZERO PUSH2 0x1AA JUMPI PUSH0 DUP1 REVERT JUMPDEST POP PUSH2 0x1B3 PUSH2 0x686 JUMP JUMPDEST PUSH1 0x40 MLOAD PUSH2 0x1C0 SWAP2 SWAP1 PUSH2 0x1F10 JUMP JUMPDEST PUSH1 0x40 MLOAD DUP1 SWAP2 SUB SWAP1 RETURN JUMPDEST CALLVALUE DUP1 ISZERO PUSH2 0x1D4 JUMPI PUSH0 DUP1 REVERT JUMPDEST POP PUSH2 0x1EF PUSH1 0x4 DUP1 CALLDATASIZE SUB DUP2 ADD SWAP1 PUSH2 0x1EA SWAP2 SWAP1 PUSH2 0x1FC1 JUMP JUMPDEST PUSH2 0x716 JUMP JUMPDEST PUSH1 0x40 MLOAD PUSH2 0x1FC SWAP2 SWAP1 PUSH2 0x2019 JUMP JUMPDEST PUSH1 0x40 MLOAD DUP1 SWAP2 SUB SWAP1 RETURN JUMPDEST CALLVALUE DUP1 ISZERO PUSH2 0x210 JUMPI PUSH0 DUP1 REVERT JUMPDEST POP PUSH2 0x22B PUSH1 0x4 DUP1 CALLDATASIZE SUB DUP2 ADD SWAP1 PUSH2 0x226 SWAP2 SWAP1 PUSH2 0x2032 JUMP JUMPDEST PUSH2 0x738 JUMP JUMPDEST PUSH1 0x40 MLOAD PUSH2 0x238 SWAP2 SWAP1 PUSH2 0x2019 JUMP JUMPDEST PUSH1 0x40 MLOAD DUP1 SWAP2 SUB SWAP1 RETURN JUMPDEST CALLVALUE DUP1 ISZERO PUSH2 0x24C JUMPI PUSH0 DUP1 REVERT JUMPDEST POP PUSH2 0x255 PUSH2 0x755 JUMP JUMPDEST PUSH1 0x40 MLOAD PUSH2 0x262 SWAP2 SWAP1 PUSH2 0x206C JUMP JUMPDEST PUSH1 0x40 MLOAD DUP1 SWAP2 SUB SWAP1 RETURN JUMPDEST CALLVALUE DUP1 ISZERO PUSH2 0x276 JUMPI PUSH0 DUP1 REVERT JUMPDEST POP PUSH2 0x291 PUSH1 0x4 DUP1 CALLDATASIZE SUB DUP2 ADD SWAP1 PUSH2 0x28C SWAP2 SWAP1 PUSH2 0x2085 JUMP JUMPDEST PUSH2 0x75E JUMP JUMPDEST PUSH1 0x40 MLOAD PUSH2 0x29E SWAP2 SWAP1 PUSH2 0x2019 JUMP JUMPDEST PUSH1 0x40 MLOAD DUP1 SWAP2 SUB SWAP1 RETURN JUMPDEST CALLVALUE DUP1 ISZERO PUSH2 0x2B2 JUMPI PUSH0 DUP1 REVERT JUMPDEST POP PUSH2 0x2BB PUSH2 0x78C JUMP JUMPDEST PUSH1 0x40 MLOAD PUSH2 0x2C8 SWAP2 SWAP1 PUSH2 0x20F5 JUMP JUMPDEST PUSH1 0x40 MLOAD DUP1 SWAP2 SUB SWAP1 RETURN JUMPDEST CALLVALUE DUP1 ISZERO PUSH2 0x2DC JUMPI PUSH0 DUP1 REVERT JUMPDEST POP PUSH2 0x2E5 PUSH2 0x7B1 JUMP JUMPDEST PUSH1 0x40 MLOAD PUSH2 0x2F2 SWAP2 SWAP1 PUSH2 0x2129 JUMP JUMPDEST PUSH1 0x40 MLOAD DUP1 SWAP2 SUB SWAP1 RETURN JUMPDEST CALLVALUE DUP1 ISZERO PUSH2 0x306 JUMPI PUSH0 DUP1 REVERT JUMPDEST POP PUSH2 0x321 PUSH1 0x4 DUP1 CALLDATASIZE SUB DUP2 ADD SWAP1 PUSH2 0x31C SWAP2 SWAP1 PUSH2 0x2032 JUMP JUMPDEST PUSH2 0x7B9 JUMP JUMPDEST PUSH1 0x40 MLOAD PUSH2 0x32E SWAP2 SWAP1 PUSH2 0x2019 JUMP JUMPDEST PUSH1 0x40 MLOAD DUP1 SWAP2 SUB SWAP1 RETURN JUMPDEST CALLVALUE DUP1 ISZERO PUSH2 0x342 JUMPI PUSH0 DUP1 REVERT JUMPDEST POP PUSH2 0x35D PUSH1 0x4 DUP1 CALLDATASIZE SUB DUP2 ADD SWAP1 PUSH2 0x358 SWAP2 SWAP1 PUSH2 0x2142 JUMP JUMPDEST PUSH2 0x7D6 JUMP JUMPDEST STOP JUMPDEST CALLVALUE DUP1 ISZERO PUSH2 0x36A JUMPI PUSH0 DUP1 REVERT JUMPDEST POP PUSH2 0x385 PUSH1 0x4 DUP1 CALLDATASIZE SUB DUP2 ADD SWAP1 PUSH2 0x380 SWAP2 SWAP1 PUSH2 0x2032 JUMP JUMPDEST PUSH2 0xA16 JUMP JUMPDEST STOP JUMPDEST PUSH2 0x3A1 PUSH1 0x4 DUP1 CALLDATASIZE SUB DUP2 ADD SWAP1 PUSH2 0x39C SWAP2 SWAP1 PUSH2 0x21BC JUMP JUMPDEST PUSH2 0xA6E JUMP JUMPDEST STOP JUMPDEST CALLVALUE DUP1 ISZERO PUSH2 0x3AE JUMPI PUSH0 DUP1 REVERT JUMPDEST POP PUSH2 0x3C9 PUSH1 0x4 DUP1 CALLDATASIZE SUB DUP2 ADD SWAP1 PUSH2 0x3C4 SWAP2 SWAP1 PUSH2 0x220C JUMP JUMPDEST PUSH2 0xD70 JUMP JUMPDEST STOP JUMPDEST CALLVALUE DUP1 ISZERO PUSH2 0x3D6 JUMPI PUSH0 DUP1 REVERT JUMPDEST POP PUSH2 0x3F1 PUSH1 0x4 DUP1 CALLDATASIZE SUB DUP2 ADD SWAP1 PUSH2 0x3EC SWAP2 SWAP1 PUSH2 0x2032 JUMP JUMPDEST PUSH2 0xE0A JUMP JUMPDEST PUSH1 0x40 MLOAD PUSH2 0x3FE SWAP2 SWAP1 PUSH2 0x206C JUMP JUMPDEST PUSH1 0x40 MLOAD DUP1 SWAP2 SUB SWAP1 RETURN JUMPDEST CALLVALUE DUP1 ISZERO PUSH2 0x412 JUMPI PUSH0 DUP1 REVERT JUMPDEST POP PUSH2 0x41B PUSH2 0xE4F JUMP JUMPDEST PUSH1 0x40 MLOAD PUSH2 0x428 SWAP2 SWAP1 PUSH2 0x206C JUMP JUMPDEST PUSH1 0x40 MLOAD DUP1 SWAP2 SUB SWAP1 RETURN JUMPDEST CALLVALUE DUP1 ISZERO PUSH2 0x43C JUMPI PUSH0 DUP1 REVERT JUMPDEST POP PUSH2 0x445 PUSH2 0xE55 JUMP JUMPDEST PUSH1 0x40 MLOAD PUSH2 0x452 SWAP2 SWAP1 PUSH2 0x1F10 JUMP JUMPDEST PUSH1 0x40 MLOAD DUP1 SWAP2 SUB SWAP1 RETURN JUMPDEST PUSH2 0x475 PUSH1 0x4 DUP1 CALLDATASIZE SUB DUP2 ADD SWAP1 PUSH2 0x470 SWAP2 SWAP1 PUSH2 0x220C JUMP JUMPDEST PUSH2 0xEE5 JUMP JUMPDEST STOP JUMPDEST CALLVALUE DUP1 ISZERO PUSH2 0x482 JUMPI PUSH0 DUP1 REVERT JUMPDEST POP PUSH2 0x49D PUSH1 0x4 DUP1 CALLDATASIZE SUB DUP2 ADD SWAP1 PUSH2 0x498 SWAP2 SWAP1 PUSH2 0x1FC1 JUMP JUMPDEST PUSH2 0x1184 JUMP JUMPDEST PUSH1 0x40 MLOAD PUSH2 0x4AA SWAP2 SWAP1 PUSH2 0x2019 JUMP JUMPDEST PUSH1 0x40 MLOAD DUP1 SWAP2 SUB SWAP1 RETURN JUMPDEST CALLVALUE DUP1 ISZERO PUSH2 0x4BE JUMPI PUSH0 DUP1 REVERT JUMPDEST POP PUSH2 0x4C7 PUSH2 0x11A6 JUMP JUMPDEST PUSH1 0x40 MLOAD PUSH2 0x4D4 SWAP2 SWAP1 PUSH2 0x206C JUMP JUMPDEST PUSH1 0x40 MLOAD DUP1 SWAP2 SUB SWAP1 RETURN JUMPDEST CALLVALUE DUP1 ISZERO PUSH2 0x4E8 JUMPI PUSH0 DUP1 REVERT JUMPDEST POP PUSH2 0x4F1 PUSH2 0x11AC JUMP JUMPDEST STOP JUMPDEST CALLVALUE DUP1 ISZERO PUSH2 0x4FE JUMPI PUSH0 DUP1 REVERT JUMPDEST POP PUSH2 0x519 PUSH1 0x4 DUP1 CALLDATASIZE SUB DUP2 ADD SWAP1 PUSH2 0x514 SWAP2 SWAP1 PUSH2 0x220C JUMP JUMPDEST PUSH2 0x128D JUMP JUMPDEST STOP JUMPDEST CALLVALUE DUP1 ISZERO PUSH2 0x526 JUMPI PUSH0 DUP1 REVERT JUMPDEST POP PUSH2 0x541 PUSH1 0x4 DUP1 CALLDATASIZE SUB DUP2 ADD SWAP1 PUSH2 0x53C SWAP2 SWAP1 PUSH2 0x2032 JUMP JUMPDEST PUSH2 0x1383 JUMP JUMPDEST PUSH1 0x40 MLOAD PUSH2 0x54E SWAP2 SWAP1 PUSH2 0x206C JUMP JUMPDEST PUSH1 0x40 MLOAD DUP1 SWAP2 SUB SWAP1 RETURN JUMPDEST CALLVALUE DUP1 ISZERO PUSH2 0x562 JUMPI PUSH0 DUP1 REVERT JUMPDEST POP PUSH2 0x57D PUSH1 0x4 DUP1 CALLDATASIZE SUB DUP2 ADD SWAP1 PUSH2 0x578 SWAP2 SWAP1 PUSH2 0x1FC1 JUMP JUMPDEST PUSH2 0x1398 JUMP JUMPDEST STOP JUMPDEST CALLVALUE DUP1 ISZERO PUSH2 0x58A JUMPI PUSH0 DUP1 REVERT JUMPDEST POP PUSH2 0x5A5 PUSH1 0x4 DUP1 CALLDATASIZE SUB DUP2 ADD SWAP1 PUSH2 0x5A0 SWAP2 SWAP1 PUSH2 0x2032 JUMP JUMPDEST PUSH2 0x142D JUMP JUMPDEST STOP JUMPDEST CALLVALUE DUP1 ISZERO PUSH2 0x5B2 JUMPI PUSH0 DUP1 REVERT JUMPDEST POP PUSH2 0x5CD PUSH1 0x4 DUP1 CALLDATASIZE SUB DUP2 ADD SWAP1 PUSH2 0x5C8 SWAP2 SWAP1 PUSH2 0x2237 JUMP JUMPDEST PUSH2 0x14AF JUMP JUMPDEST PUSH1 0x40 MLOAD PUSH2 0x5DA SWAP2 SWAP1 PUSH2 0x206C JUMP JUMPDEST PUSH1 0x40 MLOAD DUP1 SWAP2 SUB SWAP1 RETURN JUMPDEST CALLVALUE DUP1 ISZERO PUSH2 0x5EE JUMPI PUSH0 DUP1 REVERT JUMPDEST POP PUSH2 0x609 PUSH1 0x4 DUP1 CALLDATASIZE SUB DUP2 ADD SWAP1 PUSH2 0x604 SWAP2 SWAP1 PUSH2 0x220C JUMP JUMPDEST PUSH2 0x1531 JUMP JUMPDEST PUSH1 0x40 MLOAD PUSH2 0x619 SWAP5 SWAP4 SWAP3 SWAP2 SWAP1 PUSH2 0x2284 JUMP JUMPDEST PUSH1 0x40 MLOAD DUP1 SWAP2 SUB SWAP1 RETURN JUMPDEST CALLVALUE DUP1 ISZERO PUSH2 0x62D JUMPI PUSH0 DUP1 REVERT JUMPDEST POP PUSH2 0x648 PUSH1 0x4 DUP1 CALLDATASIZE SUB DUP2 ADD SWAP1 PUSH2 0x643 SWAP2 SWAP1 PUSH2 0x2032 JUMP JUMPDEST PUSH2 0x1588 JUMP JUMPDEST PUSH1 0x40 MLOAD PUSH2 0x655 SWAP2 SWAP1 PUSH2 0x2019 JUMP JUMPDEST PUSH1 0x40 MLOAD DUP1 SWAP2 SUB SWAP1 RETURN JUMPDEST CALLVALUE DUP1 ISZERO PUSH2 0x669 JUMPI PUSH0 DUP1 REVERT JUMPDEST POP PUSH2 0x684 PUSH1 0x4 DUP1 CALLDATASIZE SUB DUP2 ADD SWAP1 PUSH2 0x67F SWAP2 SWAP1 PUSH2 0x22C7 JUMP JUMPDEST PUSH2 0x15A5 JUMP JUMPDEST STOP JUMPDEST PUSH1 0x60 PUSH1 0x3 DUP1 SLOAD PUSH2 0x695 SWAP1 PUSH2 0x2332 JUMP JUMPDEST DUP1 PUSH1 0x1F ADD PUSH1 0x20 DUP1 SWAP2 DIV MUL PUSH1 0x20 ADD PUSH1 0x40 MLOAD SWAP1 DUP2 ADD PUSH1 0x40 MSTORE DUP1 SWAP3 SWAP2 SWAP1 DUP2 DUP2 MSTORE PUSH1 0x20 ADD DUP3 DUP1 SLOAD PUSH2 0x6C1 SWAP1 PUSH2 0x2332 JUMP JUMPDEST DUP1 ISZERO PUSH2 0x70C JUMPI DUP1 PUSH1 0x1F LT PUSH2 0x6E3 JUMPI PUSH2 0x100 DUP1 DUP4 SLOAD DIV MUL DUP4 MSTORE SWAP2 PUSH1 0x20 ADD SWAP2 PUSH2 0x70C JUMP JUMPDEST DUP3 ADD SWAP2 SWAP1 PUSH0 MSTORE PUSH1 0x20 PUSH0 KECCAK256 SWAP1 JUMPDEST DUP2 SLOAD DUP2 MSTORE SWAP1 PUSH1 0x1 ADD SWAP1 PUSH1 0x20 ADD DUP1 DUP4 GT PUSH2 0x6EF JUMPI DUP3 SWAP1 SUB PUSH1 0x1F AND DUP3 ADD SWAP2 JUMPDEST POP POP POP POP POP SWAP1 POP SWAP1 JUMP JUMPDEST PUSH0 DUP1 PUSH2 0x720 PUSH2 0x181F JUMP JUMPDEST SWAP1 POP PUSH2 0x72D DUP2 DUP6 DUP6 PUSH2 0x1826 JUMP JUMPDEST PUSH1 0x1 SWAP2 POP POP SWAP3 SWAP2 POP POP JUMP JUMPDEST PUSH1 0x8 PUSH1 0x20 MSTORE DUP1 PUSH0 MSTORE PUSH1 0x40 PUSH0 KECCAK256 PUSH0 SWAP2 POP SLOAD SWAP1 PUSH2 0x100 EXP SWAP1 DIV PUSH1 0xFF AND DUP2 JUMP JUMPDEST PUSH0 PUSH1 0x2 SLOAD SWAP1 POP SWAP1 JUMP JUMPDEST PUSH0 DUP1 PUSH2 0x768 PUSH2 0x181F JUMP JUMPDEST SWAP1 POP PUSH2 0x775 DUP6 DUP3 DUP6 PUSH2 0x1838 JUMP JUMPDEST PUSH2 0x780 DUP6 DUP6 DUP6 PUSH2 0x18CA JUMP JUMPDEST PUSH1 0x1 SWAP2 POP POP SWAP4 SWAP3 POP POP POP JUMP JUMPDEST PUSH1 0x5 PUSH0 SWAP1 SLOAD SWAP1 PUSH2 0x100 EXP SWAP1 DIV PUSH20 0xFFFFFFFFFFFFFFFFFFFFFFFFFFFFFFFFFFFFFFFF AND DUP2 JUMP JUMPDEST PUSH0 PUSH1 0x12 SWAP1 POP SWAP1 JUMP JUMPDEST PUSH1 0x9 PUSH1 0x20 MSTORE DUP1 PUSH0 MSTORE PUSH1 0x40 PUSH0 KECCAK256 PUSH0 SWAP2 POP SLOAD SWAP1 PUSH2 0x100 EXP SWAP1 DIV PUSH1 0xFF AND DUP2 JUMP JUMPDEST PUSH1 0x1 ISZERO ISZERO PUSH1 0x7 PUSH0 CALLER PUSH20 0xFFFFFFFFFFFFFFFFFFFFFFFFFFFFFFFFFFFFFFFF AND PUSH20 0xFFFFFFFFFFFFFFFFFFFFFFFFFFFFFFFFFFFFFFFF AND DUP2 MSTORE PUSH1 0x20 ADD SWAP1 DUP2 MSTORE PUSH1 0x20 ADD PUSH0 KECCAK256 PUSH0 SWAP1 SLOAD SWAP1 PUSH2 0x100 EXP SWAP1 DIV PUSH1 0xFF AND ISZERO ISZERO EQ PUSH2 0x866 JUMPI PUSH1 0x40 MLOAD PUSH32 0x8C379A000000000000000000000000000000000000000000000000000000000 DUP2 MSTORE PUSH1 0x4 ADD PUSH2 0x85D SWAP1 PUSH2 0x23D2 JUMP JUMPDEST PUSH1 0x40 MLOAD DUP1 SWAP2 SUB SWAP1 REVERT JUMPDEST PUSH0 PUSH20 0xFFFFFFFFFFFFFFFFFFFFFFFFFFFFFFFFFFFFFFFF AND DUP4 PUSH20 0xFFFFFFFFFFFFFFFFFFFFFFFFFFFFFFFFFFFFFFFF AND SUB PUSH2 0x8D4 JUMPI PUSH1 0x40 MLOAD PUSH32 0x8C379A000000000000000000000000000000000000000000000000000000000 DUP2 MSTORE PUSH1 0x4 ADD PUSH2 0x8CB SWAP1 PUSH2 0x243A JUMP JUMPDEST PUSH1 0x40 MLOAD DUP1 SWAP2 SUB SWAP1 REVERT JUMPDEST PUSH1 0x1 ISZERO ISZERO PUSH1 0x8 PUSH0 DUP6 PUSH20 0xFFFFFFFFFFFFFFFFFFFFFFFFFFFFFFFFFFFFFFFF AND PUSH20 0xFFFFFFFFFFFFFFFFFFFFFFFFFFFFFFFFFFFFFFFF AND DUP2 MSTORE PUSH1 0x20 ADD SWAP1 DUP2 MSTORE PUSH1 0x20 ADD PUSH0 KECCAK256 PUSH0 SWAP1 SLOAD SWAP1 PUSH2 0x100 EXP SWAP1 DIV PUSH1 0xFF AND ISZERO ISZERO EQ PUSH2 0x964 JUMPI PUSH1 0x40 MLOAD PUSH32 0x8C379A000000000000000000000000000000000000000000000000000000000 DUP2 MSTORE PUSH1 0x4 ADD PUSH2 0x95B SWAP1 PUSH2 0x24C8 JUMP JUMPDEST PUSH1 0x40 MLOAD DUP1 SWAP2 SUB SWAP1 REVERT JUMPDEST PUSH0 DUP2 GT PUSH2 0x9A6 JUMPI PUSH1 0x40 MLOAD PUSH32 0x8C379A000000000000000000000000000000000000000000000000000000000 DUP2 MSTORE PUSH1 0x4 ADD PUSH2 0x99D SWAP1 PUSH2 0x2556 JUMP JUMPDEST PUSH1 0x40 MLOAD DUP1 SWAP2 SUB SWAP1 REVERT JUMPDEST DUP2 PUSH1 0xA PUSH0 DUP6 PUSH20 0xFFFFFFFFFFFFFFFFFFFFFFFFFFFFFFFFFFFFFFFF AND PUSH20 0xFFFFFFFFFFFFFFFFFFFFFFFFFFFFFFFFFFFFFFFF AND DUP2 MSTORE PUSH1 0x20 ADD SWAP1 DUP2 MSTORE PUSH1 0x20 ADD PUSH0 KECCAK256 DUP2 SWAP1 SSTORE POP PUSH2 0xA11 CALLER DUP5 PUSH2 0x9F5 PUSH2 0x7B1 JUMP JUMPDEST PUSH1 0xA PUSH2 0xA01 SWAP2 SWAP1 PUSH2 0x26D0 JUMP JUMPDEST DUP5 PUSH2 0xA0C SWAP2 SWAP1 PUSH2 0x271A JUMP JUMPDEST PUSH2 0x18CA JUMP JUMPDEST POP POP POP JUMP JUMPDEST PUSH1 0x1 PUSH1 0x8 PUSH0 DUP4 PUSH20 0xFFFFFFFFFFFFFFFFFFFFFFFFFFFFFFFFFFFFFFFF AND PUSH20 0xFFFFFFFFFFFFFFFFFFFFFFFFFFFFFFFFFFFFFFFF AND DUP2 MSTORE PUSH1 0x20 ADD SWAP1 DUP2 MSTORE PUSH1 0x20 ADD PUSH0 KECCAK256 PUSH0 PUSH2 0x100 EXP DUP2 SLOAD DUP2 PUSH1 0xFF MUL NOT AND SWAP1 DUP4 ISZERO ISZERO MUL OR SWAP1 SSTORE POP POP JUMP JUMPDEST PUSH1 0x1 ISZERO ISZERO PUSH1 0x8 PUSH0 CALLER PUSH20 0xFFFFFFFFFFFFFFFFFFFFFFFFFFFFFFFFFFFFFFFF AND PUSH20 0xFFFFFFFFFFFFFFFFFFFFFFFFFFFFFFFFFFFFFFFF AND DUP2 MSTORE PUSH1 0x20 ADD SWAP1 DUP2 MSTORE PUSH1 0x20 ADD PUSH0 KECCAK256 PUSH0 SWAP1 SLOAD SWAP1 PUSH2 0x100 EXP SWAP1 DIV PUSH1 0xFF AND ISZERO ISZERO EQ PUSH2 0xAFE JUMPI PUSH1 0x40 MLOAD PUSH32 0x8C379A000000000000000000000000000000000000000000000000000000000 DUP2 MSTORE PUSH1 0x4 ADD PUSH2 0xAF5 SWAP1 PUSH2 0x27CB JUMP JUMPDEST PUSH1 0x40 MLOAD DUP1 SWAP2 SUB SWAP1 REVERT JUMPDEST PUSH0 DUP3 GT PUSH2 0xB40 JUMPI PUSH1 0x40 MLOAD PUSH32 0x8C379A000000000000000000000000000000000000000000000000000000000 DUP2 MSTORE PUSH1 0x4 ADD PUSH2 0xB37 SWAP1 PUSH2 0x2859 JUMP JUMPDEST PUSH1 0x40 MLOAD DUP1 SWAP2 SUB SWAP1 REVERT JUMPDEST CALLVALUE DUP3 PUSH1 0x6 SLOAD PUSH2 0xB4F SWAP2 SWAP1 PUSH2 0x271A JUMP JUMPDEST EQ PUSH2 0xB8F JUMPI PUSH1 0x40 MLOAD PUSH32 0x8C379A000000000000000000000000000000000000000000000000000000000 DUP2 MSTORE PUSH1 0x4 ADD PUSH2 0xB86 SWAP1 PUSH2 0x28C1 JUMP JUMPDEST PUSH1 0x40 MLOAD DUP1 SWAP2 SUB SWAP1 REVERT JUMPDEST DUP2 PUSH1 0xA PUSH0 DUP6 PUSH20 0xFFFFFFFFFFFFFFFFFFFFFFFFFFFFFFFFFFFFFFFF AND PUSH20 0xFFFFFFFFFFFFFFFFFFFFFFFFFFFFFFFFFFFFFFFF AND DUP2 MSTORE PUSH1 0x20 ADD SWAP1 DUP2 MSTORE PUSH1 0x20 ADD PUSH0 KECCAK256 SLOAD LT ISZERO PUSH2 0xC0F JUMPI PUSH1 0x40 MLOAD PUSH32 0x8C379A000000000000000000000000000000000000000000000000000000000 DUP2 MSTORE PUSH1 0x4 ADD PUSH2 0xC06 SWAP1 PUSH2 0x2929 JUMP JUMPDEST PUSH1 0x40 MLOAD DUP1 SWAP2 SUB SWAP1 REVERT JUMPDEST PUSH2 0xC37 DUP4 PUSH2 0xC1B PUSH2 0x7B1 JUMP JUMPDEST PUSH1 0xA PUSH2 0xC27 SWAP2 SWAP1 PUSH2 0x26D0 JUMP JUMPDEST DUP5 PUSH2 0xC32 SWAP2 SWAP1 PUSH2 0x271A JUMP JUMPDEST PUSH2 0x19BA JUMP JUMPDEST DUP1 PUSH20 0xFFFFFFFFFFFFFFFFFFFFFFFFFFFFFFFFFFFFFFFF AND PUSH2 0x8FC CALLVALUE SWAP1 DUP2 ISZERO MUL SWAP1 PUSH1 0x40 MLOAD PUSH0 PUSH1 0x40 MLOAD DUP1 DUP4 SUB DUP2 DUP6 DUP9 DUP9 CALL SWAP4 POP POP POP POP ISZERO DUP1 ISZERO PUSH2 0xC7A JUMPI RETURNDATASIZE PUSH0 DUP1 RETURNDATACOPY RETURNDATASIZE PUSH0 REVERT JUMPDEST POP DUP2 PUSH1 0xA PUSH0 DUP6 PUSH20 0xFFFFFFFFFFFFFFFFFFFFFFFFFFFFFFFFFFFFFFFF AND PUSH20 0xFFFFFFFFFFFFFFFFFFFFFFFFFFFFFFFFFFFFFFFF AND DUP2 MSTORE PUSH1 0x20 ADD SWAP1 DUP2 MSTORE PUSH1 0x20 ADD PUSH0 KECCAK256 SLOAD PUSH2 0xCC4 SWAP2 SWAP1 PUSH2 0x2947 JUMP JUMPDEST PUSH1 0xA PUSH0 DUP6 PUSH20 0xFFFFFFFFFFFFFFFFFFFFFFFFFFFFFFFFFFFFFFFF AND PUSH20 0xFFFFFFFFFFFFFFFFFFFFFFFFFFFFFFFFFFFFFFFF AND DUP2 MSTORE PUSH1 0x20 ADD SWAP1 DUP2 MSTORE PUSH1 0x20 ADD PUSH0 KECCAK256 DUP2 SWAP1 SSTORE POP DUP2 DUP2 PUSH20 0xFFFFFFFFFFFFFFFFFFFFFFFFFFFFFFFFFFFFFFFF AND DUP5 PUSH20 0xFFFFFFFFFFFFFFFFFFFFFFFFFFFFFFFFFFFFFFFF AND PUSH32 0x5FC4872A04FC9EF9E80A6593DB4A82874EA60FBC1F93BD4D0B7A00D4AA8AE556 CALLVALUE PUSH1 0x40 MLOAD PUSH2 0xD63 SWAP2 SWAP1 PUSH2 0x206C JUMP JUMPDEST PUSH1 0x40 MLOAD DUP1 SWAP2 SUB SWAP1 LOG4 POP POP POP JUMP JUMPDEST PUSH1 0x1 ISZERO ISZERO PUSH1 0x7 PUSH0 CALLER PUSH20 0xFFFFFFFFFFFFFFFFFFFFFFFFFFFFFFFFFFFFFFFF AND PUSH20 0xFFFFFFFFFFFFFFFFFFFFFFFFFFFFFFFFFFFFFFFF AND DUP2 MSTORE PUSH1 0x20 ADD SWAP1 DUP2 MSTORE PUSH1 0x20 ADD PUSH0 KECCAK256 PUSH0 SWAP1 SLOAD SWAP1 PUSH2 0x100 EXP SWAP1 DIV PUSH1 0xFF AND ISZERO ISZERO EQ PUSH2 0xE00 JUMPI PUSH1 0x40 MLOAD PUSH32 0x8C379A000000000000000000000000000000000000000000000000000000000 DUP2 MSTORE PUSH1 0x4 ADD PUSH2 0xDF7 SWAP1 PUSH2 0x23D2 JUMP JUMPDEST PUSH1 0x40 MLOAD DUP1 SWAP2 SUB SWAP1 REVERT JUMPDEST DUP1 PUSH1 0x6 DUP2 SWAP1 SSTORE POP POP JUMP JUMPDEST PUSH0 DUP1 PUSH0 DUP4 PUSH20 0xFFFFFFFFFFFFFFFFFFFFFFFFFFFFFFFFFFFFFFFF AND PUSH20 0xFFFFFFFFFFFFFFFFFFFFFFFFFFFFFFFFFFFFFFFF AND DUP2 MSTORE PUSH1 0x20 ADD SWAP1 DUP2 MSTORE PUSH1 0x20 ADD PUSH0 KECCAK256 SLOAD SWAP1 POP SWAP2 SWAP1 POP JUMP JUMPDEST PUSH1 0x6 SLOAD DUP2 JUMP JUMPDEST PUSH1 0x60 PUSH1 0x4 DUP1 SLOAD PUSH2 0xE64 SWAP1 PUSH2 0x2332 JUMP JUMPDEST DUP1 PUSH1 0x1F ADD PUSH1 0x20 DUP1 SWAP2 DIV MUL PUSH1 0x20 ADD PUSH1 0x40 MLOAD SWAP1 DUP2 ADD PUSH1 0x40 MSTORE DUP1 SWAP3 SWAP2 SWAP1 DUP2 DUP2 MSTORE PUSH1 0x20 ADD DUP3 DUP1 SLOAD PUSH2 0xE90 SWAP1 PUSH2 0x2332 JUMP JUMPDEST DUP1 ISZERO PUSH2 0xEDB JUMPI DUP1 PUSH1 0x1F LT PUSH2 0xEB2 JUMPI PUSH2 0x100 DUP1 DUP4 SLOAD DIV MUL DUP4 MSTORE SWAP2 PUSH1 0x20 ADD SWAP2 PUSH2 0xEDB JUMP JUMPDEST DUP3 ADD SWAP2 SWAP1 PUSH0 MSTORE PUSH1 0x20 PUSH0 KECCAK256 SWAP1 JUMPDEST DUP2 SLOAD DUP2 MSTORE SWAP1 PUSH1 0x1 ADD SWAP1 PUSH1 0x20 ADD DUP1 DUP4 GT PUSH2 0xEBE JUMPI DUP3 SWAP1 SUB PUSH1 0x1F AND DUP3 ADD SWAP2 JUMPDEST POP POP POP POP POP SWAP1 POP SWAP1 JUMP JUMPDEST PUSH1 0x1 ISZERO ISZERO PUSH1 0x8 PUSH0 CALLER PUSH20 0xFFFFFFFFFFFFFFFFFFFFFFFFFFFFFFFFFFFFFFFF AND PUSH20 0xFFFFFFFFFFFFFFFFFFFFFFFFFFFFFFFFFFFFFFFF AND DUP2 MSTORE PUSH1 0x20 ADD SWAP1 DUP2 MSTORE PUSH1 0x20 ADD PUSH0 KECCAK256 PUSH0 SWAP1 SLOAD SWAP1 PUSH2 0x100 EXP SWAP1 DIV PUSH1 0xFF AND ISZERO ISZERO EQ PUSH2 0xF75 JUMPI PUSH1 0x40 MLOAD PUSH32 0x8C379A000000000000000000000000000000000000000000000000000000000 DUP2 MSTORE PUSH1 0x4 ADD PUSH2 0xF6C SWAP1 PUSH2 0x27CB JUMP JUMPDEST PUSH1 0x40 MLOAD DUP1 SWAP2 SUB SWAP1 REVERT JUMPDEST PUSH0 PUSH1 0xB PUSH0 DUP4 DUP2 MSTORE PUSH1 0x20 ADD SWAP1 DUP2 MSTORE PUSH1 0x20 ADD PUSH0 KECCAK256 SWAP1 POP DUP1 PUSH1 0x3 ADD PUSH0 SWAP1 SLOAD SWAP1 PUSH2 0x100 EXP SWAP1 DIV PUSH1 0xFF AND PUSH2 0xFD9 JUMPI PUSH1 0x40 MLOAD PUSH32 0x8C379A000000000000000000000000000000000000000000000000000000000 DUP2 MSTORE PUSH1 0x4 ADD PUSH2 0xFD0 SWAP1 PUSH2 0x29C4 JUMP JUMPDEST PUSH1 0x40 MLOAD DUP1 SWAP2 SUB SWAP1 REVERT JUMPDEST DUP1 PUSH1 0x2 ADD SLOAD CALLVALUE EQ PUSH2 0x101F JUMPI PUSH1 0x40 MLOAD PUSH32 0x8C379A000000000000000000000000000000000000000000000000000000000 DUP2 MSTORE PUSH1 0x4 ADD PUSH2 0x1016 SWAP1 PUSH2 0x2A2C JUMP JUMPDEST PUSH1 0x40 MLOAD DUP1 SWAP2 SUB SWAP1 REVERT JUMPDEST PUSH2 0x106E DUP2 PUSH0 ADD PUSH0 SWAP1 SLOAD SWAP1 PUSH2 0x100 EXP SWAP1 DIV PUSH20 0xFFFFFFFFFFFFFFFFFFFFFFFFFFFFFFFFFFFFFFFF AND CALLER PUSH2 0x104E PUSH2 0x7B1 JUMP JUMPDEST PUSH1 0xA PUSH2 0x105A SWAP2 SWAP1 PUSH2 0x26D0 JUMP JUMPDEST DUP5 PUSH1 0x1 ADD SLOAD PUSH2 0x1069 SWAP2 SWAP1 PUSH2 0x271A JUMP JUMPDEST PUSH2 0x18CA JUMP JUMPDEST DUP1 PUSH0 ADD PUSH0 SWAP1 SLOAD SWAP1 PUSH2 0x100 EXP SWAP1 DIV PUSH20 0xFFFFFFFFFFFFFFFFFFFFFFFFFFFFFFFFFFFFFFFF AND PUSH20 0xFFFFFFFFFFFFFFFFFFFFFFFFFFFFFFFFFFFFFFFF AND PUSH2 0x8FC CALLVALUE SWAP1 DUP2 ISZERO MUL SWAP1 PUSH1 0x40 MLOAD PUSH0 PUSH1 0x40 MLOAD DUP1 DUP4 SUB DUP2 DUP6 DUP9 DUP9 CALL SWAP4 POP POP POP POP ISZERO DUP1 ISZERO PUSH2 0x10D3 JUMPI RETURNDATASIZE PUSH0 DUP1 RETURNDATACOPY RETURNDATASIZE PUSH0 REVERT JUMPDEST POP PUSH0 DUP2 PUSH1 0x3 ADD PUSH0 PUSH2 0x100 EXP DUP2 SLOAD DUP2 PUSH1 0xFF MUL NOT AND SWAP1 DUP4 ISZERO ISZERO MUL OR SWAP1 SSTORE POP DUP1 PUSH0 ADD PUSH0 SWAP1 SLOAD SWAP1 PUSH2 0x100 EXP SWAP1 DIV PUSH20 0xFFFFFFFFFFFFFFFFFFFFFFFFFFFFFFFFFFFFFFFF AND PUSH20 0xFFFFFFFFFFFFFFFFFFFFFFFFFFFFFFFFFFFFFFFF AND CALLER PUSH20 0xFFFFFFFFFFFFFFFFFFFFFFFFFFFFFFFFFFFFFFFF AND PUSH32 0x85F10505BE3ED7BF7F1E02CF6BF521E67CD27C4B1E91954CC55D67C262FA64FF DUP4 PUSH1 0x1 ADD SLOAD DUP5 PUSH1 0x2 ADD SLOAD PUSH1 0x40 MLOAD PUSH2 0x1178 SWAP3 SWAP2 SWAP1 PUSH2 0x2A4A JUMP JUMPDEST PUSH1 0x40 MLOAD DUP1 SWAP2 SUB SWAP1 LOG3 POP POP JUMP JUMPDEST PUSH0 DUP1 PUSH2 0x118E PUSH2 0x181F JUMP JUMPDEST SWAP1 POP PUSH2 0x119B DUP2 DUP6 DUP6 PUSH2 0x18CA JUMP JUMPDEST PUSH1 0x1 SWAP2 POP POP SWAP3 SWAP2 POP POP JUMP JUMPDEST PUSH1 0xC SLOAD DUP2 JUMP JUMPDEST PUSH1 0x9 PUSH0 CALLER PUSH20 0xFFFFFFFFFFFFFFFFFFFFFFFFFFFFFFFFFFFFFFFF AND PUSH20 0xFFFFFFFFFFFFFFFFFFFFFFFFFFFFFFFFFFFFFFFF AND DUP2 MSTORE PUSH1 0x20 ADD SWAP1 DUP2 MSTORE PUSH1 0x20 ADD PUSH0 KECCAK256 PUSH0 SWAP1 SLOAD SWAP1 PUSH2 0x100 EXP SWAP1 DIV PUSH1 0xFF AND ISZERO PUSH2 0x1236 JUMPI PUSH1 0x40 MLOAD PUSH32 0x8C379A000000000000000000000000000000000000000000000000000000000 DUP2 MSTORE PUSH1 0x4 ADD PUSH2 0x122D SWAP1 PUSH2 0x2AE1 JUMP JUMPDEST PUSH1 0x40 MLOAD DUP1 SWAP2 SUB SWAP1 REVERT JUMPDEST PUSH1 0x1 PUSH1 0x9 PUSH0 CALLER PUSH20 0xFFFFFFFFFFFFFFFFFFFFFFFFFFFFFFFFFFFFFFFF AND PUSH20 0xFFFFFFFFFFFFFFFFFFFFFFFFFFFFFFFFFFFFFFFF AND DUP2 MSTORE PUSH1 0x20 ADD SWAP1 DUP2 MSTORE PUSH1 0x20 ADD PUSH0 KECCAK256 PUSH0 PUSH2 0x100 EXP DUP2 SLOAD DUP2 PUSH1 0xFF MUL NOT AND SWAP1 DUP4 ISZERO ISZERO MUL OR SWAP1 SSTORE POP JUMP JUMPDEST PUSH1 0x9 PUSH0 CALLER PUSH20 0xFFFFFFFFFFFFFFFFFFFFFFFFFFFFFFFFFFFFFFFF AND PUSH20 0xFFFFFFFFFFFFFFFFFFFFFFFFFFFFFFFFFFFFFFFF AND DUP2 MSTORE PUSH1 0x20 ADD SWAP1 DUP2 MSTORE PUSH1 0x20 ADD PUSH0 KECCAK256 PUSH0 SWAP1 SLOAD SWAP1 PUSH2 0x100 EXP SWAP1 DIV PUSH1 0xFF AND PUSH2 0x1316 JUMPI PUSH1 0x40 MLOAD PUSH32 0x8C379A000000000000000000000000000000000000000000000000000000000 DUP2 MSTORE PUSH1 0x4 ADD PUSH2 0x130D SWAP1 PUSH2 0x2B6F JUMP JUMPDEST PUSH1 0x40 MLOAD DUP1 SWAP2 SUB SWAP1 REVERT JUMPDEST PUSH0 DUP2 GT PUSH2 0x1358 JUMPI PUSH1 0x40 MLOAD PUSH32 0x8C379A000000000000000000000000000000000000000000000000000000000 DUP2 MSTORE PUSH1 0x4 ADD PUSH2 0x134F SWAP1 PUSH2 0x2BFD JUMP JUMPDEST PUSH1 0x40 MLOAD DUP1 SWAP2 SUB SWAP1 REVERT JUMPDEST PUSH2 0x1380 CALLER PUSH2 0x1364 PUSH2 0x7B1 JUMP JUMPDEST PUSH1 0xA PUSH2 0x1370 SWAP2 SWAP1 PUSH2 0x26D0 JUMP JUMPDEST DUP4 PUSH2 0x137B SWAP2 SWAP1 PUSH2 0x271A JUMP JUMPDEST PUSH2 0x19BA JUMP JUMPDEST POP JUMP JUMPDEST PUSH1 0xA PUSH1 0x20 MSTORE DUP1 PUSH0 MSTORE PUSH1 0x40 PUSH0 KECCAK256 PUSH0 SWAP2 POP SWAP1 POP SLOAD DUP2 JUMP JUMPDEST PUSH2 0x13A0 PUSH2 0x7B1 JUMP JUMPDEST PUSH1 0xA PUSH2 0x13AC SWAP2 SWAP1 PUSH2 0x26D0 JUMP JUMPDEST DUP2 PUSH2 0x13B7 SWAP2 SWAP1 PUSH2 0x271A JUMP JUMPDEST PUSH2 0x13C0 DUP4 PUSH2 0xE0A JUMP JUMPDEST LT ISZERO PUSH2 0x1401 JUMPI PUSH1 0x40 MLOAD PUSH32 0x8C379A000000000000000000000000000000000000000000000000000000000 DUP2 MSTORE PUSH1 0x4 ADD PUSH2 0x13F8 SWAP1 PUSH2 0x2C65 JUMP JUMPDEST PUSH1 0x40 MLOAD DUP1 SWAP2 SUB SWAP1 REVERT JUMPDEST PUSH2 0x1429 DUP3 PUSH2 0x140D PUSH2 0x7B1 JUMP JUMPDEST PUSH1 0xA PUSH2 0x1419 SWAP2 SWAP1 PUSH2 0x26D0 JUMP JUMPDEST DUP4 PUSH2 0x1424 SWAP2 SWAP1 PUSH2 0x271A JUMP JUMPDEST PUSH2 0x1A39 JUMP JUMPDEST POP POP JUMP JUMPDEST PUSH1 0x1 PUSH1 0x7 PUSH0 DUP4 PUSH20 0xFFFFFFFFFFFFFFFFFFFFFFFFFFFFFFFFFFFFFFFF AND PUSH20 0xFFFFFFFFFFFFFFFFFFFFFFFFFFFFFFFFFFFFFFFF AND DUP2 MSTORE PUSH1 0x20 ADD SWAP1 DUP2 MSTORE PUSH1 0x20 ADD PUSH0 KECCAK256 PUSH0 PUSH2 0x100 EXP DUP2 SLOAD DUP2 PUSH1 0xFF MUL NOT AND SWAP1 DUP4 ISZERO ISZERO MUL OR SWAP1 SSTORE POP PUSH2 0x14AC CALLER PUSH2 0x148E PUSH2 0x7B1 JUMP JUMPDEST PUSH1 0xA PUSH2 0x149A SWAP2 SWAP1 PUSH2 0x26D0 JUMP JUMPDEST PUSH2 0x3E8 PUSH2 0x14A7 SWAP2 SWAP1 PUSH2 0x271A JUMP JUMPDEST PUSH2 0x19BA JUMP JUMPDEST POP JUMP JUMPDEST PUSH0 PUSH1 0x1 PUSH0 DUP5 PUSH20 0xFFFFFFFFFFFFFFFFFFFFFFFFFFFFFFFFFFFFFFFF AND PUSH20 0xFFFFFFFFFFFFFFFFFFFFFFFFFFFFFFFFFFFFFFFF AND DUP2 MSTORE PUSH1 0x20 ADD SWAP1 DUP2 MSTORE PUSH1 0x20 ADD PUSH0 KECCAK256 PUSH0 DUP4 PUSH20 0xFFFFFFFFFFFFFFFFFFFFFFFFFFFFFFFFFFFFFFFF AND PUSH20 0xFFFFFFFFFFFFFFFFFFFFFFFFFFFFFFFFFFFFFFFF AND DUP2 MSTORE PUSH1 0x20 ADD SWAP1 DUP2 MSTORE PUSH1 0x20 ADD PUSH0 KECCAK256 SLOAD SWAP1 POP SWAP3 SWAP2 POP POP JUMP JUMPDEST PUSH1 0xB PUSH1 0x20 MSTORE DUP1 PUSH0 MSTORE PUSH1 0x40 PUSH0 KECCAK256 PUSH0 SWAP2 POP SWAP1 POP DUP1 PUSH0 ADD PUSH0 SWAP1 SLOAD SWAP1 PUSH2 0x100 EXP SWAP1 DIV PUSH20 0xFFFFFFFFFFFFFFFFFFFFFFFFFFFFFFFFFFFFFFFF AND SWAP1 DUP1 PUSH1 0x1 ADD SLOAD SWAP1 DUP1 PUSH1 0x2 ADD SLOAD SWAP1 DUP1 PUSH1 0x3 ADD PUSH0 SWAP1 SLOAD SWAP1 PUSH2 0x100 EXP SWAP1 DIV PUSH1 0xFF AND SWAP1 POP DUP5 JUMP JUMPDEST PUSH1 0x7 PUSH1 0x20 MSTORE DUP1 PUSH0 MSTORE PUSH1 0x40 PUSH0 KECCAK256 PUSH0 SWAP2 POP SLOAD SWAP1 PUSH2 0x100 EXP SWAP1 DIV PUSH1 0xFF AND DUP2 JUMP JUMPDEST PUSH1 0x1 ISZERO ISZERO PUSH1 0x8 PUSH0 CALLER PUSH20 0xFFFFFFFFFFFFFFFFFFFFFFFFFFFFFFFFFFFFFFFF AND PUSH20 0xFFFFFFFFFFFFFFFFFFFFFFFFFFFFFFFFFFFFFFFF AND DUP2 MSTORE PUSH1 0x20 ADD SWAP1 DUP2 MSTORE PUSH1 0x20 ADD PUSH0 KECCAK256 PUSH0 SWAP1 SLOAD SWAP1 PUSH2 0x100 EXP SWAP1 DIV PUSH1 0xFF AND ISZERO ISZERO EQ PUSH2 0x1635 JUMPI PUSH1 0x40 MLOAD PUSH32 0x8C379A000000000000000000000000000000000000000000000000000000000 DUP2 MSTORE PUSH1 0x4 ADD PUSH2 0x162C SWAP1 PUSH2 0x27CB JUMP JUMPDEST PUSH1 0x40 MLOAD DUP1 SWAP2 SUB SWAP1 REVERT JUMPDEST DUP2 PUSH2 0x163E PUSH2 0x7B1 JUMP JUMPDEST PUSH1 0xA PUSH2 0x164A SWAP2 SWAP1 PUSH2 0x26D0 JUMP JUMPDEST DUP2 PUSH2 0x1655 SWAP2 SWAP1 PUSH2 0x271A JUMP JUMPDEST PUSH2 0x165E CALLER PUSH2 0xE0A JUMP JUMPDEST LT ISZERO PUSH2 0x169F JUMPI PUSH1 0x40 MLOAD PUSH32 0x8C379A000000000000000000000000000000000000000000000000000000000 DUP2 MSTORE PUSH1 0x4 ADD PUSH2 0x1696 SWAP1 PUSH2 0x2CCD JUMP JUMPDEST PUSH1 0x40 MLOAD DUP1 SWAP2 SUB SWAP1 REVERT JUMPDEST PUSH0 DUP4 GT DUP1 ISZERO PUSH2 0x16AD JUMPI POP PUSH0 DUP3 GT JUMPDEST PUSH2 0x16EC JUMPI PUSH1 0x40 MLOAD PUSH32 0x8C379A000000000000000000000000000000000000000000000000000000000 DUP2 MSTORE PUSH1 0x4 ADD PUSH2 0x16E3 SWAP1 PUSH2 0x2D35 JUMP JUMPDEST PUSH1 0x40 MLOAD DUP1 SWAP2 SUB SWAP1 REVERT JUMPDEST PUSH1 0x40 MLOAD DUP1 PUSH1 0x80 ADD PUSH1 0x40 MSTORE DUP1 CALLER PUSH20 0xFFFFFFFFFFFFFFFFFFFFFFFFFFFFFFFFFFFFFFFF AND DUP2 MSTORE PUSH1 0x20 ADD DUP5 DUP2 MSTORE PUSH1 0x20 ADD DUP4 DUP2 MSTORE PUSH1 0x20 ADD PUSH1 0x1 ISZERO ISZERO DUP2 MSTORE POP PUSH1 0xB PUSH0 PUSH1 0xC SLOAD DUP2 MSTORE PUSH1 0x20 ADD SWAP1 DUP2 MSTORE PUSH1 0x20 ADD PUSH0 KECCAK256 PUSH0 DUP3 ADD MLOAD DUP2 PUSH0 ADD PUSH0 PUSH2 0x100 EXP DUP2 SLOAD DUP2 PUSH20 0xFFFFFFFFFFFFFFFFFFFFFFFFFFFFFFFFFFFFFFFF MUL NOT AND SWAP1 DUP4 PUSH20 0xFFFFFFFFFFFFFFFFFFFFFFFFFFFFFFFFFFFFFFFF AND MUL OR SWAP1 SSTORE POP PUSH1 0x20 DUP3 ADD MLOAD DUP2 PUSH1 0x1 ADD SSTORE PUSH1 0x40 DUP3 ADD MLOAD DUP2 PUSH1 0x2 ADD SSTORE PUSH1 0x60 DUP3 ADD MLOAD DUP2 PUSH1 0x3 ADD PUSH0 PUSH2 0x100 EXP DUP2 SLOAD DUP2 PUSH1 0xFF MUL NOT AND SWAP1 DUP4 ISZERO ISZERO MUL OR SWAP1 SSTORE POP SWAP1 POP POP CALLER PUSH20 0xFFFFFFFFFFFFFFFFFFFFFFFFFFFFFFFFFFFFFFFF AND PUSH32 0xCF412BFE866866664047E9F9E38CC21C13173A37C85DE5D29B65F1822231EC00 DUP5 DUP5 PUSH1 0x40 MLOAD PUSH2 0x17FB SWAP3 SWAP2 SWAP1 PUSH2 0x2A4A JUMP JUMPDEST PUSH1 0x40 MLOAD DUP1 SWAP2 SUB SWAP1 LOG2 PUSH1 0xC PUSH0 DUP2 SLOAD DUP1 SWAP3 SWAP2 SWAP1 PUSH2 0x1815 SWAP1 PUSH2 0x2D53 JUMP JUMPDEST SWAP2 SWAP1 POP SSTORE POP POP POP POP JUMP JUMPDEST PUSH0 CALLER SWAP1 POP SWAP1 JUMP JUMPDEST PUSH2 0x1833 DUP4 DUP4 DUP4 PUSH1 0x1 PUSH2 0x1AB8 JUMP JUMPDEST POP POP POP JUMP JUMPDEST PUSH0 PUSH2 0x1843 DUP5 DUP5 PUSH2 0x14AF JUMP JUMPDEST SWAP1 POP PUSH32 0xFFFFFFFFFFFFFFFFFFFFFFFFFFFFFFFFFFFFFFFFFFFFFFFFFFFFFFFFFFFFFFFF DUP2 EQ PUSH2 0x18C4 JUMPI DUP2 DUP2 LT ISZERO PUSH2 0x18B5 JUMPI DUP3 DUP2 DUP4 PUSH1 0x40 MLOAD PUSH32 0xFB8F41B200000000000000000000000000000000000000000000000000000000 DUP2 MSTORE PUSH1 0x4 ADD PUSH2 0x18AC SWAP4 SWAP3 SWAP2 SWAP1 PUSH2 0x2D9A JUMP JUMPDEST PUSH1 0x40 MLOAD DUP1 SWAP2 SUB SWAP1 REVERT JUMPDEST PUSH2 0x18C3 DUP5 DUP5 DUP5 DUP5 SUB PUSH0 PUSH2 0x1AB8 JUMP JUMPDEST JUMPDEST POP POP POP POP JUMP JUMPDEST PUSH0 PUSH20 0xFFFFFFFFFFFFFFFFFFFFFFFFFFFFFFFFFFFFFFFF AND DUP4 PUSH20 0xFFFFFFFFFFFFFFFFFFFFFFFFFFFFFFFFFFFFFFFF AND SUB PUSH2 0x193A JUMPI PUSH0 PUSH1 0x40 MLOAD PUSH32 0x96C6FD1E00000000000000000000000000000000000000000000000000000000 DUP2 MSTORE PUSH1 0x4 ADD PUSH2 0x1931 SWAP2 SWAP1 PUSH2 0x2DCF JUMP JUMPDEST PUSH1 0x40 MLOAD DUP1 SWAP2 SUB SWAP1 REVERT JUMPDEST PUSH0 PUSH20 0xFFFFFFFFFFFFFFFFFFFFFFFFFFFFFFFFFFFFFFFF AND DUP3 PUSH20 0xFFFFFFFFFFFFFFFFFFFFFFFFFFFFFFFFFFFFFFFF AND SUB PUSH2 0x19AA JUMPI PUSH0 PUSH1 0x40 MLOAD PUSH32 0xEC442F0500000000000000000000000000000000000000000000000000000000 DUP2 MSTORE PUSH1 0x4 ADD PUSH2 0x19A1 SWAP2 SWAP1 PUSH2 0x2DCF JUMP JUMPDEST PUSH1 0x40 MLOAD DUP1 SWAP2 SUB SWAP1 REVERT JUMPDEST PUSH2 0x19B5 DUP4 DUP4 DUP4 PUSH2 0x1C87 JUMP JUMPDEST POP POP POP JUMP JUMPDEST PUSH0 PUSH20 0xFFFFFFFFFFFFFFFFFFFFFFFFFFFFFFFFFFFFFFFF AND DUP3 PUSH20 0xFFFFFFFFFFFFFFFFFFFFFFFFFFFFFFFFFFFFFFFF AND SUB PUSH2 0x1A2A JUMPI PUSH0 PUSH1 0x40 MLOAD PUSH32 0xEC442F0500000000000000000000000000000000000000000000000000000000 DUP2 MSTORE PUSH1 0x4 ADD PUSH2 0x1A21 SWAP2 SWAP1 PUSH2 0x2DCF JUMP JUMPDEST PUSH1 0x40 MLOAD DUP1 SWAP2 SUB SWAP1 REVERT JUMPDEST PUSH2 0x1A35 PUSH0 DUP4 DUP4 PUSH2 0x1C87 JUMP JUMPDEST POP POP JUMP JUMPDEST PUSH0 PUSH20 0xFFFFFFFFFFFFFFFFFFFFFFFFFFFFFFFFFFFFFFFF AND DUP3 PUSH20 0xFFFFFFFFFFFFFFFFFFFFFFFFFFFFFFFFFFFFFFFF AND SUB PUSH2 0x1AA9 JUMPI PUSH0 PUSH1 0x40 MLOAD PUSH32 0x96C6FD1E00000000000000000000000000000000000000000000000000000000 DUP2 MSTORE PUSH1 0x4 ADD PUSH2 0x1AA0 SWAP2 SWAP1 PUSH2 0x2DCF JUMP JUMPDEST PUSH1 0x40 MLOAD DUP1 SWAP2 SUB SWAP1 REVERT JUMPDEST PUSH2 0x1AB4 DUP3 PUSH0 DUP4 PUSH2 0x1C87 JUMP JUMPDEST POP POP JUMP JUMPDEST PUSH0 PUSH20 0xFFFFFFFFFFFFFFFFFFFFFFFFFFFFFFFFFFFFFFFF AND DUP5 PUSH20 0xFFFFFFFFFFFFFFFFFFFFFFFFFFFFFFFFFFFFFFFF AND SUB PUSH2 0x1B28 JUMPI PUSH0 PUSH1 0x40 MLOAD PUSH32 0xE602DF0500000000000000000000000000000000000000000000000000000000 DUP2 MSTORE PUSH1 0x4 ADD PUSH2 0x1B1F SWAP2 SWAP1 PUSH2 0x2DCF JUMP JUMPDEST PUSH1 0x40 MLOAD DUP1 SWAP2 SUB SWAP1 REVERT JUMPDEST PUSH0 PUSH20 0xFFFFFFFFFFFFFFFFFFFFFFFFFFFFFFFFFFFFFFFF AND DUP4 PUSH20 0xFFFFFFFFFFFFFFFFFFFFFFFFFFFFFFFFFFFFFFFF AND SUB PUSH2 0x1B98 JUMPI PUSH0 PUSH1 0x40 MLOAD PUSH32 0x94280D6200000000000000000000000000000000000000000000000000000000 DUP2 MSTORE PUSH1 0x4 ADD PUSH2 0x1B8F SWAP2 SWAP1 PUSH2 0x2DCF JUMP JUMPDEST PUSH1 0x40 MLOAD DUP1 SWAP2 SUB SWAP1 REVERT JUMPDEST DUP2 PUSH1 0x1 PUSH0 DUP7 PUSH20 0xFFFFFFFFFFFFFFFFFFFFFFFFFFFFFFFFFFFFFFFF AND PUSH20 0xFFFFFFFFFFFFFFFFFFFFFFFFFFFFFFFFFFFFFFFF AND DUP2 MSTORE PUSH1 0x20 ADD SWAP1 DUP2 MSTORE PUSH1 0x20 ADD PUSH0 KECCAK256 PUSH0 DUP6 PUSH20 0xFFFFFFFFFFFFFFFFFFFFFFFFFFFFFFFFFFFFFFFF AND PUSH20 0xFFFFFFFFFFFFFFFFFFFFFFFFFFFFFFFFFFFFFFFF AND DUP2 MSTORE PUSH1 0x20 ADD SWAP1 DUP2 MSTORE PUSH1 0x20 ADD PUSH0 KECCAK256 DUP2 SWAP1 SSTORE POP DUP1 ISZERO PUSH2 0x1C81 JUMPI DUP3 PUSH20 0xFFFFFFFFFFFFFFFFFFFFFFFFFFFFFFFFFFFFFFFF AND DUP5 PUSH20 0xFFFFFFFFFFFFFFFFFFFFFFFFFFFFFFFFFFFFFFFF AND PUSH32 0x8C5BE1E5EBEC7D5BD14F71427D1E84F3DD0314C0F7B2291E5B200AC8C7C3B925 DUP5 PUSH1 0x40 MLOAD PUSH2 0x1C78 SWAP2 SWAP1 PUSH2 0x206C JUMP JUMPDEST PUSH1 0x40 MLOAD DUP1 SWAP2 SUB SWAP1 LOG3 JUMPDEST POP POP POP POP JUMP JUMPDEST PUSH0 PUSH20 0xFFFFFFFFFFFFFFFFFFFFFFFFFFFFFFFFFFFFFFFF AND DUP4 PUSH20 0xFFFFFFFFFFFFFFFFFFFFFFFFFFFFFFFFFFFFFFFF AND SUB PUSH2 0x1CD7 JUMPI DUP1 PUSH1 0x2 PUSH0 DUP3 DUP3 SLOAD PUSH2 0x1CCB SWAP2 SWAP1 PUSH2 0x2DE8 JUMP JUMPDEST SWAP3 POP POP DUP2 SWAP1 SSTORE POP PUSH2 0x1DA5 JUMP JUMPDEST PUSH0 DUP1 PUSH0 DUP6 PUSH20 0xFFFFFFFFFFFFFFFFFFFFFFFFFFFFFFFFFFFFFFFF AND PUSH20 0xFFFFFFFFFFFFFFFFFFFFFFFFFFFFFFFFFFFFFFFF AND DUP2 MSTORE PUSH1 0x20 ADD SWAP1 DUP2 MSTORE PUSH1 0x20 ADD PUSH0 KECCAK256 SLOAD SWAP1 POP DUP2 DUP2 LT ISZERO PUSH2 0x1D60 JUMPI DUP4 DUP2 DUP4 PUSH1 0x40 MLOAD PUSH32 0xE450D38C00000000000000000000000000000000000000000000000000000000 DUP2 MSTORE PUSH1 0x4 ADD PUSH2 0x1D57 SWAP4 SWAP3 SWAP2 SWAP1 PUSH2 0x2D9A JUMP JUMPDEST PUSH1 0x40 MLOAD DUP1 SWAP2 SUB SWAP1 REVERT JUMPDEST DUP2 DUP2 SUB PUSH0 DUP1 DUP7 PUSH20 0xFFFFFFFFFFFFFFFFFFFFFFFFFFFFFFFFFFFFFFFF AND PUSH20 0xFFFFFFFFFFFFFFFFFFFFFFFFFFFFFFFFFFFFFFFF AND DUP2 MSTORE PUSH1 0x20 ADD SWAP1 DUP2 MSTORE PUSH1 0x20 ADD PUSH0 KECCAK256 DUP2 SWAP1 SSTORE POP POP JUMPDEST PUSH0 PUSH20 0xFFFFFFFFFFFFFFFFFFFFFFFFFFFFFFFFFFFFFFFF AND DUP3 PUSH20 0xFFFFFFFFFFFFFFFFFFFFFFFFFFFFFFFFFFFFFFFF AND SUB PUSH2 0x1DEC JUMPI DUP1 PUSH1 0x2 PUSH0 DUP3 DUP3 SLOAD SUB SWAP3 POP POP DUP2 SWAP1 SSTORE POP PUSH2 0x1E36 JUMP JUMPDEST DUP1 PUSH0 DUP1 DUP5 PUSH20 0xFFFFFFFFFFFFFFFFFFFFFFFFFFFFFFFFFFFFFFFF AND PUSH20 0xFFFFFFFFFFFFFFFFFFFFFFFFFFFFFFFFFFFFFFFF AND DUP2 MSTORE PUSH1 0x20 ADD SWAP1 DUP2 MSTORE PUSH1 0x20 ADD PUSH0 KECCAK256 PUSH0 DUP3 DUP3 SLOAD ADD SWAP3 POP POP DUP2 SWAP1 SSTORE POP JUMPDEST DUP2 PUSH20 0xFFFFFFFFFFFFFFFFFFFFFFFFFFFFFFFFFFFFFFFF AND DUP4 PUSH20 0xFFFFFFFFFFFFFFFFFFFFFFFFFFFFFFFFFFFFFFFF AND PUSH32 0xDDF252AD1BE2C89B69C2B068FC378DAA952BA7F163C4A11628F55A4DF523B3EF DUP4 PUSH1 0x40 MLOAD PUSH2 0x1E93 SWAP2 SWAP1 PUSH2 0x206C JUMP JUMPDEST PUSH1 0x40 MLOAD DUP1 SWAP2 SUB SWAP1 LOG3 POP POP POP JUMP JUMPDEST PUSH0 DUP2 MLOAD SWAP1 POP SWAP2 SWAP1 POP JUMP JUMPDEST PUSH0 DUP3 DUP3 MSTORE PUSH1 0x20 DUP3 ADD SWAP1 POP SWAP3 SWAP2 POP POP JUMP JUMPDEST DUP3 DUP2 DUP4 MCOPY PUSH0 DUP4 DUP4 ADD MSTORE POP POP POP JUMP JUMPDEST PUSH0 PUSH1 0x1F NOT PUSH1 0x1F DUP4 ADD AND SWAP1 POP SWAP2 SWAP1 POP JUMP JUMPDEST PUSH0 PUSH2 0x1EE2 DUP3 PUSH2 0x1EA0 JUMP JUMPDEST PUSH2 0x1EEC DUP2 DUP6 PUSH2 0x1EAA JUMP JUMPDEST SWAP4 POP PUSH2 0x1EFC DUP2 DUP6 PUSH1 0x20 DUP7 ADD PUSH2 0x1EBA JUMP JUMPDEST PUSH2 0x1F05 DUP2 PUSH2 0x1EC8 JUMP JUMPDEST DUP5 ADD SWAP2 POP POP SWAP3 SWAP2 POP POP JUMP JUMPDEST PUSH0 PUSH1 0x20 DUP3 ADD SWAP1 POP DUP2 DUP2 SUB PUSH0 DUP4 ADD MSTORE PUSH2 0x1F28 DUP2 DUP5 PUSH2 0x1ED8 JUMP JUMPDEST SWAP1 POP SWAP3 SWAP2 POP POP JUMP JUMPDEST PUSH0 DUP1 REVERT JUMPDEST PUSH0 PUSH20 0xFFFFFFFFFFFFFFFFFFFFFFFFFFFFFFFFFFFFFFFF DUP3 AND SWAP1 POP SWAP2 SWAP1 POP JUMP JUMPDEST PUSH0 PUSH2 0x1F5D DUP3 PUSH2 0x1F34 JUMP JUMPDEST SWAP1 POP SWAP2 SWAP1 POP JUMP JUMPDEST PUSH2 0x1F6D DUP2 PUSH2 0x1F53 JUMP JUMPDEST DUP2 EQ PUSH2 0x1F77 JUMPI PUSH0 DUP1 REVERT JUMPDEST POP JUMP JUMPDEST PUSH0 DUP2 CALLDATALOAD SWAP1 POP PUSH2 0x1F88 DUP2 PUSH2 0x1F64 JUMP JUMPDEST SWAP3 SWAP2 POP POP JUMP JUMPDEST PUSH0 DUP2 SWAP1 POP SWAP2 SWAP1 POP JUMP JUMPDEST PUSH2 0x1FA0 DUP2 PUSH2 0x1F8E JUMP JUMPDEST DUP2 EQ PUSH2 0x1FAA JUMPI PUSH0 DUP1 REVERT JUMPDEST POP JUMP JUMPDEST PUSH0 DUP2 CALLDATALOAD SWAP1 POP PUSH2 0x1FBB DUP2 PUSH2 0x1F97 JUMP JUMPDEST SWAP3 SWAP2 POP POP JUMP JUMPDEST PUSH0 DUP1 PUSH1 0x40 DUP4 DUP6 SUB SLT ISZERO PUSH2 0x1FD7 JUMPI PUSH2 0x1FD6 PUSH2 0x1F30 JUMP JUMPDEST JUMPDEST PUSH0 PUSH2 0x1FE4 DUP6 DUP3 DUP7 ADD PUSH2 0x1F7A JUMP JUMPDEST SWAP3 POP POP PUSH1 0x20 PUSH2 0x1FF5 DUP6 DUP3 DUP7 ADD PUSH2 0x1FAD JUMP JUMPDEST SWAP2 POP POP SWAP3 POP SWAP3 SWAP1 POP JUMP JUMPDEST PUSH0 DUP2 ISZERO ISZERO SWAP1 POP SWAP2 SWAP1 POP JUMP JUMPDEST PUSH2 0x2013 DUP2 PUSH2 0x1FFF JUMP JUMPDEST DUP3 MSTORE POP POP JUMP JUMPDEST PUSH0 PUSH1 0x20 DUP3 ADD SWAP1 POP PUSH2 0x202C PUSH0 DUP4 ADD DUP5 PUSH2 0x200A JUMP JUMPDEST SWAP3 SWAP2 POP POP JUMP JUMPDEST PUSH0 PUSH1 0x20 DUP3 DUP5 SUB SLT ISZERO PUSH2 0x2047 JUMPI PUSH2 0x2046 PUSH2 0x1F30 JUMP JUMPDEST JUMPDEST PUSH0 PUSH2 0x2054 DUP5 DUP3 DUP6 ADD PUSH2 0x1F7A JUMP JUMPDEST SWAP2 POP POP SWAP3 SWAP2 POP POP JUMP JUMPDEST PUSH2 0x2066 DUP2 PUSH2 0x1F8E JUMP JUMPDEST DUP3 MSTORE POP POP JUMP JUMPDEST PUSH0 PUSH1 0x20 DUP3 ADD SWAP1 POP PUSH2 0x207F PUSH0 DUP4 ADD DUP5 PUSH2 0x205D JUMP JUMPDEST SWAP3 SWAP2 POP POP JUMP JUMPDEST PUSH0 DUP1 PUSH0 PUSH1 0x60 DUP5 DUP7 SUB SLT ISZERO PUSH2 0x209C JUMPI PUSH2 0x209B PUSH2 0x1F30 JUMP JUMPDEST JUMPDEST PUSH0 PUSH2 0x20A9 DUP7 DUP3 DUP8 ADD PUSH2 0x1F7A JUMP JUMPDEST SWAP4 POP POP PUSH1 0x20 PUSH2 0x20BA DUP7 DUP3 DUP8 ADD PUSH2 0x1F7A JUMP JUMPDEST SWAP3 POP POP PUSH1 0x40 PUSH2 0x20CB DUP7 DUP3 DUP8 ADD PUSH2 0x1FAD JUMP JUMPDEST SWAP2 POP POP SWAP3 POP SWAP3 POP SWAP3 JUMP JUMPDEST PUSH0 PUSH2 0x20DF DUP3 PUSH2 0x1F34 JUMP JUMPDEST SWAP1 POP SWAP2 SWAP1 POP JUMP JUMPDEST PUSH2 0x20EF DUP2 PUSH2 0x20D5 JUMP JUMPDEST DUP3 MSTORE POP POP JUMP JUMPDEST PUSH0 PUSH1 0x20 DUP3 ADD SWAP1 POP PUSH2 0x2108 PUSH0 DUP4 ADD DUP5 PUSH2 0x20E6 JUMP JUMPDEST SWAP3 SWAP2 POP POP JUMP JUMPDEST PUSH0 PUSH1 0xFF DUP3 AND SWAP1 POP SWAP2 SWAP1 POP JUMP JUMPDEST PUSH2 0x2123 DUP2 PUSH2 0x210E JUMP JUMPDEST DUP3 MSTORE POP POP JUMP JUMPDEST PUSH0 PUSH1 0x20 DUP3 ADD SWAP1 POP PUSH2 0x213C PUSH0 DUP4 ADD DUP5 PUSH2 0x211A JUMP JUMPDEST SWAP3 SWAP2 POP POP JUMP JUMPDEST PUSH0 DUP1 PUSH0 PUSH1 0x60 DUP5 DUP7 SUB SLT ISZERO PUSH2 0x2159 JUMPI PUSH2 0x2158 PUSH2 0x1F30 JUMP JUMPDEST JUMPDEST PUSH0 PUSH2 0x2166 DUP7 DUP3 DUP8 ADD PUSH2 0x1F7A JUMP JUMPDEST SWAP4 POP POP PUSH1 0x20 PUSH2 0x2177 DUP7 DUP3 DUP8 ADD PUSH2 0x1FAD JUMP JUMPDEST SWAP3 POP POP PUSH1 0x40 PUSH2 0x2188 DUP7 DUP3 DUP8 ADD PUSH2 0x1FAD JUMP JUMPDEST SWAP2 POP POP SWAP3 POP SWAP3 POP SWAP3 JUMP JUMPDEST PUSH2 0x219B DUP2 PUSH2 0x20D5 JUMP JUMPDEST DUP2 EQ PUSH2 0x21A5 JUMPI PUSH0 DUP1 REVERT JUMPDEST POP JUMP JUMPDEST PUSH0 DUP2 CALLDATALOAD SWAP1 POP PUSH2 0x21B6 DUP2 PUSH2 0x2192 JUMP JUMPDEST SWAP3 SWAP2 POP POP JUMP JUMPDEST PUSH0 DUP1 PUSH0 PUSH1 0x60 DUP5 DUP7 SUB SLT ISZERO PUSH2 0x21D3 JUMPI PUSH2 0x21D2 PUSH2 0x1F30 JUMP JUMPDEST JUMPDEST PUSH0 PUSH2 0x21E0 DUP7 DUP3 DUP8 ADD PUSH2 0x1F7A JUMP JUMPDEST SWAP4 POP POP PUSH1 0x20 PUSH2 0x21F1 DUP7 DUP3 DUP8 ADD PUSH2 0x1FAD JUMP JUMPDEST SWAP3 POP POP PUSH1 0x40 PUSH2 0x2202 DUP7 DUP3 DUP8 ADD PUSH2 0x21A8 JUMP JUMPDEST SWAP2 POP POP SWAP3 POP SWAP3 POP SWAP3 JUMP JUMPDEST PUSH0 PUSH1 0x20 DUP3 DUP5 SUB SLT ISZERO PUSH2 0x2221 JUMPI PUSH2 0x2220 PUSH2 0x1F30 JUMP JUMPDEST JUMPDEST PUSH0 PUSH2 0x222E DUP5 DUP3 DUP6 ADD PUSH2 0x1FAD JUMP JUMPDEST SWAP2 POP POP SWAP3 SWAP2 POP POP JUMP JUMPDEST PUSH0 DUP1 PUSH1 0x40 DUP4 DUP6 SUB SLT ISZERO PUSH2 0x224D JUMPI PUSH2 0x224C PUSH2 0x1F30 JUMP JUMPDEST JUMPDEST PUSH0 PUSH2 0x225A DUP6 DUP3 DUP7 ADD PUSH2 0x1F7A JUMP JUMPDEST SWAP3 POP POP PUSH1 0x20 PUSH2 0x226B DUP6 DUP3 DUP7 ADD PUSH2 0x1F7A JUMP JUMPDEST SWAP2 POP POP SWAP3 POP SWAP3 SWAP1 POP JUMP JUMPDEST PUSH2 0x227E DUP2 PUSH2 0x1F53 JUMP JUMPDEST DUP3 MSTORE POP POP JUMP JUMPDEST PUSH0 PUSH1 0x80 DUP3 ADD SWAP1 POP PUSH2 0x2297 PUSH0 DUP4 ADD DUP8 PUSH2 0x2275 JUMP JUMPDEST PUSH2 0x22A4 PUSH1 0x20 DUP4 ADD DUP7 PUSH2 0x205D JUMP JUMPDEST PUSH2 0x22B1 PUSH1 0x40 DUP4 ADD DUP6 PUSH2 0x205D JUMP JUMPDEST PUSH2 0x22BE PUSH1 0x60 DUP4 ADD DUP5 PUSH2 0x200A JUMP JUMPDEST SWAP6 SWAP5 POP POP POP POP POP JUMP JUMPDEST PUSH0 DUP1 PUSH1 0x40 DUP4 DUP6 SUB SLT ISZERO PUSH2 0x22DD JUMPI PUSH2 0x22DC PUSH2 0x1F30 JUMP JUMPDEST JUMPDEST PUSH0 PUSH2 0x22EA DUP6 DUP3 DUP7 ADD PUSH2 0x1FAD JUMP JUMPDEST SWAP3 POP POP PUSH1 0x20 PUSH2 0x22FB DUP6 DUP3 DUP7 ADD PUSH2 0x1FAD JUMP JUMPDEST SWAP2 POP POP SWAP3 POP SWAP3 SWAP1 POP JUMP JUMPDEST PUSH32 0x4E487B7100000000000000000000000000000000000000000000000000000000 PUSH0 MSTORE PUSH1 0x22 PUSH1 0x4 MSTORE PUSH1 0x24 PUSH0 REVERT JUMPDEST PUSH0 PUSH1 0x2 DUP3 DIV SWAP1 POP PUSH1 0x1 DUP3 AND DUP1 PUSH2 0x2349 JUMPI PUSH1 0x7F DUP3 AND SWAP2 POP JUMPDEST PUSH1 0x20 DUP3 LT DUP2 SUB PUSH2 0x235C JUMPI PUSH2 0x235B PUSH2 0x2305 JUMP JUMPDEST JUMPDEST POP SWAP2 SWAP1 POP JUMP JUMPDEST PUSH32 0x6F6E6C7920676F7665726E6D656E7420617574686F726974792063616E207573 PUSH0 DUP3 ADD MSTORE PUSH32 0x6520746869732066756E6374696F6E0000000000000000000000000000000000 PUSH1 0x20 DUP3 ADD MSTORE POP JUMP JUMPDEST PUSH0 PUSH2 0x23BC PUSH1 0x2F DUP4 PUSH2 0x1EAA JUMP JUMPDEST SWAP2 POP PUSH2 0x23C7 DUP3 PUSH2 0x2362 JUMP JUMPDEST PUSH1 0x40 DUP3 ADD SWAP1 POP SWAP2 SWAP1 POP JUMP JUMPDEST PUSH0 PUSH1 0x20 DUP3 ADD SWAP1 POP DUP2 DUP2 SUB PUSH0 DUP4 ADD MSTORE PUSH2 0x23E9 DUP2 PUSH2 0x23B0 JUMP JUMPDEST SWAP1 POP SWAP2 SWAP1 POP JUMP JUMPDEST PUSH32 0x496E76616C696420616464726573736573000000000000000000000000000000 PUSH0 DUP3 ADD MSTORE POP JUMP JUMPDEST PUSH0 PUSH2 0x2424 PUSH1 0x11 DUP4 PUSH2 0x1EAA JUMP JUMPDEST SWAP2 POP PUSH2 0x242F DUP3 PUSH2 0x23F0 JUMP JUMPDEST PUSH1 0x20 DUP3 ADD SWAP1 POP SWAP2 SWAP1 POP JUMP JUMPDEST PUSH0 PUSH1 0x20 DUP3 ADD SWAP1 POP DUP2 DUP2 SUB PUSH0 DUP4 ADD MSTORE PUSH2 0x2451 DUP2 PUSH2 0x2418 JUMP JUMPDEST SWAP1 POP SWAP2 SWAP1 POP JUMP JUMPDEST PUSH32 0x676976656E2061646472657373206D75737420626520616E20696E6475737472 PUSH0 DUP3 ADD MSTORE PUSH32 0x7900000000000000000000000000000000000000000000000000000000000000 PUSH1 0x20 DUP3 ADD MSTORE POP JUMP JUMPDEST PUSH0 PUSH2 0x24B2 PUSH1 0x21 DUP4 PUSH2 0x1EAA JUMP JUMPDEST SWAP2 POP PUSH2 0x24BD DUP3 PUSH2 0x2458 JUMP JUMPDEST PUSH1 0x40 DUP3 ADD SWAP1 POP SWAP2 SWAP1 POP JUMP JUMPDEST PUSH0 PUSH1 0x20 DUP3 ADD SWAP1 POP DUP2 DUP2 SUB PUSH0 DUP4 ADD MSTORE PUSH2 0x24DF DUP2 PUSH2 0x24A6 JUMP JUMPDEST SWAP1 POP SWAP2 SWAP1 POP JUMP JUMPDEST PUSH32 0x746F6B656E20436F756E74206D7573742062652067726561746572207468616E PUSH0 DUP3 ADD MSTORE PUSH32 0x2030000000000000000000000000000000000000000000000000000000000000 PUSH1 0x20 DUP3 ADD MSTORE POP JUMP JUMPDEST PUSH0 PUSH2 0x2540 PUSH1 0x22 DUP4 PUSH2 0x1EAA JUMP JUMPDEST SWAP2 POP PUSH2 0x254B DUP3 PUSH2 0x24E6 JUMP JUMPDEST PUSH1 0x40 DUP3 ADD SWAP1 POP SWAP2 SWAP1 POP JUMP JUMPDEST PUSH0 PUSH1 0x20 DUP3 ADD SWAP1 POP DUP2 DUP2 SUB PUSH0 DUP4 ADD MSTORE PUSH2 0x256D DUP2 PUSH2 0x2534 JUMP JUMPDEST SWAP1 POP SWAP2 SWAP1 POP JUMP JUMPDEST PUSH32 0x4E487B7100000000000000000000000000000000000000000000000000000000 PUSH0 MSTORE PUSH1 0x11 PUSH1 0x4 MSTORE PUSH1 0x24 PUSH0 REVERT JUMPDEST PUSH0 DUP2 PUSH1 0x1 SHR SWAP1 POP SWAP2 SWAP1 POP JUMP JUMPDEST PUSH0 DUP1 DUP3 SWAP2 POP DUP4 SWAP1 POP JUMPDEST PUSH1 0x1 DUP6 GT ISZERO PUSH2 0x25F6 JUMPI DUP1 DUP7 DIV DUP2 GT ISZERO PUSH2 0x25D2 JUMPI PUSH2 0x25D1 PUSH2 0x2574 JUMP JUMPDEST JUMPDEST PUSH1 0x1 DUP6 AND ISZERO PUSH2 0x25E1 JUMPI DUP1 DUP3 MUL SWAP2 POP JUMPDEST DUP1 DUP2 MUL SWAP1 POP PUSH2 0x25EF DUP6 PUSH2 0x25A1 JUMP JUMPDEST SWAP5 POP PUSH2 0x25B6 JUMP JUMPDEST SWAP5 POP SWAP5 SWAP3 POP POP POP JUMP JUMPDEST PUSH0 DUP3 PUSH2 0x260E JUMPI PUSH1 0x1 SWAP1 POP PUSH2 0x26C9 JUMP JUMPDEST DUP2 PUSH2 0x261B JUMPI PUSH0 SWAP1 POP PUSH2 0x26C9 JUMP JUMPDEST DUP2 PUSH1 0x1 DUP2 EQ PUSH2 0x2631 JUMPI PUSH1 0x2 DUP2 EQ PUSH2 0x263B JUMPI PUSH2 0x266A JUMP JUMPDEST PUSH1 0x1 SWAP2 POP POP PUSH2 0x26C9 JUMP JUMPDEST PUSH1 0xFF DUP5 GT ISZERO PUSH2 0x264D JUMPI PUSH2 0x264C PUSH2 0x2574 JUMP JUMPDEST JUMPDEST DUP4 PUSH1 0x2 EXP SWAP2 POP DUP5 DUP3 GT ISZERO PUSH2 0x2664 JUMPI PUSH2 0x2663 PUSH2 0x2574 JUMP JUMPDEST JUMPDEST POP PUSH2 0x26C9 JUMP JUMPDEST POP PUSH1 0x20 DUP4 LT PUSH2 0x133 DUP4 LT AND PUSH1 0x4E DUP5 LT PUSH1 0xB DUP5 LT AND OR ISZERO PUSH2 0x269F JUMPI DUP3 DUP3 EXP SWAP1 POP DUP4 DUP2 GT ISZERO PUSH2 0x269A JUMPI PUSH2 0x2699 PUSH2 0x2574 JUMP JUMPDEST JUMPDEST PUSH2 0x26C9 JUMP JUMPDEST PUSH2 0x26AC DUP5 DUP5 DUP5 PUSH1 0x1 PUSH2 0x25AD JUMP JUMPDEST SWAP3 POP SWAP1 POP DUP2 DUP5 DIV DUP2 GT ISZERO PUSH2 0x26C3 JUMPI PUSH2 0x26C2 PUSH2 0x2574 JUMP JUMPDEST JUMPDEST DUP2 DUP2 MUL SWAP1 POP JUMPDEST SWAP4 SWAP3 POP POP POP JUMP JUMPDEST PUSH0 PUSH2 0x26DA DUP3 PUSH2 0x1F8E JUMP JUMPDEST SWAP2 POP PUSH2 0x26E5 DUP4 PUSH2 0x210E JUMP JUMPDEST SWAP3 POP PUSH2 0x2712 PUSH32 0xFFFFFFFFFFFFFFFFFFFFFFFFFFFFFFFFFFFFFFFFFFFFFFFFFFFFFFFFFFFFFFFF DUP5 DUP5 PUSH2 0x25FF JUMP JUMPDEST SWAP1 POP SWAP3 SWAP2 POP POP JUMP JUMPDEST PUSH0 PUSH2 0x2724 DUP3 PUSH2 0x1F8E JUMP JUMPDEST SWAP2 POP PUSH2 0x272F DUP4 PUSH2 0x1F8E JUMP JUMPDEST SWAP3 POP DUP3 DUP3 MUL PUSH2 0x273D DUP2 PUSH2 0x1F8E JUMP JUMPDEST SWAP2 POP DUP3 DUP3 DIV DUP5 EQ DUP4 ISZERO OR PUSH2 0x2754 JUMPI PUSH2 0x2753 PUSH2 0x2574 JUMP JUMPDEST JUMPDEST POP SWAP3 SWAP2 POP POP JUMP JUMPDEST PUSH32 0x6F6E6C7920696E64757374727920617574686F726974792063616E2075736520 PUSH0 DUP3 ADD MSTORE PUSH32 0x746869732066756E6374696F6E00000000000000000000000000000000000000 PUSH1 0x20 DUP3 ADD MSTORE POP JUMP JUMPDEST PUSH0 PUSH2 0x27B5 PUSH1 0x2D DUP4 PUSH2 0x1EAA JUMP JUMPDEST SWAP2 POP PUSH2 0x27C0 DUP3 PUSH2 0x275B JUMP JUMPDEST PUSH1 0x40 DUP3 ADD SWAP1 POP SWAP2 SWAP1 POP JUMP JUMPDEST PUSH0 PUSH1 0x20 DUP3 ADD SWAP1 POP DUP2 DUP2 SUB PUSH0 DUP4 ADD MSTORE PUSH2 0x27E2 DUP2 PUSH2 0x27A9 JUMP JUMPDEST SWAP1 POP SWAP2 SWAP1 POP JUMP JUMPDEST PUSH32 0x546F6B656E20636F756E74206D7573742062652067726561746572207468616E PUSH0 DUP3 ADD MSTORE PUSH32 0x2030000000000000000000000000000000000000000000000000000000000000 PUSH1 0x20 DUP3 ADD MSTORE POP JUMP JUMPDEST PUSH0 PUSH2 0x2843 PUSH1 0x22 DUP4 PUSH2 0x1EAA JUMP JUMPDEST SWAP2 POP PUSH2 0x284E DUP3 PUSH2 0x27E9 JUMP JUMPDEST PUSH1 0x40 DUP3 ADD SWAP1 POP SWAP2 SWAP1 POP JUMP JUMPDEST PUSH0 PUSH1 0x20 DUP3 ADD SWAP1 POP DUP2 DUP2 SUB PUSH0 DUP4 ADD MSTORE PUSH2 0x2870 DUP2 PUSH2 0x2837 JUMP JUMPDEST SWAP1 POP SWAP2 SWAP1 POP JUMP JUMPDEST PUSH32 0x496E636F727265637420616D6F756E7400000000000000000000000000000000 PUSH0 DUP3 ADD MSTORE POP JUMP JUMPDEST PUSH0 PUSH2 0x28AB PUSH1 0x10 DUP4 PUSH2 0x1EAA JUMP JUMPDEST SWAP2 POP PUSH2 0x28B6 DUP3 PUSH2 0x2877 JUMP JUMPDEST PUSH1 0x20 DUP3 ADD SWAP1 POP SWAP2 SWAP1 POP JUMP JUMPDEST PUSH0 PUSH1 0x20 DUP3 ADD SWAP1 POP DUP2 DUP2 SUB PUSH0 DUP4 ADD MSTORE PUSH2 0x28D8 DUP2 PUSH2 0x289F JUMP JUMPDEST SWAP1 POP SWAP2 SWAP1 POP JUMP JUMPDEST PUSH32 0x416C6C6F77616E63652065786365656465640000000000000000000000000000 PUSH0 DUP3 ADD MSTORE POP JUMP JUMPDEST PUSH0 PUSH2 0x2913 PUSH1 0x12 DUP4 PUSH2 0x1EAA JUMP JUMPDEST SWAP2 POP PUSH2 0x291E DUP3 PUSH2 0x28DF JUMP JUMPDEST PUSH1 0x20 DUP3 ADD SWAP1 POP SWAP2 SWAP1 POP JUMP JUMPDEST PUSH0 PUSH1 0x20 DUP3 ADD SWAP1 POP DUP2 DUP2 SUB PUSH0 DUP4 ADD MSTORE PUSH2 0x2940 DUP2 PUSH2 0x2907 JUMP JUMPDEST SWAP1 POP SWAP2 SWAP1 POP JUMP JUMPDEST PUSH0 PUSH2 0x2951 DUP3 PUSH2 0x1F8E JUMP JUMPDEST SWAP2 POP PUSH2 0x295C DUP4 PUSH2 0x1F8E JUMP JUMPDEST SWAP3 POP DUP3 DUP3 SUB SWAP1 POP DUP2 DUP2 GT ISZERO PUSH2 0x2974 JUMPI PUSH2 0x2973 PUSH2 0x2574 JUMP JUMPDEST JUMPDEST SWAP3 SWAP2 POP POP JUMP JUMPDEST PUSH32 0x4C697374696E67206973206E6F74206163746976650000000000000000000000 PUSH0 DUP3 ADD MSTORE POP JUMP JUMPDEST PUSH0 PUSH2 0x29AE PUSH1 0x15 DUP4 PUSH2 0x1EAA JUMP JUMPDEST SWAP2 POP PUSH2 0x29B9 DUP3 PUSH2 0x297A JUMP JUMPDEST PUSH1 0x20 DUP3 ADD SWAP1 POP SWAP2 SWAP1 POP JUMP JUMPDEST PUSH0 PUSH1 0x20 DUP3 ADD SWAP1 POP DUP2 DUP2 SUB PUSH0 DUP4 ADD MSTORE PUSH2 0x29DB DUP2 PUSH2 0x29A2 JUMP JUMPDEST SWAP1 POP SWAP2 SWAP1 POP JUMP JUMPDEST PUSH32 0x496E636F7272656374207061796D656E7420616D6F756E740000000000000000 PUSH0 DUP3 ADD MSTORE POP JUMP JUMPDEST PUSH0 PUSH2 0x2A16 PUSH1 0x18 DUP4 PUSH2 0x1EAA JUMP JUMPDEST SWAP2 POP PUSH2 0x2A21 DUP3 PUSH2 0x29E2 JUMP JUMPDEST PUSH1 0x20 DUP3 ADD SWAP1 POP SWAP2 SWAP1 POP JUMP JUMPDEST PUSH0 PUSH1 0x20 DUP3 ADD SWAP1 POP DUP2 DUP2 SUB PUSH0 DUP4 ADD MSTORE PUSH2 0x2A43 DUP2 PUSH2 0x2A0A JUMP JUMPDEST SWAP1 POP SWAP2 SWAP1 POP JUMP JUMPDEST PUSH0 PUSH1 0x40 DUP3 ADD SWAP1 POP PUSH2 0x2A5D PUSH0 DUP4 ADD DUP6 PUSH2 0x205D JUMP JUMPDEST PUSH2 0x2A6A PUSH1 0x20 DUP4 ADD DUP5 PUSH2 0x205D JUMP JUMPDEST SWAP4 SWAP3 POP POP POP JUMP JUMPDEST PUSH32 0x416C7265616479207265676973746572656420617320616E20696E6469766964 PUSH0 DUP3 ADD MSTORE PUSH32 0x75616C0000000000000000000000000000000000000000000000000000000000 PUSH1 0x20 DUP3 ADD MSTORE POP JUMP JUMPDEST PUSH0 PUSH2 0x2ACB PUSH1 0x23 DUP4 PUSH2 0x1EAA JUMP JUMPDEST SWAP2 POP PUSH2 0x2AD6 DUP3 PUSH2 0x2A71 JUMP JUMPDEST PUSH1 0x40 DUP3 ADD SWAP1 POP SWAP2 SWAP1 POP JUMP JUMPDEST PUSH0 PUSH1 0x20 DUP3 ADD SWAP1 POP DUP2 DUP2 SUB PUSH0 DUP4 ADD MSTORE PUSH2 0x2AF8 DUP2 PUSH2 0x2ABF JUMP JUMPDEST SWAP1 POP SWAP2 SWAP1 POP JUMP JUMPDEST PUSH32 0x4F6E6C79207265676973746572656420696E646976696475616C207573657273 PUSH0 DUP3 ADD MSTORE PUSH32 0x2063616E2063616C6C20746869732066756E6374696F6E000000000000000000 PUSH1 0x20 DUP3 ADD MSTORE POP JUMP JUMPDEST PUSH0 PUSH2 0x2B59 PUSH1 0x37 DUP4 PUSH2 0x1EAA JUMP JUMPDEST SWAP2 POP PUSH2 0x2B64 DUP3 PUSH2 0x2AFF JUMP JUMPDEST PUSH1 0x40 DUP3 ADD SWAP1 POP SWAP2 SWAP1 POP JUMP JUMPDEST PUSH0 PUSH1 0x20 DUP3 ADD SWAP1 POP DUP2 DUP2 SUB PUSH0 DUP4 ADD MSTORE PUSH2 0x2B86 DUP2 PUSH2 0x2B4D JUMP JUMPDEST SWAP1 POP SWAP2 SWAP1 POP JUMP JUMPDEST PUSH32 0x52657761726420616D6F756E74206D7573742062652067726561746572207468 PUSH0 DUP3 ADD MSTORE PUSH32 0x616E203000000000000000000000000000000000000000000000000000000000 PUSH1 0x20 DUP3 ADD MSTORE POP JUMP JUMPDEST PUSH0 PUSH2 0x2BE7 PUSH1 0x24 DUP4 PUSH2 0x1EAA JUMP JUMPDEST SWAP2 POP PUSH2 0x2BF2 DUP3 PUSH2 0x2B8D JUMP JUMPDEST PUSH1 0x40 DUP3 ADD SWAP1 POP SWAP2 SWAP1 POP JUMP JUMPDEST PUSH0 PUSH1 0x20 DUP3 ADD SWAP1 POP DUP2 DUP2 SUB PUSH0 DUP4 ADD MSTORE PUSH2 0x2C14 DUP2 PUSH2 0x2BDB JUMP JUMPDEST SWAP1 POP SWAP2 SWAP1 POP JUMP JUMPDEST PUSH32 0x746F6B656E20636F756E74206973206E6F7420656E6F75676800000000000000 PUSH0 DUP3 ADD MSTORE POP JUMP JUMPDEST PUSH0 PUSH2 0x2C4F PUSH1 0x19 DUP4 PUSH2 0x1EAA JUMP JUMPDEST SWAP2 POP PUSH2 0x2C5A DUP3 PUSH2 0x2C1B JUMP JUMPDEST PUSH1 0x20 DUP3 ADD SWAP1 POP SWAP2 SWAP1 POP JUMP JUMPDEST PUSH0 PUSH1 0x20 DUP3 ADD SWAP1 POP DUP2 DUP2 SUB PUSH0 DUP4 ADD MSTORE PUSH2 0x2C7C DUP2 PUSH2 0x2C43 JUMP JUMPDEST SWAP1 POP SWAP2 SWAP1 POP JUMP JUMPDEST PUSH32 0x496E73756666696369656E742062616C616E6365000000000000000000000000 PUSH0 DUP3 ADD MSTORE POP JUMP JUMPDEST PUSH0 PUSH2 0x2CB7 PUSH1 0x14 DUP4 PUSH2 0x1EAA JUMP JUMPDEST SWAP2 POP PUSH2 0x2CC2 DUP3 PUSH2 0x2C83 JUMP JUMPDEST PUSH1 0x20 DUP3 ADD SWAP1 POP SWAP2 SWAP1 POP JUMP JUMPDEST PUSH0 PUSH1 0x20 DUP3 ADD SWAP1 POP DUP2 DUP2 SUB PUSH0 DUP4 ADD MSTORE PUSH2 0x2CE4 DUP2 PUSH2 0x2CAB JUMP JUMPDEST SWAP1 POP SWAP2 SWAP1 POP JUMP JUMPDEST PUSH32 0x496E76616C696420616D6F756E74206F72207072696365000000000000000000 PUSH0 DUP3 ADD MSTORE POP JUMP JUMPDEST PUSH0 PUSH2 0x2D1F PUSH1 0x17 DUP4 PUSH2 0x1EAA JUMP JUMPDEST SWAP2 POP PUSH2 0x2D2A DUP3 PUSH2 0x2CEB JUMP JUMPDEST PUSH1 0x20 DUP3 ADD SWAP1 POP SWAP2 SWAP1 POP JUMP JUMPDEST PUSH0 PUSH1 0x20 DUP3 ADD SWAP1 POP DUP2 DUP2 SUB PUSH0 DUP4 ADD MSTORE PUSH2 0x2D4C DUP2 PUSH2 0x2D13 JUMP JUMPDEST SWAP1 POP SWAP2 SWAP1 POP JUMP JUMPDEST PUSH0 PUSH2 0x2D5D DUP3 PUSH2 0x1F8E JUMP JUMPDEST SWAP2 POP PUSH32 0xFFFFFFFFFFFFFFFFFFFFFFFFFFFFFFFFFFFFFFFFFFFFFFFFFFFFFFFFFFFFFFFF DUP3 SUB PUSH2 0x2D8F JUMPI PUSH2 0x2D8E PUSH2 0x2574 JUMP JUMPDEST JUMPDEST PUSH1 0x1 DUP3 ADD SWAP1 POP SWAP2 SWAP1 POP JUMP JUMPDEST PUSH0 PUSH1 0x60 DUP3 ADD SWAP1 POP PUSH2 0x2DAD PUSH0 DUP4 ADD DUP7 PUSH2 0x2275 JUMP JUMPDEST PUSH2 0x2DBA PUSH1 0x20 DUP4 ADD DUP6 PUSH2 0x205D JUMP JUMPDEST PUSH2 0x2DC7 PUSH1 0x40 DUP4 ADD DUP5 PUSH2 0x205D JUMP JUMPDEST SWAP5 SWAP4 POP POP POP POP JUMP JUMPDEST PUSH0 PUSH1 0x20 DUP3 ADD SWAP1 POP PUSH2 0x2DE2 PUSH0 DUP4 ADD DUP5 PUSH2 0x2275 JUMP JUMPDEST SWAP3 SWAP2 POP POP JUMP JUMPDEST PUSH0 PUSH2 0x2DF2 DUP3 PUSH2 0x1F8E JUMP JUMPDEST SWAP2 POP PUSH2 0x2DFD DUP4 PUSH2 0x1F8E JUMP JUMPDEST SWAP3 POP DUP3 DUP3 ADD SWAP1 POP DUP1 DUP3 GT ISZERO PUSH2 0x2E15 JUMPI PUSH2 0x2E14 PUSH2 0x2574 JUMP JUMPDEST JUMPDEST SWAP3 SWAP2 POP POP JUMP INVALID LOG2 PUSH5 0x6970667358 0x22 SLT KECCAK256 0xAE 0xD 0x1E 0xAE RETURNDATASIZE DUP5 OR 0xB0 PUSH30 0x1A583DE42FA6176431363761A3FE5588D3D3787A2BCB4964736F6C634300 ADDMOD BYTE STOP CALLER "
				},
				"gasEstimates": {
					"creation": {
						"codeDepositCost": "2371400",
						"executionCost": "infinite",
						"totalCost": "infinite"
					},
					"external": {
						"GovernmentAccounts(address)": "2921",
						"EcoZapPlatformOwner()": "2642",
						"IndividualAccounts(address)": "2901",
						"IndustryAccounts(address)": "2901",
						"IndustryAllowance(address)": "2847",
						"allowance(address,address)": "infinite",
						"approve(address,uint256)": "infinite",
						"balanceOf(address)": "2940",
						"burnToken(address,uint256)": "infinite",
						"buyToken(address,uint256,address)": "infinite",
						"buyTokensFromMarketpalce(uint256)": "infinite",
						"collectReward(uint256)": "infinite",
						"decimals()": "384",
						"grantGovernmentPrivilege(address)": "infinite",
						"grantIndustryPrivilege(address)": "24848",
						"initialAllowance(address,uint256,uint256)": "infinite",
						"listTokensForSale(uint256,uint256)": "infinite",
						"listingCount()": "2492",
						"listings(uint256)": "infinite",
						"name()": "infinite",
						"registerIndividual()": "26827",
						"setTokenPrice(uint256)": "24861",
						"symbol()": "infinite",
						"tokenPrice()": "2471",
						"totalSupply()": "2522",
						"transfer(address,uint256)": "infinite",
						"transferFrom(address,address,uint256)": "infinite"
					}
				},
				"methodIdentifiers": {
					"GovernmentAccounts(address)": "f13e8331",
					"EcoZapPlatformOwner()": "2ea665cd",
					"IndividualAccounts(address)": "4fac0168",
					"IndustryAccounts(address)": "0a8c8f20",
					"IndustryAllowance(address)": "cb8c0c1d",
					"allowance(address,address)": "dd62ed3e",
					"approve(address,uint256)": "095ea7b3",
					"balanceOf(address)": "70a08231",
					"burnToken(address,uint256)": "d1df306c",
					"buyToken(address,uint256,address)": "692bf4a8",
					"buyTokensFromMarketpalce(uint256)": "9a83dc3d",
					"collectReward(uint256)": "bd3507da",
					"decimals()": "313ce567",
					"grantGovernmentPrivilege(address)": "d22b2ed0",
					"grantIndustryPrivilege(address)": "5fe01930",
					"initialAllowance(address,uint256,uint256)": "51e73a16",
					"listTokensForSale(uint256,uint256)": "fbd9be8b",
					"listingCount()": "a9b07c26",
					"listings(uint256)": "de74e57b",
					"name()": "06fdde03",
					"registerIndividual()": "b6267ae8",
					"setTokenPrice(uint256)": "6a61e5fc",
					"symbol()": "95d89b41",
					"tokenPrice()": "7ff9b596",
					"totalSupply()": "18160ddd",
					"transfer(address,uint256)": "a9059cbb",
					"transferFrom(address,address,uint256)": "23b872dd"
				}
			},
			"storageLayout": {
				"storage": [
					{
						"astId": 159,
						"contract": "GreenCreditToken.sol:GreenCreditToken",
						"label": "_balances",
						"offset": 0,
						"slot": "0",
						"type": "t_mapping(t_address,t_uint256)"
					},
					{
						"astId": 165,
						"contract": "GreenCreditToken.sol:GreenCreditToken",
						"label": "_allowances",
						"offset": 0,
						"slot": "1",
						"type": "t_mapping(t_address,t_mapping(t_address,t_uint256))"
					},
					{
						"astId": 167,
						"contract": "GreenCreditToken.sol:GreenCreditToken",
						"label": "_totalSupply",
						"offset": 0,
						"slot": "2",
						"type": "t_uint256"
					},
					{
						"astId": 169,
						"contract": "GreenCreditToken.sol:GreenCreditToken",
						"label": "_name",
						"offset": 0,
						"slot": "3",
						"type": "t_string_storage"
					},
					{
						"astId": 171,
						"contract": "GreenCreditToken.sol:GreenCreditToken",
						"label": "_symbol",
						"offset": 0,
						"slot": "4",
						"type": "t_string_storage"
					},
					{
						"astId": 792,
						"contract": "GreenCreditToken.sol:GreenCreditToken",
						"label": "EcoZapPlatformOwner",
						"offset": 0,
						"slot": "5",
						"type": "t_address_payable"
					},
					{
						"astId": 794,
						"contract": "GreenCreditToken.sol:GreenCreditToken",
						"label": "tokenPrice",
						"offset": 0,
						"slot": "6",
						"type": "t_uint256"
					},
					{
						"astId": 798,
						"contract": "GreenCreditToken.sol:GreenCreditToken",
						"label": "GovernmentAccounts",
						"offset": 0,
						"slot": "7",
						"type": "t_mapping(t_address,t_bool)"
					},
					{
						"astId": 802,
						"contract": "GreenCreditToken.sol:GreenCreditToken",
						"label": "IndustryAccounts",
						"offset": 0,
						"slot": "8",
						"type": "t_mapping(t_address,t_bool)"
					},
					{
						"astId": 806,
						"contract": "GreenCreditToken.sol:GreenCreditToken",
						"label": "IndividualAccounts",
						"offset": 0,
						"slot": "9",
						"type": "t_mapping(t_address,t_bool)"
					},
					{
						"astId": 810,
						"contract": "GreenCreditToken.sol:GreenCreditToken",
						"label": "IndustryAllowance",
						"offset": 0,
						"slot": "10",
						"type": "t_mapping(t_address,t_uint256)"
					},
					{
						"astId": 1172,
						"contract": "GreenCreditToken.sol:GreenCreditToken",
						"label": "listings",
						"offset": 0,
						"slot": "11",
						"type": "t_mapping(t_uint256,t_struct(TokenListing)1167_storage)"
					},
					{
						"astId": 1174,
						"contract": "GreenCreditToken.sol:GreenCreditToken",
						"label": "listingCount",
						"offset": 0,
						"slot": "12",
						"type": "t_uint256"
					}
				],
				"types": {
					"t_address": {
						"encoding": "inplace",
						"label": "address",
						"numberOfBytes": "20"
					},
					"t_address_payable": {
						"encoding": "inplace",
						"label": "address payable",
						"numberOfBytes": "20"
					},
					"t_bool": {
						"encoding": "inplace",
						"label": "bool",
						"numberOfBytes": "1"
					},
					"t_mapping(t_address,t_bool)": {
						"encoding": "mapping",
						"key": "t_address",
						"label": "mapping(address => bool)",
						"numberOfBytes": "32",
						"value": "t_bool"
					},
					"t_mapping(t_address,t_mapping(t_address,t_uint256))": {
						"encoding": "mapping",
						"key": "t_address",
						"label": "mapping(address => mapping(address => uint256))",
						"numberOfBytes": "32",
						"value": "t_mapping(t_address,t_uint256)"
					},
					"t_mapping(t_address,t_uint256)": {
						"encoding": "mapping",
						"key": "t_address",
						"label": "mapping(address => uint256)",
						"numberOfBytes": "32",
						"value": "t_uint256"
					},
					"t_mapping(t_uint256,t_struct(TokenListing)1167_storage)": {
						"encoding": "mapping",
						"key": "t_uint256",
						"label": "mapping(uint256 => struct GreenCreditToken.TokenListing)",
						"numberOfBytes": "32",
						"value": "t_struct(TokenListing)1167_storage"
					},
					"t_string_storage": {
						"encoding": "bytes",
						"label": "string",
						"numberOfBytes": "32"
					},
					"t_struct(TokenListing)1167_storage": {
						"encoding": "inplace",
						"label": "struct GreenCreditToken.TokenListing",
						"members": [
							{
								"astId": 1160,
								"contract": "GreenCreditToken.sol:GreenCreditToken",
								"label": "seller",
								"offset": 0,
								"slot": "0",
								"type": "t_address"
							},
							{
								"astId": 1162,
								"contract": "GreenCreditToken.sol:GreenCreditToken",
								"label": "tokenAmount",
								"offset": 0,
								"slot": "1",
								"type": "t_uint256"
							},
							{
								"astId": 1164,
								"contract": "GreenCreditToken.sol:GreenCreditToken",
								"label": "price",
								"offset": 0,
								"slot": "2",
								"type": "t_uint256"
							},
							{
								"astId": 1166,
								"contract": "GreenCreditToken.sol:GreenCreditToken",
								"label": "isActive",
								"offset": 0,
								"slot": "3",
								"type": "t_bool"
							}
						],
						"numberOfBytes": "128"
					},
					"t_uint256": {
						"encoding": "inplace",
						"label": "uint256",
						"numberOfBytes": "32"
					}
				}
			},
			"userdoc": {
				"kind": "user",
				"methods": {},
				"version": 1
			}
		}
	}
}