{
	"data": {
		"bytecode": {
			"linkReferences": {},
			"object": "608060405234801561000f575f80fd5b506040516138a33803806138a38339818101604052810190610031919061043f565b6040518060400160405280600b81526020017f477265656e4372656469740000000000000000000000000000000000000000008152506040518060400160405280600381526020017f474354000000000000000000000000000000000000000000000000000000000081525081600390816100ac919061069b565b5080600490816100bc919061069b565b5050503360055f6101000a81548173ffffffffffffffffffffffffffffffffffffffff021916908373ffffffffffffffffffffffffffffffffffffffff1602179055508060068190555061015c60055f9054906101000a900473ffffffffffffffffffffffffffffffffffffffff1661013961016260201b60201c565b600a61014591906108d2565b6064610151919061091c565b61016a60201b60201c565b50610a45565b5f6012905090565b5f73ffffffffffffffffffffffffffffffffffffffff168273ffffffffffffffffffffffffffffffffffffffff16036101da575f6040517fec442f050000000000000000000000000000000000000000000000000000000081526004016101d1919061099c565b60405180910390fd5b6101eb5f83836101ef60201b60201c565b5050565b5f73ffffffffffffffffffffffffffffffffffffffff168373ffffffffffffffffffffffffffffffffffffffff160361023f578060025f82825461023391906109b5565b9250508190555061030d565b5f805f8573ffffffffffffffffffffffffffffffffffffffff1673ffffffffffffffffffffffffffffffffffffffff1681526020019081526020015f20549050818110156102c8578381836040517fe450d38c0000000000000000000000000000000000000000000000000000000081526004016102bf939291906109f7565b60405180910390fd5b8181035f808673ffffffffffffffffffffffffffffffffffffffff1673ffffffffffffffffffffffffffffffffffffffff1681526020019081526020015f2081905550505b5f73ffffffffffffffffffffffffffffffffffffffff168273ffffffffffffffffffffffffffffffffffffffff1603610354578060025f828254039250508190555061039e565b805f808473ffffffffffffffffffffffffffffffffffffffff1673ffffffffffffffffffffffffffffffffffffffff1681526020019081526020015f205f82825401925050819055505b8173ffffffffffffffffffffffffffffffffffffffff168373ffffffffffffffffffffffffffffffffffffffff167fddf252ad1be2c89b69c2b068fc378daa952ba7f163c4a11628f55a4df523b3ef836040516103fb9190610a2c565b60405180910390a3505050565b5f80fd5b5f819050919050565b61041e8161040c565b8114610428575f80fd5b50565b5f8151905061043981610415565b92915050565b5f6020828403121561045457610453610408565b5b5f6104618482850161042b565b91505092915050565b5f81519050919050565b7f4e487b71000000000000000000000000000000000000000000000000000000005f52604160045260245ffd5b7f4e487b71000000000000000000000000000000000000000000000000000000005f52602260045260245ffd5b5f60028204905060018216806104e557607f821691505b6020821081036104f8576104f76104a1565b5b50919050565b5f819050815f5260205f209050919050565b5f6020601f8301049050919050565b5f82821b905092915050565b5f6008830261055a7fffffffffffffffffffffffffffffffffffffffffffffffffffffffffffffffff8261051f565b610564868361051f565b95508019841693508086168417925050509392505050565b5f819050919050565b5f61059f61059a6105958461040c565b61057c565b61040c565b9050919050565b5f819050919050565b6105b883610585565b6105cc6105c4826105a6565b84845461052b565b825550505050565b5f90565b6105e06105d4565b6105eb8184846105af565b505050565b5b8181101561060e576106035f826105d8565b6001810190506105f1565b5050565b601f82111561065357610624816104fe565b61062d84610510565b8101602085101561063c578190505b61065061064885610510565b8301826105f0565b50505b505050565b5f82821c905092915050565b5f6106735f1984600802610658565b1980831691505092915050565b5f61068b8383610664565b9150826002028217905092915050565b6106a48261046a565b67ffffffffffffffff8111156106bd576106bc610474565b5b6106c782546104ce565b6106d2828285610612565b5f60209050601f831160018114610703575f84156106f1578287015190505b6106fb8582610680565b865550610762565b601f198416610711866104fe565b5f5b8281101561073857848901518255600182019150602085019450602081019050610713565b868310156107555784890151610751601f891682610664565b8355505b6001600288020188555050505b505050505050565b7f4e487b71000000000000000000000000000000000000000000000000000000005f52601160045260245ffd5b5f8160011c9050919050565b5f808291508390505b60018511156107ec578086048111156107c8576107c761076a565b5b60018516156107d75780820291505b80810290506107e585610797565b94506107ac565b94509492505050565b5f8261080457600190506108bf565b81610811575f90506108bf565b8160018114610827576002811461083157610860565b60019150506108bf565b60ff8411156108435761084261076a565b5b8360020a91508482111561085a5761085961076a565b5b506108bf565b5060208310610133831016604e8410600b84101617156108955782820a9050838111156108905761088f61076a565b5b6108bf565b6108a284848460016107a3565b925090508184048111156108b9576108b861076a565b5b81810290505b9392505050565b5f60ff82169050919050565b5f6108dc8261040c565b91506108e7836108c6565b92506109147fffffffffffffffffffffffffffffffffffffffffffffffffffffffffffffffff84846107f5565b905092915050565b5f6109268261040c565b91506109318361040c565b925082820261093f8161040c565b915082820484148315176109565761095561076a565b5b5092915050565b5f73ffffffffffffffffffffffffffffffffffffffff82169050919050565b5f6109868261095d565b9050919050565b6109968161097c565b82525050565b5f6020820190506109af5f83018461098d565b92915050565b5f6109bf8261040c565b91506109ca8361040c565b92508282019050808211156109e2576109e161076a565b5b92915050565b6109f18161040c565b82525050565b5f606082019050610a0a5f83018661098d565b610a1760208301856109e8565b610a2460408301846109e8565b949350505050565b5f602082019050610a3f5f8301846109e8565b92915050565b612e5180610a525f395ff3fe60806040526004361061019b575f3560e01c80637ff9b596116100eb578063cb8c0c1d11610089578063dd62ed3e11610063578063dd62ed3e146105a7578063de74e57b146105e3578063f13e833114610622578063fbd9be8b1461065e5761019b565b8063cb8c0c1d1461051b578063d1df306c14610557578063d22b2ed01461057f5761019b565b8063a9059cbb116100c5578063a9059cbb14610477578063a9b07c26146104b3578063b6267ae8146104dd578063bd3507da146104f35761019b565b80637ff9b5961461040757806395d89b41146104315780639a83dc3d1461045b5761019b565b8063313ce567116101585780635fe01930116101325780635fe019301461035f578063692bf4a8146103875780636a61e5fc146103a357806370a08231146103cb5761019b565b8063313ce567146102d15780634fac0168146102fb57806351e73a16146103375761019b565b806306fdde031461019f578063095ea7b3146101c95780630a8c8f201461020557806318160ddd1461024157806323b872dd1461026b5780632ea665cd146102a7575b5f80fd5b3480156101aa575f80fd5b506101b3610686565b6040516101c09190611f10565b60405180910390f35b3480156101d4575f80fd5b506101ef60048036038101906101ea9190611fc1565b610716565b6040516101fc9190612019565b60405180910390f35b348015610210575f80fd5b5061022b60048036038101906102269190612032565b610738565b6040516102389190612019565b60405180910390f35b34801561024c575f80fd5b50610255610755565b604051610262919061206c565b60405180910390f35b348015610276575f80fd5b50610291600480360381019061028c9190612085565b61075e565b60405161029e9190612019565b60405180910390f35b3480156102b2575f80fd5b506102bb61078c565b6040516102c891906120f5565b60405180910390f35b3480156102dc575f80fd5b506102e56107b1565b6040516102f29190612129565b60405180910390f35b348015610306575f80fd5b50610321600480360381019061031c9190612032565b6107b9565b60405161032e9190612019565b60405180910390f35b348015610342575f80fd5b5061035d60048036038101906103589190612142565b6107d6565b005b34801561036a575f80fd5b5061038560048036038101906103809190612032565b610a16565b005b6103a1600480360381019061039c91906121bc565b610a6e565b005b3480156103ae575f80fd5b506103c960048036038101906103c4919061220c565b610d70565b005b3480156103d6575f80fd5b506103f160048036038101906103ec9190612032565b610e0a565b6040516103fe919061206c565b60405180910390f35b348015610412575f80fd5b5061041b610e4f565b604051610428919061206c565b60405180910390f35b34801561043c575f80fd5b50610445610e55565b6040516104529190611f10565b60405180910390f35b6104756004803603810190610470919061220c565b610ee5565b005b348015610482575f80fd5b5061049d60048036038101906104989190611fc1565b611184565b6040516104aa9190612019565b60405180910390f35b3480156104be575f80fd5b506104c76111a6565b6040516104d4919061206c565b60405180910390f35b3480156104e8575f80fd5b506104f16111ac565b005b3480156104fe575f80fd5b506105196004803603810190610514919061220c565b61128d565b005b348015610526575f80fd5b50610541600480360381019061053c9190612032565b611383565b60405161054e919061206c565b60405180910390f35b348015610562575f80fd5b5061057d60048036038101906105789190611fc1565b611398565b005b34801561058a575f80fd5b506105a560048036038101906105a09190612032565b61142d565b005b3480156105b2575f80fd5b506105cd60048036038101906105c89190612237565b6114af565b6040516105da919061206c565b60405180910390f35b3480156105ee575f80fd5b506106096004803603810190610604919061220c565b611531565b6040516106199493929190612284565b60405180910390f35b34801561062d575f80fd5b5061064860048036038101906106439190612032565b611588565b6040516106559190612019565b60405180910390f35b348015610669575f80fd5b50610684600480360381019061067f91906122c7565b6115a5565b005b60606003805461069590612332565b80601f01602080910402602001604051908101604052809291908181526020018280546106c190612332565b801561070c5780601f106106e35761010080835404028352916020019161070c565b820191905f5260205f20905b8154815290600101906020018083116106ef57829003601f168201915b5050505050905090565b5f8061072061181f565b905061072d818585611826565b600191505092915050565b6008602052805f5260405f205f915054906101000a900460ff1681565b5f600254905090565b5f8061076861181f565b9050610775858285611838565b6107808585856118ca565b60019150509392505050565b60055f9054906101000a900473ffffffffffffffffffffffffffffffffffffffff1681565b5f6012905090565b6009602052805f5260405f205f915054906101000a900460ff1681565b6001151560075f3373ffffffffffffffffffffffffffffffffffffffff1673ffffffffffffffffffffffffffffffffffffffff1681526020019081526020015f205f9054906101000a900460ff16151514610866576040517f08c379a000000000000000000000000000000000000000000000000000000000815260040161085d906123d2565b60405180910390fd5b5f73ffffffffffffffffffffffffffffffffffffffff168373ffffffffffffffffffffffffffffffffffffffff16036108d4576040517f08c379a00000000000000000000000000000000000000000000000000000000081526004016108cb9061243a565b60405180910390fd5b6001151560085f8573ffffffffffffffffffffffffffffffffffffffff1673ffffffffffffffffffffffffffffffffffffffff1681526020019081526020015f205f9054906101000a900460ff16151514610964576040517f08c379a000000000000000000000000000000000000000000000000000000000815260040161095b906124c8565b60405180910390fd5b5f81116109a6576040517f08c379a000000000000000000000000000000000000000000000000000000000815260040161099d90612556565b60405180910390fd5b81600a5f8573ffffffffffffffffffffffffffffffffffffffff1673ffffffffffffffffffffffffffffffffffffffff1681526020019081526020015f2081905550610a1133846109f56107b1565b600a610a0191906126d0565b84610a0c919061271a565b6118ca565b505050565b600160085f8373ffffffffffffffffffffffffffffffffffffffff1673ffffffffffffffffffffffffffffffffffffffff1681526020019081526020015f205f6101000a81548160ff02191690831515021790555050565b6001151560085f3373ffffffffffffffffffffffffffffffffffffffff1673ffffffffffffffffffffffffffffffffffffffff1681526020019081526020015f205f9054906101000a900460ff16151514610afe576040517f08c379a0000000000000000000000000000000000000000000000000000000008152600401610af5906127cb565b60405180910390fd5b5f8211610b40576040517f08c379a0000000000000000000000000000000000000000000000000000000008152600401610b3790612859565b60405180910390fd5b3482600654610b4f919061271a565b14610b8f576040517f08c379a0000000000000000000000000000000000000000000000000000000008152600401610b86906128c1565b60405180910390fd5b81600a5f8573ffffffffffffffffffffffffffffffffffffffff1673ffffffffffffffffffffffffffffffffffffffff1681526020019081526020015f20541015610c0f576040517f08c379a0000000000000000000000000000000000000000000000000000000008152600401610c0690612929565b60405180910390fd5b610c3783610c1b6107b1565b600a610c2791906126d0565b84610c32919061271a565b6119ba565b8073ffffffffffffffffffffffffffffffffffffffff166108fc3490811502906040515f60405180830381858888f19350505050158015610c7a573d5f803e3d5ffd5b5081600a5f8573ffffffffffffffffffffffffffffffffffffffff1673ffffffffffffffffffffffffffffffffffffffff1681526020019081526020015f2054610cc49190612947565b600a5f8573ffffffffffffffffffffffffffffffffffffffff1673ffffffffffffffffffffffffffffffffffffffff1681526020019081526020015f2081905550818173ffffffffffffffffffffffffffffffffffffffff168473ffffffffffffffffffffffffffffffffffffffff167f5fc4872a04fc9ef9e80a6593db4a82874ea60fbc1f93bd4d0b7a00d4aa8ae55634604051610d63919061206c565b60405180910390a4505050565b6001151560075f3373ffffffffffffffffffffffffffffffffffffffff1673ffffffffffffffffffffffffffffffffffffffff1681526020019081526020015f205f9054906101000a900460ff16151514610e00576040517f08c379a0000000000000000000000000000000000000000000000000000000008152600401610df7906123d2565b60405180910390fd5b8060068190555050565b5f805f8373ffffffffffffffffffffffffffffffffffffffff1673ffffffffffffffffffffffffffffffffffffffff1681526020019081526020015f20549050919050565b60065481565b606060048054610e6490612332565b80601f0160208091040260200160405190810160405280929190818152602001828054610e9090612332565b8015610edb5780601f10610eb257610100808354040283529160200191610edb565b820191905f5260205f20905b815481529060010190602001808311610ebe57829003601f168201915b5050505050905090565b6001151560085f3373ffffffffffffffffffffffffffffffffffffffff1673ffffffffffffffffffffffffffffffffffffffff1681526020019081526020015f205f9054906101000a900460ff16151514610f75576040517f08c379a0000000000000000000000000000000000000000000000000000000008152600401610f6c906127cb565b60405180910390fd5b5f600b5f8381526020019081526020015f209050806003015f9054906101000a900460ff16610fd9576040517f08c379a0000000000000000000000000000000000000000000000000000000008152600401610fd0906129c4565b60405180910390fd5b8060020154341461101f576040517f08c379a000000000000000000000000000000000000000000000000000000000815260040161101690612a2c565b60405180910390fd5b61106e815f015f9054906101000a900473ffffffffffffffffffffffffffffffffffffffff163361104e6107b1565b600a61105a91906126d0565b8460010154611069919061271a565b6118ca565b805f015f9054906101000a900473ffffffffffffffffffffffffffffffffffffffff1673ffffffffffffffffffffffffffffffffffffffff166108fc3490811502906040515f60405180830381858888f193505050501580156110d3573d5f803e3d5ffd5b505f816003015f6101000a81548160ff021916908315150217905550805f015f9054906101000a900473ffffffffffffffffffffffffffffffffffffffff1673ffffffffffffffffffffffffffffffffffffffff163373ffffffffffffffffffffffffffffffffffffffff167f85f10505be3ed7bf7f1e02cf6bf521e67cd27c4b1e91954cc55d67c262fa64ff83600101548460020154604051611178929190612a4a565b60405180910390a35050565b5f8061118e61181f565b905061119b8185856118ca565b600191505092915050565b600c5481565b60095f3373ffffffffffffffffffffffffffffffffffffffff1673ffffffffffffffffffffffffffffffffffffffff1681526020019081526020015f205f9054906101000a900460ff1615611236576040517f08c379a000000000000000000000000000000000000000000000000000000000815260040161122d90612ae1565b60405180910390fd5b600160095f3373ffffffffffffffffffffffffffffffffffffffff1673ffffffffffffffffffffffffffffffffffffffff1681526020019081526020015f205f6101000a81548160ff021916908315150217905550565b60095f3373ffffffffffffffffffffffffffffffffffffffff1673ffffffffffffffffffffffffffffffffffffffff1681526020019081526020015f205f9054906101000a900460ff16611316576040517f08c379a000000000000000000000000000000000000000000000000000000000815260040161130d90612b6f565b60405180910390fd5b5f8111611358576040517f08c379a000000000000000000000000000000000000000000000000000000000815260040161134f90612bfd565b60405180910390fd5b611380336113646107b1565b600a61137091906126d0565b8361137b919061271a565b6119ba565b50565b600a602052805f5260405f205f915090505481565b6113a06107b1565b600a6113ac91906126d0565b816113b7919061271a565b6113c083610e0a565b1015611401576040517f08c379a00000000000000000000000000000000000000000000000000000000081526004016113f890612c65565b60405180910390fd5b6114298261140d6107b1565b600a61141991906126d0565b83611424919061271a565b611a39565b5050565b600160075f8373ffffffffffffffffffffffffffffffffffffffff1673ffffffffffffffffffffffffffffffffffffffff1681526020019081526020015f205f6101000a81548160ff0219169083151502179055506114ac3361148e6107b1565b600a61149a91906126d0565b6103e86114a7919061271a565b6119ba565b50565b5f60015f8473ffffffffffffffffffffffffffffffffffffffff1673ffffffffffffffffffffffffffffffffffffffff1681526020019081526020015f205f8373ffffffffffffffffffffffffffffffffffffffff1673ffffffffffffffffffffffffffffffffffffffff1681526020019081526020015f2054905092915050565b600b602052805f5260405f205f91509050805f015f9054906101000a900473ffffffffffffffffffffffffffffffffffffffff1690806001015490806002015490806003015f9054906101000a900460ff16905084565b6007602052805f5260405f205f915054906101000a900460ff1681565b6001151560085f3373ffffffffffffffffffffffffffffffffffffffff1673ffffffffffffffffffffffffffffffffffffffff1681526020019081526020015f205f9054906101000a900460ff16151514611635576040517f08c379a000000000000000000000000000000000000000000000000000000000815260040161162c906127cb565b60405180910390fd5b8161163e6107b1565b600a61164a91906126d0565b81611655919061271a565b61165e33610e0a565b101561169f576040517f08c379a000000000000000000000000000000000000000000000000000000000815260040161169690612ccd565b60405180910390fd5b5f831180156116ad57505f82115b6116ec576040517f08c379a00000000000000000000000000000000000000000000000000000000081526004016116e390612d35565b60405180910390fd5b60405180608001604052803373ffffffffffffffffffffffffffffffffffffffff16815260200184815260200183815260200160011515815250600b5f600c5481526020019081526020015f205f820151815f015f6101000a81548173ffffffffffffffffffffffffffffffffffffffff021916908373ffffffffffffffffffffffffffffffffffffffff16021790555060208201518160010155604082015181600201556060820151816003015f6101000a81548160ff0219169083151502179055509050503373ffffffffffffffffffffffffffffffffffffffff167fcf412bfe866866664047e9f9e38cc21c13173a37c85de5d29b65f1822231ec0084846040516117fb929190612a4a565b60405180910390a2600c5f81548092919061181590612d53565b9190505550505050565b5f33905090565b6118338383836001611ab8565b505050565b5f61184384846114af565b90507fffffffffffffffffffffffffffffffffffffffffffffffffffffffffffffffff81146118c457818110156118b5578281836040517ffb8f41b20000000000000000000000000000000000000000000000000000000081526004016118ac93929190612d9a565b60405180910390fd5b6118c384848484035f611ab8565b5b50505050565b5f73ffffffffffffffffffffffffffffffffffffffff168373ffffffffffffffffffffffffffffffffffffffff160361193a575f6040517f96c6fd1e0000000000000000000000000000000000000000000000000000000081526004016119319190612dcf565b60405180910390fd5b5f73ffffffffffffffffffffffffffffffffffffffff168273ffffffffffffffffffffffffffffffffffffffff16036119aa575f6040517fec442f050000000000000000000000000000000000000000000000000000000081526004016119a19190612dcf565b60405180910390fd5b6119b5838383611c87565b505050565b5f73ffffffffffffffffffffffffffffffffffffffff168273ffffffffffffffffffffffffffffffffffffffff1603611a2a575f6040517fec442f05000000000000000000000000000000000000000000000000000000008152600401611a219190612dcf565b60405180910390fd5b611a355f8383611c87565b5050565b5f73ffffffffffffffffffffffffffffffffffffffff168273ffffffffffffffffffffffffffffffffffffffff1603611aa9575f6040517f96c6fd1e000000000000000000000000000000000000000000000000000000008152600401611aa09190612dcf565b60405180910390fd5b611ab4825f83611c87565b5050565b5f73ffffffffffffffffffffffffffffffffffffffff168473ffffffffffffffffffffffffffffffffffffffff1603611b28575f6040517fe602df05000000000000000000000000000000000000000000000000000000008152600401611b1f9190612dcf565b60405180910390fd5b5f73ffffffffffffffffffffffffffffffffffffffff168373ffffffffffffffffffffffffffffffffffffffff1603611b98575f6040517f94280d62000000000000000000000000000000000000000000000000000000008152600401611b8f9190612dcf565b60405180910390fd5b8160015f8673ffffffffffffffffffffffffffffffffffffffff1673ffffffffffffffffffffffffffffffffffffffff1681526020019081526020015f205f8573ffffffffffffffffffffffffffffffffffffffff1673ffffffffffffffffffffffffffffffffffffffff1681526020019081526020015f20819055508015611c81578273ffffffffffffffffffffffffffffffffffffffff168473ffffffffffffffffffffffffffffffffffffffff167f8c5be1e5ebec7d5bd14f71427d1e84f3dd0314c0f7b2291e5b200ac8c7c3b92584604051611c78919061206c565b60405180910390a35b50505050565b5f73ffffffffffffffffffffffffffffffffffffffff168373ffffffffffffffffffffffffffffffffffffffff1603611cd7578060025f828254611ccb9190612de8565b92505081905550611da5565b5f805f8573ffffffffffffffffffffffffffffffffffffffff1673ffffffffffffffffffffffffffffffffffffffff1681526020019081526020015f2054905081811015611d60578381836040517fe450d38c000000000000000000000000000000000000000000000000000000008152600401611d5793929190612d9a565b60405180910390fd5b8181035f808673ffffffffffffffffffffffffffffffffffffffff1673ffffffffffffffffffffffffffffffffffffffff1681526020019081526020015f2081905550505b5f73ffffffffffffffffffffffffffffffffffffffff168273ffffffffffffffffffffffffffffffffffffffff1603611dec578060025f8282540392505081905550611e36565b805f808473ffffffffffffffffffffffffffffffffffffffff1673ffffffffffffffffffffffffffffffffffffffff1681526020019081526020015f205f82825401925050819055505b8173ffffffffffffffffffffffffffffffffffffffff168373ffffffffffffffffffffffffffffffffffffffff167fddf252ad1be2c89b69c2b068fc378daa952ba7f163c4a11628f55a4df523b3ef83604051611e93919061206c565b60405180910390a3505050565b5f81519050919050565b5f82825260208201905092915050565b8281835e5f83830152505050565b5f601f19601f8301169050919050565b5f611ee282611ea0565b611eec8185611eaa565b9350611efc818560208601611eba565b611f0581611ec8565b840191505092915050565b5f6020820190508181035f830152611f288184611ed8565b905092915050565b5f80fd5b5f73ffffffffffffffffffffffffffffffffffffffff82169050919050565b5f611f5d82611f34565b9050919050565b611f6d81611f53565b8114611f77575f80fd5b50565b5f81359050611f8881611f64565b92915050565b5f819050919050565b611fa081611f8e565b8114611faa575f80fd5b50565b5f81359050611fbb81611f97565b92915050565b5f8060408385031215611fd757611fd6611f30565b5b5f611fe485828601611f7a565b9250506020611ff585828601611fad565b9150509250929050565b5f8115159050919050565b61201381611fff565b82525050565b5f60208201905061202c5f83018461200a565b92915050565b5f6020828403121561204757612046611f30565b5b5f61205484828501611f7a565b91505092915050565b61206681611f8e565b82525050565b5f60208201905061207f5f83018461205d565b92915050565b5f805f6060848603121561209c5761209b611f30565b5b5f6120a986828701611f7a565b93505060206120ba86828701611f7a565b92505060406120cb86828701611fad565b9150509250925092565b5f6120df82611f34565b9050919050565b6120ef816120d5565b82525050565b5f6020820190506121085f8301846120e6565b92915050565b5f60ff82169050919050565b6121238161210e565b82525050565b5f60208201905061213c5f83018461211a565b92915050565b5f805f6060848603121561215957612158611f30565b5b5f61216686828701611f7a565b935050602061217786828701611fad565b925050604061218886828701611fad565b9150509250925092565b61219b816120d5565b81146121a5575f80fd5b50565b5f813590506121b681612192565b92915050565b5f805f606084860312156121d3576121d2611f30565b5b5f6121e086828701611f7a565b93505060206121f186828701611fad565b9250506040612202868287016121a8565b9150509250925092565b5f6020828403121561222157612220611f30565b5b5f61222e84828501611fad565b91505092915050565b5f806040838503121561224d5761224c611f30565b5b5f61225a85828601611f7a565b925050602061226b85828601611f7a565b9150509250929050565b61227e81611f53565b82525050565b5f6080820190506122975f830187612275565b6122a4602083018661205d565b6122b1604083018561205d565b6122be606083018461200a565b95945050505050565b5f80604083850312156122dd576122dc611f30565b5b5f6122ea85828601611fad565b92505060206122fb85828601611fad565b9150509250929050565b7f4e487b71000000000000000000000000000000000000000000000000000000005f52602260045260245ffd5b5f600282049050600182168061234957607f821691505b60208210810361235c5761235b612305565b5b50919050565b7f6f6e6c7920676f7665726e6d656e7420617574686f726974792063616e2075735f8201527f6520746869732066756e6374696f6e0000000000000000000000000000000000602082015250565b5f6123bc602f83611eaa565b91506123c782612362565b604082019050919050565b5f6020820190508181035f8301526123e9816123b0565b9050919050565b7f496e76616c6964206164647265737365730000000000000000000000000000005f82015250565b5f612424601183611eaa565b915061242f826123f0565b602082019050919050565b5f6020820190508181035f83015261245181612418565b9050919050565b7f676976656e2061646472657373206d75737420626520616e20696e64757374725f8201527f7900000000000000000000000000000000000000000000000000000000000000602082015250565b5f6124b2602183611eaa565b91506124bd82612458565b604082019050919050565b5f6020820190508181035f8301526124df816124a6565b9050919050565b7f746f6b656e20436f756e74206d7573742062652067726561746572207468616e5f8201527f2030000000000000000000000000000000000000000000000000000000000000602082015250565b5f612540602283611eaa565b915061254b826124e6565b604082019050919050565b5f6020820190508181035f83015261256d81612534565b9050919050565b7f4e487b71000000000000000000000000000000000000000000000000000000005f52601160045260245ffd5b5f8160011c9050919050565b5f808291508390505b60018511156125f6578086048111156125d2576125d1612574565b5b60018516156125e15780820291505b80810290506125ef856125a1565b94506125b6565b94509492505050565b5f8261260e57600190506126c9565b8161261b575f90506126c9565b8160018114612631576002811461263b5761266a565b60019150506126c9565b60ff84111561264d5761264c612574565b5b8360020a91508482111561266457612663612574565b5b506126c9565b5060208310610133831016604e8410600b841016171561269f5782820a90508381111561269a57612699612574565b5b6126c9565b6126ac84848460016125ad565b925090508184048111156126c3576126c2612574565b5b81810290505b9392505050565b5f6126da82611f8e565b91506126e58361210e565b92506127127fffffffffffffffffffffffffffffffffffffffffffffffffffffffffffffffff84846125ff565b905092915050565b5f61272482611f8e565b915061272f83611f8e565b925082820261273d81611f8e565b9150828204841483151761275457612753612574565b5b5092915050565b7f6f6e6c7920696e64757374727920617574686f726974792063616e20757365205f8201527f746869732066756e6374696f6e00000000000000000000000000000000000000602082015250565b5f6127b5602d83611eaa565b91506127c08261275b565b604082019050919050565b5f6020820190508181035f8301526127e2816127a9565b9050919050565b7f546f6b656e20636f756e74206d7573742062652067726561746572207468616e5f8201527f2030000000000000000000000000000000000000000000000000000000000000602082015250565b5f612843602283611eaa565b915061284e826127e9565b604082019050919050565b5f6020820190508181035f83015261287081612837565b9050919050565b7f496e636f727265637420616d6f756e74000000000000000000000000000000005f82015250565b5f6128ab601083611eaa565b91506128b682612877565b602082019050919050565b5f6020820190508181035f8301526128d88161289f565b9050919050565b7f416c6c6f77616e636520657863656564656400000000000000000000000000005f82015250565b5f612913601283611eaa565b915061291e826128df565b602082019050919050565b5f6020820190508181035f83015261294081612907565b9050919050565b5f61295182611f8e565b915061295c83611f8e565b925082820390508181111561297457612973612574565b5b92915050565b7f4c697374696e67206973206e6f742061637469766500000000000000000000005f82015250565b5f6129ae601583611eaa565b91506129b98261297a565b602082019050919050565b5f6020820190508181035f8301526129db816129a2565b9050919050565b7f496e636f7272656374207061796d656e7420616d6f756e7400000000000000005f82015250565b5f612a16601883611eaa565b9150612a21826129e2565b602082019050919050565b5f6020820190508181035f830152612a4381612a0a565b9050919050565b5f604082019050612a5d5f83018561205d565b612a6a602083018461205d565b9392505050565b7f416c7265616479207265676973746572656420617320616e20696e64697669645f8201527f75616c0000000000000000000000000000000000000000000000000000000000602082015250565b5f612acb602383611eaa565b9150612ad682612a71565b604082019050919050565b5f6020820190508181035f830152612af881612abf565b9050919050565b7f4f6e6c79207265676973746572656420696e646976696475616c2075736572735f8201527f2063616e2063616c6c20746869732066756e6374696f6e000000000000000000602082015250565b5f612b59603783611eaa565b9150612b6482612aff565b604082019050919050565b5f6020820190508181035f830152612b8681612b4d565b9050919050565b7f52657761726420616d6f756e74206d75737420626520677265617465722074685f8201527f616e203000000000000000000000000000000000000000000000000000000000602082015250565b5f612be7602483611eaa565b9150612bf282612b8d565b604082019050919050565b5f6020820190508181035f830152612c1481612bdb565b9050919050565b7f746f6b656e20636f756e74206973206e6f7420656e6f756768000000000000005f82015250565b5f612c4f601983611eaa565b9150612c5a82612c1b565b602082019050919050565b5f6020820190508181035f830152612c7c81612c43565b9050919050565b7f496e73756666696369656e742062616c616e63650000000000000000000000005f82015250565b5f612cb7601483611eaa565b9150612cc282612c83565b602082019050919050565b5f6020820190508181035f830152612ce481612cab565b9050919050565b7f496e76616c696420616d6f756e74206f722070726963650000000000000000005f82015250565b5f612d1f601783611eaa565b9150612d2a82612ceb565b602082019050919050565b5f6020820190508181035f830152612d4c81612d13565b9050919050565b5f612d5d82611f8e565b91507fffffffffffffffffffffffffffffffffffffffffffffffffffffffffffffffff8203612d8f57612d8e612574565b5b600182019050919050565b5f606082019050612dad5f830186612275565b612dba602083018561205d565b612dc7604083018461205d565b949350505050565b5f602082019050612de25f830184612275565b92915050565b5f612df282611f8e565b9150612dfd83611f8e565b9250828201905080821115612e1557612e14612574565b5b9291505056fea2646970667358221220ae0d1eae3d8417b07d1a583de42fa6176431363761a3fe5588d3d3787a2bcb4964736f6c634300081a0033",
			"opcodes": "PUSH1 0x80 PUSH1 0x40 MSTORE CALLVALUE DUP1 ISZERO PUSH2 0xF JUMPI PUSH0 DUP1 REVERT JUMPDEST POP PUSH1 0x40 MLOAD PUSH2 0x38A3 CODESIZE SUB DUP1 PUSH2 0x38A3 DUP4 CODECOPY DUP2 DUP2 ADD PUSH1 0x40 MSTORE DUP2 ADD SWAP1 PUSH2 0x31 SWAP2 SWAP1 PUSH2 0x43F JUMP JUMPDEST PUSH1 0x40 MLOAD DUP1 PUSH1 0x40 ADD PUSH1 0x40 MSTORE DUP1 PUSH1 0xB DUP2 MSTORE PUSH1 0x20 ADD PUSH32 0x477265656E437265646974000000000000000000000000000000000000000000 DUP2 MSTORE POP PUSH1 0x40 MLOAD DUP1 PUSH1 0x40 ADD PUSH1 0x40 MSTORE DUP1 PUSH1 0x3 DUP2 MSTORE PUSH1 0x20 ADD PUSH32 0x4743540000000000000000000000000000000000000000000000000000000000 DUP2 MSTORE POP DUP2 PUSH1 0x3 SWAP1 DUP2 PUSH2 0xAC SWAP2 SWAP1 PUSH2 0x69B JUMP JUMPDEST POP DUP1 PUSH1 0x4 SWAP1 DUP2 PUSH2 0xBC SWAP2 SWAP1 PUSH2 0x69B JUMP JUMPDEST POP POP POP CALLER PUSH1 0x5 PUSH0 PUSH2 0x100 EXP DUP2 SLOAD DUP2 PUSH20 0xFFFFFFFFFFFFFFFFFFFFFFFFFFFFFFFFFFFFFFFF MUL NOT AND SWAP1 DUP4 PUSH20 0xFFFFFFFFFFFFFFFFFFFFFFFFFFFFFFFFFFFFFFFF AND MUL OR SWAP1 SSTORE POP DUP1 PUSH1 0x6 DUP2 SWAP1 SSTORE POP PUSH2 0x15C PUSH1 0x5 PUSH0 SWAP1 SLOAD SWAP1 PUSH2 0x100 EXP SWAP1 DIV PUSH20 0xFFFFFFFFFFFFFFFFFFFFFFFFFFFFFFFFFFFFFFFF AND PUSH2 0x139 PUSH2 0x162 PUSH1 0x20 SHL PUSH1 0x20 SHR JUMP JUMPDEST PUSH1 0xA PUSH2 0x145 SWAP2 SWAP1 PUSH2 0x8D2 JUMP JUMPDEST PUSH1 0x64 PUSH2 0x151 SWAP2 SWAP1 PUSH2 0x91C JUMP JUMPDEST PUSH2 0x16A PUSH1 0x20 SHL PUSH1 0x20 SHR JUMP JUMPDEST POP PUSH2 0xA45 JUMP JUMPDEST PUSH0 PUSH1 0x12 SWAP1 POP SWAP1 JUMP JUMPDEST PUSH0 PUSH20 0xFFFFFFFFFFFFFFFFFFFFFFFFFFFFFFFFFFFFFFFF AND DUP3 PUSH20 0xFFFFFFFFFFFFFFFFFFFFFFFFFFFFFFFFFFFFFFFF AND SUB PUSH2 0x1DA JUMPI PUSH0 PUSH1 0x40 MLOAD PUSH32 0xEC442F0500000000000000000000000000000000000000000000000000000000 DUP2 MSTORE PUSH1 0x4 ADD PUSH2 0x1D1 SWAP2 SWAP1 PUSH2 0x99C JUMP JUMPDEST PUSH1 0x40 MLOAD DUP1 SWAP2 SUB SWAP1 REVERT JUMPDEST PUSH2 0x1EB PUSH0 DUP4 DUP4 PUSH2 0x1EF PUSH1 0x20 SHL PUSH1 0x20 SHR JUMP JUMPDEST POP POP JUMP JUMPDEST PUSH0 PUSH20 0xFFFFFFFFFFFFFFFFFFFFFFFFFFFFFFFFFFFFFFFF AND DUP4 PUSH20 0xFFFFFFFFFFFFFFFFFFFFFFFFFFFFFFFFFFFFFFFF AND SUB PUSH2 0x23F JUMPI DUP1 PUSH1 0x2 PUSH0 DUP3 DUP3 SLOAD PUSH2 0x233 SWAP2 SWAP1 PUSH2 0x9B5 JUMP JUMPDEST SWAP3 POP POP DUP2 SWAP1 SSTORE POP PUSH2 0x30D JUMP JUMPDEST PUSH0 DUP1 PUSH0 DUP6 PUSH20 0xFFFFFFFFFFFFFFFFFFFFFFFFFFFFFFFFFFFFFFFF AND PUSH20 0xFFFFFFFFFFFFFFFFFFFFFFFFFFFFFFFFFFFFFFFF AND DUP2 MSTORE PUSH1 0x20 ADD SWAP1 DUP2 MSTORE PUSH1 0x20 ADD PUSH0 KECCAK256 SLOAD SWAP1 POP DUP2 DUP2 LT ISZERO PUSH2 0x2C8 JUMPI DUP4 DUP2 DUP4 PUSH1 0x40 MLOAD PUSH32 0xE450D38C00000000000000000000000000000000000000000000000000000000 DUP2 MSTORE PUSH1 0x4 ADD PUSH2 0x2BF SWAP4 SWAP3 SWAP2 SWAP1 PUSH2 0x9F7 JUMP JUMPDEST PUSH1 0x40 MLOAD DUP1 SWAP2 SUB SWAP1 REVERT JUMPDEST DUP2 DUP2 SUB PUSH0 DUP1 DUP7 PUSH20 0xFFFFFFFFFFFFFFFFFFFFFFFFFFFFFFFFFFFFFFFF AND PUSH20 0xFFFFFFFFFFFFFFFFFFFFFFFFFFFFFFFFFFFFFFFF AND DUP2 MSTORE PUSH1 0x20 ADD SWAP1 DUP2 MSTORE PUSH1 0x20 ADD PUSH0 KECCAK256 DUP2 SWAP1 SSTORE POP POP JUMPDEST PUSH0 PUSH20 0xFFFFFFFFFFFFFFFFFFFFFFFFFFFFFFFFFFFFFFFF AND DUP3 PUSH20 0xFFFFFFFFFFFFFFFFFFFFFFFFFFFFFFFFFFFFFFFF AND SUB PUSH2 0x354 JUMPI DUP1 PUSH1 0x2 PUSH0 DUP3 DUP3 SLOAD SUB SWAP3 POP POP DUP2 SWAP1 SSTORE POP PUSH2 0x39E JUMP JUMPDEST DUP1 PUSH0 DUP1 DUP5 PUSH20 0xFFFFFFFFFFFFFFFFFFFFFFFFFFFFFFFFFFFFFFFF AND PUSH20 0xFFFFFFFFFFFFFFFFFFFFFFFFFFFFFFFFFFFFFFFF AND DUP2 MSTORE PUSH1 0x20 ADD SWAP1 DUP2 MSTORE PUSH1 0x20 ADD PUSH0 KECCAK256 PUSH0 DUP3 DUP3 SLOAD ADD SWAP3 POP POP DUP2 SWAP1 SSTORE POP JUMPDEST DUP2 PUSH20 0xFFFFFFFFFFFFFFFFFFFFFFFFFFFFFFFFFFFFFFFF AND DUP4 PUSH20 0xFFFFFFFFFFFFFFFFFFFFFFFFFFFFFFFFFFFFFFFF AND PUSH32 0xDDF252AD1BE2C89B69C2B068FC378DAA952BA7F163C4A11628F55A4DF523B3EF DUP4 PUSH1 0x40 MLOAD PUSH2 0x3FB SWAP2 SWAP1 PUSH2 0xA2C JUMP JUMPDEST PUSH1 0x40 MLOAD DUP1 SWAP2 SUB SWAP1 LOG3 POP POP POP JUMP JUMPDEST PUSH0 DUP1 REVERT JUMPDEST PUSH0 DUP2 SWAP1 POP SWAP2 SWAP1 POP JUMP JUMPDEST PUSH2 0x41E DUP2 PUSH2 0x40C JUMP JUMPDEST DUP2 EQ PUSH2 0x428 JUMPI PUSH0 DUP1 REVERT JUMPDEST POP JUMP JUMPDEST PUSH0 DUP2 MLOAD SWAP1 POP PUSH2 0x439 DUP2 PUSH2 0x415 JUMP JUMPDEST SWAP3 SWAP2 POP POP JUMP JUMPDEST PUSH0 PUSH1 0x20 DUP3 DUP5 SUB SLT ISZERO PUSH2 0x454 JUMPI PUSH2 0x453 PUSH2 0x408 JUMP JUMPDEST JUMPDEST PUSH0 PUSH2 0x461 DUP5 DUP3 DUP6 ADD PUSH2 0x42B JUMP JUMPDEST SWAP2 POP POP SWAP3 SWAP2 POP POP JUMP JUMPDEST PUSH0 DUP2 MLOAD SWAP1 POP SWAP2 SWAP1 POP JUMP JUMPDEST PUSH32 0x4E487B7100000000000000000000000000000000000000000000000000000000 PUSH0 MSTORE PUSH1 0x41 PUSH1 0x4 MSTORE PUSH1 0x24 PUSH0 REVERT JUMPDEST PUSH32 0x4E487B7100000000000000000000000000000000000000000000000000000000 PUSH0 MSTORE PUSH1 0x22 PUSH1 0x4 MSTORE PUSH1 0x24 PUSH0 REVERT JUMPDEST PUSH0 PUSH1 0x2 DUP3 DIV SWAP1 POP PUSH1 0x1 DUP3 AND DUP1 PUSH2 0x4E5 JUMPI PUSH1 0x7F DUP3 AND SWAP2 POP JUMPDEST PUSH1 0x20 DUP3 LT DUP2 SUB PUSH2 0x4F8 JUMPI PUSH2 0x4F7 PUSH2 0x4A1 JUMP JUMPDEST JUMPDEST POP SWAP2 SWAP1 POP JUMP JUMPDEST PUSH0 DUP2 SWAP1 POP DUP2 PUSH0 MSTORE PUSH1 0x20 PUSH0 KECCAK256 SWAP1 POP SWAP2 SWAP1 POP JUMP JUMPDEST PUSH0 PUSH1 0x20 PUSH1 0x1F DUP4 ADD DIV SWAP1 POP SWAP2 SWAP1 POP JUMP JUMPDEST PUSH0 DUP3 DUP3 SHL SWAP1 POP SWAP3 SWAP2 POP POP JUMP JUMPDEST PUSH0 PUSH1 0x8 DUP4 MUL PUSH2 0x55A PUSH32 0xFFFFFFFFFFFFFFFFFFFFFFFFFFFFFFFFFFFFFFFFFFFFFFFFFFFFFFFFFFFFFFFF DUP3 PUSH2 0x51F JUMP JUMPDEST PUSH2 0x564 DUP7 DUP4 PUSH2 0x51F JUMP JUMPDEST SWAP6 POP DUP1 NOT DUP5 AND SWAP4 POP DUP1 DUP7 AND DUP5 OR SWAP3 POP POP POP SWAP4 SWAP3 POP POP POP JUMP JUMPDEST PUSH0 DUP2 SWAP1 POP SWAP2 SWAP1 POP JUMP JUMPDEST PUSH0 PUSH2 0x59F PUSH2 0x59A PUSH2 0x595 DUP5 PUSH2 0x40C JUMP JUMPDEST PUSH2 0x57C JUMP JUMPDEST PUSH2 0x40C JUMP JUMPDEST SWAP1 POP SWAP2 SWAP1 POP JUMP JUMPDEST PUSH0 DUP2 SWAP1 POP SWAP2 SWAP1 POP JUMP JUMPDEST PUSH2 0x5B8 DUP4 PUSH2 0x585 JUMP JUMPDEST PUSH2 0x5CC PUSH2 0x5C4 DUP3 PUSH2 0x5A6 JUMP JUMPDEST DUP5 DUP5 SLOAD PUSH2 0x52B JUMP JUMPDEST DUP3 SSTORE POP POP POP POP JUMP JUMPDEST PUSH0 SWAP1 JUMP JUMPDEST PUSH2 0x5E0 PUSH2 0x5D4 JUMP JUMPDEST PUSH2 0x5EB DUP2 DUP5 DUP5 PUSH2 0x5AF JUMP JUMPDEST POP POP POP JUMP JUMPDEST JUMPDEST DUP2 DUP2 LT ISZERO PUSH2 0x60E JUMPI PUSH2 0x603 PUSH0 DUP3 PUSH2 0x5D8 JUMP JUMPDEST PUSH1 0x1 DUP2 ADD SWAP1 POP PUSH2 0x5F1 JUMP JUMPDEST POP POP JUMP JUMPDEST PUSH1 0x1F DUP3 GT ISZERO PUSH2 0x653 JUMPI PUSH2 0x624 DUP2 PUSH2 0x4FE JUMP JUMPDEST PUSH2 0x62D DUP5 PUSH2 0x510 JUMP JUMPDEST DUP2 ADD PUSH1 0x20 DUP6 LT ISZERO PUSH2 0x63C JUMPI DUP2 SWAP1 POP JUMPDEST PUSH2 0x650 PUSH2 0x648 DUP6 PUSH2 0x510 JUMP JUMPDEST DUP4 ADD DUP3 PUSH2 0x5F0 JUMP JUMPDEST POP POP JUMPDEST POP POP POP JUMP JUMPDEST PUSH0 DUP3 DUP3 SHR SWAP1 POP SWAP3 SWAP2 POP POP JUMP JUMPDEST PUSH0 PUSH2 0x673 PUSH0 NOT DUP5 PUSH1 0x8 MUL PUSH2 0x658 JUMP JUMPDEST NOT DUP1 DUP4 AND SWAP2 POP POP SWAP3 SWAP2 POP POP JUMP JUMPDEST PUSH0 PUSH2 0x68B DUP4 DUP4 PUSH2 0x664 JUMP JUMPDEST SWAP2 POP DUP3 PUSH1 0x2 MUL DUP3 OR SWAP1 POP SWAP3 SWAP2 POP POP JUMP JUMPDEST PUSH2 0x6A4 DUP3 PUSH2 0x46A JUMP JUMPDEST PUSH8 0xFFFFFFFFFFFFFFFF DUP2 GT ISZERO PUSH2 0x6BD JUMPI PUSH2 0x6BC PUSH2 0x474 JUMP JUMPDEST JUMPDEST PUSH2 0x6C7 DUP3 SLOAD PUSH2 0x4CE JUMP JUMPDEST PUSH2 0x6D2 DUP3 DUP3 DUP6 PUSH2 0x612 JUMP JUMPDEST PUSH0 PUSH1 0x20 SWAP1 POP PUSH1 0x1F DUP4 GT PUSH1 0x1 DUP2 EQ PUSH2 0x703 JUMPI PUSH0 DUP5 ISZERO PUSH2 0x6F1 JUMPI DUP3 DUP8 ADD MLOAD SWAP1 POP JUMPDEST PUSH2 0x6FB DUP6 DUP3 PUSH2 0x680 JUMP JUMPDEST DUP7 SSTORE POP PUSH2 0x762 JUMP JUMPDEST PUSH1 0x1F NOT DUP5 AND PUSH2 0x711 DUP7 PUSH2 0x4FE JUMP JUMPDEST PUSH0 JUMPDEST DUP3 DUP2 LT ISZERO PUSH2 0x738 JUMPI DUP5 DUP10 ADD MLOAD DUP3 SSTORE PUSH1 0x1 DUP3 ADD SWAP2 POP PUSH1 0x20 DUP6 ADD SWAP5 POP PUSH1 0x20 DUP2 ADD SWAP1 POP PUSH2 0x713 JUMP JUMPDEST DUP7 DUP4 LT ISZERO PUSH2 0x755 JUMPI DUP5 DUP10 ADD MLOAD PUSH2 0x751 PUSH1 0x1F DUP10 AND DUP3 PUSH2 0x664 JUMP JUMPDEST DUP4 SSTORE POP JUMPDEST PUSH1 0x1 PUSH1 0x2 DUP9 MUL ADD DUP9 SSTORE POP POP POP JUMPDEST POP POP POP POP POP POP JUMP JUMPDEST PUSH32 0x4E487B7100000000000000000000000000000000000000000000000000000000 PUSH0 MSTORE PUSH1 0x11 PUSH1 0x4 MSTORE PUSH1 0x24 PUSH0 REVERT JUMPDEST PUSH0 DUP2 PUSH1 0x1 SHR SWAP1 POP SWAP2 SWAP1 POP JUMP JUMPDEST PUSH0 DUP1 DUP3 SWAP2 POP DUP4 SWAP1 POP JUMPDEST PUSH1 0x1 DUP6 GT ISZERO PUSH2 0x7EC JUMPI DUP1 DUP7 DIV DUP2 GT ISZERO PUSH2 0x7C8 JUMPI PUSH2 0x7C7 PUSH2 0x76A JUMP JUMPDEST JUMPDEST PUSH1 0x1 DUP6 AND ISZERO PUSH2 0x7D7 JUMPI DUP1 DUP3 MUL SWAP2 POP JUMPDEST DUP1 DUP2 MUL SWAP1 POP PUSH2 0x7E5 DUP6 PUSH2 0x797 JUMP JUMPDEST SWAP5 POP PUSH2 0x7AC JUMP JUMPDEST SWAP5 POP SWAP5 SWAP3 POP POP POP JUMP JUMPDEST PUSH0 DUP3 PUSH2 0x804 JUMPI PUSH1 0x1 SWAP1 POP PUSH2 0x8BF JUMP JUMPDEST DUP2 PUSH2 0x811 JUMPI PUSH0 SWAP1 POP PUSH2 0x8BF JUMP JUMPDEST DUP2 PUSH1 0x1 DUP2 EQ PUSH2 0x827 JUMPI PUSH1 0x2 DUP2 EQ PUSH2 0x831 JUMPI PUSH2 0x860 JUMP JUMPDEST PUSH1 0x1 SWAP2 POP POP PUSH2 0x8BF JUMP JUMPDEST PUSH1 0xFF DUP5 GT ISZERO PUSH2 0x843 JUMPI PUSH2 0x842 PUSH2 0x76A JUMP JUMPDEST JUMPDEST DUP4 PUSH1 0x2 EXP SWAP2 POP DUP5 DUP3 GT ISZERO PUSH2 0x85A JUMPI PUSH2 0x859 PUSH2 0x76A JUMP JUMPDEST JUMPDEST POP PUSH2 0x8BF JUMP JUMPDEST POP PUSH1 0x20 DUP4 LT PUSH2 0x133 DUP4 LT AND PUSH1 0x4E DUP5 LT PUSH1 0xB DUP5 LT AND OR ISZERO PUSH2 0x895 JUMPI DUP3 DUP3 EXP SWAP1 POP DUP4 DUP2 GT ISZERO PUSH2 0x890 JUMPI PUSH2 0x88F PUSH2 0x76A JUMP JUMPDEST JUMPDEST PUSH2 0x8BF JUMP JUMPDEST PUSH2 0x8A2 DUP5 DUP5 DUP5 PUSH1 0x1 PUSH2 0x7A3 JUMP JUMPDEST SWAP3 POP SWAP1 POP DUP2 DUP5 DIV DUP2 GT ISZERO PUSH2 0x8B9 JUMPI PUSH2 0x8B8 PUSH2 0x76A JUMP JUMPDEST JUMPDEST DUP2 DUP2 MUL SWAP1 POP JUMPDEST SWAP4 SWAP3 POP POP POP JUMP JUMPDEST PUSH0 PUSH1 0xFF DUP3 AND SWAP1 POP SWAP2 SWAP1 POP JUMP JUMPDEST PUSH0 PUSH2 0x8DC DUP3 PUSH2 0x40C JUMP JUMPDEST SWAP2 POP PUSH2 0x8E7 DUP4 PUSH2 0x8C6 JUMP JUMPDEST SWAP3 POP PUSH2 0x914 PUSH32 0xFFFFFFFFFFFFFFFFFFFFFFFFFFFFFFFFFFFFFFFFFFFFFFFFFFFFFFFFFFFFFFFF DUP5 DUP5 PUSH2 0x7F5 JUMP JUMPDEST SWAP1 POP SWAP3 SWAP2 POP POP JUMP JUMPDEST PUSH0 PUSH2 0x926 DUP3 PUSH2 0x40C JUMP JUMPDEST SWAP2 POP PUSH2 0x931 DUP4 PUSH2 0x40C JUMP JUMPDEST SWAP3 POP DUP3 DUP3 MUL PUSH2 0x93F DUP2 PUSH2 0x40C JUMP JUMPDEST SWAP2 POP DUP3 DUP3 DIV DUP5 EQ DUP4 ISZERO OR PUSH2 0x956 JUMPI PUSH2 0x955 PUSH2 0x76A JUMP JUMPDEST JUMPDEST POP SWAP3 SWAP2 POP POP JUMP JUMPDEST PUSH0 PUSH20 0xFFFFFFFFFFFFFFFFFFFFFFFFFFFFFFFFFFFFFFFF DUP3 AND SWAP1 POP SWAP2 SWAP1 POP JUMP JUMPDEST PUSH0 PUSH2 0x986 DUP3 PUSH2 0x95D JUMP JUMPDEST SWAP1 POP SWAP2 SWAP1 POP JUMP JUMPDEST PUSH2 0x996 DUP2 PUSH2 0x97C JUMP JUMPDEST DUP3 MSTORE POP POP JUMP JUMPDEST PUSH0 PUSH1 0x20 DUP3 ADD SWAP1 POP PUSH2 0x9AF PUSH0 DUP4 ADD DUP5 PUSH2 0x98D JUMP JUMPDEST SWAP3 SWAP2 POP POP JUMP JUMPDEST PUSH0 PUSH2 0x9BF DUP3 PUSH2 0x40C JUMP JUMPDEST SWAP2 POP PUSH2 0x9CA DUP4 PUSH2 0x40C JUMP JUMPDEST SWAP3 POP DUP3 DUP3 ADD SWAP1 POP DUP1 DUP3 GT ISZERO PUSH2 0x9E2 JUMPI PUSH2 0x9E1 PUSH2 0x76A JUMP JUMPDEST JUMPDEST SWAP3 SWAP2 POP POP JUMP JUMPDEST PUSH2 0x9F1 DUP2 PUSH2 0x40C JUMP JUMPDEST DUP3 MSTORE POP POP JUMP JUMPDEST PUSH0 PUSH1 0x60 DUP3 ADD SWAP1 POP PUSH2 0xA0A PUSH0 DUP4 ADD DUP7 PUSH2 0x98D JUMP JUMPDEST PUSH2 0xA17 PUSH1 0x20 DUP4 ADD DUP6 PUSH2 0x9E8 JUMP JUMPDEST PUSH2 0xA24 PUSH1 0x40 DUP4 ADD DUP5 PUSH2 0x9E8 JUMP JUMPDEST SWAP5 SWAP4 POP POP POP POP JUMP JUMPDEST PUSH0 PUSH1 0x20 DUP3 ADD SWAP1 POP PUSH2 0xA3F PUSH0 DUP4 ADD DUP5 PUSH2 0x9E8 JUMP JUMPDEST SWAP3 SWAP2 POP POP JUMP JUMPDEST PUSH2 0x2E51 DUP1 PUSH2 0xA52 PUSH0 CODECOPY PUSH0 RETURN INVALID PUSH1 0x80 PUSH1 0x40 MSTORE PUSH1 0x4 CALLDATASIZE LT PUSH2 0x19B JUMPI PUSH0 CALLDATALOAD PUSH1 0xE0 SHR DUP1 PUSH4 0x7FF9B596 GT PUSH2 0xEB JUMPI DUP1 PUSH4 0xCB8C0C1D GT PUSH2 0x89 JUMPI DUP1 PUSH4 0xDD62ED3E GT PUSH2 0x63 JUMPI DUP1 PUSH4 0xDD62ED3E EQ PUSH2 0x5A7 JUMPI DUP1 PUSH4 0xDE74E57B EQ PUSH2 0x5E3 JUMPI DUP1 PUSH4 0xF13E8331 EQ PUSH2 0x622 JUMPI DUP1 PUSH4 0xFBD9BE8B EQ PUSH2 0x65E JUMPI PUSH2 0x19B JUMP JUMPDEST DUP1 PUSH4 0xCB8C0C1D EQ PUSH2 0x51B JUMPI DUP1 PUSH4 0xD1DF306C EQ PUSH2 0x557 JUMPI DUP1 PUSH4 0xD22B2ED0 EQ PUSH2 0x57F JUMPI PUSH2 0x19B JUMP JUMPDEST DUP1 PUSH4 0xA9059CBB GT PUSH2 0xC5 JUMPI DUP1 PUSH4 0xA9059CBB EQ PUSH2 0x477 JUMPI DUP1 PUSH4 0xA9B07C26 EQ PUSH2 0x4B3 JUMPI DUP1 PUSH4 0xB6267AE8 EQ PUSH2 0x4DD JUMPI DUP1 PUSH4 0xBD3507DA EQ PUSH2 0x4F3 JUMPI PUSH2 0x19B JUMP JUMPDEST DUP1 PUSH4 0x7FF9B596 EQ PUSH2 0x407 JUMPI DUP1 PUSH4 0x95D89B41 EQ PUSH2 0x431 JUMPI DUP1 PUSH4 0x9A83DC3D EQ PUSH2 0x45B JUMPI PUSH2 0x19B JUMP JUMPDEST DUP1 PUSH4 0x313CE567 GT PUSH2 0x158 JUMPI DUP1 PUSH4 0x5FE01930 GT PUSH2 0x132 JUMPI DUP1 PUSH4 0x5FE01930 EQ PUSH2 0x35F JUMPI DUP1 PUSH4 0x692BF4A8 EQ PUSH2 0x387 JUMPI DUP1 PUSH4 0x6A61E5FC EQ PUSH2 0x3A3 JUMPI DUP1 PUSH4 0x70A08231 EQ PUSH2 0x3CB JUMPI PUSH2 0x19B JUMP JUMPDEST DUP1 PUSH4 0x313CE567 EQ PUSH2 0x2D1 JUMPI DUP1 PUSH4 0x4FAC0168 EQ PUSH2 0x2FB JUMPI DUP1 PUSH4 0x51E73A16 EQ PUSH2 0x337 JUMPI PUSH2 0x19B JUMP JUMPDEST DUP1 PUSH4 0x6FDDE03 EQ PUSH2 0x19F JUMPI DUP1 PUSH4 0x95EA7B3 EQ PUSH2 0x1C9 JUMPI DUP1 PUSH4 0xA8C8F20 EQ PUSH2 0x205 JUMPI DUP1 PUSH4 0x18160DDD EQ PUSH2 0x241 JUMPI DUP1 PUSH4 0x23B872DD EQ PUSH2 0x26B JUMPI DUP1 PUSH4 0x2EA665CD EQ PUSH2 0x2A7 JUMPI JUMPDEST PUSH0 DUP1 REVERT JUMPDEST CALLVALUE DUP1 ISZERO PUSH2 0x1AA JUMPI PUSH0 DUP1 REVERT JUMPDEST POP PUSH2 0x1B3 PUSH2 0x686 JUMP JUMPDEST PUSH1 0x40 MLOAD PUSH2 0x1C0 SWAP2 SWAP1 PUSH2 0x1F10 JUMP JUMPDEST PUSH1 0x40 MLOAD DUP1 SWAP2 SUB SWAP1 RETURN JUMPDEST CALLVALUE DUP1 ISZERO PUSH2 0x1D4 JUMPI PUSH0 DUP1 REVERT JUMPDEST POP PUSH2 0x1EF PUSH1 0x4 DUP1 CALLDATASIZE SUB DUP2 ADD SWAP1 PUSH2 0x1EA SWAP2 SWAP1 PUSH2 0x1FC1 JUMP JUMPDEST PUSH2 0x716 JUMP JUMPDEST PUSH1 0x40 MLOAD PUSH2 0x1FC SWAP2 SWAP1 PUSH2 0x2019 JUMP JUMPDEST PUSH1 0x40 MLOAD DUP1 SWAP2 SUB SWAP1 RETURN JUMPDEST CALLVALUE DUP1 ISZERO PUSH2 0x210 JUMPI PUSH0 DUP1 REVERT JUMPDEST POP PUSH2 0x22B PUSH1 0x4 DUP1 CALLDATASIZE SUB DUP2 ADD SWAP1 PUSH2 0x226 SWAP2 SWAP1 PUSH2 0x2032 JUMP JUMPDEST PUSH2 0x738 JUMP JUMPDEST PUSH1 0x40 MLOAD PUSH2 0x238 SWAP2 SWAP1 PUSH2 0x2019 JUMP JUMPDEST PUSH1 0x40 MLOAD DUP1 SWAP2 SUB SWAP1 RETURN JUMPDEST CALLVALUE DUP1 ISZERO PUSH2 0x24C JUMPI PUSH0 DUP1 REVERT JUMPDEST POP PUSH2 0x255 PUSH2 0x755 JUMP JUMPDEST PUSH1 0x40 MLOAD PUSH2 0x262 SWAP2 SWAP1 PUSH2 0x206C JUMP JUMPDEST PUSH1 0x40 MLOAD DUP1 SWAP2 SUB SWAP1 RETURN JUMPDEST CALLVALUE DUP1 ISZERO PUSH2 0x276 JUMPI PUSH0 DUP1 REVERT JUMPDEST POP PUSH2 0x291 PUSH1 0x4 DUP1 CALLDATASIZE SUB DUP2 ADD SWAP1 PUSH2 0x28C SWAP2 SWAP1 PUSH2 0x2085 JUMP JUMPDEST PUSH2 0x75E JUMP JUMPDEST PUSH1 0x40 MLOAD PUSH2 0x29E SWAP2 SWAP1 PUSH2 0x2019 JUMP JUMPDEST PUSH1 0x40 MLOAD DUP1 SWAP2 SUB SWAP1 RETURN JUMPDEST CALLVALUE DUP1 ISZERO PUSH2 0x2B2 JUMPI PUSH0 DUP1 REVERT JUMPDEST POP PUSH2 0x2BB PUSH2 0x78C JUMP JUMPDEST PUSH1 0x40 MLOAD PUSH2 0x2C8 SWAP2 SWAP1 PUSH2 0x20F5 JUMP JUMPDEST PUSH1 0x40 MLOAD DUP1 SWAP2 SUB SWAP1 RETURN JUMPDEST CALLVALUE DUP1 ISZERO PUSH2 0x2DC JUMPI PUSH0 DUP1 REVERT JUMPDEST POP PUSH2 0x2E5 PUSH2 0x7B1 JUMP JUMPDEST PUSH1 0x40 MLOAD PUSH2 0x2F2 SWAP2 SWAP1 PUSH2 0x2129 JUMP JUMPDEST PUSH1 0x40 MLOAD DUP1 SWAP2 SUB SWAP1 RETURN JUMPDEST CALLVALUE DUP1 ISZERO PUSH2 0x306 JUMPI PUSH0 DUP1 REVERT JUMPDEST POP PUSH2 0x321 PUSH1 0x4 DUP1 CALLDATASIZE SUB DUP2 ADD SWAP1 PUSH2 0x31C SWAP2 SWAP1 PUSH2 0x2032 JUMP JUMPDEST PUSH2 0x7B9 JUMP JUMPDEST PUSH1 0x40 MLOAD PUSH2 0x32E SWAP2 SWAP1 PUSH2 0x2019 JUMP JUMPDEST PUSH1 0x40 MLOAD DUP1 SWAP2 SUB SWAP1 RETURN JUMPDEST CALLVALUE DUP1 ISZERO PUSH2 0x342 JUMPI PUSH0 DUP1 REVERT JUMPDEST POP PUSH2 0x35D PUSH1 0x4 DUP1 CALLDATASIZE SUB DUP2 ADD SWAP1 PUSH2 0x358 SWAP2 SWAP1 PUSH2 0x2142 JUMP JUMPDEST PUSH2 0x7D6 JUMP JUMPDEST STOP JUMPDEST CALLVALUE DUP1 ISZERO PUSH2 0x36A JUMPI PUSH0 DUP1 REVERT JUMPDEST POP PUSH2 0x385 PUSH1 0x4 DUP1 CALLDATASIZE SUB DUP2 ADD SWAP1 PUSH2 0x380 SWAP2 SWAP1 PUSH2 0x2032 JUMP JUMPDEST PUSH2 0xA16 JUMP JUMPDEST STOP JUMPDEST PUSH2 0x3A1 PUSH1 0x4 DUP1 CALLDATASIZE SUB DUP2 ADD SWAP1 PUSH2 0x39C SWAP2 SWAP1 PUSH2 0x21BC JUMP JUMPDEST PUSH2 0xA6E JUMP JUMPDEST STOP JUMPDEST CALLVALUE DUP1 ISZERO PUSH2 0x3AE JUMPI PUSH0 DUP1 REVERT JUMPDEST POP PUSH2 0x3C9 PUSH1 0x4 DUP1 CALLDATASIZE SUB DUP2 ADD SWAP1 PUSH2 0x3C4 SWAP2 SWAP1 PUSH2 0x220C JUMP JUMPDEST PUSH2 0xD70 JUMP JUMPDEST STOP JUMPDEST CALLVALUE DUP1 ISZERO PUSH2 0x3D6 JUMPI PUSH0 DUP1 REVERT JUMPDEST POP PUSH2 0x3F1 PUSH1 0x4 DUP1 CALLDATASIZE SUB DUP2 ADD SWAP1 PUSH2 0x3EC SWAP2 SWAP1 PUSH2 0x2032 JUMP JUMPDEST PUSH2 0xE0A JUMP JUMPDEST PUSH1 0x40 MLOAD PUSH2 0x3FE SWAP2 SWAP1 PUSH2 0x206C JUMP JUMPDEST PUSH1 0x40 MLOAD DUP1 SWAP2 SUB SWAP1 RETURN JUMPDEST CALLVALUE DUP1 ISZERO PUSH2 0x412 JUMPI PUSH0 DUP1 REVERT JUMPDEST POP PUSH2 0x41B PUSH2 0xE4F JUMP JUMPDEST PUSH1 0x40 MLOAD PUSH2 0x428 SWAP2 SWAP1 PUSH2 0x206C JUMP JUMPDEST PUSH1 0x40 MLOAD DUP1 SWAP2 SUB SWAP1 RETURN JUMPDEST CALLVALUE DUP1 ISZERO PUSH2 0x43C JUMPI PUSH0 DUP1 REVERT JUMPDEST POP PUSH2 0x445 PUSH2 0xE55 JUMP JUMPDEST PUSH1 0x40 MLOAD PUSH2 0x452 SWAP2 SWAP1 PUSH2 0x1F10 JUMP JUMPDEST PUSH1 0x40 MLOAD DUP1 SWAP2 SUB SWAP1 RETURN JUMPDEST PUSH2 0x475 PUSH1 0x4 DUP1 CALLDATASIZE SUB DUP2 ADD SWAP1 PUSH2 0x470 SWAP2 SWAP1 PUSH2 0x220C JUMP JUMPDEST PUSH2 0xEE5 JUMP JUMPDEST STOP JUMPDEST CALLVALUE DUP1 ISZERO PUSH2 0x482 JUMPI PUSH0 DUP1 REVERT JUMPDEST POP PUSH2 0x49D PUSH1 0x4 DUP1 CALLDATASIZE SUB DUP2 ADD SWAP1 PUSH2 0x498 SWAP2 SWAP1 PUSH2 0x1FC1 JUMP JUMPDEST PUSH2 0x1184 JUMP JUMPDEST PUSH1 0x40 MLOAD PUSH2 0x4AA SWAP2 SWAP1 PUSH2 0x2019 JUMP JUMPDEST PUSH1 0x40 MLOAD DUP1 SWAP2 SUB SWAP1 RETURN JUMPDEST CALLVALUE DUP1 ISZERO PUSH2 0x4BE JUMPI PUSH0 DUP1 REVERT JUMPDEST POP PUSH2 0x4C7 PUSH2 0x11A6 JUMP JUMPDEST PUSH1 0x40 MLOAD PUSH2 0x4D4 SWAP2 SWAP1 PUSH2 0x206C JUMP JUMPDEST PUSH1 0x40 MLOAD DUP1 SWAP2 SUB SWAP1 RETURN JUMPDEST CALLVALUE DUP1 ISZERO PUSH2 0x4E8 JUMPI PUSH0 DUP1 REVERT JUMPDEST POP PUSH2 0x4F1 PUSH2 0x11AC JUMP JUMPDEST STOP JUMPDEST CALLVALUE DUP1 ISZERO PUSH2 0x4FE JUMPI PUSH0 DUP1 REVERT JUMPDEST POP PUSH2 0x519 PUSH1 0x4 DUP1 CALLDATASIZE SUB DUP2 ADD SWAP1 PUSH2 0x514 SWAP2 SWAP1 PUSH2 0x220C JUMP JUMPDEST PUSH2 0x128D JUMP JUMPDEST STOP JUMPDEST CALLVALUE DUP1 ISZERO PUSH2 0x526 JUMPI PUSH0 DUP1 REVERT JUMPDEST POP PUSH2 0x541 PUSH1 0x4 DUP1 CALLDATASIZE SUB DUP2 ADD SWAP1 PUSH2 0x53C SWAP2 SWAP1 PUSH2 0x2032 JUMP JUMPDEST PUSH2 0x1383 JUMP JUMPDEST PUSH1 0x40 MLOAD PUSH2 0x54E SWAP2 SWAP1 PUSH2 0x206C JUMP JUMPDEST PUSH1 0x40 MLOAD DUP1 SWAP2 SUB SWAP1 RETURN JUMPDEST CALLVALUE DUP1 ISZERO PUSH2 0x562 JUMPI PUSH0 DUP1 REVERT JUMPDEST POP PUSH2 0x57D PUSH1 0x4 DUP1 CALLDATASIZE SUB DUP2 ADD SWAP1 PUSH2 0x578 SWAP2 SWAP1 PUSH2 0x1FC1 JUMP JUMPDEST PUSH2 0x1398 JUMP JUMPDEST STOP JUMPDEST CALLVALUE DUP1 ISZERO PUSH2 0x58A JUMPI PUSH0 DUP1 REVERT JUMPDEST POP PUSH2 0x5A5 PUSH1 0x4 DUP1 CALLDATASIZE SUB DUP2 ADD SWAP1 PUSH2 0x5A0 SWAP2 SWAP1 PUSH2 0x2032 JUMP JUMPDEST PUSH2 0x142D JUMP JUMPDEST STOP JUMPDEST CALLVALUE DUP1 ISZERO PUSH2 0x5B2 JUMPI PUSH0 DUP1 REVERT JUMPDEST POP PUSH2 0x5CD PUSH1 0x4 DUP1 CALLDATASIZE SUB DUP2 ADD SWAP1 PUSH2 0x5C8 SWAP2 SWAP1 PUSH2 0x2237 JUMP JUMPDEST PUSH2 0x14AF JUMP JUMPDEST PUSH1 0x40 MLOAD PUSH2 0x5DA SWAP2 SWAP1 PUSH2 0x206C JUMP JUMPDEST PUSH1 0x40 MLOAD DUP1 SWAP2 SUB SWAP1 RETURN JUMPDEST CALLVALUE DUP1 ISZERO PUSH2 0x5EE JUMPI PUSH0 DUP1 REVERT JUMPDEST POP PUSH2 0x609 PUSH1 0x4 DUP1 CALLDATASIZE SUB DUP2 ADD SWAP1 PUSH2 0x604 SWAP2 SWAP1 PUSH2 0x220C JUMP JUMPDEST PUSH2 0x1531 JUMP JUMPDEST PUSH1 0x40 MLOAD PUSH2 0x619 SWAP5 SWAP4 SWAP3 SWAP2 SWAP1 PUSH2 0x2284 JUMP JUMPDEST PUSH1 0x40 MLOAD DUP1 SWAP2 SUB SWAP1 RETURN JUMPDEST CALLVALUE DUP1 ISZERO PUSH2 0x62D JUMPI PUSH0 DUP1 REVERT JUMPDEST POP PUSH2 0x648 PUSH1 0x4 DUP1 CALLDATASIZE SUB DUP2 ADD SWAP1 PUSH2 0x643 SWAP2 SWAP1 PUSH2 0x2032 JUMP JUMPDEST PUSH2 0x1588 JUMP JUMPDEST PUSH1 0x40 MLOAD PUSH2 0x655 SWAP2 SWAP1 PUSH2 0x2019 JUMP JUMPDEST PUSH1 0x40 MLOAD DUP1 SWAP2 SUB SWAP1 RETURN JUMPDEST CALLVALUE DUP1 ISZERO PUSH2 0x669 JUMPI PUSH0 DUP1 REVERT JUMPDEST POP PUSH2 0x684 PUSH1 0x4 DUP1 CALLDATASIZE SUB DUP2 ADD SWAP1 PUSH2 0x67F SWAP2 SWAP1 PUSH2 0x22C7 JUMP JUMPDEST PUSH2 0x15A5 JUMP JUMPDEST STOP JUMPDEST PUSH1 0x60 PUSH1 0x3 DUP1 SLOAD PUSH2 0x695 SWAP1 PUSH2 0x2332 JUMP JUMPDEST DUP1 PUSH1 0x1F ADD PUSH1 0x20 DUP1 SWAP2 DIV MUL PUSH1 0x20 ADD PUSH1 0x40 MLOAD SWAP1 DUP2 ADD PUSH1 0x40 MSTORE DUP1 SWAP3 SWAP2 SWAP1 DUP2 DUP2 MSTORE PUSH1 0x20 ADD DUP3 DUP1 SLOAD PUSH2 0x6C1 SWAP1 PUSH2 0x2332 JUMP JUMPDEST DUP1 ISZERO PUSH2 0x70C JUMPI DUP1 PUSH1 0x1F LT PUSH2 0x6E3 JUMPI PUSH2 0x100 DUP1 DUP4 SLOAD DIV MUL DUP4 MSTORE SWAP2 PUSH1 0x20 ADD SWAP2 PUSH2 0x70C JUMP JUMPDEST DUP3 ADD SWAP2 SWAP1 PUSH0 MSTORE PUSH1 0x20 PUSH0 KECCAK256 SWAP1 JUMPDEST DUP2 SLOAD DUP2 MSTORE SWAP1 PUSH1 0x1 ADD SWAP1 PUSH1 0x20 ADD DUP1 DUP4 GT PUSH2 0x6EF JUMPI DUP3 SWAP1 SUB PUSH1 0x1F AND DUP3 ADD SWAP2 JUMPDEST POP POP POP POP POP SWAP1 POP SWAP1 JUMP JUMPDEST PUSH0 DUP1 PUSH2 0x720 PUSH2 0x181F JUMP JUMPDEST SWAP1 POP PUSH2 0x72D DUP2 DUP6 DUP6 PUSH2 0x1826 JUMP JUMPDEST PUSH1 0x1 SWAP2 POP POP SWAP3 SWAP2 POP POP JUMP JUMPDEST PUSH1 0x8 PUSH1 0x20 MSTORE DUP1 PUSH0 MSTORE PUSH1 0x40 PUSH0 KECCAK256 PUSH0 SWAP2 POP SLOAD SWAP1 PUSH2 0x100 EXP SWAP1 DIV PUSH1 0xFF AND DUP2 JUMP JUMPDEST PUSH0 PUSH1 0x2 SLOAD SWAP1 POP SWAP1 JUMP JUMPDEST PUSH0 DUP1 PUSH2 0x768 PUSH2 0x181F JUMP JUMPDEST SWAP1 POP PUSH2 0x775 DUP6 DUP3 DUP6 PUSH2 0x1838 JUMP JUMPDEST PUSH2 0x780 DUP6 DUP6 DUP6 PUSH2 0x18CA JUMP JUMPDEST PUSH1 0x1 SWAP2 POP POP SWAP4 SWAP3 POP POP POP JUMP JUMPDEST PUSH1 0x5 PUSH0 SWAP1 SLOAD SWAP1 PUSH2 0x100 EXP SWAP1 DIV PUSH20 0xFFFFFFFFFFFFFFFFFFFFFFFFFFFFFFFFFFFFFFFF AND DUP2 JUMP JUMPDEST PUSH0 PUSH1 0x12 SWAP1 POP SWAP1 JUMP JUMPDEST PUSH1 0x9 PUSH1 0x20 MSTORE DUP1 PUSH0 MSTORE PUSH1 0x40 PUSH0 KECCAK256 PUSH0 SWAP2 POP SLOAD SWAP1 PUSH2 0x100 EXP SWAP1 DIV PUSH1 0xFF AND DUP2 JUMP JUMPDEST PUSH1 0x1 ISZERO ISZERO PUSH1 0x7 PUSH0 CALLER PUSH20 0xFFFFFFFFFFFFFFFFFFFFFFFFFFFFFFFFFFFFFFFF AND PUSH20 0xFFFFFFFFFFFFFFFFFFFFFFFFFFFFFFFFFFFFFFFF AND DUP2 MSTORE PUSH1 0x20 ADD SWAP1 DUP2 MSTORE PUSH1 0x20 ADD PUSH0 KECCAK256 PUSH0 SWAP1 SLOAD SWAP1 PUSH2 0x100 EXP SWAP1 DIV PUSH1 0xFF AND ISZERO ISZERO EQ PUSH2 0x866 JUMPI PUSH1 0x40 MLOAD PUSH32 0x8C379A000000000000000000000000000000000000000000000000000000000 DUP2 MSTORE PUSH1 0x4 ADD PUSH2 0x85D SWAP1 PUSH2 0x23D2 JUMP JUMPDEST PUSH1 0x40 MLOAD DUP1 SWAP2 SUB SWAP1 REVERT JUMPDEST PUSH0 PUSH20 0xFFFFFFFFFFFFFFFFFFFFFFFFFFFFFFFFFFFFFFFF AND DUP4 PUSH20 0xFFFFFFFFFFFFFFFFFFFFFFFFFFFFFFFFFFFFFFFF AND SUB PUSH2 0x8D4 JUMPI PUSH1 0x40 MLOAD PUSH32 0x8C379A000000000000000000000000000000000000000000000000000000000 DUP2 MSTORE PUSH1 0x4 ADD PUSH2 0x8CB SWAP1 PUSH2 0x243A JUMP JUMPDEST PUSH1 0x40 MLOAD DUP1 SWAP2 SUB SWAP1 REVERT JUMPDEST PUSH1 0x1 ISZERO ISZERO PUSH1 0x8 PUSH0 DUP6 PUSH20 0xFFFFFFFFFFFFFFFFFFFFFFFFFFFFFFFFFFFFFFFF AND PUSH20 0xFFFFFFFFFFFFFFFFFFFFFFFFFFFFFFFFFFFFFFFF AND DUP2 MSTORE PUSH1 0x20 ADD SWAP1 DUP2 MSTORE PUSH1 0x20 ADD PUSH0 KECCAK256 PUSH0 SWAP1 SLOAD SWAP1 PUSH2 0x100 EXP SWAP1 DIV PUSH1 0xFF AND ISZERO ISZERO EQ PUSH2 0x964 JUMPI PUSH1 0x40 MLOAD PUSH32 0x8C379A000000000000000000000000000000000000000000000000000000000 DUP2 MSTORE PUSH1 0x4 ADD PUSH2 0x95B SWAP1 PUSH2 0x24C8 JUMP JUMPDEST PUSH1 0x40 MLOAD DUP1 SWAP2 SUB SWAP1 REVERT JUMPDEST PUSH0 DUP2 GT PUSH2 0x9A6 JUMPI PUSH1 0x40 MLOAD PUSH32 0x8C379A000000000000000000000000000000000000000000000000000000000 DUP2 MSTORE PUSH1 0x4 ADD PUSH2 0x99D SWAP1 PUSH2 0x2556 JUMP JUMPDEST PUSH1 0x40 MLOAD DUP1 SWAP2 SUB SWAP1 REVERT JUMPDEST DUP2 PUSH1 0xA PUSH0 DUP6 PUSH20 0xFFFFFFFFFFFFFFFFFFFFFFFFFFFFFFFFFFFFFFFF AND PUSH20 0xFFFFFFFFFFFFFFFFFFFFFFFFFFFFFFFFFFFFFFFF AND DUP2 MSTORE PUSH1 0x20 ADD SWAP1 DUP2 MSTORE PUSH1 0x20 ADD PUSH0 KECCAK256 DUP2 SWAP1 SSTORE POP PUSH2 0xA11 CALLER DUP5 PUSH2 0x9F5 PUSH2 0x7B1 JUMP JUMPDEST PUSH1 0xA PUSH2 0xA01 SWAP2 SWAP1 PUSH2 0x26D0 JUMP JUMPDEST DUP5 PUSH2 0xA0C SWAP2 SWAP1 PUSH2 0x271A JUMP JUMPDEST PUSH2 0x18CA JUMP JUMPDEST POP POP POP JUMP JUMPDEST PUSH1 0x1 PUSH1 0x8 PUSH0 DUP4 PUSH20 0xFFFFFFFFFFFFFFFFFFFFFFFFFFFFFFFFFFFFFFFF AND PUSH20 0xFFFFFFFFFFFFFFFFFFFFFFFFFFFFFFFFFFFFFFFF AND DUP2 MSTORE PUSH1 0x20 ADD SWAP1 DUP2 MSTORE PUSH1 0x20 ADD PUSH0 KECCAK256 PUSH0 PUSH2 0x100 EXP DUP2 SLOAD DUP2 PUSH1 0xFF MUL NOT AND SWAP1 DUP4 ISZERO ISZERO MUL OR SWAP1 SSTORE POP POP JUMP JUMPDEST PUSH1 0x1 ISZERO ISZERO PUSH1 0x8 PUSH0 CALLER PUSH20 0xFFFFFFFFFFFFFFFFFFFFFFFFFFFFFFFFFFFFFFFF AND PUSH20 0xFFFFFFFFFFFFFFFFFFFFFFFFFFFFFFFFFFFFFFFF AND DUP2 MSTORE PUSH1 0x20 ADD SWAP1 DUP2 MSTORE PUSH1 0x20 ADD PUSH0 KECCAK256 PUSH0 SWAP1 SLOAD SWAP1 PUSH2 0x100 EXP SWAP1 DIV PUSH1 0xFF AND ISZERO ISZERO EQ PUSH2 0xAFE JUMPI PUSH1 0x40 MLOAD PUSH32 0x8C379A000000000000000000000000000000000000000000000000000000000 DUP2 MSTORE PUSH1 0x4 ADD PUSH2 0xAF5 SWAP1 PUSH2 0x27CB JUMP JUMPDEST PUSH1 0x40 MLOAD DUP1 SWAP2 SUB SWAP1 REVERT JUMPDEST PUSH0 DUP3 GT PUSH2 0xB40 JUMPI PUSH1 0x40 MLOAD PUSH32 0x8C379A000000000000000000000000000000000000000000000000000000000 DUP2 MSTORE PUSH1 0x4 ADD PUSH2 0xB37 SWAP1 PUSH2 0x2859 JUMP JUMPDEST PUSH1 0x40 MLOAD DUP1 SWAP2 SUB SWAP1 REVERT JUMPDEST CALLVALUE DUP3 PUSH1 0x6 SLOAD PUSH2 0xB4F SWAP2 SWAP1 PUSH2 0x271A JUMP JUMPDEST EQ PUSH2 0xB8F JUMPI PUSH1 0x40 MLOAD PUSH32 0x8C379A000000000000000000000000000000000000000000000000000000000 DUP2 MSTORE PUSH1 0x4 ADD PUSH2 0xB86 SWAP1 PUSH2 0x28C1 JUMP JUMPDEST PUSH1 0x40 MLOAD DUP1 SWAP2 SUB SWAP1 REVERT JUMPDEST DUP2 PUSH1 0xA PUSH0 DUP6 PUSH20 0xFFFFFFFFFFFFFFFFFFFFFFFFFFFFFFFFFFFFFFFF AND PUSH20 0xFFFFFFFFFFFFFFFFFFFFFFFFFFFFFFFFFFFFFFFF AND DUP2 MSTORE PUSH1 0x20 ADD SWAP1 DUP2 MSTORE PUSH1 0x20 ADD PUSH0 KECCAK256 SLOAD LT ISZERO PUSH2 0xC0F JUMPI PUSH1 0x40 MLOAD PUSH32 0x8C379A000000000000000000000000000000000000000000000000000000000 DUP2 MSTORE PUSH1 0x4 ADD PUSH2 0xC06 SWAP1 PUSH2 0x2929 JUMP JUMPDEST PUSH1 0x40 MLOAD DUP1 SWAP2 SUB SWAP1 REVERT JUMPDEST PUSH2 0xC37 DUP4 PUSH2 0xC1B PUSH2 0x7B1 JUMP JUMPDEST PUSH1 0xA PUSH2 0xC27 SWAP2 SWAP1 PUSH2 0x26D0 JUMP JUMPDEST DUP5 PUSH2 0xC32 SWAP2 SWAP1 PUSH2 0x271A JUMP JUMPDEST PUSH2 0x19BA JUMP JUMPDEST DUP1 PUSH20 0xFFFFFFFFFFFFFFFFFFFFFFFFFFFFFFFFFFFFFFFF AND PUSH2 0x8FC CALLVALUE SWAP1 DUP2 ISZERO MUL SWAP1 PUSH1 0x40 MLOAD PUSH0 PUSH1 0x40 MLOAD DUP1 DUP4 SUB DUP2 DUP6 DUP9 DUP9 CALL SWAP4 POP POP POP POP ISZERO DUP1 ISZERO PUSH2 0xC7A JUMPI RETURNDATASIZE PUSH0 DUP1 RETURNDATACOPY RETURNDATASIZE PUSH0 REVERT JUMPDEST POP DUP2 PUSH1 0xA PUSH0 DUP6 PUSH20 0xFFFFFFFFFFFFFFFFFFFFFFFFFFFFFFFFFFFFFFFF AND PUSH20 0xFFFFFFFFFFFFFFFFFFFFFFFFFFFFFFFFFFFFFFFF AND DUP2 MSTORE PUSH1 0x20 ADD SWAP1 DUP2 MSTORE PUSH1 0x20 ADD PUSH0 KECCAK256 SLOAD PUSH2 0xCC4 SWAP2 SWAP1 PUSH2 0x2947 JUMP JUMPDEST PUSH1 0xA PUSH0 DUP6 PUSH20 0xFFFFFFFFFFFFFFFFFFFFFFFFFFFFFFFFFFFFFFFF AND PUSH20 0xFFFFFFFFFFFFFFFFFFFFFFFFFFFFFFFFFFFFFFFF AND DUP2 MSTORE PUSH1 0x20 ADD SWAP1 DUP2 MSTORE PUSH1 0x20 ADD PUSH0 KECCAK256 DUP2 SWAP1 SSTORE POP DUP2 DUP2 PUSH20 0xFFFFFFFFFFFFFFFFFFFFFFFFFFFFFFFFFFFFFFFF AND DUP5 PUSH20 0xFFFFFFFFFFFFFFFFFFFFFFFFFFFFFFFFFFFFFFFF AND PUSH32 0x5FC4872A04FC9EF9E80A6593DB4A82874EA60FBC1F93BD4D0B7A00D4AA8AE556 CALLVALUE PUSH1 0x40 MLOAD PUSH2 0xD63 SWAP2 SWAP1 PUSH2 0x206C JUMP JUMPDEST PUSH1 0x40 MLOAD DUP1 SWAP2 SUB SWAP1 LOG4 POP POP POP JUMP JUMPDEST PUSH1 0x1 ISZERO ISZERO PUSH1 0x7 PUSH0 CALLER PUSH20 0xFFFFFFFFFFFFFFFFFFFFFFFFFFFFFFFFFFFFFFFF AND PUSH20 0xFFFFFFFFFFFFFFFFFFFFFFFFFFFFFFFFFFFFFFFF AND DUP2 MSTORE PUSH1 0x20 ADD SWAP1 DUP2 MSTORE PUSH1 0x20 ADD PUSH0 KECCAK256 PUSH0 SWAP1 SLOAD SWAP1 PUSH2 0x100 EXP SWAP1 DIV PUSH1 0xFF AND ISZERO ISZERO EQ PUSH2 0xE00 JUMPI PUSH1 0x40 MLOAD PUSH32 0x8C379A000000000000000000000000000000000000000000000000000000000 DUP2 MSTORE PUSH1 0x4 ADD PUSH2 0xDF7 SWAP1 PUSH2 0x23D2 JUMP JUMPDEST PUSH1 0x40 MLOAD DUP1 SWAP2 SUB SWAP1 REVERT JUMPDEST DUP1 PUSH1 0x6 DUP2 SWAP1 SSTORE POP POP JUMP JUMPDEST PUSH0 DUP1 PUSH0 DUP4 PUSH20 0xFFFFFFFFFFFFFFFFFFFFFFFFFFFFFFFFFFFFFFFF AND PUSH20 0xFFFFFFFFFFFFFFFFFFFFFFFFFFFFFFFFFFFFFFFF AND DUP2 MSTORE PUSH1 0x20 ADD SWAP1 DUP2 MSTORE PUSH1 0x20 ADD PUSH0 KECCAK256 SLOAD SWAP1 POP SWAP2 SWAP1 POP JUMP JUMPDEST PUSH1 0x6 SLOAD DUP2 JUMP JUMPDEST PUSH1 0x60 PUSH1 0x4 DUP1 SLOAD PUSH2 0xE64 SWAP1 PUSH2 0x2332 JUMP JUMPDEST DUP1 PUSH1 0x1F ADD PUSH1 0x20 DUP1 SWAP2 DIV MUL PUSH1 0x20 ADD PUSH1 0x40 MLOAD SWAP1 DUP2 ADD PUSH1 0x40 MSTORE DUP1 SWAP3 SWAP2 SWAP1 DUP2 DUP2 MSTORE PUSH1 0x20 ADD DUP3 DUP1 SLOAD PUSH2 0xE90 SWAP1 PUSH2 0x2332 JUMP JUMPDEST DUP1 ISZERO PUSH2 0xEDB JUMPI DUP1 PUSH1 0x1F LT PUSH2 0xEB2 JUMPI PUSH2 0x100 DUP1 DUP4 SLOAD DIV MUL DUP4 MSTORE SWAP2 PUSH1 0x20 ADD SWAP2 PUSH2 0xEDB JUMP JUMPDEST DUP3 ADD SWAP2 SWAP1 PUSH0 MSTORE PUSH1 0x20 PUSH0 KECCAK256 SWAP1 JUMPDEST DUP2 SLOAD DUP2 MSTORE SWAP1 PUSH1 0x1 ADD SWAP1 PUSH1 0x20 ADD DUP1 DUP4 GT PUSH2 0xEBE JUMPI DUP3 SWAP1 SUB PUSH1 0x1F AND DUP3 ADD SWAP2 JUMPDEST POP POP POP POP POP SWAP1 POP SWAP1 JUMP JUMPDEST PUSH1 0x1 ISZERO ISZERO PUSH1 0x8 PUSH0 CALLER PUSH20 0xFFFFFFFFFFFFFFFFFFFFFFFFFFFFFFFFFFFFFFFF AND PUSH20 0xFFFFFFFFFFFFFFFFFFFFFFFFFFFFFFFFFFFFFFFF AND DUP2 MSTORE PUSH1 0x20 ADD SWAP1 DUP2 MSTORE PUSH1 0x20 ADD PUSH0 KECCAK256 PUSH0 SWAP1 SLOAD SWAP1 PUSH2 0x100 EXP SWAP1 DIV PUSH1 0xFF AND ISZERO ISZERO EQ PUSH2 0xF75 JUMPI PUSH1 0x40 MLOAD PUSH32 0x8C379A000000000000000000000000000000000000000000000000000000000 DUP2 MSTORE PUSH1 0x4 ADD PUSH2 0xF6C SWAP1 PUSH2 0x27CB JUMP JUMPDEST PUSH1 0x40 MLOAD DUP1 SWAP2 SUB SWAP1 REVERT JUMPDEST PUSH0 PUSH1 0xB PUSH0 DUP4 DUP2 MSTORE PUSH1 0x20 ADD SWAP1 DUP2 MSTORE PUSH1 0x20 ADD PUSH0 KECCAK256 SWAP1 POP DUP1 PUSH1 0x3 ADD PUSH0 SWAP1 SLOAD SWAP1 PUSH2 0x100 EXP SWAP1 DIV PUSH1 0xFF AND PUSH2 0xFD9 JUMPI PUSH1 0x40 MLOAD PUSH32 0x8C379A000000000000000000000000000000000000000000000000000000000 DUP2 MSTORE PUSH1 0x4 ADD PUSH2 0xFD0 SWAP1 PUSH2 0x29C4 JUMP JUMPDEST PUSH1 0x40 MLOAD DUP1 SWAP2 SUB SWAP1 REVERT JUMPDEST DUP1 PUSH1 0x2 ADD SLOAD CALLVALUE EQ PUSH2 0x101F JUMPI PUSH1 0x40 MLOAD PUSH32 0x8C379A000000000000000000000000000000000000000000000000000000000 DUP2 MSTORE PUSH1 0x4 ADD PUSH2 0x1016 SWAP1 PUSH2 0x2A2C JUMP JUMPDEST PUSH1 0x40 MLOAD DUP1 SWAP2 SUB SWAP1 REVERT JUMPDEST PUSH2 0x106E DUP2 PUSH0 ADD PUSH0 SWAP1 SLOAD SWAP1 PUSH2 0x100 EXP SWAP1 DIV PUSH20 0xFFFFFFFFFFFFFFFFFFFFFFFFFFFFFFFFFFFFFFFF AND CALLER PUSH2 0x104E PUSH2 0x7B1 JUMP JUMPDEST PUSH1 0xA PUSH2 0x105A SWAP2 SWAP1 PUSH2 0x26D0 JUMP JUMPDEST DUP5 PUSH1 0x1 ADD SLOAD PUSH2 0x1069 SWAP2 SWAP1 PUSH2 0x271A JUMP JUMPDEST PUSH2 0x18CA JUMP JUMPDEST DUP1 PUSH0 ADD PUSH0 SWAP1 SLOAD SWAP1 PUSH2 0x100 EXP SWAP1 DIV PUSH20 0xFFFFFFFFFFFFFFFFFFFFFFFFFFFFFFFFFFFFFFFF AND PUSH20 0xFFFFFFFFFFFFFFFFFFFFFFFFFFFFFFFFFFFFFFFF AND PUSH2 0x8FC CALLVALUE SWAP1 DUP2 ISZERO MUL SWAP1 PUSH1 0x40 MLOAD PUSH0 PUSH1 0x40 MLOAD DUP1 DUP4 SUB DUP2 DUP6 DUP9 DUP9 CALL SWAP4 POP POP POP POP ISZERO DUP1 ISZERO PUSH2 0x10D3 JUMPI RETURNDATASIZE PUSH0 DUP1 RETURNDATACOPY RETURNDATASIZE PUSH0 REVERT JUMPDEST POP PUSH0 DUP2 PUSH1 0x3 ADD PUSH0 PUSH2 0x100 EXP DUP2 SLOAD DUP2 PUSH1 0xFF MUL NOT AND SWAP1 DUP4 ISZERO ISZERO MUL OR SWAP1 SSTORE POP DUP1 PUSH0 ADD PUSH0 SWAP1 SLOAD SWAP1 PUSH2 0x100 EXP SWAP1 DIV PUSH20 0xFFFFFFFFFFFFFFFFFFFFFFFFFFFFFFFFFFFFFFFF AND PUSH20 0xFFFFFFFFFFFFFFFFFFFFFFFFFFFFFFFFFFFFFFFF AND CALLER PUSH20 0xFFFFFFFFFFFFFFFFFFFFFFFFFFFFFFFFFFFFFFFF AND PUSH32 0x85F10505BE3ED7BF7F1E02CF6BF521E67CD27C4B1E91954CC55D67C262FA64FF DUP4 PUSH1 0x1 ADD SLOAD DUP5 PUSH1 0x2 ADD SLOAD PUSH1 0x40 MLOAD PUSH2 0x1178 SWAP3 SWAP2 SWAP1 PUSH2 0x2A4A JUMP JUMPDEST PUSH1 0x40 MLOAD DUP1 SWAP2 SUB SWAP1 LOG3 POP POP JUMP JUMPDEST PUSH0 DUP1 PUSH2 0x118E PUSH2 0x181F JUMP JUMPDEST SWAP1 POP PUSH2 0x119B DUP2 DUP6 DUP6 PUSH2 0x18CA JUMP JUMPDEST PUSH1 0x1 SWAP2 POP POP SWAP3 SWAP2 POP POP JUMP JUMPDEST PUSH1 0xC SLOAD DUP2 JUMP JUMPDEST PUSH1 0x9 PUSH0 CALLER PUSH20 0xFFFFFFFFFFFFFFFFFFFFFFFFFFFFFFFFFFFFFFFF AND PUSH20 0xFFFFFFFFFFFFFFFFFFFFFFFFFFFFFFFFFFFFFFFF AND DUP2 MSTORE PUSH1 0x20 ADD SWAP1 DUP2 MSTORE PUSH1 0x20 ADD PUSH0 KECCAK256 PUSH0 SWAP1 SLOAD SWAP1 PUSH2 0x100 EXP SWAP1 DIV PUSH1 0xFF AND ISZERO PUSH2 0x1236 JUMPI PUSH1 0x40 MLOAD PUSH32 0x8C379A000000000000000000000000000000000000000000000000000000000 DUP2 MSTORE PUSH1 0x4 ADD PUSH2 0x122D SWAP1 PUSH2 0x2AE1 JUMP JUMPDEST PUSH1 0x40 MLOAD DUP1 SWAP2 SUB SWAP1 REVERT JUMPDEST PUSH1 0x1 PUSH1 0x9 PUSH0 CALLER PUSH20 0xFFFFFFFFFFFFFFFFFFFFFFFFFFFFFFFFFFFFFFFF AND PUSH20 0xFFFFFFFFFFFFFFFFFFFFFFFFFFFFFFFFFFFFFFFF AND DUP2 MSTORE PUSH1 0x20 ADD SWAP1 DUP2 MSTORE PUSH1 0x20 ADD PUSH0 KECCAK256 PUSH0 PUSH2 0x100 EXP DUP2 SLOAD DUP2 PUSH1 0xFF MUL NOT AND SWAP1 DUP4 ISZERO ISZERO MUL OR SWAP1 SSTORE POP JUMP JUMPDEST PUSH1 0x9 PUSH0 CALLER PUSH20 0xFFFFFFFFFFFFFFFFFFFFFFFFFFFFFFFFFFFFFFFF AND PUSH20 0xFFFFFFFFFFFFFFFFFFFFFFFFFFFFFFFFFFFFFFFF AND DUP2 MSTORE PUSH1 0x20 ADD SWAP1 DUP2 MSTORE PUSH1 0x20 ADD PUSH0 KECCAK256 PUSH0 SWAP1 SLOAD SWAP1 PUSH2 0x100 EXP SWAP1 DIV PUSH1 0xFF AND PUSH2 0x1316 JUMPI PUSH1 0x40 MLOAD PUSH32 0x8C379A000000000000000000000000000000000000000000000000000000000 DUP2 MSTORE PUSH1 0x4 ADD PUSH2 0x130D SWAP1 PUSH2 0x2B6F JUMP JUMPDEST PUSH1 0x40 MLOAD DUP1 SWAP2 SUB SWAP1 REVERT JUMPDEST PUSH0 DUP2 GT PUSH2 0x1358 JUMPI PUSH1 0x40 MLOAD PUSH32 0x8C379A000000000000000000000000000000000000000000000000000000000 DUP2 MSTORE PUSH1 0x4 ADD PUSH2 0x134F SWAP1 PUSH2 0x2BFD JUMP JUMPDEST PUSH1 0x40 MLOAD DUP1 SWAP2 SUB SWAP1 REVERT JUMPDEST PUSH2 0x1380 CALLER PUSH2 0x1364 PUSH2 0x7B1 JUMP JUMPDEST PUSH1 0xA PUSH2 0x1370 SWAP2 SWAP1 PUSH2 0x26D0 JUMP JUMPDEST DUP4 PUSH2 0x137B SWAP2 SWAP1 PUSH2 0x271A JUMP JUMPDEST PUSH2 0x19BA JUMP JUMPDEST POP JUMP JUMPDEST PUSH1 0xA PUSH1 0x20 MSTORE DUP1 PUSH0 MSTORE PUSH1 0x40 PUSH0 KECCAK256 PUSH0 SWAP2 POP SWAP1 POP SLOAD DUP2 JUMP JUMPDEST PUSH2 0x13A0 PUSH2 0x7B1 JUMP JUMPDEST PUSH1 0xA PUSH2 0x13AC SWAP2 SWAP1 PUSH2 0x26D0 JUMP JUMPDEST DUP2 PUSH2 0x13B7 SWAP2 SWAP1 PUSH2 0x271A JUMP JUMPDEST PUSH2 0x13C0 DUP4 PUSH2 0xE0A JUMP JUMPDEST LT ISZERO PUSH2 0x1401 JUMPI PUSH1 0x40 MLOAD PUSH32 0x8C379A000000000000000000000000000000000000000000000000000000000 DUP2 MSTORE PUSH1 0x4 ADD PUSH2 0x13F8 SWAP1 PUSH2 0x2C65 JUMP JUMPDEST PUSH1 0x40 MLOAD DUP1 SWAP2 SUB SWAP1 REVERT JUMPDEST PUSH2 0x1429 DUP3 PUSH2 0x140D PUSH2 0x7B1 JUMP JUMPDEST PUSH1 0xA PUSH2 0x1419 SWAP2 SWAP1 PUSH2 0x26D0 JUMP JUMPDEST DUP4 PUSH2 0x1424 SWAP2 SWAP1 PUSH2 0x271A JUMP JUMPDEST PUSH2 0x1A39 JUMP JUMPDEST POP POP JUMP JUMPDEST PUSH1 0x1 PUSH1 0x7 PUSH0 DUP4 PUSH20 0xFFFFFFFFFFFFFFFFFFFFFFFFFFFFFFFFFFFFFFFF AND PUSH20 0xFFFFFFFFFFFFFFFFFFFFFFFFFFFFFFFFFFFFFFFF AND DUP2 MSTORE PUSH1 0x20 ADD SWAP1 DUP2 MSTORE PUSH1 0x20 ADD PUSH0 KECCAK256 PUSH0 PUSH2 0x100 EXP DUP2 SLOAD DUP2 PUSH1 0xFF MUL NOT AND SWAP1 DUP4 ISZERO ISZERO MUL OR SWAP1 SSTORE POP PUSH2 0x14AC CALLER PUSH2 0x148E PUSH2 0x7B1 JUMP JUMPDEST PUSH1 0xA PUSH2 0x149A SWAP2 SWAP1 PUSH2 0x26D0 JUMP JUMPDEST PUSH2 0x3E8 PUSH2 0x14A7 SWAP2 SWAP1 PUSH2 0x271A JUMP JUMPDEST PUSH2 0x19BA JUMP JUMPDEST POP JUMP JUMPDEST PUSH0 PUSH1 0x1 PUSH0 DUP5 PUSH20 0xFFFFFFFFFFFFFFFFFFFFFFFFFFFFFFFFFFFFFFFF AND PUSH20 0xFFFFFFFFFFFFFFFFFFFFFFFFFFFFFFFFFFFFFFFF AND DUP2 MSTORE PUSH1 0x20 ADD SWAP1 DUP2 MSTORE PUSH1 0x20 ADD PUSH0 KECCAK256 PUSH0 DUP4 PUSH20 0xFFFFFFFFFFFFFFFFFFFFFFFFFFFFFFFFFFFFFFFF AND PUSH20 0xFFFFFFFFFFFFFFFFFFFFFFFFFFFFFFFFFFFFFFFF AND DUP2 MSTORE PUSH1 0x20 ADD SWAP1 DUP2 MSTORE PUSH1 0x20 ADD PUSH0 KECCAK256 SLOAD SWAP1 POP SWAP3 SWAP2 POP POP JUMP JUMPDEST PUSH1 0xB PUSH1 0x20 MSTORE DUP1 PUSH0 MSTORE PUSH1 0x40 PUSH0 KECCAK256 PUSH0 SWAP2 POP SWAP1 POP DUP1 PUSH0 ADD PUSH0 SWAP1 SLOAD SWAP1 PUSH2 0x100 EXP SWAP1 DIV PUSH20 0xFFFFFFFFFFFFFFFFFFFFFFFFFFFFFFFFFFFFFFFF AND SWAP1 DUP1 PUSH1 0x1 ADD SLOAD SWAP1 DUP1 PUSH1 0x2 ADD SLOAD SWAP1 DUP1 PUSH1 0x3 ADD PUSH0 SWAP1 SLOAD SWAP1 PUSH2 0x100 EXP SWAP1 DIV PUSH1 0xFF AND SWAP1 POP DUP5 JUMP JUMPDEST PUSH1 0x7 PUSH1 0x20 MSTORE DUP1 PUSH0 MSTORE PUSH1 0x40 PUSH0 KECCAK256 PUSH0 SWAP2 POP SLOAD SWAP1 PUSH2 0x100 EXP SWAP1 DIV PUSH1 0xFF AND DUP2 JUMP JUMPDEST PUSH1 0x1 ISZERO ISZERO PUSH1 0x8 PUSH0 CALLER PUSH20 0xFFFFFFFFFFFFFFFFFFFFFFFFFFFFFFFFFFFFFFFF AND PUSH20 0xFFFFFFFFFFFFFFFFFFFFFFFFFFFFFFFFFFFFFFFF AND DUP2 MSTORE PUSH1 0x20 ADD SWAP1 DUP2 MSTORE PUSH1 0x20 ADD PUSH0 KECCAK256 PUSH0 SWAP1 SLOAD SWAP1 PUSH2 0x100 EXP SWAP1 DIV PUSH1 0xFF AND ISZERO ISZERO EQ PUSH2 0x1635 JUMPI PUSH1 0x40 MLOAD PUSH32 0x8C379A000000000000000000000000000000000000000000000000000000000 DUP2 MSTORE PUSH1 0x4 ADD PUSH2 0x162C SWAP1 PUSH2 0x27CB JUMP JUMPDEST PUSH1 0x40 MLOAD DUP1 SWAP2 SUB SWAP1 REVERT JUMPDEST DUP2 PUSH2 0x163E PUSH2 0x7B1 JUMP JUMPDEST PUSH1 0xA PUSH2 0x164A SWAP2 SWAP1 PUSH2 0x26D0 JUMP JUMPDEST DUP2 PUSH2 0x1655 SWAP2 SWAP1 PUSH2 0x271A JUMP JUMPDEST PUSH2 0x165E CALLER PUSH2 0xE0A JUMP JUMPDEST LT ISZERO PUSH2 0x169F JUMPI PUSH1 0x40 MLOAD PUSH32 0x8C379A000000000000000000000000000000000000000000000000000000000 DUP2 MSTORE PUSH1 0x4 ADD PUSH2 0x1696 SWAP1 PUSH2 0x2CCD JUMP JUMPDEST PUSH1 0x40 MLOAD DUP1 SWAP2 SUB SWAP1 REVERT JUMPDEST PUSH0 DUP4 GT DUP1 ISZERO PUSH2 0x16AD JUMPI POP PUSH0 DUP3 GT JUMPDEST PUSH2 0x16EC JUMPI PUSH1 0x40 MLOAD PUSH32 0x8C379A000000000000000000000000000000000000000000000000000000000 DUP2 MSTORE PUSH1 0x4 ADD PUSH2 0x16E3 SWAP1 PUSH2 0x2D35 JUMP JUMPDEST PUSH1 0x40 MLOAD DUP1 SWAP2 SUB SWAP1 REVERT JUMPDEST PUSH1 0x40 MLOAD DUP1 PUSH1 0x80 ADD PUSH1 0x40 MSTORE DUP1 CALLER PUSH20 0xFFFFFFFFFFFFFFFFFFFFFFFFFFFFFFFFFFFFFFFF AND DUP2 MSTORE PUSH1 0x20 ADD DUP5 DUP2 MSTORE PUSH1 0x20 ADD DUP4 DUP2 MSTORE PUSH1 0x20 ADD PUSH1 0x1 ISZERO ISZERO DUP2 MSTORE POP PUSH1 0xB PUSH0 PUSH1 0xC SLOAD DUP2 MSTORE PUSH1 0x20 ADD SWAP1 DUP2 MSTORE PUSH1 0x20 ADD PUSH0 KECCAK256 PUSH0 DUP3 ADD MLOAD DUP2 PUSH0 ADD PUSH0 PUSH2 0x100 EXP DUP2 SLOAD DUP2 PUSH20 0xFFFFFFFFFFFFFFFFFFFFFFFFFFFFFFFFFFFFFFFF MUL NOT AND SWAP1 DUP4 PUSH20 0xFFFFFFFFFFFFFFFFFFFFFFFFFFFFFFFFFFFFFFFF AND MUL OR SWAP1 SSTORE POP PUSH1 0x20 DUP3 ADD MLOAD DUP2 PUSH1 0x1 ADD SSTORE PUSH1 0x40 DUP3 ADD MLOAD DUP2 PUSH1 0x2 ADD SSTORE PUSH1 0x60 DUP3 ADD MLOAD DUP2 PUSH1 0x3 ADD PUSH0 PUSH2 0x100 EXP DUP2 SLOAD DUP2 PUSH1 0xFF MUL NOT AND SWAP1 DUP4 ISZERO ISZERO MUL OR SWAP1 SSTORE POP SWAP1 POP POP CALLER PUSH20 0xFFFFFFFFFFFFFFFFFFFFFFFFFFFFFFFFFFFFFFFF AND PUSH32 0xCF412BFE866866664047E9F9E38CC21C13173A37C85DE5D29B65F1822231EC00 DUP5 DUP5 PUSH1 0x40 MLOAD PUSH2 0x17FB SWAP3 SWAP2 SWAP1 PUSH2 0x2A4A JUMP JUMPDEST PUSH1 0x40 MLOAD DUP1 SWAP2 SUB SWAP1 LOG2 PUSH1 0xC PUSH0 DUP2 SLOAD DUP1 SWAP3 SWAP2 SWAP1 PUSH2 0x1815 SWAP1 PUSH2 0x2D53 JUMP JUMPDEST SWAP2 SWAP1 POP SSTORE POP POP POP POP JUMP JUMPDEST PUSH0 CALLER SWAP1 POP SWAP1 JUMP JUMPDEST PUSH2 0x1833 DUP4 DUP4 DUP4 PUSH1 0x1 PUSH2 0x1AB8 JUMP JUMPDEST POP POP POP JUMP JUMPDEST PUSH0 PUSH2 0x1843 DUP5 DUP5 PUSH2 0x14AF JUMP JUMPDEST SWAP1 POP PUSH32 0xFFFFFFFFFFFFFFFFFFFFFFFFFFFFFFFFFFFFFFFFFFFFFFFFFFFFFFFFFFFFFFFF DUP2 EQ PUSH2 0x18C4 JUMPI DUP2 DUP2 LT ISZERO PUSH2 0x18B5 JUMPI DUP3 DUP2 DUP4 PUSH1 0x40 MLOAD PUSH32 0xFB8F41B200000000000000000000000000000000000000000000000000000000 DUP2 MSTORE PUSH1 0x4 ADD PUSH2 0x18AC SWAP4 SWAP3 SWAP2 SWAP1 PUSH2 0x2D9A JUMP JUMPDEST PUSH1 0x40 MLOAD DUP1 SWAP2 SUB SWAP1 REVERT JUMPDEST PUSH2 0x18C3 DUP5 DUP5 DUP5 DUP5 SUB PUSH0 PUSH2 0x1AB8 JUMP JUMPDEST JUMPDEST POP POP POP POP JUMP JUMPDEST PUSH0 PUSH20 0xFFFFFFFFFFFFFFFFFFFFFFFFFFFFFFFFFFFFFFFF AND DUP4 PUSH20 0xFFFFFFFFFFFFFFFFFFFFFFFFFFFFFFFFFFFFFFFF AND SUB PUSH2 0x193A JUMPI PUSH0 PUSH1 0x40 MLOAD PUSH32 0x96C6FD1E00000000000000000000000000000000000000000000000000000000 DUP2 MSTORE PUSH1 0x4 ADD PUSH2 0x1931 SWAP2 SWAP1 PUSH2 0x2DCF JUMP JUMPDEST PUSH1 0x40 MLOAD DUP1 SWAP2 SUB SWAP1 REVERT JUMPDEST PUSH0 PUSH20 0xFFFFFFFFFFFFFFFFFFFFFFFFFFFFFFFFFFFFFFFF AND DUP3 PUSH20 0xFFFFFFFFFFFFFFFFFFFFFFFFFFFFFFFFFFFFFFFF AND SUB PUSH2 0x19AA JUMPI PUSH0 PUSH1 0x40 MLOAD PUSH32 0xEC442F0500000000000000000000000000000000000000000000000000000000 DUP2 MSTORE PUSH1 0x4 ADD PUSH2 0x19A1 SWAP2 SWAP1 PUSH2 0x2DCF JUMP JUMPDEST PUSH1 0x40 MLOAD DUP1 SWAP2 SUB SWAP1 REVERT JUMPDEST PUSH2 0x19B5 DUP4 DUP4 DUP4 PUSH2 0x1C87 JUMP JUMPDEST POP POP POP JUMP JUMPDEST PUSH0 PUSH20 0xFFFFFFFFFFFFFFFFFFFFFFFFFFFFFFFFFFFFFFFF AND DUP3 PUSH20 0xFFFFFFFFFFFFFFFFFFFFFFFFFFFFFFFFFFFFFFFF AND SUB PUSH2 0x1A2A JUMPI PUSH0 PUSH1 0x40 MLOAD PUSH32 0xEC442F0500000000000000000000000000000000000000000000000000000000 DUP2 MSTORE PUSH1 0x4 ADD PUSH2 0x1A21 SWAP2 SWAP1 PUSH2 0x2DCF JUMP JUMPDEST PUSH1 0x40 MLOAD DUP1 SWAP2 SUB SWAP1 REVERT JUMPDEST PUSH2 0x1A35 PUSH0 DUP4 DUP4 PUSH2 0x1C87 JUMP JUMPDEST POP POP JUMP JUMPDEST PUSH0 PUSH20 0xFFFFFFFFFFFFFFFFFFFFFFFFFFFFFFFFFFFFFFFF AND DUP3 PUSH20 0xFFFFFFFFFFFFFFFFFFFFFFFFFFFFFFFFFFFFFFFF AND SUB PUSH2 0x1AA9 JUMPI PUSH0 PUSH1 0x40 MLOAD PUSH32 0x96C6FD1E00000000000000000000000000000000000000000000000000000000 DUP2 MSTORE PUSH1 0x4 ADD PUSH2 0x1AA0 SWAP2 SWAP1 PUSH2 0x2DCF JUMP JUMPDEST PUSH1 0x40 MLOAD DUP1 SWAP2 SUB SWAP1 REVERT JUMPDEST PUSH2 0x1AB4 DUP3 PUSH0 DUP4 PUSH2 0x1C87 JUMP JUMPDEST POP POP JUMP JUMPDEST PUSH0 PUSH20 0xFFFFFFFFFFFFFFFFFFFFFFFFFFFFFFFFFFFFFFFF AND DUP5 PUSH20 0xFFFFFFFFFFFFFFFFFFFFFFFFFFFFFFFFFFFFFFFF AND SUB PUSH2 0x1B28 JUMPI PUSH0 PUSH1 0x40 MLOAD PUSH32 0xE602DF0500000000000000000000000000000000000000000000000000000000 DUP2 MSTORE PUSH1 0x4 ADD PUSH2 0x1B1F SWAP2 SWAP1 PUSH2 0x2DCF JUMP JUMPDEST PUSH1 0x40 MLOAD DUP1 SWAP2 SUB SWAP1 REVERT JUMPDEST PUSH0 PUSH20 0xFFFFFFFFFFFFFFFFFFFFFFFFFFFFFFFFFFFFFFFF AND DUP4 PUSH20 0xFFFFFFFFFFFFFFFFFFFFFFFFFFFFFFFFFFFFFFFF AND SUB PUSH2 0x1B98 JUMPI PUSH0 PUSH1 0x40 MLOAD PUSH32 0x94280D6200000000000000000000000000000000000000000000000000000000 DUP2 MSTORE PUSH1 0x4 ADD PUSH2 0x1B8F SWAP2 SWAP1 PUSH2 0x2DCF JUMP JUMPDEST PUSH1 0x40 MLOAD DUP1 SWAP2 SUB SWAP1 REVERT JUMPDEST DUP2 PUSH1 0x1 PUSH0 DUP7 PUSH20 0xFFFFFFFFFFFFFFFFFFFFFFFFFFFFFFFFFFFFFFFF AND PUSH20 0xFFFFFFFFFFFFFFFFFFFFFFFFFFFFFFFFFFFFFFFF AND DUP2 MSTORE PUSH1 0x20 ADD SWAP1 DUP2 MSTORE PUSH1 0x20 ADD PUSH0 KECCAK256 PUSH0 DUP6 PUSH20 0xFFFFFFFFFFFFFFFFFFFFFFFFFFFFFFFFFFFFFFFF AND PUSH20 0xFFFFFFFFFFFFFFFFFFFFFFFFFFFFFFFFFFFFFFFF AND DUP2 MSTORE PUSH1 0x20 ADD SWAP1 DUP2 MSTORE PUSH1 0x20 ADD PUSH0 KECCAK256 DUP2 SWAP1 SSTORE POP DUP1 ISZERO PUSH2 0x1C81 JUMPI DUP3 PUSH20 0xFFFFFFFFFFFFFFFFFFFFFFFFFFFFFFFFFFFFFFFF AND DUP5 PUSH20 0xFFFFFFFFFFFFFFFFFFFFFFFFFFFFFFFFFFFFFFFF AND PUSH32 0x8C5BE1E5EBEC7D5BD14F71427D1E84F3DD0314C0F7B2291E5B200AC8C7C3B925 DUP5 PUSH1 0x40 MLOAD PUSH2 0x1C78 SWAP2 SWAP1 PUSH2 0x206C JUMP JUMPDEST PUSH1 0x40 MLOAD DUP1 SWAP2 SUB SWAP1 LOG3 JUMPDEST POP POP POP POP JUMP JUMPDEST PUSH0 PUSH20 0xFFFFFFFFFFFFFFFFFFFFFFFFFFFFFFFFFFFFFFFF AND DUP4 PUSH20 0xFFFFFFFFFFFFFFFFFFFFFFFFFFFFFFFFFFFFFFFF AND SUB PUSH2 0x1CD7 JUMPI DUP1 PUSH1 0x2 PUSH0 DUP3 DUP3 SLOAD PUSH2 0x1CCB SWAP2 SWAP1 PUSH2 0x2DE8 JUMP JUMPDEST SWAP3 POP POP DUP2 SWAP1 SSTORE POP PUSH2 0x1DA5 JUMP JUMPDEST PUSH0 DUP1 PUSH0 DUP6 PUSH20 0xFFFFFFFFFFFFFFFFFFFFFFFFFFFFFFFFFFFFFFFF AND PUSH20 0xFFFFFFFFFFFFFFFFFFFFFFFFFFFFFFFFFFFFFFFF AND DUP2 MSTORE PUSH1 0x20 ADD SWAP1 DUP2 MSTORE PUSH1 0x20 ADD PUSH0 KECCAK256 SLOAD SWAP1 POP DUP2 DUP2 LT ISZERO PUSH2 0x1D60 JUMPI DUP4 DUP2 DUP4 PUSH1 0x40 MLOAD PUSH32 0xE450D38C00000000000000000000000000000000000000000000000000000000 DUP2 MSTORE PUSH1 0x4 ADD PUSH2 0x1D57 SWAP4 SWAP3 SWAP2 SWAP1 PUSH2 0x2D9A JUMP JUMPDEST PUSH1 0x40 MLOAD DUP1 SWAP2 SUB SWAP1 REVERT JUMPDEST DUP2 DUP2 SUB PUSH0 DUP1 DUP7 PUSH20 0xFFFFFFFFFFFFFFFFFFFFFFFFFFFFFFFFFFFFFFFF AND PUSH20 0xFFFFFFFFFFFFFFFFFFFFFFFFFFFFFFFFFFFFFFFF AND DUP2 MSTORE PUSH1 0x20 ADD SWAP1 DUP2 MSTORE PUSH1 0x20 ADD PUSH0 KECCAK256 DUP2 SWAP1 SSTORE POP POP JUMPDEST PUSH0 PUSH20 0xFFFFFFFFFFFFFFFFFFFFFFFFFFFFFFFFFFFFFFFF AND DUP3 PUSH20 0xFFFFFFFFFFFFFFFFFFFFFFFFFFFFFFFFFFFFFFFF AND SUB PUSH2 0x1DEC JUMPI DUP1 PUSH1 0x2 PUSH0 DUP3 DUP3 SLOAD SUB SWAP3 POP POP DUP2 SWAP1 SSTORE POP PUSH2 0x1E36 JUMP JUMPDEST DUP1 PUSH0 DUP1 DUP5 PUSH20 0xFFFFFFFFFFFFFFFFFFFFFFFFFFFFFFFFFFFFFFFF AND PUSH20 0xFFFFFFFFFFFFFFFFFFFFFFFFFFFFFFFFFFFFFFFF AND DUP2 MSTORE PUSH1 0x20 ADD SWAP1 DUP2 MSTORE PUSH1 0x20 ADD PUSH0 KECCAK256 PUSH0 DUP3 DUP3 SLOAD ADD SWAP3 POP POP DUP2 SWAP1 SSTORE POP JUMPDEST DUP2 PUSH20 0xFFFFFFFFFFFFFFFFFFFFFFFFFFFFFFFFFFFFFFFF AND DUP4 PUSH20 0xFFFFFFFFFFFFFFFFFFFFFFFFFFFFFFFFFFFFFFFF AND PUSH32 0xDDF252AD1BE2C89B69C2B068FC378DAA952BA7F163C4A11628F55A4DF523B3EF DUP4 PUSH1 0x40 MLOAD PUSH2 0x1E93 SWAP2 SWAP1 PUSH2 0x206C JUMP JUMPDEST PUSH1 0x40 MLOAD DUP1 SWAP2 SUB SWAP1 LOG3 POP POP POP JUMP JUMPDEST PUSH0 DUP2 MLOAD SWAP1 POP SWAP2 SWAP1 POP JUMP JUMPDEST PUSH0 DUP3 DUP3 MSTORE PUSH1 0x20 DUP3 ADD SWAP1 POP SWAP3 SWAP2 POP POP JUMP JUMPDEST DUP3 DUP2 DUP4 MCOPY PUSH0 DUP4 DUP4 ADD MSTORE POP POP POP JUMP JUMPDEST PUSH0 PUSH1 0x1F NOT PUSH1 0x1F DUP4 ADD AND SWAP1 POP SWAP2 SWAP1 POP JUMP JUMPDEST PUSH0 PUSH2 0x1EE2 DUP3 PUSH2 0x1EA0 JUMP JUMPDEST PUSH2 0x1EEC DUP2 DUP6 PUSH2 0x1EAA JUMP JUMPDEST SWAP4 POP PUSH2 0x1EFC DUP2 DUP6 PUSH1 0x20 DUP7 ADD PUSH2 0x1EBA JUMP JUMPDEST PUSH2 0x1F05 DUP2 PUSH2 0x1EC8 JUMP JUMPDEST DUP5 ADD SWAP2 POP POP SWAP3 SWAP2 POP POP JUMP JUMPDEST PUSH0 PUSH1 0x20 DUP3 ADD SWAP1 POP DUP2 DUP2 SUB PUSH0 DUP4 ADD MSTORE PUSH2 0x1F28 DUP2 DUP5 PUSH2 0x1ED8 JUMP JUMPDEST SWAP1 POP SWAP3 SWAP2 POP POP JUMP JUMPDEST PUSH0 DUP1 REVERT JUMPDEST PUSH0 PUSH20 0xFFFFFFFFFFFFFFFFFFFFFFFFFFFFFFFFFFFFFFFF DUP3 AND SWAP1 POP SWAP2 SWAP1 POP JUMP JUMPDEST PUSH0 PUSH2 0x1F5D DUP3 PUSH2 0x1F34 JUMP JUMPDEST SWAP1 POP SWAP2 SWAP1 POP JUMP JUMPDEST PUSH2 0x1F6D DUP2 PUSH2 0x1F53 JUMP JUMPDEST DUP2 EQ PUSH2 0x1F77 JUMPI PUSH0 DUP1 REVERT JUMPDEST POP JUMP JUMPDEST PUSH0 DUP2 CALLDATALOAD SWAP1 POP PUSH2 0x1F88 DUP2 PUSH2 0x1F64 JUMP JUMPDEST SWAP3 SWAP2 POP POP JUMP JUMPDEST PUSH0 DUP2 SWAP1 POP SWAP2 SWAP1 POP JUMP JUMPDEST PUSH2 0x1FA0 DUP2 PUSH2 0x1F8E JUMP JUMPDEST DUP2 EQ PUSH2 0x1FAA JUMPI PUSH0 DUP1 REVERT JUMPDEST POP JUMP JUMPDEST PUSH0 DUP2 CALLDATALOAD SWAP1 POP PUSH2 0x1FBB DUP2 PUSH2 0x1F97 JUMP JUMPDEST SWAP3 SWAP2 POP POP JUMP JUMPDEST PUSH0 DUP1 PUSH1 0x40 DUP4 DUP6 SUB SLT ISZERO PUSH2 0x1FD7 JUMPI PUSH2 0x1FD6 PUSH2 0x1F30 JUMP JUMPDEST JUMPDEST PUSH0 PUSH2 0x1FE4 DUP6 DUP3 DUP7 ADD PUSH2 0x1F7A JUMP JUMPDEST SWAP3 POP POP PUSH1 0x20 PUSH2 0x1FF5 DUP6 DUP3 DUP7 ADD PUSH2 0x1FAD JUMP JUMPDEST SWAP2 POP POP SWAP3 POP SWAP3 SWAP1 POP JUMP JUMPDEST PUSH0 DUP2 ISZERO ISZERO SWAP1 POP SWAP2 SWAP1 POP JUMP JUMPDEST PUSH2 0x2013 DUP2 PUSH2 0x1FFF JUMP JUMPDEST DUP3 MSTORE POP POP JUMP JUMPDEST PUSH0 PUSH1 0x20 DUP3 ADD SWAP1 POP PUSH2 0x202C PUSH0 DUP4 ADD DUP5 PUSH2 0x200A JUMP JUMPDEST SWAP3 SWAP2 POP POP JUMP JUMPDEST PUSH0 PUSH1 0x20 DUP3 DUP5 SUB SLT ISZERO PUSH2 0x2047 JUMPI PUSH2 0x2046 PUSH2 0x1F30 JUMP JUMPDEST JUMPDEST PUSH0 PUSH2 0x2054 DUP5 DUP3 DUP6 ADD PUSH2 0x1F7A JUMP JUMPDEST SWAP2 POP POP SWAP3 SWAP2 POP POP JUMP JUMPDEST PUSH2 0x2066 DUP2 PUSH2 0x1F8E JUMP JUMPDEST DUP3 MSTORE POP POP JUMP JUMPDEST PUSH0 PUSH1 0x20 DUP3 ADD SWAP1 POP PUSH2 0x207F PUSH0 DUP4 ADD DUP5 PUSH2 0x205D JUMP JUMPDEST SWAP3 SWAP2 POP POP JUMP JUMPDEST PUSH0 DUP1 PUSH0 PUSH1 0x60 DUP5 DUP7 SUB SLT ISZERO PUSH2 0x209C JUMPI PUSH2 0x209B PUSH2 0x1F30 JUMP JUMPDEST JUMPDEST PUSH0 PUSH2 0x20A9 DUP7 DUP3 DUP8 ADD PUSH2 0x1F7A JUMP JUMPDEST SWAP4 POP POP PUSH1 0x20 PUSH2 0x20BA DUP7 DUP3 DUP8 ADD PUSH2 0x1F7A JUMP JUMPDEST SWAP3 POP POP PUSH1 0x40 PUSH2 0x20CB DUP7 DUP3 DUP8 ADD PUSH2 0x1FAD JUMP JUMPDEST SWAP2 POP POP SWAP3 POP SWAP3 POP SWAP3 JUMP JUMPDEST PUSH0 PUSH2 0x20DF DUP3 PUSH2 0x1F34 JUMP JUMPDEST SWAP1 POP SWAP2 SWAP1 POP JUMP JUMPDEST PUSH2 0x20EF DUP2 PUSH2 0x20D5 JUMP JUMPDEST DUP3 MSTORE POP POP JUMP JUMPDEST PUSH0 PUSH1 0x20 DUP3 ADD SWAP1 POP PUSH2 0x2108 PUSH0 DUP4 ADD DUP5 PUSH2 0x20E6 JUMP JUMPDEST SWAP3 SWAP2 POP POP JUMP JUMPDEST PUSH0 PUSH1 0xFF DUP3 AND SWAP1 POP SWAP2 SWAP1 POP JUMP JUMPDEST PUSH2 0x2123 DUP2 PUSH2 0x210E JUMP JUMPDEST DUP3 MSTORE POP POP JUMP JUMPDEST PUSH0 PUSH1 0x20 DUP3 ADD SWAP1 POP PUSH2 0x213C PUSH0 DUP4 ADD DUP5 PUSH2 0x211A JUMP JUMPDEST SWAP3 SWAP2 POP POP JUMP JUMPDEST PUSH0 DUP1 PUSH0 PUSH1 0x60 DUP5 DUP7 SUB SLT ISZERO PUSH2 0x2159 JUMPI PUSH2 0x2158 PUSH2 0x1F30 JUMP JUMPDEST JUMPDEST PUSH0 PUSH2 0x2166 DUP7 DUP3 DUP8 ADD PUSH2 0x1F7A JUMP JUMPDEST SWAP4 POP POP PUSH1 0x20 PUSH2 0x2177 DUP7 DUP3 DUP8 ADD PUSH2 0x1FAD JUMP JUMPDEST SWAP3 POP POP PUSH1 0x40 PUSH2 0x2188 DUP7 DUP3 DUP8 ADD PUSH2 0x1FAD JUMP JUMPDEST SWAP2 POP POP SWAP3 POP SWAP3 POP SWAP3 JUMP JUMPDEST PUSH2 0x219B DUP2 PUSH2 0x20D5 JUMP JUMPDEST DUP2 EQ PUSH2 0x21A5 JUMPI PUSH0 DUP1 REVERT JUMPDEST POP JUMP JUMPDEST PUSH0 DUP2 CALLDATALOAD SWAP1 POP PUSH2 0x21B6 DUP2 PUSH2 0x2192 JUMP JUMPDEST SWAP3 SWAP2 POP POP JUMP JUMPDEST PUSH0 DUP1 PUSH0 PUSH1 0x60 DUP5 DUP7 SUB SLT ISZERO PUSH2 0x21D3 JUMPI PUSH2 0x21D2 PUSH2 0x1F30 JUMP JUMPDEST JUMPDEST PUSH0 PUSH2 0x21E0 DUP7 DUP3 DUP8 ADD PUSH2 0x1F7A JUMP JUMPDEST SWAP4 POP POP PUSH1 0x20 PUSH2 0x21F1 DUP7 DUP3 DUP8 ADD PUSH2 0x1FAD JUMP JUMPDEST SWAP3 POP POP PUSH1 0x40 PUSH2 0x2202 DUP7 DUP3 DUP8 ADD PUSH2 0x21A8 JUMP JUMPDEST SWAP2 POP POP SWAP3 POP SWAP3 POP SWAP3 JUMP JUMPDEST PUSH0 PUSH1 0x20 DUP3 DUP5 SUB SLT ISZERO PUSH2 0x2221 JUMPI PUSH2 0x2220 PUSH2 0x1F30 JUMP JUMPDEST JUMPDEST PUSH0 PUSH2 0x222E DUP5 DUP3 DUP6 ADD PUSH2 0x1FAD JUMP JUMPDEST SWAP2 POP POP SWAP3 SWAP2 POP POP JUMP JUMPDEST PUSH0 DUP1 PUSH1 0x40 DUP4 DUP6 SUB SLT ISZERO PUSH2 0x224D JUMPI PUSH2 0x224C PUSH2 0x1F30 JUMP JUMPDEST JUMPDEST PUSH0 PUSH2 0x225A DUP6 DUP3 DUP7 ADD PUSH2 0x1F7A JUMP JUMPDEST SWAP3 POP POP PUSH1 0x20 PUSH2 0x226B DUP6 DUP3 DUP7 ADD PUSH2 0x1F7A JUMP JUMPDEST SWAP2 POP POP SWAP3 POP SWAP3 SWAP1 POP JUMP JUMPDEST PUSH2 0x227E DUP2 PUSH2 0x1F53 JUMP JUMPDEST DUP3 MSTORE POP POP JUMP JUMPDEST PUSH0 PUSH1 0x80 DUP3 ADD SWAP1 POP PUSH2 0x2297 PUSH0 DUP4 ADD DUP8 PUSH2 0x2275 JUMP JUMPDEST PUSH2 0x22A4 PUSH1 0x20 DUP4 ADD DUP7 PUSH2 0x205D JUMP JUMPDEST PUSH2 0x22B1 PUSH1 0x40 DUP4 ADD DUP6 PUSH2 0x205D JUMP JUMPDEST PUSH2 0x22BE PUSH1 0x60 DUP4 ADD DUP5 PUSH2 0x200A JUMP JUMPDEST SWAP6 SWAP5 POP POP POP POP POP JUMP JUMPDEST PUSH0 DUP1 PUSH1 0x40 DUP4 DUP6 SUB SLT ISZERO PUSH2 0x22DD JUMPI PUSH2 0x22DC PUSH2 0x1F30 JUMP JUMPDEST JUMPDEST PUSH0 PUSH2 0x22EA DUP6 DUP3 DUP7 ADD PUSH2 0x1FAD JUMP JUMPDEST SWAP3 POP POP PUSH1 0x20 PUSH2 0x22FB DUP6 DUP3 DUP7 ADD PUSH2 0x1FAD JUMP JUMPDEST SWAP2 POP POP SWAP3 POP SWAP3 SWAP1 POP JUMP JUMPDEST PUSH32 0x4E487B7100000000000000000000000000000000000000000000000000000000 PUSH0 MSTORE PUSH1 0x22 PUSH1 0x4 MSTORE PUSH1 0x24 PUSH0 REVERT JUMPDEST PUSH0 PUSH1 0x2 DUP3 DIV SWAP1 POP PUSH1 0x1 DUP3 AND DUP1 PUSH2 0x2349 JUMPI PUSH1 0x7F DUP3 AND SWAP2 POP JUMPDEST PUSH1 0x20 DUP3 LT DUP2 SUB PUSH2 0x235C JUMPI PUSH2 0x235B PUSH2 0x2305 JUMP JUMPDEST JUMPDEST POP SWAP2 SWAP1 POP JUMP JUMPDEST PUSH32 0x6F6E6C7920676F7665726E6D656E7420617574686F726974792063616E207573 PUSH0 DUP3 ADD MSTORE PUSH32 0x6520746869732066756E6374696F6E0000000000000000000000000000000000 PUSH1 0x20 DUP3 ADD MSTORE POP JUMP JUMPDEST PUSH0 PUSH2 0x23BC PUSH1 0x2F DUP4 PUSH2 0x1EAA JUMP JUMPDEST SWAP2 POP PUSH2 0x23C7 DUP3 PUSH2 0x2362 JUMP JUMPDEST PUSH1 0x40 DUP3 ADD SWAP1 POP SWAP2 SWAP1 POP JUMP JUMPDEST PUSH0 PUSH1 0x20 DUP3 ADD SWAP1 POP DUP2 DUP2 SUB PUSH0 DUP4 ADD MSTORE PUSH2 0x23E9 DUP2 PUSH2 0x23B0 JUMP JUMPDEST SWAP1 POP SWAP2 SWAP1 POP JUMP JUMPDEST PUSH32 0x496E76616C696420616464726573736573000000000000000000000000000000 PUSH0 DUP3 ADD MSTORE POP JUMP JUMPDEST PUSH0 PUSH2 0x2424 PUSH1 0x11 DUP4 PUSH2 0x1EAA JUMP JUMPDEST SWAP2 POP PUSH2 0x242F DUP3 PUSH2 0x23F0 JUMP JUMPDEST PUSH1 0x20 DUP3 ADD SWAP1 POP SWAP2 SWAP1 POP JUMP JUMPDEST PUSH0 PUSH1 0x20 DUP3 ADD SWAP1 POP DUP2 DUP2 SUB PUSH0 DUP4 ADD MSTORE PUSH2 0x2451 DUP2 PUSH2 0x2418 JUMP JUMPDEST SWAP1 POP SWAP2 SWAP1 POP JUMP JUMPDEST PUSH32 0x676976656E2061646472657373206D75737420626520616E20696E6475737472 PUSH0 DUP3 ADD MSTORE PUSH32 0x7900000000000000000000000000000000000000000000000000000000000000 PUSH1 0x20 DUP3 ADD MSTORE POP JUMP JUMPDEST PUSH0 PUSH2 0x24B2 PUSH1 0x21 DUP4 PUSH2 0x1EAA JUMP JUMPDEST SWAP2 POP PUSH2 0x24BD DUP3 PUSH2 0x2458 JUMP JUMPDEST PUSH1 0x40 DUP3 ADD SWAP1 POP SWAP2 SWAP1 POP JUMP JUMPDEST PUSH0 PUSH1 0x20 DUP3 ADD SWAP1 POP DUP2 DUP2 SUB PUSH0 DUP4 ADD MSTORE PUSH2 0x24DF DUP2 PUSH2 0x24A6 JUMP JUMPDEST SWAP1 POP SWAP2 SWAP1 POP JUMP JUMPDEST PUSH32 0x746F6B656E20436F756E74206D7573742062652067726561746572207468616E PUSH0 DUP3 ADD MSTORE PUSH32 0x2030000000000000000000000000000000000000000000000000000000000000 PUSH1 0x20 DUP3 ADD MSTORE POP JUMP JUMPDEST PUSH0 PUSH2 0x2540 PUSH1 0x22 DUP4 PUSH2 0x1EAA JUMP JUMPDEST SWAP2 POP PUSH2 0x254B DUP3 PUSH2 0x24E6 JUMP JUMPDEST PUSH1 0x40 DUP3 ADD SWAP1 POP SWAP2 SWAP1 POP JUMP JUMPDEST PUSH0 PUSH1 0x20 DUP3 ADD SWAP1 POP DUP2 DUP2 SUB PUSH0 DUP4 ADD MSTORE PUSH2 0x256D DUP2 PUSH2 0x2534 JUMP JUMPDEST SWAP1 POP SWAP2 SWAP1 POP JUMP JUMPDEST PUSH32 0x4E487B7100000000000000000000000000000000000000000000000000000000 PUSH0 MSTORE PUSH1 0x11 PUSH1 0x4 MSTORE PUSH1 0x24 PUSH0 REVERT JUMPDEST PUSH0 DUP2 PUSH1 0x1 SHR SWAP1 POP SWAP2 SWAP1 POP JUMP JUMPDEST PUSH0 DUP1 DUP3 SWAP2 POP DUP4 SWAP1 POP JUMPDEST PUSH1 0x1 DUP6 GT ISZERO PUSH2 0x25F6 JUMPI DUP1 DUP7 DIV DUP2 GT ISZERO PUSH2 0x25D2 JUMPI PUSH2 0x25D1 PUSH2 0x2574 JUMP JUMPDEST JUMPDEST PUSH1 0x1 DUP6 AND ISZERO PUSH2 0x25E1 JUMPI DUP1 DUP3 MUL SWAP2 POP JUMPDEST DUP1 DUP2 MUL SWAP1 POP PUSH2 0x25EF DUP6 PUSH2 0x25A1 JUMP JUMPDEST SWAP5 POP PUSH2 0x25B6 JUMP JUMPDEST SWAP5 POP SWAP5 SWAP3 POP POP POP JUMP JUMPDEST PUSH0 DUP3 PUSH2 0x260E JUMPI PUSH1 0x1 SWAP1 POP PUSH2 0x26C9 JUMP JUMPDEST DUP2 PUSH2 0x261B JUMPI PUSH0 SWAP1 POP PUSH2 0x26C9 JUMP JUMPDEST DUP2 PUSH1 0x1 DUP2 EQ PUSH2 0x2631 JUMPI PUSH1 0x2 DUP2 EQ PUSH2 0x263B JUMPI PUSH2 0x266A JUMP JUMPDEST PUSH1 0x1 SWAP2 POP POP PUSH2 0x26C9 JUMP JUMPDEST PUSH1 0xFF DUP5 GT ISZERO PUSH2 0x264D JUMPI PUSH2 0x264C PUSH2 0x2574 JUMP JUMPDEST JUMPDEST DUP4 PUSH1 0x2 EXP SWAP2 POP DUP5 DUP3 GT ISZERO PUSH2 0x2664 JUMPI PUSH2 0x2663 PUSH2 0x2574 JUMP JUMPDEST JUMPDEST POP PUSH2 0x26C9 JUMP JUMPDEST POP PUSH1 0x20 DUP4 LT PUSH2 0x133 DUP4 LT AND PUSH1 0x4E DUP5 LT PUSH1 0xB DUP5 LT AND OR ISZERO PUSH2 0x269F JUMPI DUP3 DUP3 EXP SWAP1 POP DUP4 DUP2 GT ISZERO PUSH2 0x269A JUMPI PUSH2 0x2699 PUSH2 0x2574 JUMP JUMPDEST JUMPDEST PUSH2 0x26C9 JUMP JUMPDEST PUSH2 0x26AC DUP5 DUP5 DUP5 PUSH1 0x1 PUSH2 0x25AD JUMP JUMPDEST SWAP3 POP SWAP1 POP DUP2 DUP5 DIV DUP2 GT ISZERO PUSH2 0x26C3 JUMPI PUSH2 0x26C2 PUSH2 0x2574 JUMP JUMPDEST JUMPDEST DUP2 DUP2 MUL SWAP1 POP JUMPDEST SWAP4 SWAP3 POP POP POP JUMP JUMPDEST PUSH0 PUSH2 0x26DA DUP3 PUSH2 0x1F8E JUMP JUMPDEST SWAP2 POP PUSH2 0x26E5 DUP4 PUSH2 0x210E JUMP JUMPDEST SWAP3 POP PUSH2 0x2712 PUSH32 0xFFFFFFFFFFFFFFFFFFFFFFFFFFFFFFFFFFFFFFFFFFFFFFFFFFFFFFFFFFFFFFFF DUP5 DUP5 PUSH2 0x25FF JUMP JUMPDEST SWAP1 POP SWAP3 SWAP2 POP POP JUMP JUMPDEST PUSH0 PUSH2 0x2724 DUP3 PUSH2 0x1F8E JUMP JUMPDEST SWAP2 POP PUSH2 0x272F DUP4 PUSH2 0x1F8E JUMP JUMPDEST SWAP3 POP DUP3 DUP3 MUL PUSH2 0x273D DUP2 PUSH2 0x1F8E JUMP JUMPDEST SWAP2 POP DUP3 DUP3 DIV DUP5 EQ DUP4 ISZERO OR PUSH2 0x2754 JUMPI PUSH2 0x2753 PUSH2 0x2574 JUMP JUMPDEST JUMPDEST POP SWAP3 SWAP2 POP POP JUMP JUMPDEST PUSH32 0x6F6E6C7920696E64757374727920617574686F726974792063616E2075736520 PUSH0 DUP3 ADD MSTORE PUSH32 0x746869732066756E6374696F6E00000000000000000000000000000000000000 PUSH1 0x20 DUP3 ADD MSTORE POP JUMP JUMPDEST PUSH0 PUSH2 0x27B5 PUSH1 0x2D DUP4 PUSH2 0x1EAA JUMP JUMPDEST SWAP2 POP PUSH2 0x27C0 DUP3 PUSH2 0x275B JUMP JUMPDEST PUSH1 0x40 DUP3 ADD SWAP1 POP SWAP2 SWAP1 POP JUMP JUMPDEST PUSH0 PUSH1 0x20 DUP3 ADD SWAP1 POP DUP2 DUP2 SUB PUSH0 DUP4 ADD MSTORE PUSH2 0x27E2 DUP2 PUSH2 0x27A9 JUMP JUMPDEST SWAP1 POP SWAP2 SWAP1 POP JUMP JUMPDEST PUSH32 0x546F6B656E20636F756E74206D7573742062652067726561746572207468616E PUSH0 DUP3 ADD MSTORE PUSH32 0x2030000000000000000000000000000000000000000000000000000000000000 PUSH1 0x20 DUP3 ADD MSTORE POP JUMP JUMPDEST PUSH0 PUSH2 0x2843 PUSH1 0x22 DUP4 PUSH2 0x1EAA JUMP JUMPDEST SWAP2 POP PUSH2 0x284E DUP3 PUSH2 0x27E9 JUMP JUMPDEST PUSH1 0x40 DUP3 ADD SWAP1 POP SWAP2 SWAP1 POP JUMP JUMPDEST PUSH0 PUSH1 0x20 DUP3 ADD SWAP1 POP DUP2 DUP2 SUB PUSH0 DUP4 ADD MSTORE PUSH2 0x2870 DUP2 PUSH2 0x2837 JUMP JUMPDEST SWAP1 POP SWAP2 SWAP1 POP JUMP JUMPDEST PUSH32 0x496E636F727265637420616D6F756E7400000000000000000000000000000000 PUSH0 DUP3 ADD MSTORE POP JUMP JUMPDEST PUSH0 PUSH2 0x28AB PUSH1 0x10 DUP4 PUSH2 0x1EAA JUMP JUMPDEST SWAP2 POP PUSH2 0x28B6 DUP3 PUSH2 0x2877 JUMP JUMPDEST PUSH1 0x20 DUP3 ADD SWAP1 POP SWAP2 SWAP1 POP JUMP JUMPDEST PUSH0 PUSH1 0x20 DUP3 ADD SWAP1 POP DUP2 DUP2 SUB PUSH0 DUP4 ADD MSTORE PUSH2 0x28D8 DUP2 PUSH2 0x289F JUMP JUMPDEST SWAP1 POP SWAP2 SWAP1 POP JUMP JUMPDEST PUSH32 0x416C6C6F77616E63652065786365656465640000000000000000000000000000 PUSH0 DUP3 ADD MSTORE POP JUMP JUMPDEST PUSH0 PUSH2 0x2913 PUSH1 0x12 DUP4 PUSH2 0x1EAA JUMP JUMPDEST SWAP2 POP PUSH2 0x291E DUP3 PUSH2 0x28DF JUMP JUMPDEST PUSH1 0x20 DUP3 ADD SWAP1 POP SWAP2 SWAP1 POP JUMP JUMPDEST PUSH0 PUSH1 0x20 DUP3 ADD SWAP1 POP DUP2 DUP2 SUB PUSH0 DUP4 ADD MSTORE PUSH2 0x2940 DUP2 PUSH2 0x2907 JUMP JUMPDEST SWAP1 POP SWAP2 SWAP1 POP JUMP JUMPDEST PUSH0 PUSH2 0x2951 DUP3 PUSH2 0x1F8E JUMP JUMPDEST SWAP2 POP PUSH2 0x295C DUP4 PUSH2 0x1F8E JUMP JUMPDEST SWAP3 POP DUP3 DUP3 SUB SWAP1 POP DUP2 DUP2 GT ISZERO PUSH2 0x2974 JUMPI PUSH2 0x2973 PUSH2 0x2574 JUMP JUMPDEST JUMPDEST SWAP3 SWAP2 POP POP JUMP JUMPDEST PUSH32 0x4C697374696E67206973206E6F74206163746976650000000000000000000000 PUSH0 DUP3 ADD MSTORE POP JUMP JUMPDEST PUSH0 PUSH2 0x29AE PUSH1 0x15 DUP4 PUSH2 0x1EAA JUMP JUMPDEST SWAP2 POP PUSH2 0x29B9 DUP3 PUSH2 0x297A JUMP JUMPDEST PUSH1 0x20 DUP3 ADD SWAP1 POP SWAP2 SWAP1 POP JUMP JUMPDEST PUSH0 PUSH1 0x20 DUP3 ADD SWAP1 POP DUP2 DUP2 SUB PUSH0 DUP4 ADD MSTORE PUSH2 0x29DB DUP2 PUSH2 0x29A2 JUMP JUMPDEST SWAP1 POP SWAP2 SWAP1 POP JUMP JUMPDEST PUSH32 0x496E636F7272656374207061796D656E7420616D6F756E740000000000000000 PUSH0 DUP3 ADD MSTORE POP JUMP JUMPDEST PUSH0 PUSH2 0x2A16 PUSH1 0x18 DUP4 PUSH2 0x1EAA JUMP JUMPDEST SWAP2 POP PUSH2 0x2A21 DUP3 PUSH2 0x29E2 JUMP JUMPDEST PUSH1 0x20 DUP3 ADD SWAP1 POP SWAP2 SWAP1 POP JUMP JUMPDEST PUSH0 PUSH1 0x20 DUP3 ADD SWAP1 POP DUP2 DUP2 SUB PUSH0 DUP4 ADD MSTORE PUSH2 0x2A43 DUP2 PUSH2 0x2A0A JUMP JUMPDEST SWAP1 POP SWAP2 SWAP1 POP JUMP JUMPDEST PUSH0 PUSH1 0x40 DUP3 ADD SWAP1 POP PUSH2 0x2A5D PUSH0 DUP4 ADD DUP6 PUSH2 0x205D JUMP JUMPDEST PUSH2 0x2A6A PUSH1 0x20 DUP4 ADD DUP5 PUSH2 0x205D JUMP JUMPDEST SWAP4 SWAP3 POP POP POP JUMP JUMPDEST PUSH32 0x416C7265616479207265676973746572656420617320616E20696E6469766964 PUSH0 DUP3 ADD MSTORE PUSH32 0x75616C0000000000000000000000000000000000000000000000000000000000 PUSH1 0x20 DUP3 ADD MSTORE POP JUMP JUMPDEST PUSH0 PUSH2 0x2ACB PUSH1 0x23 DUP4 PUSH2 0x1EAA JUMP JUMPDEST SWAP2 POP PUSH2 0x2AD6 DUP3 PUSH2 0x2A71 JUMP JUMPDEST PUSH1 0x40 DUP3 ADD SWAP1 POP SWAP2 SWAP1 POP JUMP JUMPDEST PUSH0 PUSH1 0x20 DUP3 ADD SWAP1 POP DUP2 DUP2 SUB PUSH0 DUP4 ADD MSTORE PUSH2 0x2AF8 DUP2 PUSH2 0x2ABF JUMP JUMPDEST SWAP1 POP SWAP2 SWAP1 POP JUMP JUMPDEST PUSH32 0x4F6E6C79207265676973746572656420696E646976696475616C207573657273 PUSH0 DUP3 ADD MSTORE PUSH32 0x2063616E2063616C6C20746869732066756E6374696F6E000000000000000000 PUSH1 0x20 DUP3 ADD MSTORE POP JUMP JUMPDEST PUSH0 PUSH2 0x2B59 PUSH1 0x37 DUP4 PUSH2 0x1EAA JUMP JUMPDEST SWAP2 POP PUSH2 0x2B64 DUP3 PUSH2 0x2AFF JUMP JUMPDEST PUSH1 0x40 DUP3 ADD SWAP1 POP SWAP2 SWAP1 POP JUMP JUMPDEST PUSH0 PUSH1 0x20 DUP3 ADD SWAP1 POP DUP2 DUP2 SUB PUSH0 DUP4 ADD MSTORE PUSH2 0x2B86 DUP2 PUSH2 0x2B4D JUMP JUMPDEST SWAP1 POP SWAP2 SWAP1 POP JUMP JUMPDEST PUSH32 0x52657761726420616D6F756E74206D7573742062652067726561746572207468 PUSH0 DUP3 ADD MSTORE PUSH32 0x616E203000000000000000000000000000000000000000000000000000000000 PUSH1 0x20 DUP3 ADD MSTORE POP JUMP JUMPDEST PUSH0 PUSH2 0x2BE7 PUSH1 0x24 DUP4 PUSH2 0x1EAA JUMP JUMPDEST SWAP2 POP PUSH2 0x2BF2 DUP3 PUSH2 0x2B8D JUMP JUMPDEST PUSH1 0x40 DUP3 ADD SWAP1 POP SWAP2 SWAP1 POP JUMP JUMPDEST PUSH0 PUSH1 0x20 DUP3 ADD SWAP1 POP DUP2 DUP2 SUB PUSH0 DUP4 ADD MSTORE PUSH2 0x2C14 DUP2 PUSH2 0x2BDB JUMP JUMPDEST SWAP1 POP SWAP2 SWAP1 POP JUMP JUMPDEST PUSH32 0x746F6B656E20636F756E74206973206E6F7420656E6F75676800000000000000 PUSH0 DUP3 ADD MSTORE POP JUMP JUMPDEST PUSH0 PUSH2 0x2C4F PUSH1 0x19 DUP4 PUSH2 0x1EAA JUMP JUMPDEST SWAP2 POP PUSH2 0x2C5A DUP3 PUSH2 0x2C1B JUMP JUMPDEST PUSH1 0x20 DUP3 ADD SWAP1 POP SWAP2 SWAP1 POP JUMP JUMPDEST PUSH0 PUSH1 0x20 DUP3 ADD SWAP1 POP DUP2 DUP2 SUB PUSH0 DUP4 ADD MSTORE PUSH2 0x2C7C DUP2 PUSH2 0x2C43 JUMP JUMPDEST SWAP1 POP SWAP2 SWAP1 POP JUMP JUMPDEST PUSH32 0x496E73756666696369656E742062616C616E6365000000000000000000000000 PUSH0 DUP3 ADD MSTORE POP JUMP JUMPDEST PUSH0 PUSH2 0x2CB7 PUSH1 0x14 DUP4 PUSH2 0x1EAA JUMP JUMPDEST SWAP2 POP PUSH2 0x2CC2 DUP3 PUSH2 0x2C83 JUMP JUMPDEST PUSH1 0x20 DUP3 ADD SWAP1 POP SWAP2 SWAP1 POP JUMP JUMPDEST PUSH0 PUSH1 0x20 DUP3 ADD SWAP1 POP DUP2 DUP2 SUB PUSH0 DUP4 ADD MSTORE PUSH2 0x2CE4 DUP2 PUSH2 0x2CAB JUMP JUMPDEST SWAP1 POP SWAP2 SWAP1 POP JUMP JUMPDEST PUSH32 0x496E76616C696420616D6F756E74206F72207072696365000000000000000000 PUSH0 DUP3 ADD MSTORE POP JUMP JUMPDEST PUSH0 PUSH2 0x2D1F PUSH1 0x17 DUP4 PUSH2 0x1EAA JUMP JUMPDEST SWAP2 POP PUSH2 0x2D2A DUP3 PUSH2 0x2CEB JUMP JUMPDEST PUSH1 0x20 DUP3 ADD SWAP1 POP SWAP2 SWAP1 POP JUMP JUMPDEST PUSH0 PUSH1 0x20 DUP3 ADD SWAP1 POP DUP2 DUP2 SUB PUSH0 DUP4 ADD MSTORE PUSH2 0x2D4C DUP2 PUSH2 0x2D13 JUMP JUMPDEST SWAP1 POP SWAP2 SWAP1 POP JUMP JUMPDEST PUSH0 PUSH2 0x2D5D DUP3 PUSH2 0x1F8E JUMP JUMPDEST SWAP2 POP PUSH32 0xFFFFFFFFFFFFFFFFFFFFFFFFFFFFFFFFFFFFFFFFFFFFFFFFFFFFFFFFFFFFFFFF DUP3 SUB PUSH2 0x2D8F JUMPI PUSH2 0x2D8E PUSH2 0x2574 JUMP JUMPDEST JUMPDEST PUSH1 0x1 DUP3 ADD SWAP1 POP SWAP2 SWAP1 POP JUMP JUMPDEST PUSH0 PUSH1 0x60 DUP3 ADD SWAP1 POP PUSH2 0x2DAD PUSH0 DUP4 ADD DUP7 PUSH2 0x2275 JUMP JUMPDEST PUSH2 0x2DBA PUSH1 0x20 DUP4 ADD DUP6 PUSH2 0x205D JUMP JUMPDEST PUSH2 0x2DC7 PUSH1 0x40 DUP4 ADD DUP5 PUSH2 0x205D JUMP JUMPDEST SWAP5 SWAP4 POP POP POP POP JUMP JUMPDEST PUSH0 PUSH1 0x20 DUP3 ADD SWAP1 POP PUSH2 0x2DE2 PUSH0 DUP4 ADD DUP5 PUSH2 0x2275 JUMP JUMPDEST SWAP3 SWAP2 POP POP JUMP JUMPDEST PUSH0 PUSH2 0x2DF2 DUP3 PUSH2 0x1F8E JUMP JUMPDEST SWAP2 POP PUSH2 0x2DFD DUP4 PUSH2 0x1F8E JUMP JUMPDEST SWAP3 POP DUP3 DUP3 ADD SWAP1 POP DUP1 DUP3 GT ISZERO PUSH2 0x2E15 JUMPI PUSH2 0x2E14 PUSH2 0x2574 JUMP JUMPDEST JUMPDEST SWAP3 SWAP2 POP POP JUMP INVALID LOG2 PUSH5 0x6970667358 0x22 SLT KECCAK256 0xAE 0xD 0x1E 0xAE RETURNDATASIZE DUP5 OR 0xB0 PUSH30 0x1A583DE42FA6176431363761A3FE5588D3D3787A2BCB4964736F6C634300 ADDMOD BYTE STOP CALLER "
		},
		"gasEstimates": {
			"creation": {
				"codeDepositCost": "2371400",
				"executionCost": "infinite",
				"totalCost": "infinite"
			},
			"external": {
				"GovernmentAccounts(address)": "2921",
				"EcoZapPlatformOwner()": "2642",
				"IndividualAccounts(address)": "2901",
				"IndustryAccounts(address)": "2901",
				"IndustryAllowance(address)": "2847",
				"allowance(address,address)": "infinite",
				"approve(address,uint256)": "infinite",
				"balanceOf(address)": "2940",
				"burnToken(address,uint256)": "infinite",
				"buyToken(address,uint256,address)": "infinite",
				"buyTokensFromMarketpalce(uint256)": "infinite",
				"collectReward(uint256)": "infinite",
				"decimals()": "384",
				"grantGovernmentPrivilege(address)": "infinite",
				"grantIndustryPrivilege(address)": "24848",
				"initialAllowance(address,uint256,uint256)": "infinite",
				"listTokensForSale(uint256,uint256)": "infinite",
				"listingCount()": "2492",
				"listings(uint256)": "infinite",
				"name()": "infinite",
				"registerIndividual()": "26827",
				"setTokenPrice(uint256)": "24861",
				"symbol()": "infinite",
				"tokenPrice()": "2471",
				"totalSupply()": "2522",
				"transfer(address,uint256)": "infinite",
				"transferFrom(address,address,uint256)": "infinite"
			}
		},
		"methodIdentifiers": {
			"GovernmentAccounts(address)": "f13e8331",
			"EcoZapPlatformOwner()": "2ea665cd",
			"IndividualAccounts(address)": "4fac0168",
			"IndustryAccounts(address)": "0a8c8f20",
			"IndustryAllowance(address)": "cb8c0c1d",
			"allowance(address,address)": "dd62ed3e",
			"approve(address,uint256)": "095ea7b3",
			"balanceOf(address)": "70a08231",
			"burnToken(address,uint256)": "d1df306c",
			"buyToken(address,uint256,address)": "692bf4a8",
			"buyTokensFromMarketpalce(uint256)": "9a83dc3d",
			"collectReward(uint256)": "bd3507da",
			"decimals()": "313ce567",
			"grantGovernmentPrivilege(address)": "d22b2ed0",
			"grantIndustryPrivilege(address)": "5fe01930",
			"initialAllowance(address,uint256,uint256)": "51e73a16",
			"listTokensForSale(uint256,uint256)": "fbd9be8b",
			"listingCount()": "a9b07c26",
			"listings(uint256)": "de74e57b",
			"name()": "06fdde03",
			"registerIndividual()": "b6267ae8",
			"setTokenPrice(uint256)": "6a61e5fc",
			"symbol()": "95d89b41",
			"tokenPrice()": "7ff9b596",
			"totalSupply()": "18160ddd",
			"transfer(address,uint256)": "a9059cbb",
			"transferFrom(address,address,uint256)": "23b872dd"
		}
	},
	"abi": [
		{
			"inputs": [
				{
					"internalType": "uint256",
					"name": "initTokenPrice",
					"type": "uint256"
				}
			],
			"stateMutability": "nonpayable",
			"type": "constructor"
		},
		{
			"inputs": [
				{
					"internalType": "address",
					"name": "spender",
					"type": "address"
				},
				{
					"internalType": "uint256",
					"name": "allowance",
					"type": "uint256"
				},
				{
					"internalType": "uint256",
					"name": "needed",
					"type": "uint256"
				}
			],
			"name": "ERC20InsufficientAllowance",
			"type": "error"
		},
		{
			"inputs": [
				{
					"internalType": "address",
					"name": "sender",
					"type": "address"
				},
				{
					"internalType": "uint256",
					"name": "balance",
					"type": "uint256"
				},
				{
					"internalType": "uint256",
					"name": "needed",
					"type": "uint256"
				}
			],
			"name": "ERC20InsufficientBalance",
			"type": "error"
		},
		{
			"inputs": [
				{
					"internalType": "address",
					"name": "approver",
					"type": "address"
				}
			],
			"name": "ERC20InvalidApprover",
			"type": "error"
		},
		{
			"inputs": [
				{
					"internalType": "address",
					"name": "receiver",
					"type": "address"
				}
			],
			"name": "ERC20InvalidReceiver",
			"type": "error"
		},
		{
			"inputs": [
				{
					"internalType": "address",
					"name": "sender",
					"type": "address"
				}
			],
			"name": "ERC20InvalidSender",
			"type": "error"
		},
		{
			"inputs": [
				{
					"internalType": "address",
					"name": "spender",
					"type": "address"
				}
			],
			"name": "ERC20InvalidSpender",
			"type": "error"
		},
		{
			"anonymous": false,
			"inputs": [
				{
					"indexed": true,
					"internalType": "address",
					"name": "owner",
					"type": "address"
				},
				{
					"indexed": true,
					"internalType": "address",
					"name": "spender",
					"type": "address"
				},
				{
					"indexed": false,
					"internalType": "uint256",
					"name": "value",
					"type": "uint256"
				}
			],
			"name": "Approval",
			"type": "event"
		},
		{
			"anonymous": false,
			"inputs": [
				{
					"indexed": true,
					"internalType": "address",
					"name": "seller",
					"type": "address"
				},
				{
					"indexed": false,
					"internalType": "uint256",
					"name": "tokenAmount",
					"type": "uint256"
				},
				{
					"indexed": false,
					"internalType": "uint256",
					"name": "price",
					"type": "uint256"
				}
			],
			"name": "TokensListed",
			"type": "event"
		},
		{
			"anonymous": false,
			"inputs": [
				{
					"indexed": true,
					"internalType": "address",
					"name": "buyer",
					"type": "address"
				},
				{
					"indexed": true,
					"internalType": "address",
					"name": "seller",
					"type": "address"
				},
				{
					"indexed": false,
					"internalType": "uint256",
					"name": "tokenAmount",
					"type": "uint256"
				},
				{
					"indexed": false,
					"internalType": "uint256",
					"name": "price",
					"type": "uint256"
				}
			],
			"name": "TokensPurchasedFromMarketplace",
			"type": "event"
		},
		{
			"anonymous": false,
			"inputs": [
				{
					"indexed": true,
					"internalType": "address",
					"name": "from",
					"type": "address"
				},
				{
					"indexed": true,
					"internalType": "address",
					"name": "to",
					"type": "address"
				},
				{
					"indexed": false,
					"internalType": "uint256",
					"name": "value",
					"type": "uint256"
				}
			],
			"name": "Transfer",
			"type": "event"
		},
		{
			"anonymous": false,
			"inputs": [
				{
					"indexed": true,
					"internalType": "address",
					"name": "_industryId",
					"type": "address"
				},
				{
					"indexed": true,
					"internalType": "address",
					"name": "_govId",
					"type": "address"
				},
				{
					"indexed": true,
					"internalType": "uint256",
					"name": "_tokenCount",
					"type": "uint256"
				},
				{
					"indexed": false,
					"internalType": "uint256",
					"name": "_taxFee",
					"type": "uint256"
				}
			],
			"name": "tokenPurchased",
			"type": "event"
		},
		{
			"inputs": [
				{
					"internalType": "address",
					"name": "",
					"type": "address"
				}
			],
			"name": "GovernmentAccounts",
			"outputs": [
				{
					"internalType": "bool",
					"name": "",
					"type": "bool"
				}
			],
			"stateMutability": "view",
			"type": "function"
		},
		{
			"inputs": [],
			"name": "EcoZapPlatformOwner",
			"outputs": [
				{
					"internalType": "address payable",
					"name": "",
					"type": "address"
				}
			],
			"stateMutability": "view",
			"type": "function"
		},
		{
			"inputs": [
				{
					"internalType": "address",
					"name": "",
					"type": "address"
				}
			],
			"name": "IndividualAccounts",
			"outputs": [
				{
					"internalType": "bool",
					"name": "",
					"type": "bool"
				}
			],
			"stateMutability": "view",
			"type": "function"
		},
		{
			"inputs": [
				{
					"internalType": "address",
					"name": "",
					"type": "address"
				}
			],
			"name": "IndustryAccounts",
			"outputs": [
				{
					"internalType": "bool",
					"name": "",
					"type": "bool"
				}
			],
			"stateMutability": "view",
			"type": "function"
		},
		{
			"inputs": [
				{
					"internalType": "address",
					"name": "",
					"type": "address"
				}
			],
			"name": "IndustryAllowance",
			"outputs": [
				{
					"internalType": "uint256",
					"name": "",
					"type": "uint256"
				}
			],
			"stateMutability": "view",
			"type": "function"
		},
		{
			"inputs": [
				{
					"internalType": "address",
					"name": "owner",
					"type": "address"
				},
				{
					"internalType": "address",
					"name": "spender",
					"type": "address"
				}
			],
			"name": "allowance",
			"outputs": [
				{
					"internalType": "uint256",
					"name": "",
					"type": "uint256"
				}
			],
			"stateMutability": "view",
			"type": "function"
		},
		{
			"inputs": [
				{
					"internalType": "address",
					"name": "spender",
					"type": "address"
				},
				{
					"internalType": "uint256",
					"name": "value",
					"type": "uint256"
				}
			],
			"name": "approve",
			"outputs": [
				{
					"internalType": "bool",
					"name": "",
					"type": "bool"
				}
			],
			"stateMutability": "nonpayable",
			"type": "function"
		},
		{
			"inputs": [
				{
					"internalType": "address",
					"name": "account",
					"type": "address"
				}
			],
			"name": "balanceOf",
			"outputs": [
				{
					"internalType": "uint256",
					"name": "",
					"type": "uint256"
				}
			],
			"stateMutability": "view",
			"type": "function"
		},
		{
			"inputs": [
				{
					"internalType": "address",
					"name": "_address",
					"type": "address"
				},
				{
					"internalType": "uint256",
					"name": "_tokenCount",
					"type": "uint256"
				}
			],
			"name": "burnToken",
			"outputs": [],
			"stateMutability": "nonpayable",
			"type": "function"
		},
		{
			"inputs": [
				{
					"internalType": "address",
					"name": "_to",
					"type": "address"
				},
				{
					"internalType": "uint256",
					"name": "_tokenCount",
					"type": "uint256"
				},
				{
					"internalType": "address payable",
					"name": "_govAddress",
					"type": "address"
				}
			],
			"name": "buyToken",
			"outputs": [],
			"stateMutability": "payable",
			"type": "function"
		},
		{
			"inputs": [
				{
					"internalType": "uint256",
					"name": "_listingId",
					"type": "uint256"
				}
			],
			"name": "buyTokensFromMarketpalce",
			"outputs": [],
			"stateMutability": "payable",
			"type": "function"
		},
		{
			"inputs": [
				{
					"internalType": "uint256",
					"name": "rewardAmount",
					"type": "uint256"
				}
			],
			"name": "collectReward",
			"outputs": [],
			"stateMutability": "nonpayable",
			"type": "function"
		},
		{
			"inputs": [],
			"name": "decimals",
			"outputs": [
				{
					"internalType": "uint8",
					"name": "",
					"type": "uint8"
				}
			],
			"stateMutability": "view",
			"type": "function"
		},
		{
			"inputs": [
				{
					"internalType": "address",
					"name": "_account",
					"type": "address"
				}
			],
			"name": "grantGovernmentPrivilege",
			"outputs": [],
			"stateMutability": "nonpayable",
			"type": "function"
		},
		{
			"inputs": [
				{
					"internalType": "address",
					"name": "_account",
					"type": "address"
				}
			],
			"name": "grantIndustryPrivilege",
			"outputs": [],
			"stateMutability": "nonpayable",
			"type": "function"
		},
		{
			"inputs": [
				{
					"internalType": "address",
					"name": "_industry",
					"type": "address"
				},
				{
					"internalType": "uint256",
					"name": "_maxAllowance",
					"type": "uint256"
				},
				{
					"internalType": "uint256",
					"name": "_tokenCount",
					"type": "uint256"
				}
			],
			"name": "initialAllowance",
			"outputs": [],
			"stateMutability": "nonpayable",
			"type": "function"
		},
		{
			"inputs": [
				{
					"internalType": "uint256",
					"name": "_tokenCount",
					"type": "uint256"
				},
				{
					"internalType": "uint256",
					"name": "_price",
					"type": "uint256"
				}
			],
			"name": "listTokensForSale",
			"outputs": [],
			"stateMutability": "nonpayable",
			"type": "function"
		},
		{
			"inputs": [],
			"name": "listingCount",
			"outputs": [
				{
					"internalType": "uint256",
					"name": "",
					"type": "uint256"
				}
			],
			"stateMutability": "view",
			"type": "function"
		},
		{
			"inputs": [
				{
					"internalType": "uint256",
					"name": "",
					"type": "uint256"
				}
			],
			"name": "listings",
			"outputs": [
				{
					"internalType": "address",
					"name": "seller",
					"type": "address"
				},
				{
					"internalType": "uint256",
					"name": "tokenAmount",
					"type": "uint256"
				},
				{
					"internalType": "uint256",
					"name": "price",
					"type": "uint256"
				},
				{
					"internalType": "bool",
					"name": "isActive",
					"type": "bool"
				}
			],
			"stateMutability": "view",
			"type": "function"
		},
		{
			"inputs": [],
			"name": "name",
			"outputs": [
				{
					"internalType": "string",
					"name": "",
					"type": "string"
				}
			],
			"stateMutability": "view",
			"type": "function"
		},
		{
			"inputs": [],
			"name": "registerIndividual",
			"outputs": [],
			"stateMutability": "nonpayable",
			"type": "function"
		},
		{
			"inputs": [
				{
					"internalType": "uint256",
					"name": "newPrice",
					"type": "uint256"
				}
			],
			"name": "setTokenPrice",
			"outputs": [],
			"stateMutability": "nonpayable",
			"type": "function"
		},
		{
			"inputs": [],
			"name": "symbol",
			"outputs": [
				{
					"internalType": "string",
					"name": "",
					"type": "string"
				}
			],
			"stateMutability": "view",
			"type": "function"
		},
		{
			"inputs": [],
			"name": "tokenPrice",
			"outputs": [
				{
					"internalType": "uint256",
					"name": "",
					"type": "uint256"
				}
			],
			"stateMutability": "view",
			"type": "function"
		},
		{
			"inputs": [],
			"name": "totalSupply",
			"outputs": [
				{
					"internalType": "uint256",
					"name": "",
					"type": "uint256"
				}
			],
			"stateMutability": "view",
			"type": "function"
		},
		{
			"inputs": [
				{
					"internalType": "address",
					"name": "to",
					"type": "address"
				},
				{
					"internalType": "uint256",
					"name": "value",
					"type": "uint256"
				}
			],
			"name": "transfer",
			"outputs": [
				{
					"internalType": "bool",
					"name": "",
					"type": "bool"
				}
			],
			"stateMutability": "nonpayable",
			"type": "function"
		},
		{
			"inputs": [
				{
					"internalType": "address",
					"name": "from",
					"type": "address"
				},
				{
					"internalType": "address",
					"name": "to",
					"type": "address"
				},
				{
					"internalType": "uint256",
					"name": "value",
					"type": "uint256"
				}
			],
			"name": "transferFrom",
			"outputs": [
				{
					"internalType": "bool",
					"name": "",
					"type": "bool"
				}
			],
			"stateMutability": "nonpayable",
			"type": "function"
		}
	]
}